{
	"data": {
		"bytecode": {
			"linkReferences": {},
			"object": "60e060405234801562000010575f80fd5b506040516200602f3803806200602f83398181016040528101906200003691906200054a565b8333805f836200004c81620001de60201b60201c565b505f73ffffffffffffffffffffffffffffffffffffffff168273ffffffffffffffffffffffffffffffffffffffff1603620000be576040517f08c379a0000000000000000000000000000000000000000000000000000000008152600401620000b59062000636565b60405180910390fd5b8160055f6101000a81548173ffffffffffffffffffffffffffffffffffffffff021916908373ffffffffffffffffffffffffffffffffffffffff1602179055505f73ffffffffffffffffffffffffffffffffffffffff168173ffffffffffffffffffffffffffffffffffffffff161462000144576200014381620001f360201b60201c565b5b5050505060016009819055508273ffffffffffffffffffffffffffffffffffffffff1660808173ffffffffffffffffffffffffffffffffffffffff16815250508173ffffffffffffffffffffffffffffffffffffffff1660a08173ffffffffffffffffffffffffffffffffffffffff16815250508067ffffffffffffffff1660c08167ffffffffffffffff168152505050505050620009df565b8060029081620001ef91906200088d565b5050565b3373ffffffffffffffffffffffffffffffffffffffff168173ffffffffffffffffffffffffffffffffffffffff160362000264576040517f08c379a00000000000000000000000000000000000000000000000000000000081526004016200025b90620009bf565b60405180910390fd5b8060065f6101000a81548173ffffffffffffffffffffffffffffffffffffffff021916908373ffffffffffffffffffffffffffffffffffffffff1602179055508073ffffffffffffffffffffffffffffffffffffffff1660055f9054906101000a900473ffffffffffffffffffffffffffffffffffffffff1673ffffffffffffffffffffffffffffffffffffffff167fed8889f560326eb138920d842192f0eb3dd22b4f139c87a2c57538e05bae127860405160405180910390a350565b5f604051905090565b5f80fd5b5f80fd5b5f80fd5b5f80fd5b5f601f19601f8301169050919050565b7f4e487b71000000000000000000000000000000000000000000000000000000005f52604160045260245ffd5b62000383826200033b565b810181811067ffffffffffffffff82111715620003a557620003a46200034b565b5b80604052505050565b5f620003b962000322565b9050620003c7828262000378565b919050565b5f67ffffffffffffffff821115620003e957620003e86200034b565b5b620003f4826200033b565b9050602081019050919050565b5f5b838110156200042057808201518184015260208101905062000403565b5f8484015250505050565b5f620004416200043b84620003cc565b620003ae565b90508281526020810184848401111562000460576200045f62000337565b5b6200046d84828562000401565b509392505050565b5f82601f8301126200048c576200048b62000333565b5b81516200049e8482602086016200042b565b91505092915050565b5f73ffffffffffffffffffffffffffffffffffffffff82169050919050565b5f620004d282620004a7565b9050919050565b620004e481620004c6565b8114620004ef575f80fd5b50565b5f815190506200050281620004d9565b92915050565b5f67ffffffffffffffff82169050919050565b620005268162000508565b811462000531575f80fd5b50565b5f8151905062000544816200051b565b92915050565b5f805f80608085870312156200056557620005646200032b565b5b5f85015167ffffffffffffffff8111156200058557620005846200032f565b5b620005938782880162000475565b9450506020620005a687828801620004f2565b9350506040620005b987828801620004f2565b9250506060620005cc8782880162000534565b91505092959194509250565b5f82825260208201905092915050565b7f43616e6e6f7420736574206f776e657220746f207a65726f00000000000000005f82015250565b5f6200061e601883620005d8565b91506200062b82620005e8565b602082019050919050565b5f6020820190508181035f8301526200064f8162000610565b9050919050565b5f81519050919050565b7f4e487b71000000000000000000000000000000000000000000000000000000005f52602260045260245ffd5b5f6002820490506001821680620006a557607f821691505b602082108103620006bb57620006ba62000660565b5b50919050565b5f819050815f5260205f209050919050565b5f6020601f8301049050919050565b5f82821b905092915050565b5f600883026200071f7fffffffffffffffffffffffffffffffffffffffffffffffffffffffffffffffff82620006e2565b6200072b8683620006e2565b95508019841693508086168417925050509392505050565b5f819050919050565b5f819050919050565b5f620007756200076f620007698462000743565b6200074c565b62000743565b9050919050565b5f819050919050565b620007908362000755565b620007a86200079f826200077c565b848454620006ee565b825550505050565b5f90565b620007be620007b0565b620007cb81848462000785565b505050565b5b81811015620007f257620007e65f82620007b4565b600181019050620007d1565b5050565b601f82111562000841576200080b81620006c1565b6200081684620006d3565b8101602085101562000826578190505b6200083e6200083585620006d3565b830182620007d0565b50505b505050565b5f82821c905092915050565b5f620008635f198460080262000846565b1980831691505092915050565b5f6200087d838362000852565b9150826002028217905092915050565b620008988262000656565b67ffffffffffffffff811115620008b457620008b36200034b565b5b620008c082546200068d565b620008cd828285620007f6565b5f60209050601f83116001811462000903575f8415620008ee578287015190505b620008fa858262000870565b86555062000969565b601f1984166200091386620006c1565b5f5b828110156200093c5784890151825560018201915060208501945060208101905062000915565b868310156200095c578489015162000958601f89168262000852565b8355505b6001600288020188555050505b505050505050565b7f43616e6e6f74207472616e7366657220746f2073656c660000000000000000005f82015250565b5f620009a7601783620005d8565b9150620009b48262000971565b602082019050919050565b5f6020820190508181035f830152620009d88162000999565b9050919050565b60805160a05160c0516155df62000a505f395f81816105e701528181610fb3015281816111a30152611bdf01525f8181610a1a01528181610bd301528181610c720152610d4801525f8181610b0c01528181610d8401528181610e0401528181610eed015261191f01526155df5ff3fe608060405234801561000f575f80fd5b506004361061018b575f3560e01c80635dc5ebdb116100dc578063b942f8cb11610095578063e985e9c51161006f578063e985e9c51461048a578063f242432a146104ba578063f2fde38b146104d6578063f5298aca146104f25761018b565b8063b942f8cb14610422578063bd85b0391461043e578063c1341c4f1461046e5761018b565b80635dc5ebdb146103755780636b20c454146103a657806379ba5097146103c257806385572ffb146103cc5780638da5cb5b146103e8578063a22cb465146104065761018b565b80632eb2c2d6116101495780634e1273f4116101235780634e1273f4146102dd5780634f558e791461030d57806351cff8d91461033d57806355cc4e57146103595761018b565b80632eb2c2d6146102895780633aeac4e1146102a557806341eade46146102c15761018b565b8062fdd58e1461018f57806301ffc9a7146101bf5780630ce639c4146101ef5780630e89341c1461020b57806318160ddd1461023b578063240b3b4914610259575b5f80fd5b6101a960048036038101906101a4919061389c565b61050e565b6040516101b691906138e9565b60405180910390f35b6101d960048036038101906101d49190613957565b610563565b6040516101e6919061399c565b60405180910390f35b61020960048036038101906102049190613b2e565b6105dc565b005b61022560048036038101906102209190613b9a565b61074b565b6040516102329190613c3f565b60405180910390f35b610243610808565b60405161025091906138e9565b60405180910390f35b610273600480360381019061026e9190613c82565b610811565b6040516102809190613d53565b60405180910390f35b6102a3600480360381019061029e9190613e30565b611005565b005b6102bf60048036038101906102ba9190613efb565b6110ac565b005b6102db60048036038101906102d69190613f39565b611198565b005b6102f760048036038101906102f29190614024565b6112b0565b6040516103049190614151565b60405180910390f35b61032760048036038101906103229190613b9a565b6113b7565b604051610334919061399c565b60405180910390f35b61035760048036038101906103529190614171565b6113ca565b005b610373600480360381019061036e9190614171565b6114c2565b005b61038f600480360381019061038a9190613f39565b611550565b60405161039d9291906141fd565b60405180910390f35b6103c060048036038101906103bb919061422b565b611615565b005b6103ca61178c565b005b6103e660048036038101906103e191906142d5565b61191d565b005b6103f0611c2e565b6040516103fd919061431c565b60405180910390f35b610420600480360381019061041b919061435f565b611c56565b005b61043c60048036038101906104379190614519565b611c6c565b005b61045860048036038101906104539190613b9a565b611db4565b60405161046591906138e9565b60405180910390f35b61048860048036038101906104839190614600565b611dce565b005b6104a4600480360381019061049f9190613efb565b611ecb565b6040516104b1919061399c565b60405180910390f35b6104d460048036038101906104cf91906146af565b611f59565b005b6104f060048036038101906104eb9190614171565b612000565b005b61050c60048036038101906105079190614742565b612014565b005b5f805f8381526020019081526020015f205f8473ffffffffffffffffffffffffffffffffffffffff1673ffffffffffffffffffffffffffffffffffffffff1681526020019081526020015f2054905092915050565b5f7f85572ffb000000000000000000000000000000000000000000000000000000007bffffffffffffffffffffffffffffffffffffffffffffffffffffffff1916827bffffffffffffffffffffffffffffffffffffffffffffffffffffffff191614806105d557506105d48261218b565b5b9050919050565b6105e461226c565b827f000000000000000000000000000000000000000000000000000000000000000067ffffffffffffffff168167ffffffffffffffff160361065d57806040517f40d8e3a100000000000000000000000000000000000000000000000000000000815260040161065491906147a1565b60405180910390fd5b60405180604001604052808473ffffffffffffffffffffffffffffffffffffffff16815260200183815250600a5f8667ffffffffffffffff1667ffffffffffffffff1681526020019081526020015f205f820151815f015f6101000a81548173ffffffffffffffffffffffffffffffffffffffff021916908373ffffffffffffffffffffffffffffffffffffffff160217905550602082015181600101908161070691906149b4565b509050507f59cc0b49d3359ac35e3872e99199469b6a1025c9a945cd9b6a411bffe337272d84848460405161073d93929190614a83565b60405180910390a150505050565b60605f60085f8481526020019081526020015f20805461076a906147e7565b80601f0160208091040260200160405190810160405280929190818152602001828054610796906147e7565b80156107e15780601f106107b8576101008083540402835291602001916107e1565b820191905f5260205f20905b8154815290600101906020018083116107c457829003601f168201915b505050505090505f8151116107fe576107f9836122fd565b610800565b805b915050919050565b5f600454905090565b5f61081a61238f565b825f73ffffffffffffffffffffffffffffffffffffffff16600a5f8367ffffffffffffffff1667ffffffffffffffff1681526020019081526020015f205f015f9054906101000a900473ffffffffffffffffffffffffffffffffffffffff1673ffffffffffffffffffffffffffffffffffffffff16036108d157806040517f1c33fbee0000000000000000000000000000000000000000000000000000000081526004016108c891906147a1565b60405180910390fd5b5f6108db8861074b565b90506108e88a8989612014565b5f6040518060a00160405280600a5f8967ffffffffffffffff1667ffffffffffffffff1681526020019081526020015f205f015f9054906101000a900473ffffffffffffffffffffffffffffffffffffffff1660405160200161094b919061431c565b60405160208183030381529060405281526020018c8c8c8c8c8860405160200161097a96959493929190614abf565b60405160208183030381529060405281526020015f67ffffffffffffffff8111156109a8576109a7613a0a565b5b6040519080825280602002602001820160405280156109e157816020015b6109ce613778565b8152602001906001900390816109c65790505b5081526020016001808111156109fa576109f9614b2c565b5b876001811115610a0d57610a0c614b2c565b5b14610a18575f610a3a565b7f00000000000000000000000000000000000000000000000000000000000000005b73ffffffffffffffffffffffffffffffffffffffff168152602001600a5f8967ffffffffffffffff1667ffffffffffffffff1681526020019081526020015f206001018054610a88906147e7565b80601f0160208091040260200160405190810160405280929190818152602001828054610ab4906147e7565b8015610aff5780601f10610ad657610100808354040283529160200191610aff565b820191905f5260205f20905b815481529060010190602001808311610ae257829003601f168201915b505050505081525090505f7f000000000000000000000000000000000000000000000000000000000000000073ffffffffffffffffffffffffffffffffffffffff166320487ded88846040518363ffffffff1660e01b8152600401610b65929190614d0d565b602060405180830381865afa158015610b80573d5f803e3d5ffd5b505050506040513d601f19601f82011682018060405250810190610ba49190614d4f565b9050600180811115610bb957610bb8614b2c565b5b866001811115610bcc57610bcb614b2c565b5b03610ea4577f000000000000000000000000000000000000000000000000000000000000000073ffffffffffffffffffffffffffffffffffffffff166370a08231306040518263ffffffff1660e01b8152600401610c2a919061431c565b602060405180830381865afa158015610c45573d5f803e3d5ffd5b505050506040513d601f19601f82011682018060405250810190610c699190614d4f565b811115610d46577f000000000000000000000000000000000000000000000000000000000000000073ffffffffffffffffffffffffffffffffffffffff166370a08231306040518263ffffffff1660e01b8152600401610cc9919061431c565b602060405180830381865afa158015610ce4573d5f803e3d5ffd5b505050506040513d601f19601f82011682018060405250810190610d089190614d4f565b816040517f28fdcaa1000000000000000000000000000000000000000000000000000000008152600401610d3d929190614d7a565b60405180910390fd5b7f000000000000000000000000000000000000000000000000000000000000000073ffffffffffffffffffffffffffffffffffffffff1663095ea7b37f0000000000000000000000000000000000000000000000000000000000000000836040518363ffffffff1660e01b8152600401610dc1929190614da1565b6020604051808303815f875af1158015610ddd573d5f803e3d5ffd5b505050506040513d601f19601f82011682018060405250810190610e019190614ddc565b507f000000000000000000000000000000000000000000000000000000000000000073ffffffffffffffffffffffffffffffffffffffff166396f4e9f988846040518363ffffffff1660e01b8152600401610e5d929190614d0d565b6020604051808303815f875af1158015610e79573d5f803e3d5ffd5b505050506040513d601f19601f82011682018060405250810190610e9d9190614e31565b9450610f8b565b47811115610eeb5747816040517f28fdcaa1000000000000000000000000000000000000000000000000000000008152600401610ee2929190614d7a565b60405180910390fd5b7f000000000000000000000000000000000000000000000000000000000000000073ffffffffffffffffffffffffffffffffffffffff166396f4e9f98289856040518463ffffffff1660e01b8152600401610f47929190614d0d565b60206040518083038185885af1158015610f63573d5f803e3d5ffd5b50505050506040513d601f19601f82011682018060405250810190610f889190614e31565b94505b7f300e6c20d2e9d8db9b2df40ebce943d9dae3fa3a8eaec841a3d1cb9a1e8b6ad78c8c8c8c8c7f00000000000000000000000000000000000000000000000000000000000000008d604051610fe69796959493929190614e5c565b60405180910390a150505050610ffa6123d5565b979650505050505050565b5f61100e6123df565b90508073ffffffffffffffffffffffffffffffffffffffff168673ffffffffffffffffffffffffffffffffffffffff161415801561105357506110518682611ecb565b155b156110975780866040517fe237d92200000000000000000000000000000000000000000000000000000000815260040161108e929190614ed0565b60405180910390fd5b6110a486868686866123e6565b505050505050565b6110b461226c565b5f8173ffffffffffffffffffffffffffffffffffffffff166370a08231306040518263ffffffff1660e01b81526004016110ee919061431c565b602060405180830381865afa158015611109573d5f803e3d5ffd5b505050506040513d601f19601f8201168201806040525081019061112d9190614d4f565b90505f8103611168576040517fd0d04f6000000000000000000000000000000000000000000000000000000000815260040160405180910390fd5b61119383828473ffffffffffffffffffffffffffffffffffffffff166124da9092919063ffffffff16565b505050565b6111a061226c565b807f000000000000000000000000000000000000000000000000000000000000000067ffffffffffffffff168167ffffffffffffffff160361121957806040517f40d8e3a100000000000000000000000000000000000000000000000000000000815260040161121091906147a1565b60405180910390fd5b600a5f8367ffffffffffffffff1667ffffffffffffffff1681526020019081526020015f205f8082015f6101000a81549073ffffffffffffffffffffffffffffffffffffffff0219169055600182015f61127391906137a6565b50507f67e02000179a6045f4db8fb1b09f01e170b0347e0b698fc5112ce4d798ef19f6826040516112a491906147a1565b60405180910390a15050565b606081518351146112fc57815183516040517f5b0599910000000000000000000000000000000000000000000000000000000081526004016112f3929190614d7a565b60405180910390fd5b5f835167ffffffffffffffff81111561131857611317613a0a565b5b6040519080825280602002602001820160405280156113465781602001602082028036833780820191505090505b5090505f5b84518110156113ac5761138261136a828761255990919063ffffffff16565b61137d838761256c90919063ffffffff16565b61050e565b82828151811061139557611394614ef7565b5b60200260200101818152505080600101905061134b565b508091505092915050565b5f806113c283611db4565b119050919050565b6113d261226c565b5f4790505f810361140f576040517fd0d04f6000000000000000000000000000000000000000000000000000000000815260040160405180910390fd5b5f8273ffffffffffffffffffffffffffffffffffffffff168260405161143490614f51565b5f6040518083038185875af1925050503d805f811461146e576040519150601f19603f3d011682016040523d82523d5f602084013e611473565b606091505b50509050806114bd573383836040517f9d11f5630000000000000000000000000000000000000000000000000000000081526004016114b493929190614f65565b60405180910390fd5b505050565b6114ca61226c565b8060075f6101000a81548173ffffffffffffffffffffffffffffffffffffffff021916908373ffffffffffffffffffffffffffffffffffffffff1602179055508073ffffffffffffffffffffffffffffffffffffffff167fd56ed7b1c1110348b1fbf418469f6fc4acc32d9b675e9e1e448cc19169a64ca060405160405180910390a250565b600a602052805f5260405f205f91509050805f015f9054906101000a900473ffffffffffffffffffffffffffffffffffffffff1690806001018054611594906147e7565b80601f01602080910402602001604051908101604052809291908181526020018280546115c0906147e7565b801561160b5780601f106115e25761010080835404028352916020019161160b565b820191905f5260205f20905b8154815290600101906020018083116115ee57829003601f168201915b5050505050905082565b3073ffffffffffffffffffffffffffffffffffffffff163373ffffffffffffffffffffffffffffffffffffffff161415801561169e575060075f9054906101000a900473ffffffffffffffffffffffffffffffffffffffff1673ffffffffffffffffffffffffffffffffffffffff163373ffffffffffffffffffffffffffffffffffffffff1614155b156116e057336040517fee4a26f20000000000000000000000000000000000000000000000000000000081526004016116d7919061431c565b60405180910390fd5b6116e86123df565b73ffffffffffffffffffffffffffffffffffffffff168373ffffffffffffffffffffffffffffffffffffffff1614158015611731575061172f8361172a6123df565b611ecb565b155b1561177c5761173e6123df565b836040517fe237d922000000000000000000000000000000000000000000000000000000008152600401611773929190614ed0565b60405180910390fd5b61178783838361257f565b505050565b60065f9054906101000a900473ffffffffffffffffffffffffffffffffffffffff1673ffffffffffffffffffffffffffffffffffffffff163373ffffffffffffffffffffffffffffffffffffffff161461181b576040517f08c379a000000000000000000000000000000000000000000000000000000000815260040161181290614fe4565b60405180910390fd5b5f60055f9054906101000a900473ffffffffffffffffffffffffffffffffffffffff1690503360055f6101000a81548173ffffffffffffffffffffffffffffffffffffffff021916908373ffffffffffffffffffffffffffffffffffffffff1602179055505f60065f6101000a81548173ffffffffffffffffffffffffffffffffffffffff021916908373ffffffffffffffffffffffffffffffffffffffff1602179055503373ffffffffffffffffffffffffffffffffffffffff168173ffffffffffffffffffffffffffffffffffffffff167f8be0079c531659141344cd1fd0a4f28419497f9722a3daafe3b4186f6b6457e060405160405180910390a350565b7f000000000000000000000000000000000000000000000000000000000000000073ffffffffffffffffffffffffffffffffffffffff163373ffffffffffffffffffffffffffffffffffffffff16146119ad57336040517fd7f733340000000000000000000000000000000000000000000000000000000081526004016119a4919061431c565b60405180910390fd5b6119b561238f565b8060200160208101906119c89190613f39565b5f73ffffffffffffffffffffffffffffffffffffffff16600a5f8367ffffffffffffffff1667ffffffffffffffff1681526020019081526020015f205f015f9054906101000a900473ffffffffffffffffffffffffffffffffffffffff1673ffffffffffffffffffffffffffffffffffffffff1603611a7e57806040517f1c33fbee000000000000000000000000000000000000000000000000000000008152600401611a7591906147a1565b60405180910390fd5b816020016020810190611a919190613f39565b828060400190611aa1919061500e565b810190611aae91906150ab565b8073ffffffffffffffffffffffffffffffffffffffff16600a5f8467ffffffffffffffff1667ffffffffffffffff1681526020019081526020015f205f015f9054906101000a900473ffffffffffffffffffffffffffffffffffffffff1673ffffffffffffffffffffffffffffffffffffffff1614611b6457806040517fbaf46cd1000000000000000000000000000000000000000000000000000000008152600401611b5b919061431c565b60405180910390fd5b5f846020016020810190611b789190613f39565b90505f805f805f808a8060600190611b90919061500e565b810190611b9d91906150d6565b955095509550955095509550611bb68585858585611dce565b7f8a69e2b5fbcc69a1f5d6326fb26db5bc43cd18d09d2e79a48a50b77da16432f986868686868c7f0000000000000000000000000000000000000000000000000000000000000000604051611c119796959493929190614e5c565b60405180910390a150505050505050505050611c2b6123d5565b50565b5f60055f9054906101000a900473ffffffffffffffffffffffffffffffffffffffff16905090565b611c68611c616123df565b838361260f565b5050565b3073ffffffffffffffffffffffffffffffffffffffff163373ffffffffffffffffffffffffffffffffffffffff1614158015611cf5575060075f9054906101000a900473ffffffffffffffffffffffffffffffffffffffff1673ffffffffffffffffffffffffffffffffffffffff163373ffffffffffffffffffffffffffffffffffffffff1614155b15611d3757336040517fee4a26f2000000000000000000000000000000000000000000000000000000008152600401611d2e919061431c565b60405180910390fd5b611d4385858585612778565b5f5b8451811015611dac57818181518110611d6157611d60614ef7565b5b602002602001015160085f878481518110611d7f57611d7e614ef7565b5b602002602001015181526020019081526020015f209081611da091906151ef565b50806001019050611d45565b505050505050565b5f60035f8381526020019081526020015f20549050919050565b3073ffffffffffffffffffffffffffffffffffffffff163373ffffffffffffffffffffffffffffffffffffffff1614158015611e57575060075f9054906101000a900473ffffffffffffffffffffffffffffffffffffffff1673ffffffffffffffffffffffffffffffffffffffff163373ffffffffffffffffffffffffffffffffffffffff1614155b15611e9957336040517fee4a26f2000000000000000000000000000000000000000000000000000000008152600401611e90919061431c565b60405180910390fd5b611ea5858585856127fb565b8060085f8681526020019081526020015f209081611ec391906151ef565b505050505050565b5f60015f8473ffffffffffffffffffffffffffffffffffffffff1673ffffffffffffffffffffffffffffffffffffffff1681526020019081526020015f205f8373ffffffffffffffffffffffffffffffffffffffff1673ffffffffffffffffffffffffffffffffffffffff1681526020019081526020015f205f9054906101000a900460ff16905092915050565b5f611f626123df565b90508073ffffffffffffffffffffffffffffffffffffffff168673ffffffffffffffffffffffffffffffffffffffff1614158015611fa75750611fa58682611ecb565b155b15611feb5780866040517fe237d922000000000000000000000000000000000000000000000000000000008152600401611fe2929190614ed0565b60405180910390fd5b611ff88686868686612890565b505050505050565b61200861226c565b61201181612996565b50565b3073ffffffffffffffffffffffffffffffffffffffff163373ffffffffffffffffffffffffffffffffffffffff161415801561209d575060075f9054906101000a900473ffffffffffffffffffffffffffffffffffffffff1673ffffffffffffffffffffffffffffffffffffffff163373ffffffffffffffffffffffffffffffffffffffff1614155b156120df57336040517fee4a26f20000000000000000000000000000000000000000000000000000000081526004016120d6919061431c565b60405180910390fd5b6120e76123df565b73ffffffffffffffffffffffffffffffffffffffff168373ffffffffffffffffffffffffffffffffffffffff1614158015612130575061212e836121296123df565b611ecb565b155b1561217b5761213d6123df565b836040517fe237d922000000000000000000000000000000000000000000000000000000008152600401612172929190614ed0565b60405180910390fd5b612186838383612ac2565b505050565b5f7fd9b67a26000000000000000000000000000000000000000000000000000000007bffffffffffffffffffffffffffffffffffffffffffffffffffffffff1916827bffffffffffffffffffffffffffffffffffffffffffffffffffffffff1916148061225557507f0e89341c000000000000000000000000000000000000000000000000000000007bffffffffffffffffffffffffffffffffffffffffffffffffffffffff1916827bffffffffffffffffffffffffffffffffffffffffffffffffffffffff1916145b80612265575061226482612b64565b5b9050919050565b60055f9054906101000a900473ffffffffffffffffffffffffffffffffffffffff1673ffffffffffffffffffffffffffffffffffffffff163373ffffffffffffffffffffffffffffffffffffffff16146122fb576040517f08c379a00000000000000000000000000000000000000000000000000000000081526004016122f290615308565b60405180910390fd5b565b60606002805461230c906147e7565b80601f0160208091040260200160405190810160405280929190818152602001828054612338906147e7565b80156123835780601f1061235a57610100808354040283529160200191612383565b820191905f5260205f20905b81548152906001019060200180831161236657829003601f168201915b50505050509050919050565b6002600954036123cb576040517f3ee5aeb500000000000000000000000000000000000000000000000000000000815260040160405180910390fd5b6002600981905550565b6001600981905550565b5f33905090565b5f73ffffffffffffffffffffffffffffffffffffffff168473ffffffffffffffffffffffffffffffffffffffff1603612456575f6040517f57f447ce00000000000000000000000000000000000000000000000000000000815260040161244d919061431c565b60405180910390fd5b5f73ffffffffffffffffffffffffffffffffffffffff168573ffffffffffffffffffffffffffffffffffffffff16036124c6575f6040517f01a835140000000000000000000000000000000000000000000000000000000081526004016124bd919061431c565b60405180910390fd5b6124d38585858585612bcd565b5050505050565b612554838473ffffffffffffffffffffffffffffffffffffffff1663a9059cbb858560405160240161250d929190614da1565b604051602081830303815290604052915060e01b6020820180517bffffffffffffffffffffffffffffffffffffffffffffffffffffffff8381831617835250505050612c79565b505050565b5f60208202602084010151905092915050565b5f60208202602084010151905092915050565b5f73ffffffffffffffffffffffffffffffffffffffff168373ffffffffffffffffffffffffffffffffffffffff16036125ef575f6040517f01a835140000000000000000000000000000000000000000000000000000000081526004016125e6919061431c565b60405180910390fd5b61260a835f848460405180602001604052805f815250612bcd565b505050565b5f73ffffffffffffffffffffffffffffffffffffffff168273ffffffffffffffffffffffffffffffffffffffff160361267f575f6040517fced3e100000000000000000000000000000000000000000000000000000000008152600401612676919061431c565b60405180910390fd5b8060015f8573ffffffffffffffffffffffffffffffffffffffff1673ffffffffffffffffffffffffffffffffffffffff1681526020019081526020015f205f8473ffffffffffffffffffffffffffffffffffffffff1673ffffffffffffffffffffffffffffffffffffffff1681526020019081526020015f205f6101000a81548160ff0219169083151502179055508173ffffffffffffffffffffffffffffffffffffffff168373ffffffffffffffffffffffffffffffffffffffff167f17307eab39ab6107e8899845ad3d59bd9653f200f220920489ca2b5937696c318360405161276b919061399c565b60405180910390a3505050565b5f73ffffffffffffffffffffffffffffffffffffffff168473ffffffffffffffffffffffffffffffffffffffff16036127e8575f6040517f57f447ce0000000000000000000000000000000000000000000000000000000081526004016127df919061431c565b60405180910390fd5b6127f55f85858585612bcd565b50505050565b5f73ffffffffffffffffffffffffffffffffffffffff168473ffffffffffffffffffffffffffffffffffffffff160361286b575f6040517f57f447ce000000000000000000000000000000000000000000000000000000008152600401612862919061431c565b60405180910390fd5b5f806128778585612d0e565b915091506128885f87848487612bcd565b505050505050565b5f73ffffffffffffffffffffffffffffffffffffffff168473ffffffffffffffffffffffffffffffffffffffff1603612900575f6040517f57f447ce0000000000000000000000000000000000000000000000000000000081526004016128f7919061431c565b60405180910390fd5b5f73ffffffffffffffffffffffffffffffffffffffff168573ffffffffffffffffffffffffffffffffffffffff1603612970575f6040517f01a83514000000000000000000000000000000000000000000000000000000008152600401612967919061431c565b60405180910390fd5b5f8061297c8585612d0e565b9150915061298d8787848487612bcd565b50505050505050565b3373ffffffffffffffffffffffffffffffffffffffff168173ffffffffffffffffffffffffffffffffffffffff1603612a04576040517f08c379a00000000000000000000000000000000000000000000000000000000081526004016129fb90615370565b60405180910390fd5b8060065f6101000a81548173ffffffffffffffffffffffffffffffffffffffff021916908373ffffffffffffffffffffffffffffffffffffffff1602179055508073ffffffffffffffffffffffffffffffffffffffff1660055f9054906101000a900473ffffffffffffffffffffffffffffffffffffffff1673ffffffffffffffffffffffffffffffffffffffff167fed8889f560326eb138920d842192f0eb3dd22b4f139c87a2c57538e05bae127860405160405180910390a350565b5f73ffffffffffffffffffffffffffffffffffffffff168373ffffffffffffffffffffffffffffffffffffffff1603612b32575f6040517f01a83514000000000000000000000000000000000000000000000000000000008152600401612b29919061431c565b60405180910390fd5b5f80612b3e8484612d0e565b91509150612b5d855f848460405180602001604052805f815250612bcd565b5050505050565b5f7f01ffc9a7000000000000000000000000000000000000000000000000000000007bffffffffffffffffffffffffffffffffffffffffffffffffffffffff1916827bffffffffffffffffffffffffffffffffffffffffffffffffffffffff1916149050919050565b612bd985858585612d3e565b5f73ffffffffffffffffffffffffffffffffffffffff168473ffffffffffffffffffffffffffffffffffffffff1614612c72575f612c156123df565b90506001845103612c61575f612c345f8661256c90919063ffffffff16565b90505f612c4a5f8661256c90919063ffffffff16565b9050612c5a838989858589612edb565b5050612c70565b612c6f81878787878761308a565b5b505b5050505050565b5f612ca3828473ffffffffffffffffffffffffffffffffffffffff1661323990919063ffffffff16565b90505f815114158015612cc7575080806020019051810190612cc59190614ddc565b155b15612d0957826040517f5274afe7000000000000000000000000000000000000000000000000000000008152600401612d00919061431c565b60405180910390fd5b505050565b60608060405191506001825283602083015260408201905060018152826020820152604081016040529250929050565b612d4a8484848461324e565b5f73ffffffffffffffffffffffffffffffffffffffff168473ffffffffffffffffffffffffffffffffffffffff1603612e1d575f805b8351811015612e02575f838281518110612d9d57612d9c614ef7565b5b602002602001015190508060035f878581518110612dbe57612dbd614ef7565b5b602002602001015181526020019081526020015f205f828254612de191906153bb565b925050819055508083612df491906153bb565b925050806001019050612d80565b508060045f828254612e1491906153bb565b92505081905550505b5f73ffffffffffffffffffffffffffffffffffffffff168373ffffffffffffffffffffffffffffffffffffffff1603612ed5575f805b8351811015612ec3575f838281518110612e7057612e6f614ef7565b5b602002602001015190508060035f878581518110612e9157612e90614ef7565b5b602002602001015181526020019081526020015f205f8282540392505081905550808301925050806001019050612e53565b508060045f8282540392505081905550505b50505050565b5f8473ffffffffffffffffffffffffffffffffffffffff163b1115613082578373ffffffffffffffffffffffffffffffffffffffff1663f23a6e6187878686866040518663ffffffff1660e01b8152600401612f3b9594939291906153ee565b6020604051808303815f875af1925050508015612f7657506040513d601f19601f82011682018060405250810190612f73919061545a565b60015b612ff7573d805f8114612fa4576040519150601f19603f3d011682016040523d82523d5f602084013e612fa9565b606091505b505f815103612fef57846040517f57f447ce000000000000000000000000000000000000000000000000000000008152600401612fe6919061431c565b60405180910390fd5b805181602001fd5b63f23a6e6160e01b7bffffffffffffffffffffffffffffffffffffffffffffffffffffffff1916817bffffffffffffffffffffffffffffffffffffffffffffffffffffffff19161461308057846040517f57f447ce000000000000000000000000000000000000000000000000000000008152600401613077919061431c565b60405180910390fd5b505b505050505050565b5f8473ffffffffffffffffffffffffffffffffffffffff163b1115613231578373ffffffffffffffffffffffffffffffffffffffff1663bc197c8187878686866040518663ffffffff1660e01b81526004016130ea959493929190615485565b6020604051808303815f875af192505050801561312557506040513d601f19601f82011682018060405250810190613122919061545a565b60015b6131a6573d805f8114613153576040519150601f19603f3d011682016040523d82523d5f602084013e613158565b606091505b505f81510361319e57846040517f57f447ce000000000000000000000000000000000000000000000000000000008152600401613195919061431c565b60405180910390fd5b805181602001fd5b63bc197c8160e01b7bffffffffffffffffffffffffffffffffffffffffffffffffffffffff1916817bffffffffffffffffffffffffffffffffffffffffffffffffffffffff19161461322f57846040517f57f447ce000000000000000000000000000000000000000000000000000000008152600401613226919061431c565b60405180910390fd5b505b505050505050565b606061324683835f6135de565b905092915050565b805182511461329857815181516040517f5b05999100000000000000000000000000000000000000000000000000000000815260040161328f929190614d7a565b60405180910390fd5b5f6132a16123df565b90505f5b835181101561349d575f6132c2828661256c90919063ffffffff16565b90505f6132d8838661256c90919063ffffffff16565b90505f73ffffffffffffffffffffffffffffffffffffffff168873ffffffffffffffffffffffffffffffffffffffff16146133fb575f805f8481526020019081526020015f205f8a73ffffffffffffffffffffffffffffffffffffffff1673ffffffffffffffffffffffffffffffffffffffff1681526020019081526020015f20549050818110156133a757888183856040517f03dee4c500000000000000000000000000000000000000000000000000000000815260040161339e94939291906154eb565b60405180910390fd5b8181035f808581526020019081526020015f205f8b73ffffffffffffffffffffffffffffffffffffffff1673ffffffffffffffffffffffffffffffffffffffff1681526020019081526020015f2081905550505b5f73ffffffffffffffffffffffffffffffffffffffff168773ffffffffffffffffffffffffffffffffffffffff161461349057805f808481526020019081526020015f205f8973ffffffffffffffffffffffffffffffffffffffff1673ffffffffffffffffffffffffffffffffffffffff1681526020019081526020015f205f82825461348891906153bb565b925050819055505b50508060010190506132a5565b506001835103613558575f6134bb5f8561256c90919063ffffffff16565b90505f6134d15f8561256c90919063ffffffff16565b90508573ffffffffffffffffffffffffffffffffffffffff168773ffffffffffffffffffffffffffffffffffffffff168473ffffffffffffffffffffffffffffffffffffffff167fc3d58168c5ae7397731d063d5bbf3d657854427343f4c083240f7aacaa2d0f628585604051613549929190614d7a565b60405180910390a450506135d7565b8373ffffffffffffffffffffffffffffffffffffffff168573ffffffffffffffffffffffffffffffffffffffff168273ffffffffffffffffffffffffffffffffffffffff167f4a39dc06d4c0dbc64b70af90fd698a233a518aa5d07e595d983b8c0526c8f7fb86866040516135ce92919061552e565b60405180910390a45b5050505050565b60608147101561362557306040517fcd78605900000000000000000000000000000000000000000000000000000000815260040161361c919061431c565b60405180910390fd5b5f808573ffffffffffffffffffffffffffffffffffffffff16848660405161364d9190615593565b5f6040518083038185875af1925050503d805f8114613687576040519150601f19603f3d011682016040523d82523d5f602084013e61368c565b606091505b509150915061369c8683836136a7565b925050509392505050565b6060826136bc576136b782613734565b61372c565b5f82511480156136e257505f8473ffffffffffffffffffffffffffffffffffffffff163b145b1561372457836040517f9996b31500000000000000000000000000000000000000000000000000000000815260040161371b919061431c565b60405180910390fd5b81905061372d565b5b9392505050565b5f815111156137465780518082602001fd5b6040517f1425ea4200000000000000000000000000000000000000000000000000000000815260040160405180910390fd5b60405180604001604052805f73ffffffffffffffffffffffffffffffffffffffff1681526020015f81525090565b5080546137b2906147e7565b5f825580601f106137c357506137e0565b601f0160209004905f5260205f20908101906137df91906137e3565b5b50565b5b808211156137fa575f815f9055506001016137e4565b5090565b5f604051905090565b5f80fd5b5f80fd5b5f73ffffffffffffffffffffffffffffffffffffffff82169050919050565b5f6138388261380f565b9050919050565b6138488161382e565b8114613852575f80fd5b50565b5f813590506138638161383f565b92915050565b5f819050919050565b61387b81613869565b8114613885575f80fd5b50565b5f8135905061389681613872565b92915050565b5f80604083850312156138b2576138b1613807565b5b5f6138bf85828601613855565b92505060206138d085828601613888565b9150509250929050565b6138e381613869565b82525050565b5f6020820190506138fc5f8301846138da565b92915050565b5f7fffffffff0000000000000000000000000000000000000000000000000000000082169050919050565b61393681613902565b8114613940575f80fd5b50565b5f813590506139518161392d565b92915050565b5f6020828403121561396c5761396b613807565b5b5f61397984828501613943565b91505092915050565b5f8115159050919050565b61399681613982565b82525050565b5f6020820190506139af5f83018461398d565b92915050565b5f67ffffffffffffffff82169050919050565b6139d1816139b5565b81146139db575f80fd5b50565b5f813590506139ec816139c8565b92915050565b5f80fd5b5f80fd5b5f601f19601f8301169050919050565b7f4e487b71000000000000000000000000000000000000000000000000000000005f52604160045260245ffd5b613a40826139fa565b810181811067ffffffffffffffff82111715613a5f57613a5e613a0a565b5b80604052505050565b5f613a716137fe565b9050613a7d8282613a37565b919050565b5f67ffffffffffffffff821115613a9c57613a9b613a0a565b5b613aa5826139fa565b9050602081019050919050565b828183375f83830152505050565b5f613ad2613acd84613a82565b613a68565b905082815260208101848484011115613aee57613aed6139f6565b5b613af9848285613ab2565b509392505050565b5f82601f830112613b1557613b146139f2565b5b8135613b25848260208601613ac0565b91505092915050565b5f805f60608486031215613b4557613b44613807565b5b5f613b52868287016139de565b9350506020613b6386828701613855565b925050604084013567ffffffffffffffff811115613b8457613b8361380b565b5b613b9086828701613b01565b9150509250925092565b5f60208284031215613baf57613bae613807565b5b5f613bbc84828501613888565b91505092915050565b5f81519050919050565b5f82825260208201905092915050565b5f5b83811015613bfc578082015181840152602081019050613be1565b5f8484015250505050565b5f613c1182613bc5565b613c1b8185613bcf565b9350613c2b818560208601613bdf565b613c34816139fa565b840191505092915050565b5f6020820190508181035f830152613c578184613c07565b905092915050565b60028110613c6b575f80fd5b50565b5f81359050613c7c81613c5f565b92915050565b5f805f805f805f60e0888a031215613c9d57613c9c613807565b5b5f613caa8a828b01613855565b9750506020613cbb8a828b01613855565b9650506040613ccc8a828b01613888565b9550506060613cdd8a828b01613888565b945050608088013567ffffffffffffffff811115613cfe57613cfd61380b565b5b613d0a8a828b01613b01565b93505060a0613d1b8a828b016139de565b92505060c0613d2c8a828b01613c6e565b91505092959891949750929550565b5f819050919050565b613d4d81613d3b565b82525050565b5f602082019050613d665f830184613d44565b92915050565b5f67ffffffffffffffff821115613d8657613d85613a0a565b5b602082029050602081019050919050565b5f80fd5b5f613dad613da884613d6c565b613a68565b90508083825260208201905060208402830185811115613dd057613dcf613d97565b5b835b81811015613df95780613de58882613888565b845260208401935050602081019050613dd2565b5050509392505050565b5f82601f830112613e1757613e166139f2565b5b8135613e27848260208601613d9b565b91505092915050565b5f805f805f60a08688031215613e4957613e48613807565b5b5f613e5688828901613855565b9550506020613e6788828901613855565b945050604086013567ffffffffffffffff811115613e8857613e8761380b565b5b613e9488828901613e03565b935050606086013567ffffffffffffffff811115613eb557613eb461380b565b5b613ec188828901613e03565b925050608086013567ffffffffffffffff811115613ee257613ee161380b565b5b613eee88828901613b01565b9150509295509295909350565b5f8060408385031215613f1157613f10613807565b5b5f613f1e85828601613855565b9250506020613f2f85828601613855565b9150509250929050565b5f60208284031215613f4e57613f4d613807565b5b5f613f5b848285016139de565b91505092915050565b5f67ffffffffffffffff821115613f7e57613f7d613a0a565b5b602082029050602081019050919050565b5f613fa1613f9c84613f64565b613a68565b90508083825260208201905060208402830185811115613fc457613fc3613d97565b5b835b81811015613fed5780613fd98882613855565b845260208401935050602081019050613fc6565b5050509392505050565b5f82601f83011261400b5761400a6139f2565b5b813561401b848260208601613f8f565b91505092915050565b5f806040838503121561403a57614039613807565b5b5f83013567ffffffffffffffff8111156140575761405661380b565b5b61406385828601613ff7565b925050602083013567ffffffffffffffff8111156140845761408361380b565b5b61409085828601613e03565b9150509250929050565b5f81519050919050565b5f82825260208201905092915050565b5f819050602082019050919050565b6140cc81613869565b82525050565b5f6140dd83836140c3565b60208301905092915050565b5f602082019050919050565b5f6140ff8261409a565b61410981856140a4565b9350614114836140b4565b805f5b8381101561414457815161412b88826140d2565b9750614136836140e9565b925050600181019050614117565b5085935050505092915050565b5f6020820190508181035f83015261416981846140f5565b905092915050565b5f6020828403121561418657614185613807565b5b5f61419384828501613855565b91505092915050565b6141a58161382e565b82525050565b5f81519050919050565b5f82825260208201905092915050565b5f6141cf826141ab565b6141d981856141b5565b93506141e9818560208601613bdf565b6141f2816139fa565b840191505092915050565b5f6040820190506142105f83018561419c565b818103602083015261422281846141c5565b90509392505050565b5f805f6060848603121561424257614241613807565b5b5f61424f86828701613855565b935050602084013567ffffffffffffffff8111156142705761426f61380b565b5b61427c86828701613e03565b925050604084013567ffffffffffffffff81111561429d5761429c61380b565b5b6142a986828701613e03565b9150509250925092565b5f80fd5b5f60a082840312156142cc576142cb6142b3565b5b81905092915050565b5f602082840312156142ea576142e9613807565b5b5f82013567ffffffffffffffff8111156143075761430661380b565b5b614313848285016142b7565b91505092915050565b5f60208201905061432f5f83018461419c565b92915050565b61433e81613982565b8114614348575f80fd5b50565b5f8135905061435981614335565b92915050565b5f806040838503121561437557614374613807565b5b5f61438285828601613855565b92505060206143938582860161434b565b9150509250929050565b5f67ffffffffffffffff8211156143b7576143b6613a0a565b5b602082029050602081019050919050565b5f67ffffffffffffffff8211156143e2576143e1613a0a565b5b6143eb826139fa565b9050602081019050919050565b5f61440a614405846143c8565b613a68565b905082815260208101848484011115614426576144256139f6565b5b614431848285613ab2565b509392505050565b5f82601f83011261444d5761444c6139f2565b5b813561445d8482602086016143f8565b91505092915050565b5f6144786144738461439d565b613a68565b9050808382526020820190506020840283018581111561449b5761449a613d97565b5b835b818110156144e257803567ffffffffffffffff8111156144c0576144bf6139f2565b5b8086016144cd8982614439565b8552602085019450505060208101905061449d565b5050509392505050565b5f82601f830112614500576144ff6139f2565b5b8135614510848260208601614466565b91505092915050565b5f805f805f60a0868803121561453257614531613807565b5b5f61453f88828901613855565b955050602086013567ffffffffffffffff8111156145605761455f61380b565b5b61456c88828901613e03565b945050604086013567ffffffffffffffff81111561458d5761458c61380b565b5b61459988828901613e03565b935050606086013567ffffffffffffffff8111156145ba576145b961380b565b5b6145c688828901613b01565b925050608086013567ffffffffffffffff8111156145e7576145e661380b565b5b6145f3888289016144ec565b9150509295509295909350565b5f805f805f60a0868803121561461957614618613807565b5b5f61462688828901613855565b955050602061463788828901613888565b945050604061464888828901613888565b935050606086013567ffffffffffffffff8111156146695761466861380b565b5b61467588828901613b01565b925050608086013567ffffffffffffffff8111156146965761469561380b565b5b6146a288828901614439565b9150509295509295909350565b5f805f805f60a086880312156146c8576146c7613807565b5b5f6146d588828901613855565b95505060206146e688828901613855565b94505060406146f788828901613888565b935050606061470888828901613888565b925050608086013567ffffffffffffffff8111156147295761472861380b565b5b61473588828901613b01565b9150509295509295909350565b5f805f6060848603121561475957614758613807565b5b5f61476686828701613855565b935050602061477786828701613888565b925050604061478886828701613888565b9150509250925092565b61479b816139b5565b82525050565b5f6020820190506147b45f830184614792565b92915050565b7f4e487b71000000000000000000000000000000000000000000000000000000005f52602260045260245ffd5b5f60028204905060018216806147fe57607f821691505b602082108103614811576148106147ba565b5b50919050565b5f819050815f5260205f209050919050565b5f6020601f8301049050919050565b5f82821b905092915050565b5f600883026148737fffffffffffffffffffffffffffffffffffffffffffffffffffffffffffffffff82614838565b61487d8683614838565b95508019841693508086168417925050509392505050565b5f819050919050565b5f6148b86148b36148ae84613869565b614895565b613869565b9050919050565b5f819050919050565b6148d18361489e565b6148e56148dd826148bf565b848454614844565b825550505050565b5f90565b6148f96148ed565b6149048184846148c8565b505050565b5b818110156149275761491c5f826148f1565b60018101905061490a565b5050565b601f82111561496c5761493d81614817565b61494684614829565b81016020851015614955578190505b61496961496185614829565b830182614909565b50505b505050565b5f82821c905092915050565b5f61498c5f1984600802614971565b1980831691505092915050565b5f6149a4838361497d565b9150826002028217905092915050565b6149bd826141ab565b67ffffffffffffffff8111156149d6576149d5613a0a565b5b6149e082546147e7565b6149eb82828561492b565b5f60209050601f831160018114614a1c575f8415614a0a578287015190505b614a148582614999565b865550614a7b565b601f198416614a2a86614817565b5f5b82811015614a5157848901518255600182019150602085019450602081019050614a2c565b86831015614a6e5784890151614a6a601f89168261497d565b8355505b6001600288020188555050505b505050505050565b5f606082019050614a965f830186614792565b614aa3602083018561419c565b8181036040830152614ab581846141c5565b9050949350505050565b5f60c082019050614ad25f83018961419c565b614adf602083018861419c565b614aec60408301876138da565b614af960608301866138da565b8181036080830152614b0b81856141c5565b905081810360a0830152614b1f8184613c07565b9050979650505050505050565b7f4e487b71000000000000000000000000000000000000000000000000000000005f52602160045260245ffd5b5f82825260208201905092915050565b5f614b73826141ab565b614b7d8185614b59565b9350614b8d818560208601613bdf565b614b96816139fa565b840191505092915050565b5f81519050919050565b5f82825260208201905092915050565b5f819050602082019050919050565b614bd38161382e565b82525050565b604082015f820151614bed5f850182614bca565b506020820151614c0060208501826140c3565b50505050565b5f614c118383614bd9565b60408301905092915050565b5f602082019050919050565b5f614c3382614ba1565b614c3d8185614bab565b9350614c4883614bbb565b805f5b83811015614c78578151614c5f8882614c06565b9750614c6a83614c1d565b925050600181019050614c4b565b5085935050505092915050565b5f60a083015f8301518482035f860152614c9f8282614b69565b91505060208301518482036020860152614cb98282614b69565b91505060408301518482036040860152614cd38282614c29565b9150506060830151614ce86060860182614bca565b5060808301518482036080860152614d008282614b69565b9150508091505092915050565b5f604082019050614d205f830185614792565b8181036020830152614d328184614c85565b90509392505050565b5f81519050614d4981613872565b92915050565b5f60208284031215614d6457614d63613807565b5b5f614d7184828501614d3b565b91505092915050565b5f604082019050614d8d5f8301856138da565b614d9a60208301846138da565b9392505050565b5f604082019050614db45f83018561419c565b614dc160208301846138da565b9392505050565b5f81519050614dd681614335565b92915050565b5f60208284031215614df157614df0613807565b5b5f614dfe84828501614dc8565b91505092915050565b614e1081613d3b565b8114614e1a575f80fd5b50565b5f81519050614e2b81614e07565b92915050565b5f60208284031215614e4657614e45613807565b5b5f614e5384828501614e1d565b91505092915050565b5f60e082019050614e6f5f83018a61419c565b614e7c602083018961419c565b614e8960408301886138da565b614e9660608301876138da565b8181036080830152614ea881866141c5565b9050614eb760a0830185614792565b614ec460c0830184614792565b98975050505050505050565b5f604082019050614ee35f83018561419c565b614ef0602083018461419c565b9392505050565b7f4e487b71000000000000000000000000000000000000000000000000000000005f52603260045260245ffd5b5f81905092915050565b50565b5f614f3c5f83614f24565b9150614f4782614f2e565b5f82019050919050565b5f614f5b82614f31565b9150819050919050565b5f606082019050614f785f83018661419c565b614f85602083018561419c565b614f9260408301846138da565b949350505050565b7f4d7573742062652070726f706f736564206f776e6572000000000000000000005f82015250565b5f614fce601683613bcf565b9150614fd982614f9a565b602082019050919050565b5f6020820190508181035f830152614ffb81614fc2565b9050919050565b5f80fd5b5f80fd5b5f80fd5b5f808335600160200384360303811261502a57615029615002565b5b80840192508235915067ffffffffffffffff82111561504c5761504b615006565b5b6020830192506001820236038313156150685761506761500a565b5b509250929050565b5f61507a8261380f565b9050919050565b61508a81615070565b8114615094575f80fd5b50565b5f813590506150a581615081565b92915050565b5f602082840312156150c0576150bf613807565b5b5f6150cd84828501615097565b91505092915050565b5f805f805f8060c087890312156150f0576150ef613807565b5b5f6150fd89828a01615097565b965050602061510e89828a01615097565b955050604061511f89828a01613888565b945050606061513089828a01613888565b935050608087013567ffffffffffffffff8111156151515761515061380b565b5b61515d89828a01613b01565b92505060a087013567ffffffffffffffff81111561517e5761517d61380b565b5b61518a89828a01614439565b9150509295509295509295565b5f819050815f5260205f209050919050565b601f8211156151ea576151bb81615197565b6151c484614829565b810160208510156151d3578190505b6151e76151df85614829565b830182614909565b50505b505050565b6151f882613bc5565b67ffffffffffffffff81111561521157615210613a0a565b5b61521b82546147e7565b6152268282856151a9565b5f60209050601f831160018114615257575f8415615245578287015190505b61524f8582614999565b8655506152b6565b601f19841661526586615197565b5f5b8281101561528c57848901518255600182019150602085019450602081019050615267565b868310156152a957848901516152a5601f89168261497d565b8355505b6001600288020188555050505b505050505050565b7f4f6e6c792063616c6c61626c65206279206f776e6572000000000000000000005f82015250565b5f6152f2601683613bcf565b91506152fd826152be565b602082019050919050565b5f6020820190508181035f83015261531f816152e6565b9050919050565b7f43616e6e6f74207472616e7366657220746f2073656c660000000000000000005f82015250565b5f61535a601783613bcf565b915061536582615326565b602082019050919050565b5f6020820190508181035f8301526153878161534e565b9050919050565b7f4e487b71000000000000000000000000000000000000000000000000000000005f52601160045260245ffd5b5f6153c582613869565b91506153d083613869565b92508282019050808211156153e8576153e761538e565b5b92915050565b5f60a0820190506154015f83018861419c565b61540e602083018761419c565b61541b60408301866138da565b61542860608301856138da565b818103608083015261543a81846141c5565b90509695505050505050565b5f815190506154548161392d565b92915050565b5f6020828403121561546f5761546e613807565b5b5f61547c84828501615446565b91505092915050565b5f60a0820190506154985f83018861419c565b6154a5602083018761419c565b81810360408301526154b781866140f5565b905081810360608301526154cb81856140f5565b905081810360808301526154df81846141c5565b90509695505050505050565b5f6080820190506154fe5f83018761419c565b61550b60208301866138da565b61551860408301856138da565b61552560608301846138da565b95945050505050565b5f6040820190508181035f83015261554681856140f5565b9050818103602083015261555a81846140f5565b90509392505050565b5f61556d826141ab565b6155778185614f24565b9350615587818560208601613bdf565b80840191505092915050565b5f61559e8284615563565b91508190509291505056fea2646970667358221220a7743facb304e24c5dcaa55d49e8d7557bd64060ccc9caa8ba5f9488670b713064736f6c63430008180033",
			"opcodes": "PUSH1 0xE0 PUSH1 0x40 MSTORE CALLVALUE DUP1 ISZERO PUSH3 0x10 JUMPI PUSH0 DUP1 REVERT JUMPDEST POP PUSH1 0x40 MLOAD PUSH3 0x602F CODESIZE SUB DUP1 PUSH3 0x602F DUP4 CODECOPY DUP2 DUP2 ADD PUSH1 0x40 MSTORE DUP2 ADD SWAP1 PUSH3 0x36 SWAP2 SWAP1 PUSH3 0x54A JUMP JUMPDEST DUP4 CALLER DUP1 PUSH0 DUP4 PUSH3 0x4C DUP2 PUSH3 0x1DE PUSH1 0x20 SHL PUSH1 0x20 SHR JUMP JUMPDEST POP PUSH0 PUSH20 0xFFFFFFFFFFFFFFFFFFFFFFFFFFFFFFFFFFFFFFFF AND DUP3 PUSH20 0xFFFFFFFFFFFFFFFFFFFFFFFFFFFFFFFFFFFFFFFF AND SUB PUSH3 0xBE JUMPI PUSH1 0x40 MLOAD PUSH32 0x8C379A000000000000000000000000000000000000000000000000000000000 DUP2 MSTORE PUSH1 0x4 ADD PUSH3 0xB5 SWAP1 PUSH3 0x636 JUMP JUMPDEST PUSH1 0x40 MLOAD DUP1 SWAP2 SUB SWAP1 REVERT JUMPDEST DUP2 PUSH1 0x5 PUSH0 PUSH2 0x100 EXP DUP2 SLOAD DUP2 PUSH20 0xFFFFFFFFFFFFFFFFFFFFFFFFFFFFFFFFFFFFFFFF MUL NOT AND SWAP1 DUP4 PUSH20 0xFFFFFFFFFFFFFFFFFFFFFFFFFFFFFFFFFFFFFFFF AND MUL OR SWAP1 SSTORE POP PUSH0 PUSH20 0xFFFFFFFFFFFFFFFFFFFFFFFFFFFFFFFFFFFFFFFF AND DUP2 PUSH20 0xFFFFFFFFFFFFFFFFFFFFFFFFFFFFFFFFFFFFFFFF AND EQ PUSH3 0x144 JUMPI PUSH3 0x143 DUP2 PUSH3 0x1F3 PUSH1 0x20 SHL PUSH1 0x20 SHR JUMP JUMPDEST JUMPDEST POP POP POP POP PUSH1 0x1 PUSH1 0x9 DUP2 SWAP1 SSTORE POP DUP3 PUSH20 0xFFFFFFFFFFFFFFFFFFFFFFFFFFFFFFFFFFFFFFFF AND PUSH1 0x80 DUP2 PUSH20 0xFFFFFFFFFFFFFFFFFFFFFFFFFFFFFFFFFFFFFFFF AND DUP2 MSTORE POP POP DUP2 PUSH20 0xFFFFFFFFFFFFFFFFFFFFFFFFFFFFFFFFFFFFFFFF AND PUSH1 0xA0 DUP2 PUSH20 0xFFFFFFFFFFFFFFFFFFFFFFFFFFFFFFFFFFFFFFFF AND DUP2 MSTORE POP POP DUP1 PUSH8 0xFFFFFFFFFFFFFFFF AND PUSH1 0xC0 DUP2 PUSH8 0xFFFFFFFFFFFFFFFF AND DUP2 MSTORE POP POP POP POP POP POP PUSH3 0x9DF JUMP JUMPDEST DUP1 PUSH1 0x2 SWAP1 DUP2 PUSH3 0x1EF SWAP2 SWAP1 PUSH3 0x88D JUMP JUMPDEST POP POP JUMP JUMPDEST CALLER PUSH20 0xFFFFFFFFFFFFFFFFFFFFFFFFFFFFFFFFFFFFFFFF AND DUP2 PUSH20 0xFFFFFFFFFFFFFFFFFFFFFFFFFFFFFFFFFFFFFFFF AND SUB PUSH3 0x264 JUMPI PUSH1 0x40 MLOAD PUSH32 0x8C379A000000000000000000000000000000000000000000000000000000000 DUP2 MSTORE PUSH1 0x4 ADD PUSH3 0x25B SWAP1 PUSH3 0x9BF JUMP JUMPDEST PUSH1 0x40 MLOAD DUP1 SWAP2 SUB SWAP1 REVERT JUMPDEST DUP1 PUSH1 0x6 PUSH0 PUSH2 0x100 EXP DUP2 SLOAD DUP2 PUSH20 0xFFFFFFFFFFFFFFFFFFFFFFFFFFFFFFFFFFFFFFFF MUL NOT AND SWAP1 DUP4 PUSH20 0xFFFFFFFFFFFFFFFFFFFFFFFFFFFFFFFFFFFFFFFF AND MUL OR SWAP1 SSTORE POP DUP1 PUSH20 0xFFFFFFFFFFFFFFFFFFFFFFFFFFFFFFFFFFFFFFFF AND PUSH1 0x5 PUSH0 SWAP1 SLOAD SWAP1 PUSH2 0x100 EXP SWAP1 DIV PUSH20 0xFFFFFFFFFFFFFFFFFFFFFFFFFFFFFFFFFFFFFFFF AND PUSH20 0xFFFFFFFFFFFFFFFFFFFFFFFFFFFFFFFFFFFFFFFF AND PUSH32 0xED8889F560326EB138920D842192F0EB3DD22B4F139C87A2C57538E05BAE1278 PUSH1 0x40 MLOAD PUSH1 0x40 MLOAD DUP1 SWAP2 SUB SWAP1 LOG3 POP JUMP JUMPDEST PUSH0 PUSH1 0x40 MLOAD SWAP1 POP SWAP1 JUMP JUMPDEST PUSH0 DUP1 REVERT JUMPDEST PUSH0 DUP1 REVERT JUMPDEST PUSH0 DUP1 REVERT JUMPDEST PUSH0 DUP1 REVERT JUMPDEST PUSH0 PUSH1 0x1F NOT PUSH1 0x1F DUP4 ADD AND SWAP1 POP SWAP2 SWAP1 POP JUMP JUMPDEST PUSH32 0x4E487B7100000000000000000000000000000000000000000000000000000000 PUSH0 MSTORE PUSH1 0x41 PUSH1 0x4 MSTORE PUSH1 0x24 PUSH0 REVERT JUMPDEST PUSH3 0x383 DUP3 PUSH3 0x33B JUMP JUMPDEST DUP2 ADD DUP2 DUP2 LT PUSH8 0xFFFFFFFFFFFFFFFF DUP3 GT OR ISZERO PUSH3 0x3A5 JUMPI PUSH3 0x3A4 PUSH3 0x34B JUMP JUMPDEST JUMPDEST DUP1 PUSH1 0x40 MSTORE POP POP POP JUMP JUMPDEST PUSH0 PUSH3 0x3B9 PUSH3 0x322 JUMP JUMPDEST SWAP1 POP PUSH3 0x3C7 DUP3 DUP3 PUSH3 0x378 JUMP JUMPDEST SWAP2 SWAP1 POP JUMP JUMPDEST PUSH0 PUSH8 0xFFFFFFFFFFFFFFFF DUP3 GT ISZERO PUSH3 0x3E9 JUMPI PUSH3 0x3E8 PUSH3 0x34B JUMP JUMPDEST JUMPDEST PUSH3 0x3F4 DUP3 PUSH3 0x33B JUMP JUMPDEST SWAP1 POP PUSH1 0x20 DUP2 ADD SWAP1 POP SWAP2 SWAP1 POP JUMP JUMPDEST PUSH0 JUMPDEST DUP4 DUP2 LT ISZERO PUSH3 0x420 JUMPI DUP1 DUP3 ADD MLOAD DUP2 DUP5 ADD MSTORE PUSH1 0x20 DUP2 ADD SWAP1 POP PUSH3 0x403 JUMP JUMPDEST PUSH0 DUP5 DUP5 ADD MSTORE POP POP POP POP JUMP JUMPDEST PUSH0 PUSH3 0x441 PUSH3 0x43B DUP5 PUSH3 0x3CC JUMP JUMPDEST PUSH3 0x3AE JUMP JUMPDEST SWAP1 POP DUP3 DUP2 MSTORE PUSH1 0x20 DUP2 ADD DUP5 DUP5 DUP5 ADD GT ISZERO PUSH3 0x460 JUMPI PUSH3 0x45F PUSH3 0x337 JUMP JUMPDEST JUMPDEST PUSH3 0x46D DUP5 DUP3 DUP6 PUSH3 0x401 JUMP JUMPDEST POP SWAP4 SWAP3 POP POP POP JUMP JUMPDEST PUSH0 DUP3 PUSH1 0x1F DUP4 ADD SLT PUSH3 0x48C JUMPI PUSH3 0x48B PUSH3 0x333 JUMP JUMPDEST JUMPDEST DUP2 MLOAD PUSH3 0x49E DUP5 DUP3 PUSH1 0x20 DUP7 ADD PUSH3 0x42B JUMP JUMPDEST SWAP2 POP POP SWAP3 SWAP2 POP POP JUMP JUMPDEST PUSH0 PUSH20 0xFFFFFFFFFFFFFFFFFFFFFFFFFFFFFFFFFFFFFFFF DUP3 AND SWAP1 POP SWAP2 SWAP1 POP JUMP JUMPDEST PUSH0 PUSH3 0x4D2 DUP3 PUSH3 0x4A7 JUMP JUMPDEST SWAP1 POP SWAP2 SWAP1 POP JUMP JUMPDEST PUSH3 0x4E4 DUP2 PUSH3 0x4C6 JUMP JUMPDEST DUP2 EQ PUSH3 0x4EF JUMPI PUSH0 DUP1 REVERT JUMPDEST POP JUMP JUMPDEST PUSH0 DUP2 MLOAD SWAP1 POP PUSH3 0x502 DUP2 PUSH3 0x4D9 JUMP JUMPDEST SWAP3 SWAP2 POP POP JUMP JUMPDEST PUSH0 PUSH8 0xFFFFFFFFFFFFFFFF DUP3 AND SWAP1 POP SWAP2 SWAP1 POP JUMP JUMPDEST PUSH3 0x526 DUP2 PUSH3 0x508 JUMP JUMPDEST DUP2 EQ PUSH3 0x531 JUMPI PUSH0 DUP1 REVERT JUMPDEST POP JUMP JUMPDEST PUSH0 DUP2 MLOAD SWAP1 POP PUSH3 0x544 DUP2 PUSH3 0x51B JUMP JUMPDEST SWAP3 SWAP2 POP POP JUMP JUMPDEST PUSH0 DUP1 PUSH0 DUP1 PUSH1 0x80 DUP6 DUP8 SUB SLT ISZERO PUSH3 0x565 JUMPI PUSH3 0x564 PUSH3 0x32B JUMP JUMPDEST JUMPDEST PUSH0 DUP6 ADD MLOAD PUSH8 0xFFFFFFFFFFFFFFFF DUP2 GT ISZERO PUSH3 0x585 JUMPI PUSH3 0x584 PUSH3 0x32F JUMP JUMPDEST JUMPDEST PUSH3 0x593 DUP8 DUP3 DUP9 ADD PUSH3 0x475 JUMP JUMPDEST SWAP5 POP POP PUSH1 0x20 PUSH3 0x5A6 DUP8 DUP3 DUP9 ADD PUSH3 0x4F2 JUMP JUMPDEST SWAP4 POP POP PUSH1 0x40 PUSH3 0x5B9 DUP8 DUP3 DUP9 ADD PUSH3 0x4F2 JUMP JUMPDEST SWAP3 POP POP PUSH1 0x60 PUSH3 0x5CC DUP8 DUP3 DUP9 ADD PUSH3 0x534 JUMP JUMPDEST SWAP2 POP POP SWAP3 SWAP6 SWAP2 SWAP5 POP SWAP3 POP JUMP JUMPDEST PUSH0 DUP3 DUP3 MSTORE PUSH1 0x20 DUP3 ADD SWAP1 POP SWAP3 SWAP2 POP POP JUMP JUMPDEST PUSH32 0x43616E6E6F7420736574206F776E657220746F207A65726F0000000000000000 PUSH0 DUP3 ADD MSTORE POP JUMP JUMPDEST PUSH0 PUSH3 0x61E PUSH1 0x18 DUP4 PUSH3 0x5D8 JUMP JUMPDEST SWAP2 POP PUSH3 0x62B DUP3 PUSH3 0x5E8 JUMP JUMPDEST PUSH1 0x20 DUP3 ADD SWAP1 POP SWAP2 SWAP1 POP JUMP JUMPDEST PUSH0 PUSH1 0x20 DUP3 ADD SWAP1 POP DUP2 DUP2 SUB PUSH0 DUP4 ADD MSTORE PUSH3 0x64F DUP2 PUSH3 0x610 JUMP JUMPDEST SWAP1 POP SWAP2 SWAP1 POP JUMP JUMPDEST PUSH0 DUP2 MLOAD SWAP1 POP SWAP2 SWAP1 POP JUMP JUMPDEST PUSH32 0x4E487B7100000000000000000000000000000000000000000000000000000000 PUSH0 MSTORE PUSH1 0x22 PUSH1 0x4 MSTORE PUSH1 0x24 PUSH0 REVERT JUMPDEST PUSH0 PUSH1 0x2 DUP3 DIV SWAP1 POP PUSH1 0x1 DUP3 AND DUP1 PUSH3 0x6A5 JUMPI PUSH1 0x7F DUP3 AND SWAP2 POP JUMPDEST PUSH1 0x20 DUP3 LT DUP2 SUB PUSH3 0x6BB JUMPI PUSH3 0x6BA PUSH3 0x660 JUMP JUMPDEST JUMPDEST POP SWAP2 SWAP1 POP JUMP JUMPDEST PUSH0 DUP2 SWAP1 POP DUP2 PUSH0 MSTORE PUSH1 0x20 PUSH0 KECCAK256 SWAP1 POP SWAP2 SWAP1 POP JUMP JUMPDEST PUSH0 PUSH1 0x20 PUSH1 0x1F DUP4 ADD DIV SWAP1 POP SWAP2 SWAP1 POP JUMP JUMPDEST PUSH0 DUP3 DUP3 SHL SWAP1 POP SWAP3 SWAP2 POP POP JUMP JUMPDEST PUSH0 PUSH1 0x8 DUP4 MUL PUSH3 0x71F PUSH32 0xFFFFFFFFFFFFFFFFFFFFFFFFFFFFFFFFFFFFFFFFFFFFFFFFFFFFFFFFFFFFFFFF DUP3 PUSH3 0x6E2 JUMP JUMPDEST PUSH3 0x72B DUP7 DUP4 PUSH3 0x6E2 JUMP JUMPDEST SWAP6 POP DUP1 NOT DUP5 AND SWAP4 POP DUP1 DUP7 AND DUP5 OR SWAP3 POP POP POP SWAP4 SWAP3 POP POP POP JUMP JUMPDEST PUSH0 DUP2 SWAP1 POP SWAP2 SWAP1 POP JUMP JUMPDEST PUSH0 DUP2 SWAP1 POP SWAP2 SWAP1 POP JUMP JUMPDEST PUSH0 PUSH3 0x775 PUSH3 0x76F PUSH3 0x769 DUP5 PUSH3 0x743 JUMP JUMPDEST PUSH3 0x74C JUMP JUMPDEST PUSH3 0x743 JUMP JUMPDEST SWAP1 POP SWAP2 SWAP1 POP JUMP JUMPDEST PUSH0 DUP2 SWAP1 POP SWAP2 SWAP1 POP JUMP JUMPDEST PUSH3 0x790 DUP4 PUSH3 0x755 JUMP JUMPDEST PUSH3 0x7A8 PUSH3 0x79F DUP3 PUSH3 0x77C JUMP JUMPDEST DUP5 DUP5 SLOAD PUSH3 0x6EE JUMP JUMPDEST DUP3 SSTORE POP POP POP POP JUMP JUMPDEST PUSH0 SWAP1 JUMP JUMPDEST PUSH3 0x7BE PUSH3 0x7B0 JUMP JUMPDEST PUSH3 0x7CB DUP2 DUP5 DUP5 PUSH3 0x785 JUMP JUMPDEST POP POP POP JUMP JUMPDEST JUMPDEST DUP2 DUP2 LT ISZERO PUSH3 0x7F2 JUMPI PUSH3 0x7E6 PUSH0 DUP3 PUSH3 0x7B4 JUMP JUMPDEST PUSH1 0x1 DUP2 ADD SWAP1 POP PUSH3 0x7D1 JUMP JUMPDEST POP POP JUMP JUMPDEST PUSH1 0x1F DUP3 GT ISZERO PUSH3 0x841 JUMPI PUSH3 0x80B DUP2 PUSH3 0x6C1 JUMP JUMPDEST PUSH3 0x816 DUP5 PUSH3 0x6D3 JUMP JUMPDEST DUP2 ADD PUSH1 0x20 DUP6 LT ISZERO PUSH3 0x826 JUMPI DUP2 SWAP1 POP JUMPDEST PUSH3 0x83E PUSH3 0x835 DUP6 PUSH3 0x6D3 JUMP JUMPDEST DUP4 ADD DUP3 PUSH3 0x7D0 JUMP JUMPDEST POP POP JUMPDEST POP POP POP JUMP JUMPDEST PUSH0 DUP3 DUP3 SHR SWAP1 POP SWAP3 SWAP2 POP POP JUMP JUMPDEST PUSH0 PUSH3 0x863 PUSH0 NOT DUP5 PUSH1 0x8 MUL PUSH3 0x846 JUMP JUMPDEST NOT DUP1 DUP4 AND SWAP2 POP POP SWAP3 SWAP2 POP POP JUMP JUMPDEST PUSH0 PUSH3 0x87D DUP4 DUP4 PUSH3 0x852 JUMP JUMPDEST SWAP2 POP DUP3 PUSH1 0x2 MUL DUP3 OR SWAP1 POP SWAP3 SWAP2 POP POP JUMP JUMPDEST PUSH3 0x898 DUP3 PUSH3 0x656 JUMP JUMPDEST PUSH8 0xFFFFFFFFFFFFFFFF DUP2 GT ISZERO PUSH3 0x8B4 JUMPI PUSH3 0x8B3 PUSH3 0x34B JUMP JUMPDEST JUMPDEST PUSH3 0x8C0 DUP3 SLOAD PUSH3 0x68D JUMP JUMPDEST PUSH3 0x8CD DUP3 DUP3 DUP6 PUSH3 0x7F6 JUMP JUMPDEST PUSH0 PUSH1 0x20 SWAP1 POP PUSH1 0x1F DUP4 GT PUSH1 0x1 DUP2 EQ PUSH3 0x903 JUMPI PUSH0 DUP5 ISZERO PUSH3 0x8EE JUMPI DUP3 DUP8 ADD MLOAD SWAP1 POP JUMPDEST PUSH3 0x8FA DUP6 DUP3 PUSH3 0x870 JUMP JUMPDEST DUP7 SSTORE POP PUSH3 0x969 JUMP JUMPDEST PUSH1 0x1F NOT DUP5 AND PUSH3 0x913 DUP7 PUSH3 0x6C1 JUMP JUMPDEST PUSH0 JUMPDEST DUP3 DUP2 LT ISZERO PUSH3 0x93C JUMPI DUP5 DUP10 ADD MLOAD DUP3 SSTORE PUSH1 0x1 DUP3 ADD SWAP2 POP PUSH1 0x20 DUP6 ADD SWAP5 POP PUSH1 0x20 DUP2 ADD SWAP1 POP PUSH3 0x915 JUMP JUMPDEST DUP7 DUP4 LT ISZERO PUSH3 0x95C JUMPI DUP5 DUP10 ADD MLOAD PUSH3 0x958 PUSH1 0x1F DUP10 AND DUP3 PUSH3 0x852 JUMP JUMPDEST DUP4 SSTORE POP JUMPDEST PUSH1 0x1 PUSH1 0x2 DUP9 MUL ADD DUP9 SSTORE POP POP POP JUMPDEST POP POP POP POP POP POP JUMP JUMPDEST PUSH32 0x43616E6E6F74207472616E7366657220746F2073656C66000000000000000000 PUSH0 DUP3 ADD MSTORE POP JUMP JUMPDEST PUSH0 PUSH3 0x9A7 PUSH1 0x17 DUP4 PUSH3 0x5D8 JUMP JUMPDEST SWAP2 POP PUSH3 0x9B4 DUP3 PUSH3 0x971 JUMP JUMPDEST PUSH1 0x20 DUP3 ADD SWAP1 POP SWAP2 SWAP1 POP JUMP JUMPDEST PUSH0 PUSH1 0x20 DUP3 ADD SWAP1 POP DUP2 DUP2 SUB PUSH0 DUP4 ADD MSTORE PUSH3 0x9D8 DUP2 PUSH3 0x999 JUMP JUMPDEST SWAP1 POP SWAP2 SWAP1 POP JUMP JUMPDEST PUSH1 0x80 MLOAD PUSH1 0xA0 MLOAD PUSH1 0xC0 MLOAD PUSH2 0x55DF PUSH3 0xA50 PUSH0 CODECOPY PUSH0 DUP2 DUP2 PUSH2 0x5E7 ADD MSTORE DUP2 DUP2 PUSH2 0xFB3 ADD MSTORE DUP2 DUP2 PUSH2 0x11A3 ADD MSTORE PUSH2 0x1BDF ADD MSTORE PUSH0 DUP2 DUP2 PUSH2 0xA1A ADD MSTORE DUP2 DUP2 PUSH2 0xBD3 ADD MSTORE DUP2 DUP2 PUSH2 0xC72 ADD MSTORE PUSH2 0xD48 ADD MSTORE PUSH0 DUP2 DUP2 PUSH2 0xB0C ADD MSTORE DUP2 DUP2 PUSH2 0xD84 ADD MSTORE DUP2 DUP2 PUSH2 0xE04 ADD MSTORE DUP2 DUP2 PUSH2 0xEED ADD MSTORE PUSH2 0x191F ADD MSTORE PUSH2 0x55DF PUSH0 RETURN INVALID PUSH1 0x80 PUSH1 0x40 MSTORE CALLVALUE DUP1 ISZERO PUSH2 0xF JUMPI PUSH0 DUP1 REVERT JUMPDEST POP PUSH1 0x4 CALLDATASIZE LT PUSH2 0x18B JUMPI PUSH0 CALLDATALOAD PUSH1 0xE0 SHR DUP1 PUSH4 0x5DC5EBDB GT PUSH2 0xDC JUMPI DUP1 PUSH4 0xB942F8CB GT PUSH2 0x95 JUMPI DUP1 PUSH4 0xE985E9C5 GT PUSH2 0x6F JUMPI DUP1 PUSH4 0xE985E9C5 EQ PUSH2 0x48A JUMPI DUP1 PUSH4 0xF242432A EQ PUSH2 0x4BA JUMPI DUP1 PUSH4 0xF2FDE38B EQ PUSH2 0x4D6 JUMPI DUP1 PUSH4 0xF5298ACA EQ PUSH2 0x4F2 JUMPI PUSH2 0x18B JUMP JUMPDEST DUP1 PUSH4 0xB942F8CB EQ PUSH2 0x422 JUMPI DUP1 PUSH4 0xBD85B039 EQ PUSH2 0x43E JUMPI DUP1 PUSH4 0xC1341C4F EQ PUSH2 0x46E JUMPI PUSH2 0x18B JUMP JUMPDEST DUP1 PUSH4 0x5DC5EBDB EQ PUSH2 0x375 JUMPI DUP1 PUSH4 0x6B20C454 EQ PUSH2 0x3A6 JUMPI DUP1 PUSH4 0x79BA5097 EQ PUSH2 0x3C2 JUMPI DUP1 PUSH4 0x85572FFB EQ PUSH2 0x3CC JUMPI DUP1 PUSH4 0x8DA5CB5B EQ PUSH2 0x3E8 JUMPI DUP1 PUSH4 0xA22CB465 EQ PUSH2 0x406 JUMPI PUSH2 0x18B JUMP JUMPDEST DUP1 PUSH4 0x2EB2C2D6 GT PUSH2 0x149 JUMPI DUP1 PUSH4 0x4E1273F4 GT PUSH2 0x123 JUMPI DUP1 PUSH4 0x4E1273F4 EQ PUSH2 0x2DD JUMPI DUP1 PUSH4 0x4F558E79 EQ PUSH2 0x30D JUMPI DUP1 PUSH4 0x51CFF8D9 EQ PUSH2 0x33D JUMPI DUP1 PUSH4 0x55CC4E57 EQ PUSH2 0x359 JUMPI PUSH2 0x18B JUMP JUMPDEST DUP1 PUSH4 0x2EB2C2D6 EQ PUSH2 0x289 JUMPI DUP1 PUSH4 0x3AEAC4E1 EQ PUSH2 0x2A5 JUMPI DUP1 PUSH4 0x41EADE46 EQ PUSH2 0x2C1 JUMPI PUSH2 0x18B JUMP JUMPDEST DUP1 PUSH3 0xFDD58E EQ PUSH2 0x18F JUMPI DUP1 PUSH4 0x1FFC9A7 EQ PUSH2 0x1BF JUMPI DUP1 PUSH4 0xCE639C4 EQ PUSH2 0x1EF JUMPI DUP1 PUSH4 0xE89341C EQ PUSH2 0x20B JUMPI DUP1 PUSH4 0x18160DDD EQ PUSH2 0x23B JUMPI DUP1 PUSH4 0x240B3B49 EQ PUSH2 0x259 JUMPI JUMPDEST PUSH0 DUP1 REVERT JUMPDEST PUSH2 0x1A9 PUSH1 0x4 DUP1 CALLDATASIZE SUB DUP2 ADD SWAP1 PUSH2 0x1A4 SWAP2 SWAP1 PUSH2 0x389C JUMP JUMPDEST PUSH2 0x50E JUMP JUMPDEST PUSH1 0x40 MLOAD PUSH2 0x1B6 SWAP2 SWAP1 PUSH2 0x38E9 JUMP JUMPDEST PUSH1 0x40 MLOAD DUP1 SWAP2 SUB SWAP1 RETURN JUMPDEST PUSH2 0x1D9 PUSH1 0x4 DUP1 CALLDATASIZE SUB DUP2 ADD SWAP1 PUSH2 0x1D4 SWAP2 SWAP1 PUSH2 0x3957 JUMP JUMPDEST PUSH2 0x563 JUMP JUMPDEST PUSH1 0x40 MLOAD PUSH2 0x1E6 SWAP2 SWAP1 PUSH2 0x399C JUMP JUMPDEST PUSH1 0x40 MLOAD DUP1 SWAP2 SUB SWAP1 RETURN JUMPDEST PUSH2 0x209 PUSH1 0x4 DUP1 CALLDATASIZE SUB DUP2 ADD SWAP1 PUSH2 0x204 SWAP2 SWAP1 PUSH2 0x3B2E JUMP JUMPDEST PUSH2 0x5DC JUMP JUMPDEST STOP JUMPDEST PUSH2 0x225 PUSH1 0x4 DUP1 CALLDATASIZE SUB DUP2 ADD SWAP1 PUSH2 0x220 SWAP2 SWAP1 PUSH2 0x3B9A JUMP JUMPDEST PUSH2 0x74B JUMP JUMPDEST PUSH1 0x40 MLOAD PUSH2 0x232 SWAP2 SWAP1 PUSH2 0x3C3F JUMP JUMPDEST PUSH1 0x40 MLOAD DUP1 SWAP2 SUB SWAP1 RETURN JUMPDEST PUSH2 0x243 PUSH2 0x808 JUMP JUMPDEST PUSH1 0x40 MLOAD PUSH2 0x250 SWAP2 SWAP1 PUSH2 0x38E9 JUMP JUMPDEST PUSH1 0x40 MLOAD DUP1 SWAP2 SUB SWAP1 RETURN JUMPDEST PUSH2 0x273 PUSH1 0x4 DUP1 CALLDATASIZE SUB DUP2 ADD SWAP1 PUSH2 0x26E SWAP2 SWAP1 PUSH2 0x3C82 JUMP JUMPDEST PUSH2 0x811 JUMP JUMPDEST PUSH1 0x40 MLOAD PUSH2 0x280 SWAP2 SWAP1 PUSH2 0x3D53 JUMP JUMPDEST PUSH1 0x40 MLOAD DUP1 SWAP2 SUB SWAP1 RETURN JUMPDEST PUSH2 0x2A3 PUSH1 0x4 DUP1 CALLDATASIZE SUB DUP2 ADD SWAP1 PUSH2 0x29E SWAP2 SWAP1 PUSH2 0x3E30 JUMP JUMPDEST PUSH2 0x1005 JUMP JUMPDEST STOP JUMPDEST PUSH2 0x2BF PUSH1 0x4 DUP1 CALLDATASIZE SUB DUP2 ADD SWAP1 PUSH2 0x2BA SWAP2 SWAP1 PUSH2 0x3EFB JUMP JUMPDEST PUSH2 0x10AC JUMP JUMPDEST STOP JUMPDEST PUSH2 0x2DB PUSH1 0x4 DUP1 CALLDATASIZE SUB DUP2 ADD SWAP1 PUSH2 0x2D6 SWAP2 SWAP1 PUSH2 0x3F39 JUMP JUMPDEST PUSH2 0x1198 JUMP JUMPDEST STOP JUMPDEST PUSH2 0x2F7 PUSH1 0x4 DUP1 CALLDATASIZE SUB DUP2 ADD SWAP1 PUSH2 0x2F2 SWAP2 SWAP1 PUSH2 0x4024 JUMP JUMPDEST PUSH2 0x12B0 JUMP JUMPDEST PUSH1 0x40 MLOAD PUSH2 0x304 SWAP2 SWAP1 PUSH2 0x4151 JUMP JUMPDEST PUSH1 0x40 MLOAD DUP1 SWAP2 SUB SWAP1 RETURN JUMPDEST PUSH2 0x327 PUSH1 0x4 DUP1 CALLDATASIZE SUB DUP2 ADD SWAP1 PUSH2 0x322 SWAP2 SWAP1 PUSH2 0x3B9A JUMP JUMPDEST PUSH2 0x13B7 JUMP JUMPDEST PUSH1 0x40 MLOAD PUSH2 0x334 SWAP2 SWAP1 PUSH2 0x399C JUMP JUMPDEST PUSH1 0x40 MLOAD DUP1 SWAP2 SUB SWAP1 RETURN JUMPDEST PUSH2 0x357 PUSH1 0x4 DUP1 CALLDATASIZE SUB DUP2 ADD SWAP1 PUSH2 0x352 SWAP2 SWAP1 PUSH2 0x4171 JUMP JUMPDEST PUSH2 0x13CA JUMP JUMPDEST STOP JUMPDEST PUSH2 0x373 PUSH1 0x4 DUP1 CALLDATASIZE SUB DUP2 ADD SWAP1 PUSH2 0x36E SWAP2 SWAP1 PUSH2 0x4171 JUMP JUMPDEST PUSH2 0x14C2 JUMP JUMPDEST STOP JUMPDEST PUSH2 0x38F PUSH1 0x4 DUP1 CALLDATASIZE SUB DUP2 ADD SWAP1 PUSH2 0x38A SWAP2 SWAP1 PUSH2 0x3F39 JUMP JUMPDEST PUSH2 0x1550 JUMP JUMPDEST PUSH1 0x40 MLOAD PUSH2 0x39D SWAP3 SWAP2 SWAP1 PUSH2 0x41FD JUMP JUMPDEST PUSH1 0x40 MLOAD DUP1 SWAP2 SUB SWAP1 RETURN JUMPDEST PUSH2 0x3C0 PUSH1 0x4 DUP1 CALLDATASIZE SUB DUP2 ADD SWAP1 PUSH2 0x3BB SWAP2 SWAP1 PUSH2 0x422B JUMP JUMPDEST PUSH2 0x1615 JUMP JUMPDEST STOP JUMPDEST PUSH2 0x3CA PUSH2 0x178C JUMP JUMPDEST STOP JUMPDEST PUSH2 0x3E6 PUSH1 0x4 DUP1 CALLDATASIZE SUB DUP2 ADD SWAP1 PUSH2 0x3E1 SWAP2 SWAP1 PUSH2 0x42D5 JUMP JUMPDEST PUSH2 0x191D JUMP JUMPDEST STOP JUMPDEST PUSH2 0x3F0 PUSH2 0x1C2E JUMP JUMPDEST PUSH1 0x40 MLOAD PUSH2 0x3FD SWAP2 SWAP1 PUSH2 0x431C JUMP JUMPDEST PUSH1 0x40 MLOAD DUP1 SWAP2 SUB SWAP1 RETURN JUMPDEST PUSH2 0x420 PUSH1 0x4 DUP1 CALLDATASIZE SUB DUP2 ADD SWAP1 PUSH2 0x41B SWAP2 SWAP1 PUSH2 0x435F JUMP JUMPDEST PUSH2 0x1C56 JUMP JUMPDEST STOP JUMPDEST PUSH2 0x43C PUSH1 0x4 DUP1 CALLDATASIZE SUB DUP2 ADD SWAP1 PUSH2 0x437 SWAP2 SWAP1 PUSH2 0x4519 JUMP JUMPDEST PUSH2 0x1C6C JUMP JUMPDEST STOP JUMPDEST PUSH2 0x458 PUSH1 0x4 DUP1 CALLDATASIZE SUB DUP2 ADD SWAP1 PUSH2 0x453 SWAP2 SWAP1 PUSH2 0x3B9A JUMP JUMPDEST PUSH2 0x1DB4 JUMP JUMPDEST PUSH1 0x40 MLOAD PUSH2 0x465 SWAP2 SWAP1 PUSH2 0x38E9 JUMP JUMPDEST PUSH1 0x40 MLOAD DUP1 SWAP2 SUB SWAP1 RETURN JUMPDEST PUSH2 0x488 PUSH1 0x4 DUP1 CALLDATASIZE SUB DUP2 ADD SWAP1 PUSH2 0x483 SWAP2 SWAP1 PUSH2 0x4600 JUMP JUMPDEST PUSH2 0x1DCE JUMP JUMPDEST STOP JUMPDEST PUSH2 0x4A4 PUSH1 0x4 DUP1 CALLDATASIZE SUB DUP2 ADD SWAP1 PUSH2 0x49F SWAP2 SWAP1 PUSH2 0x3EFB JUMP JUMPDEST PUSH2 0x1ECB JUMP JUMPDEST PUSH1 0x40 MLOAD PUSH2 0x4B1 SWAP2 SWAP1 PUSH2 0x399C JUMP JUMPDEST PUSH1 0x40 MLOAD DUP1 SWAP2 SUB SWAP1 RETURN JUMPDEST PUSH2 0x4D4 PUSH1 0x4 DUP1 CALLDATASIZE SUB DUP2 ADD SWAP1 PUSH2 0x4CF SWAP2 SWAP1 PUSH2 0x46AF JUMP JUMPDEST PUSH2 0x1F59 JUMP JUMPDEST STOP JUMPDEST PUSH2 0x4F0 PUSH1 0x4 DUP1 CALLDATASIZE SUB DUP2 ADD SWAP1 PUSH2 0x4EB SWAP2 SWAP1 PUSH2 0x4171 JUMP JUMPDEST PUSH2 0x2000 JUMP JUMPDEST STOP JUMPDEST PUSH2 0x50C PUSH1 0x4 DUP1 CALLDATASIZE SUB DUP2 ADD SWAP1 PUSH2 0x507 SWAP2 SWAP1 PUSH2 0x4742 JUMP JUMPDEST PUSH2 0x2014 JUMP JUMPDEST STOP JUMPDEST PUSH0 DUP1 PUSH0 DUP4 DUP2 MSTORE PUSH1 0x20 ADD SWAP1 DUP2 MSTORE PUSH1 0x20 ADD PUSH0 KECCAK256 PUSH0 DUP5 PUSH20 0xFFFFFFFFFFFFFFFFFFFFFFFFFFFFFFFFFFFFFFFF AND PUSH20 0xFFFFFFFFFFFFFFFFFFFFFFFFFFFFFFFFFFFFFFFF AND DUP2 MSTORE PUSH1 0x20 ADD SWAP1 DUP2 MSTORE PUSH1 0x20 ADD PUSH0 KECCAK256 SLOAD SWAP1 POP SWAP3 SWAP2 POP POP JUMP JUMPDEST PUSH0 PUSH32 0x85572FFB00000000000000000000000000000000000000000000000000000000 PUSH28 0xFFFFFFFFFFFFFFFFFFFFFFFFFFFFFFFFFFFFFFFFFFFFFFFFFFFFFFFF NOT AND DUP3 PUSH28 0xFFFFFFFFFFFFFFFFFFFFFFFFFFFFFFFFFFFFFFFFFFFFFFFFFFFFFFFF NOT AND EQ DUP1 PUSH2 0x5D5 JUMPI POP PUSH2 0x5D4 DUP3 PUSH2 0x218B JUMP JUMPDEST JUMPDEST SWAP1 POP SWAP2 SWAP1 POP JUMP JUMPDEST PUSH2 0x5E4 PUSH2 0x226C JUMP JUMPDEST DUP3 PUSH32 0x0 PUSH8 0xFFFFFFFFFFFFFFFF AND DUP2 PUSH8 0xFFFFFFFFFFFFFFFF AND SUB PUSH2 0x65D JUMPI DUP1 PUSH1 0x40 MLOAD PUSH32 0x40D8E3A100000000000000000000000000000000000000000000000000000000 DUP2 MSTORE PUSH1 0x4 ADD PUSH2 0x654 SWAP2 SWAP1 PUSH2 0x47A1 JUMP JUMPDEST PUSH1 0x40 MLOAD DUP1 SWAP2 SUB SWAP1 REVERT JUMPDEST PUSH1 0x40 MLOAD DUP1 PUSH1 0x40 ADD PUSH1 0x40 MSTORE DUP1 DUP5 PUSH20 0xFFFFFFFFFFFFFFFFFFFFFFFFFFFFFFFFFFFFFFFF AND DUP2 MSTORE PUSH1 0x20 ADD DUP4 DUP2 MSTORE POP PUSH1 0xA PUSH0 DUP7 PUSH8 0xFFFFFFFFFFFFFFFF AND PUSH8 0xFFFFFFFFFFFFFFFF AND DUP2 MSTORE PUSH1 0x20 ADD SWAP1 DUP2 MSTORE PUSH1 0x20 ADD PUSH0 KECCAK256 PUSH0 DUP3 ADD MLOAD DUP2 PUSH0 ADD PUSH0 PUSH2 0x100 EXP DUP2 SLOAD DUP2 PUSH20 0xFFFFFFFFFFFFFFFFFFFFFFFFFFFFFFFFFFFFFFFF MUL NOT AND SWAP1 DUP4 PUSH20 0xFFFFFFFFFFFFFFFFFFFFFFFFFFFFFFFFFFFFFFFF AND MUL OR SWAP1 SSTORE POP PUSH1 0x20 DUP3 ADD MLOAD DUP2 PUSH1 0x1 ADD SWAP1 DUP2 PUSH2 0x706 SWAP2 SWAP1 PUSH2 0x49B4 JUMP JUMPDEST POP SWAP1 POP POP PUSH32 0x59CC0B49D3359AC35E3872E99199469B6A1025C9A945CD9B6A411BFFE337272D DUP5 DUP5 DUP5 PUSH1 0x40 MLOAD PUSH2 0x73D SWAP4 SWAP3 SWAP2 SWAP1 PUSH2 0x4A83 JUMP JUMPDEST PUSH1 0x40 MLOAD DUP1 SWAP2 SUB SWAP1 LOG1 POP POP POP POP JUMP JUMPDEST PUSH1 0x60 PUSH0 PUSH1 0x8 PUSH0 DUP5 DUP2 MSTORE PUSH1 0x20 ADD SWAP1 DUP2 MSTORE PUSH1 0x20 ADD PUSH0 KECCAK256 DUP1 SLOAD PUSH2 0x76A SWAP1 PUSH2 0x47E7 JUMP JUMPDEST DUP1 PUSH1 0x1F ADD PUSH1 0x20 DUP1 SWAP2 DIV MUL PUSH1 0x20 ADD PUSH1 0x40 MLOAD SWAP1 DUP2 ADD PUSH1 0x40 MSTORE DUP1 SWAP3 SWAP2 SWAP1 DUP2 DUP2 MSTORE PUSH1 0x20 ADD DUP3 DUP1 SLOAD PUSH2 0x796 SWAP1 PUSH2 0x47E7 JUMP JUMPDEST DUP1 ISZERO PUSH2 0x7E1 JUMPI DUP1 PUSH1 0x1F LT PUSH2 0x7B8 JUMPI PUSH2 0x100 DUP1 DUP4 SLOAD DIV MUL DUP4 MSTORE SWAP2 PUSH1 0x20 ADD SWAP2 PUSH2 0x7E1 JUMP JUMPDEST DUP3 ADD SWAP2 SWAP1 PUSH0 MSTORE PUSH1 0x20 PUSH0 KECCAK256 SWAP1 JUMPDEST DUP2 SLOAD DUP2 MSTORE SWAP1 PUSH1 0x1 ADD SWAP1 PUSH1 0x20 ADD DUP1 DUP4 GT PUSH2 0x7C4 JUMPI DUP3 SWAP1 SUB PUSH1 0x1F AND DUP3 ADD SWAP2 JUMPDEST POP POP POP POP POP SWAP1 POP PUSH0 DUP2 MLOAD GT PUSH2 0x7FE JUMPI PUSH2 0x7F9 DUP4 PUSH2 0x22FD JUMP JUMPDEST PUSH2 0x800 JUMP JUMPDEST DUP1 JUMPDEST SWAP2 POP POP SWAP2 SWAP1 POP JUMP JUMPDEST PUSH0 PUSH1 0x4 SLOAD SWAP1 POP SWAP1 JUMP JUMPDEST PUSH0 PUSH2 0x81A PUSH2 0x238F JUMP JUMPDEST DUP3 PUSH0 PUSH20 0xFFFFFFFFFFFFFFFFFFFFFFFFFFFFFFFFFFFFFFFF AND PUSH1 0xA PUSH0 DUP4 PUSH8 0xFFFFFFFFFFFFFFFF AND PUSH8 0xFFFFFFFFFFFFFFFF AND DUP2 MSTORE PUSH1 0x20 ADD SWAP1 DUP2 MSTORE PUSH1 0x20 ADD PUSH0 KECCAK256 PUSH0 ADD PUSH0 SWAP1 SLOAD SWAP1 PUSH2 0x100 EXP SWAP1 DIV PUSH20 0xFFFFFFFFFFFFFFFFFFFFFFFFFFFFFFFFFFFFFFFF AND PUSH20 0xFFFFFFFFFFFFFFFFFFFFFFFFFFFFFFFFFFFFFFFF AND SUB PUSH2 0x8D1 JUMPI DUP1 PUSH1 0x40 MLOAD PUSH32 0x1C33FBEE00000000000000000000000000000000000000000000000000000000 DUP2 MSTORE PUSH1 0x4 ADD PUSH2 0x8C8 SWAP2 SWAP1 PUSH2 0x47A1 JUMP JUMPDEST PUSH1 0x40 MLOAD DUP1 SWAP2 SUB SWAP1 REVERT JUMPDEST PUSH0 PUSH2 0x8DB DUP9 PUSH2 0x74B JUMP JUMPDEST SWAP1 POP PUSH2 0x8E8 DUP11 DUP10 DUP10 PUSH2 0x2014 JUMP JUMPDEST PUSH0 PUSH1 0x40 MLOAD DUP1 PUSH1 0xA0 ADD PUSH1 0x40 MSTORE DUP1 PUSH1 0xA PUSH0 DUP10 PUSH8 0xFFFFFFFFFFFFFFFF AND PUSH8 0xFFFFFFFFFFFFFFFF AND DUP2 MSTORE PUSH1 0x20 ADD SWAP1 DUP2 MSTORE PUSH1 0x20 ADD PUSH0 KECCAK256 PUSH0 ADD PUSH0 SWAP1 SLOAD SWAP1 PUSH2 0x100 EXP SWAP1 DIV PUSH20 0xFFFFFFFFFFFFFFFFFFFFFFFFFFFFFFFFFFFFFFFF AND PUSH1 0x40 MLOAD PUSH1 0x20 ADD PUSH2 0x94B SWAP2 SWAP1 PUSH2 0x431C JUMP JUMPDEST PUSH1 0x40 MLOAD PUSH1 0x20 DUP2 DUP4 SUB SUB DUP2 MSTORE SWAP1 PUSH1 0x40 MSTORE DUP2 MSTORE PUSH1 0x20 ADD DUP13 DUP13 DUP13 DUP13 DUP13 DUP9 PUSH1 0x40 MLOAD PUSH1 0x20 ADD PUSH2 0x97A SWAP7 SWAP6 SWAP5 SWAP4 SWAP3 SWAP2 SWAP1 PUSH2 0x4ABF JUMP JUMPDEST PUSH1 0x40 MLOAD PUSH1 0x20 DUP2 DUP4 SUB SUB DUP2 MSTORE SWAP1 PUSH1 0x40 MSTORE DUP2 MSTORE PUSH1 0x20 ADD PUSH0 PUSH8 0xFFFFFFFFFFFFFFFF DUP2 GT ISZERO PUSH2 0x9A8 JUMPI PUSH2 0x9A7 PUSH2 0x3A0A JUMP JUMPDEST JUMPDEST PUSH1 0x40 MLOAD SWAP1 DUP1 DUP3 MSTORE DUP1 PUSH1 0x20 MUL PUSH1 0x20 ADD DUP3 ADD PUSH1 0x40 MSTORE DUP1 ISZERO PUSH2 0x9E1 JUMPI DUP2 PUSH1 0x20 ADD JUMPDEST PUSH2 0x9CE PUSH2 0x3778 JUMP JUMPDEST DUP2 MSTORE PUSH1 0x20 ADD SWAP1 PUSH1 0x1 SWAP1 SUB SWAP1 DUP2 PUSH2 0x9C6 JUMPI SWAP1 POP JUMPDEST POP DUP2 MSTORE PUSH1 0x20 ADD PUSH1 0x1 DUP1 DUP2 GT ISZERO PUSH2 0x9FA JUMPI PUSH2 0x9F9 PUSH2 0x4B2C JUMP JUMPDEST JUMPDEST DUP8 PUSH1 0x1 DUP2 GT ISZERO PUSH2 0xA0D JUMPI PUSH2 0xA0C PUSH2 0x4B2C JUMP JUMPDEST JUMPDEST EQ PUSH2 0xA18 JUMPI PUSH0 PUSH2 0xA3A JUMP JUMPDEST PUSH32 0x0 JUMPDEST PUSH20 0xFFFFFFFFFFFFFFFFFFFFFFFFFFFFFFFFFFFFFFFF AND DUP2 MSTORE PUSH1 0x20 ADD PUSH1 0xA PUSH0 DUP10 PUSH8 0xFFFFFFFFFFFFFFFF AND PUSH8 0xFFFFFFFFFFFFFFFF AND DUP2 MSTORE PUSH1 0x20 ADD SWAP1 DUP2 MSTORE PUSH1 0x20 ADD PUSH0 KECCAK256 PUSH1 0x1 ADD DUP1 SLOAD PUSH2 0xA88 SWAP1 PUSH2 0x47E7 JUMP JUMPDEST DUP1 PUSH1 0x1F ADD PUSH1 0x20 DUP1 SWAP2 DIV MUL PUSH1 0x20 ADD PUSH1 0x40 MLOAD SWAP1 DUP2 ADD PUSH1 0x40 MSTORE DUP1 SWAP3 SWAP2 SWAP1 DUP2 DUP2 MSTORE PUSH1 0x20 ADD DUP3 DUP1 SLOAD PUSH2 0xAB4 SWAP1 PUSH2 0x47E7 JUMP JUMPDEST DUP1 ISZERO PUSH2 0xAFF JUMPI DUP1 PUSH1 0x1F LT PUSH2 0xAD6 JUMPI PUSH2 0x100 DUP1 DUP4 SLOAD DIV MUL DUP4 MSTORE SWAP2 PUSH1 0x20 ADD SWAP2 PUSH2 0xAFF JUMP JUMPDEST DUP3 ADD SWAP2 SWAP1 PUSH0 MSTORE PUSH1 0x20 PUSH0 KECCAK256 SWAP1 JUMPDEST DUP2 SLOAD DUP2 MSTORE SWAP1 PUSH1 0x1 ADD SWAP1 PUSH1 0x20 ADD DUP1 DUP4 GT PUSH2 0xAE2 JUMPI DUP3 SWAP1 SUB PUSH1 0x1F AND DUP3 ADD SWAP2 JUMPDEST POP POP POP POP POP DUP2 MSTORE POP SWAP1 POP PUSH0 PUSH32 0x0 PUSH20 0xFFFFFFFFFFFFFFFFFFFFFFFFFFFFFFFFFFFFFFFF AND PUSH4 0x20487DED DUP9 DUP5 PUSH1 0x40 MLOAD DUP4 PUSH4 0xFFFFFFFF AND PUSH1 0xE0 SHL DUP2 MSTORE PUSH1 0x4 ADD PUSH2 0xB65 SWAP3 SWAP2 SWAP1 PUSH2 0x4D0D JUMP JUMPDEST PUSH1 0x20 PUSH1 0x40 MLOAD DUP1 DUP4 SUB DUP2 DUP7 GAS STATICCALL ISZERO DUP1 ISZERO PUSH2 0xB80 JUMPI RETURNDATASIZE PUSH0 DUP1 RETURNDATACOPY RETURNDATASIZE PUSH0 REVERT JUMPDEST POP POP POP POP PUSH1 0x40 MLOAD RETURNDATASIZE PUSH1 0x1F NOT PUSH1 0x1F DUP3 ADD AND DUP3 ADD DUP1 PUSH1 0x40 MSTORE POP DUP2 ADD SWAP1 PUSH2 0xBA4 SWAP2 SWAP1 PUSH2 0x4D4F JUMP JUMPDEST SWAP1 POP PUSH1 0x1 DUP1 DUP2 GT ISZERO PUSH2 0xBB9 JUMPI PUSH2 0xBB8 PUSH2 0x4B2C JUMP JUMPDEST JUMPDEST DUP7 PUSH1 0x1 DUP2 GT ISZERO PUSH2 0xBCC JUMPI PUSH2 0xBCB PUSH2 0x4B2C JUMP JUMPDEST JUMPDEST SUB PUSH2 0xEA4 JUMPI PUSH32 0x0 PUSH20 0xFFFFFFFFFFFFFFFFFFFFFFFFFFFFFFFFFFFFFFFF AND PUSH4 0x70A08231 ADDRESS PUSH1 0x40 MLOAD DUP3 PUSH4 0xFFFFFFFF AND PUSH1 0xE0 SHL DUP2 MSTORE PUSH1 0x4 ADD PUSH2 0xC2A SWAP2 SWAP1 PUSH2 0x431C JUMP JUMPDEST PUSH1 0x20 PUSH1 0x40 MLOAD DUP1 DUP4 SUB DUP2 DUP7 GAS STATICCALL ISZERO DUP1 ISZERO PUSH2 0xC45 JUMPI RETURNDATASIZE PUSH0 DUP1 RETURNDATACOPY RETURNDATASIZE PUSH0 REVERT JUMPDEST POP POP POP POP PUSH1 0x40 MLOAD RETURNDATASIZE PUSH1 0x1F NOT PUSH1 0x1F DUP3 ADD AND DUP3 ADD DUP1 PUSH1 0x40 MSTORE POP DUP2 ADD SWAP1 PUSH2 0xC69 SWAP2 SWAP1 PUSH2 0x4D4F JUMP JUMPDEST DUP2 GT ISZERO PUSH2 0xD46 JUMPI PUSH32 0x0 PUSH20 0xFFFFFFFFFFFFFFFFFFFFFFFFFFFFFFFFFFFFFFFF AND PUSH4 0x70A08231 ADDRESS PUSH1 0x40 MLOAD DUP3 PUSH4 0xFFFFFFFF AND PUSH1 0xE0 SHL DUP2 MSTORE PUSH1 0x4 ADD PUSH2 0xCC9 SWAP2 SWAP1 PUSH2 0x431C JUMP JUMPDEST PUSH1 0x20 PUSH1 0x40 MLOAD DUP1 DUP4 SUB DUP2 DUP7 GAS STATICCALL ISZERO DUP1 ISZERO PUSH2 0xCE4 JUMPI RETURNDATASIZE PUSH0 DUP1 RETURNDATACOPY RETURNDATASIZE PUSH0 REVERT JUMPDEST POP POP POP POP PUSH1 0x40 MLOAD RETURNDATASIZE PUSH1 0x1F NOT PUSH1 0x1F DUP3 ADD AND DUP3 ADD DUP1 PUSH1 0x40 MSTORE POP DUP2 ADD SWAP1 PUSH2 0xD08 SWAP2 SWAP1 PUSH2 0x4D4F JUMP JUMPDEST DUP2 PUSH1 0x40 MLOAD PUSH32 0x28FDCAA100000000000000000000000000000000000000000000000000000000 DUP2 MSTORE PUSH1 0x4 ADD PUSH2 0xD3D SWAP3 SWAP2 SWAP1 PUSH2 0x4D7A JUMP JUMPDEST PUSH1 0x40 MLOAD DUP1 SWAP2 SUB SWAP1 REVERT JUMPDEST PUSH32 0x0 PUSH20 0xFFFFFFFFFFFFFFFFFFFFFFFFFFFFFFFFFFFFFFFF AND PUSH4 0x95EA7B3 PUSH32 0x0 DUP4 PUSH1 0x40 MLOAD DUP4 PUSH4 0xFFFFFFFF AND PUSH1 0xE0 SHL DUP2 MSTORE PUSH1 0x4 ADD PUSH2 0xDC1 SWAP3 SWAP2 SWAP1 PUSH2 0x4DA1 JUMP JUMPDEST PUSH1 0x20 PUSH1 0x40 MLOAD DUP1 DUP4 SUB DUP2 PUSH0 DUP8 GAS CALL ISZERO DUP1 ISZERO PUSH2 0xDDD JUMPI RETURNDATASIZE PUSH0 DUP1 RETURNDATACOPY RETURNDATASIZE PUSH0 REVERT JUMPDEST POP POP POP POP PUSH1 0x40 MLOAD RETURNDATASIZE PUSH1 0x1F NOT PUSH1 0x1F DUP3 ADD AND DUP3 ADD DUP1 PUSH1 0x40 MSTORE POP DUP2 ADD SWAP1 PUSH2 0xE01 SWAP2 SWAP1 PUSH2 0x4DDC JUMP JUMPDEST POP PUSH32 0x0 PUSH20 0xFFFFFFFFFFFFFFFFFFFFFFFFFFFFFFFFFFFFFFFF AND PUSH4 0x96F4E9F9 DUP9 DUP5 PUSH1 0x40 MLOAD DUP4 PUSH4 0xFFFFFFFF AND PUSH1 0xE0 SHL DUP2 MSTORE PUSH1 0x4 ADD PUSH2 0xE5D SWAP3 SWAP2 SWAP1 PUSH2 0x4D0D JUMP JUMPDEST PUSH1 0x20 PUSH1 0x40 MLOAD DUP1 DUP4 SUB DUP2 PUSH0 DUP8 GAS CALL ISZERO DUP1 ISZERO PUSH2 0xE79 JUMPI RETURNDATASIZE PUSH0 DUP1 RETURNDATACOPY RETURNDATASIZE PUSH0 REVERT JUMPDEST POP POP POP POP PUSH1 0x40 MLOAD RETURNDATASIZE PUSH1 0x1F NOT PUSH1 0x1F DUP3 ADD AND DUP3 ADD DUP1 PUSH1 0x40 MSTORE POP DUP2 ADD SWAP1 PUSH2 0xE9D SWAP2 SWAP1 PUSH2 0x4E31 JUMP JUMPDEST SWAP5 POP PUSH2 0xF8B JUMP JUMPDEST SELFBALANCE DUP2 GT ISZERO PUSH2 0xEEB JUMPI SELFBALANCE DUP2 PUSH1 0x40 MLOAD PUSH32 0x28FDCAA100000000000000000000000000000000000000000000000000000000 DUP2 MSTORE PUSH1 0x4 ADD PUSH2 0xEE2 SWAP3 SWAP2 SWAP1 PUSH2 0x4D7A JUMP JUMPDEST PUSH1 0x40 MLOAD DUP1 SWAP2 SUB SWAP1 REVERT JUMPDEST PUSH32 0x0 PUSH20 0xFFFFFFFFFFFFFFFFFFFFFFFFFFFFFFFFFFFFFFFF AND PUSH4 0x96F4E9F9 DUP3 DUP10 DUP6 PUSH1 0x40 MLOAD DUP5 PUSH4 0xFFFFFFFF AND PUSH1 0xE0 SHL DUP2 MSTORE PUSH1 0x4 ADD PUSH2 0xF47 SWAP3 SWAP2 SWAP1 PUSH2 0x4D0D JUMP JUMPDEST PUSH1 0x20 PUSH1 0x40 MLOAD DUP1 DUP4 SUB DUP2 DUP6 DUP9 GAS CALL ISZERO DUP1 ISZERO PUSH2 0xF63 JUMPI RETURNDATASIZE PUSH0 DUP1 RETURNDATACOPY RETURNDATASIZE PUSH0 REVERT JUMPDEST POP POP POP POP POP PUSH1 0x40 MLOAD RETURNDATASIZE PUSH1 0x1F NOT PUSH1 0x1F DUP3 ADD AND DUP3 ADD DUP1 PUSH1 0x40 MSTORE POP DUP2 ADD SWAP1 PUSH2 0xF88 SWAP2 SWAP1 PUSH2 0x4E31 JUMP JUMPDEST SWAP5 POP JUMPDEST PUSH32 0x300E6C20D2E9D8DB9B2DF40EBCE943D9DAE3FA3A8EAEC841A3D1CB9A1E8B6AD7 DUP13 DUP13 DUP13 DUP13 DUP13 PUSH32 0x0 DUP14 PUSH1 0x40 MLOAD PUSH2 0xFE6 SWAP8 SWAP7 SWAP6 SWAP5 SWAP4 SWAP3 SWAP2 SWAP1 PUSH2 0x4E5C JUMP JUMPDEST PUSH1 0x40 MLOAD DUP1 SWAP2 SUB SWAP1 LOG1 POP POP POP POP PUSH2 0xFFA PUSH2 0x23D5 JUMP JUMPDEST SWAP8 SWAP7 POP POP POP POP POP POP POP JUMP JUMPDEST PUSH0 PUSH2 0x100E PUSH2 0x23DF JUMP JUMPDEST SWAP1 POP DUP1 PUSH20 0xFFFFFFFFFFFFFFFFFFFFFFFFFFFFFFFFFFFFFFFF AND DUP7 PUSH20 0xFFFFFFFFFFFFFFFFFFFFFFFFFFFFFFFFFFFFFFFF AND EQ ISZERO DUP1 ISZERO PUSH2 0x1053 JUMPI POP PUSH2 0x1051 DUP7 DUP3 PUSH2 0x1ECB JUMP JUMPDEST ISZERO JUMPDEST ISZERO PUSH2 0x1097 JUMPI DUP1 DUP7 PUSH1 0x40 MLOAD PUSH32 0xE237D92200000000000000000000000000000000000000000000000000000000 DUP2 MSTORE PUSH1 0x4 ADD PUSH2 0x108E SWAP3 SWAP2 SWAP1 PUSH2 0x4ED0 JUMP JUMPDEST PUSH1 0x40 MLOAD DUP1 SWAP2 SUB SWAP1 REVERT JUMPDEST PUSH2 0x10A4 DUP7 DUP7 DUP7 DUP7 DUP7 PUSH2 0x23E6 JUMP JUMPDEST POP POP POP POP POP POP JUMP JUMPDEST PUSH2 0x10B4 PUSH2 0x226C JUMP JUMPDEST PUSH0 DUP2 PUSH20 0xFFFFFFFFFFFFFFFFFFFFFFFFFFFFFFFFFFFFFFFF AND PUSH4 0x70A08231 ADDRESS PUSH1 0x40 MLOAD DUP3 PUSH4 0xFFFFFFFF AND PUSH1 0xE0 SHL DUP2 MSTORE PUSH1 0x4 ADD PUSH2 0x10EE SWAP2 SWAP1 PUSH2 0x431C JUMP JUMPDEST PUSH1 0x20 PUSH1 0x40 MLOAD DUP1 DUP4 SUB DUP2 DUP7 GAS STATICCALL ISZERO DUP1 ISZERO PUSH2 0x1109 JUMPI RETURNDATASIZE PUSH0 DUP1 RETURNDATACOPY RETURNDATASIZE PUSH0 REVERT JUMPDEST POP POP POP POP PUSH1 0x40 MLOAD RETURNDATASIZE PUSH1 0x1F NOT PUSH1 0x1F DUP3 ADD AND DUP3 ADD DUP1 PUSH1 0x40 MSTORE POP DUP2 ADD SWAP1 PUSH2 0x112D SWAP2 SWAP1 PUSH2 0x4D4F JUMP JUMPDEST SWAP1 POP PUSH0 DUP2 SUB PUSH2 0x1168 JUMPI PUSH1 0x40 MLOAD PUSH32 0xD0D04F6000000000000000000000000000000000000000000000000000000000 DUP2 MSTORE PUSH1 0x4 ADD PUSH1 0x40 MLOAD DUP1 SWAP2 SUB SWAP1 REVERT JUMPDEST PUSH2 0x1193 DUP4 DUP3 DUP5 PUSH20 0xFFFFFFFFFFFFFFFFFFFFFFFFFFFFFFFFFFFFFFFF AND PUSH2 0x24DA SWAP1 SWAP3 SWAP2 SWAP1 PUSH4 0xFFFFFFFF AND JUMP JUMPDEST POP POP POP JUMP JUMPDEST PUSH2 0x11A0 PUSH2 0x226C JUMP JUMPDEST DUP1 PUSH32 0x0 PUSH8 0xFFFFFFFFFFFFFFFF AND DUP2 PUSH8 0xFFFFFFFFFFFFFFFF AND SUB PUSH2 0x1219 JUMPI DUP1 PUSH1 0x40 MLOAD PUSH32 0x40D8E3A100000000000000000000000000000000000000000000000000000000 DUP2 MSTORE PUSH1 0x4 ADD PUSH2 0x1210 SWAP2 SWAP1 PUSH2 0x47A1 JUMP JUMPDEST PUSH1 0x40 MLOAD DUP1 SWAP2 SUB SWAP1 REVERT JUMPDEST PUSH1 0xA PUSH0 DUP4 PUSH8 0xFFFFFFFFFFFFFFFF AND PUSH8 0xFFFFFFFFFFFFFFFF AND DUP2 MSTORE PUSH1 0x20 ADD SWAP1 DUP2 MSTORE PUSH1 0x20 ADD PUSH0 KECCAK256 PUSH0 DUP1 DUP3 ADD PUSH0 PUSH2 0x100 EXP DUP2 SLOAD SWAP1 PUSH20 0xFFFFFFFFFFFFFFFFFFFFFFFFFFFFFFFFFFFFFFFF MUL NOT AND SWAP1 SSTORE PUSH1 0x1 DUP3 ADD PUSH0 PUSH2 0x1273 SWAP2 SWAP1 PUSH2 0x37A6 JUMP JUMPDEST POP POP PUSH32 0x67E02000179A6045F4DB8FB1B09F01E170B0347E0B698FC5112CE4D798EF19F6 DUP3 PUSH1 0x40 MLOAD PUSH2 0x12A4 SWAP2 SWAP1 PUSH2 0x47A1 JUMP JUMPDEST PUSH1 0x40 MLOAD DUP1 SWAP2 SUB SWAP1 LOG1 POP POP JUMP JUMPDEST PUSH1 0x60 DUP2 MLOAD DUP4 MLOAD EQ PUSH2 0x12FC JUMPI DUP2 MLOAD DUP4 MLOAD PUSH1 0x40 MLOAD PUSH32 0x5B05999100000000000000000000000000000000000000000000000000000000 DUP2 MSTORE PUSH1 0x4 ADD PUSH2 0x12F3 SWAP3 SWAP2 SWAP1 PUSH2 0x4D7A JUMP JUMPDEST PUSH1 0x40 MLOAD DUP1 SWAP2 SUB SWAP1 REVERT JUMPDEST PUSH0 DUP4 MLOAD PUSH8 0xFFFFFFFFFFFFFFFF DUP2 GT ISZERO PUSH2 0x1318 JUMPI PUSH2 0x1317 PUSH2 0x3A0A JUMP JUMPDEST JUMPDEST PUSH1 0x40 MLOAD SWAP1 DUP1 DUP3 MSTORE DUP1 PUSH1 0x20 MUL PUSH1 0x20 ADD DUP3 ADD PUSH1 0x40 MSTORE DUP1 ISZERO PUSH2 0x1346 JUMPI DUP2 PUSH1 0x20 ADD PUSH1 0x20 DUP3 MUL DUP1 CALLDATASIZE DUP4 CALLDATACOPY DUP1 DUP3 ADD SWAP2 POP POP SWAP1 POP JUMPDEST POP SWAP1 POP PUSH0 JUMPDEST DUP5 MLOAD DUP2 LT ISZERO PUSH2 0x13AC JUMPI PUSH2 0x1382 PUSH2 0x136A DUP3 DUP8 PUSH2 0x2559 SWAP1 SWAP2 SWAP1 PUSH4 0xFFFFFFFF AND JUMP JUMPDEST PUSH2 0x137D DUP4 DUP8 PUSH2 0x256C SWAP1 SWAP2 SWAP1 PUSH4 0xFFFFFFFF AND JUMP JUMPDEST PUSH2 0x50E JUMP JUMPDEST DUP3 DUP3 DUP2 MLOAD DUP2 LT PUSH2 0x1395 JUMPI PUSH2 0x1394 PUSH2 0x4EF7 JUMP JUMPDEST JUMPDEST PUSH1 0x20 MUL PUSH1 0x20 ADD ADD DUP2 DUP2 MSTORE POP POP DUP1 PUSH1 0x1 ADD SWAP1 POP PUSH2 0x134B JUMP JUMPDEST POP DUP1 SWAP2 POP POP SWAP3 SWAP2 POP POP JUMP JUMPDEST PUSH0 DUP1 PUSH2 0x13C2 DUP4 PUSH2 0x1DB4 JUMP JUMPDEST GT SWAP1 POP SWAP2 SWAP1 POP JUMP JUMPDEST PUSH2 0x13D2 PUSH2 0x226C JUMP JUMPDEST PUSH0 SELFBALANCE SWAP1 POP PUSH0 DUP2 SUB PUSH2 0x140F JUMPI PUSH1 0x40 MLOAD PUSH32 0xD0D04F6000000000000000000000000000000000000000000000000000000000 DUP2 MSTORE PUSH1 0x4 ADD PUSH1 0x40 MLOAD DUP1 SWAP2 SUB SWAP1 REVERT JUMPDEST PUSH0 DUP3 PUSH20 0xFFFFFFFFFFFFFFFFFFFFFFFFFFFFFFFFFFFFFFFF AND DUP3 PUSH1 0x40 MLOAD PUSH2 0x1434 SWAP1 PUSH2 0x4F51 JUMP JUMPDEST PUSH0 PUSH1 0x40 MLOAD DUP1 DUP4 SUB DUP2 DUP6 DUP8 GAS CALL SWAP3 POP POP POP RETURNDATASIZE DUP1 PUSH0 DUP2 EQ PUSH2 0x146E JUMPI PUSH1 0x40 MLOAD SWAP2 POP PUSH1 0x1F NOT PUSH1 0x3F RETURNDATASIZE ADD AND DUP3 ADD PUSH1 0x40 MSTORE RETURNDATASIZE DUP3 MSTORE RETURNDATASIZE PUSH0 PUSH1 0x20 DUP5 ADD RETURNDATACOPY PUSH2 0x1473 JUMP JUMPDEST PUSH1 0x60 SWAP2 POP JUMPDEST POP POP SWAP1 POP DUP1 PUSH2 0x14BD JUMPI CALLER DUP4 DUP4 PUSH1 0x40 MLOAD PUSH32 0x9D11F56300000000000000000000000000000000000000000000000000000000 DUP2 MSTORE PUSH1 0x4 ADD PUSH2 0x14B4 SWAP4 SWAP3 SWAP2 SWAP1 PUSH2 0x4F65 JUMP JUMPDEST PUSH1 0x40 MLOAD DUP1 SWAP2 SUB SWAP1 REVERT JUMPDEST POP POP POP JUMP JUMPDEST PUSH2 0x14CA PUSH2 0x226C JUMP JUMPDEST DUP1 PUSH1 0x7 PUSH0 PUSH2 0x100 EXP DUP2 SLOAD DUP2 PUSH20 0xFFFFFFFFFFFFFFFFFFFFFFFFFFFFFFFFFFFFFFFF MUL NOT AND SWAP1 DUP4 PUSH20 0xFFFFFFFFFFFFFFFFFFFFFFFFFFFFFFFFFFFFFFFF AND MUL OR SWAP1 SSTORE POP DUP1 PUSH20 0xFFFFFFFFFFFFFFFFFFFFFFFFFFFFFFFFFFFFFFFF AND PUSH32 0xD56ED7B1C1110348B1FBF418469F6FC4ACC32D9B675E9E1E448CC19169A64CA0 PUSH1 0x40 MLOAD PUSH1 0x40 MLOAD DUP1 SWAP2 SUB SWAP1 LOG2 POP JUMP JUMPDEST PUSH1 0xA PUSH1 0x20 MSTORE DUP1 PUSH0 MSTORE PUSH1 0x40 PUSH0 KECCAK256 PUSH0 SWAP2 POP SWAP1 POP DUP1 PUSH0 ADD PUSH0 SWAP1 SLOAD SWAP1 PUSH2 0x100 EXP SWAP1 DIV PUSH20 0xFFFFFFFFFFFFFFFFFFFFFFFFFFFFFFFFFFFFFFFF AND SWAP1 DUP1 PUSH1 0x1 ADD DUP1 SLOAD PUSH2 0x1594 SWAP1 PUSH2 0x47E7 JUMP JUMPDEST DUP1 PUSH1 0x1F ADD PUSH1 0x20 DUP1 SWAP2 DIV MUL PUSH1 0x20 ADD PUSH1 0x40 MLOAD SWAP1 DUP2 ADD PUSH1 0x40 MSTORE DUP1 SWAP3 SWAP2 SWAP1 DUP2 DUP2 MSTORE PUSH1 0x20 ADD DUP3 DUP1 SLOAD PUSH2 0x15C0 SWAP1 PUSH2 0x47E7 JUMP JUMPDEST DUP1 ISZERO PUSH2 0x160B JUMPI DUP1 PUSH1 0x1F LT PUSH2 0x15E2 JUMPI PUSH2 0x100 DUP1 DUP4 SLOAD DIV MUL DUP4 MSTORE SWAP2 PUSH1 0x20 ADD SWAP2 PUSH2 0x160B JUMP JUMPDEST DUP3 ADD SWAP2 SWAP1 PUSH0 MSTORE PUSH1 0x20 PUSH0 KECCAK256 SWAP1 JUMPDEST DUP2 SLOAD DUP2 MSTORE SWAP1 PUSH1 0x1 ADD SWAP1 PUSH1 0x20 ADD DUP1 DUP4 GT PUSH2 0x15EE JUMPI DUP3 SWAP1 SUB PUSH1 0x1F AND DUP3 ADD SWAP2 JUMPDEST POP POP POP POP POP SWAP1 POP DUP3 JUMP JUMPDEST ADDRESS PUSH20 0xFFFFFFFFFFFFFFFFFFFFFFFFFFFFFFFFFFFFFFFF AND CALLER PUSH20 0xFFFFFFFFFFFFFFFFFFFFFFFFFFFFFFFFFFFFFFFF AND EQ ISZERO DUP1 ISZERO PUSH2 0x169E JUMPI POP PUSH1 0x7 PUSH0 SWAP1 SLOAD SWAP1 PUSH2 0x100 EXP SWAP1 DIV PUSH20 0xFFFFFFFFFFFFFFFFFFFFFFFFFFFFFFFFFFFFFFFF AND PUSH20 0xFFFFFFFFFFFFFFFFFFFFFFFFFFFFFFFFFFFFFFFF AND CALLER PUSH20 0xFFFFFFFFFFFFFFFFFFFFFFFFFFFFFFFFFFFFFFFF AND EQ ISZERO JUMPDEST ISZERO PUSH2 0x16E0 JUMPI CALLER PUSH1 0x40 MLOAD PUSH32 0xEE4A26F200000000000000000000000000000000000000000000000000000000 DUP2 MSTORE PUSH1 0x4 ADD PUSH2 0x16D7 SWAP2 SWAP1 PUSH2 0x431C JUMP JUMPDEST PUSH1 0x40 MLOAD DUP1 SWAP2 SUB SWAP1 REVERT JUMPDEST PUSH2 0x16E8 PUSH2 0x23DF JUMP JUMPDEST PUSH20 0xFFFFFFFFFFFFFFFFFFFFFFFFFFFFFFFFFFFFFFFF AND DUP4 PUSH20 0xFFFFFFFFFFFFFFFFFFFFFFFFFFFFFFFFFFFFFFFF AND EQ ISZERO DUP1 ISZERO PUSH2 0x1731 JUMPI POP PUSH2 0x172F DUP4 PUSH2 0x172A PUSH2 0x23DF JUMP JUMPDEST PUSH2 0x1ECB JUMP JUMPDEST ISZERO JUMPDEST ISZERO PUSH2 0x177C JUMPI PUSH2 0x173E PUSH2 0x23DF JUMP JUMPDEST DUP4 PUSH1 0x40 MLOAD PUSH32 0xE237D92200000000000000000000000000000000000000000000000000000000 DUP2 MSTORE PUSH1 0x4 ADD PUSH2 0x1773 SWAP3 SWAP2 SWAP1 PUSH2 0x4ED0 JUMP JUMPDEST PUSH1 0x40 MLOAD DUP1 SWAP2 SUB SWAP1 REVERT JUMPDEST PUSH2 0x1787 DUP4 DUP4 DUP4 PUSH2 0x257F JUMP JUMPDEST POP POP POP JUMP JUMPDEST PUSH1 0x6 PUSH0 SWAP1 SLOAD SWAP1 PUSH2 0x100 EXP SWAP1 DIV PUSH20 0xFFFFFFFFFFFFFFFFFFFFFFFFFFFFFFFFFFFFFFFF AND PUSH20 0xFFFFFFFFFFFFFFFFFFFFFFFFFFFFFFFFFFFFFFFF AND CALLER PUSH20 0xFFFFFFFFFFFFFFFFFFFFFFFFFFFFFFFFFFFFFFFF AND EQ PUSH2 0x181B JUMPI PUSH1 0x40 MLOAD PUSH32 0x8C379A000000000000000000000000000000000000000000000000000000000 DUP2 MSTORE PUSH1 0x4 ADD PUSH2 0x1812 SWAP1 PUSH2 0x4FE4 JUMP JUMPDEST PUSH1 0x40 MLOAD DUP1 SWAP2 SUB SWAP1 REVERT JUMPDEST PUSH0 PUSH1 0x5 PUSH0 SWAP1 SLOAD SWAP1 PUSH2 0x100 EXP SWAP1 DIV PUSH20 0xFFFFFFFFFFFFFFFFFFFFFFFFFFFFFFFFFFFFFFFF AND SWAP1 POP CALLER PUSH1 0x5 PUSH0 PUSH2 0x100 EXP DUP2 SLOAD DUP2 PUSH20 0xFFFFFFFFFFFFFFFFFFFFFFFFFFFFFFFFFFFFFFFF MUL NOT AND SWAP1 DUP4 PUSH20 0xFFFFFFFFFFFFFFFFFFFFFFFFFFFFFFFFFFFFFFFF AND MUL OR SWAP1 SSTORE POP PUSH0 PUSH1 0x6 PUSH0 PUSH2 0x100 EXP DUP2 SLOAD DUP2 PUSH20 0xFFFFFFFFFFFFFFFFFFFFFFFFFFFFFFFFFFFFFFFF MUL NOT AND SWAP1 DUP4 PUSH20 0xFFFFFFFFFFFFFFFFFFFFFFFFFFFFFFFFFFFFFFFF AND MUL OR SWAP1 SSTORE POP CALLER PUSH20 0xFFFFFFFFFFFFFFFFFFFFFFFFFFFFFFFFFFFFFFFF AND DUP2 PUSH20 0xFFFFFFFFFFFFFFFFFFFFFFFFFFFFFFFFFFFFFFFF AND PUSH32 0x8BE0079C531659141344CD1FD0A4F28419497F9722A3DAAFE3B4186F6B6457E0 PUSH1 0x40 MLOAD PUSH1 0x40 MLOAD DUP1 SWAP2 SUB SWAP1 LOG3 POP JUMP JUMPDEST PUSH32 0x0 PUSH20 0xFFFFFFFFFFFFFFFFFFFFFFFFFFFFFFFFFFFFFFFF AND CALLER PUSH20 0xFFFFFFFFFFFFFFFFFFFFFFFFFFFFFFFFFFFFFFFF AND EQ PUSH2 0x19AD JUMPI CALLER PUSH1 0x40 MLOAD PUSH32 0xD7F7333400000000000000000000000000000000000000000000000000000000 DUP2 MSTORE PUSH1 0x4 ADD PUSH2 0x19A4 SWAP2 SWAP1 PUSH2 0x431C JUMP JUMPDEST PUSH1 0x40 MLOAD DUP1 SWAP2 SUB SWAP1 REVERT JUMPDEST PUSH2 0x19B5 PUSH2 0x238F JUMP JUMPDEST DUP1 PUSH1 0x20 ADD PUSH1 0x20 DUP2 ADD SWAP1 PUSH2 0x19C8 SWAP2 SWAP1 PUSH2 0x3F39 JUMP JUMPDEST PUSH0 PUSH20 0xFFFFFFFFFFFFFFFFFFFFFFFFFFFFFFFFFFFFFFFF AND PUSH1 0xA PUSH0 DUP4 PUSH8 0xFFFFFFFFFFFFFFFF AND PUSH8 0xFFFFFFFFFFFFFFFF AND DUP2 MSTORE PUSH1 0x20 ADD SWAP1 DUP2 MSTORE PUSH1 0x20 ADD PUSH0 KECCAK256 PUSH0 ADD PUSH0 SWAP1 SLOAD SWAP1 PUSH2 0x100 EXP SWAP1 DIV PUSH20 0xFFFFFFFFFFFFFFFFFFFFFFFFFFFFFFFFFFFFFFFF AND PUSH20 0xFFFFFFFFFFFFFFFFFFFFFFFFFFFFFFFFFFFFFFFF AND SUB PUSH2 0x1A7E JUMPI DUP1 PUSH1 0x40 MLOAD PUSH32 0x1C33FBEE00000000000000000000000000000000000000000000000000000000 DUP2 MSTORE PUSH1 0x4 ADD PUSH2 0x1A75 SWAP2 SWAP1 PUSH2 0x47A1 JUMP JUMPDEST PUSH1 0x40 MLOAD DUP1 SWAP2 SUB SWAP1 REVERT JUMPDEST DUP2 PUSH1 0x20 ADD PUSH1 0x20 DUP2 ADD SWAP1 PUSH2 0x1A91 SWAP2 SWAP1 PUSH2 0x3F39 JUMP JUMPDEST DUP3 DUP1 PUSH1 0x40 ADD SWAP1 PUSH2 0x1AA1 SWAP2 SWAP1 PUSH2 0x500E JUMP JUMPDEST DUP2 ADD SWAP1 PUSH2 0x1AAE SWAP2 SWAP1 PUSH2 0x50AB JUMP JUMPDEST DUP1 PUSH20 0xFFFFFFFFFFFFFFFFFFFFFFFFFFFFFFFFFFFFFFFF AND PUSH1 0xA PUSH0 DUP5 PUSH8 0xFFFFFFFFFFFFFFFF AND PUSH8 0xFFFFFFFFFFFFFFFF AND DUP2 MSTORE PUSH1 0x20 ADD SWAP1 DUP2 MSTORE PUSH1 0x20 ADD PUSH0 KECCAK256 PUSH0 ADD PUSH0 SWAP1 SLOAD SWAP1 PUSH2 0x100 EXP SWAP1 DIV PUSH20 0xFFFFFFFFFFFFFFFFFFFFFFFFFFFFFFFFFFFFFFFF AND PUSH20 0xFFFFFFFFFFFFFFFFFFFFFFFFFFFFFFFFFFFFFFFF AND EQ PUSH2 0x1B64 JUMPI DUP1 PUSH1 0x40 MLOAD PUSH32 0xBAF46CD100000000000000000000000000000000000000000000000000000000 DUP2 MSTORE PUSH1 0x4 ADD PUSH2 0x1B5B SWAP2 SWAP1 PUSH2 0x431C JUMP JUMPDEST PUSH1 0x40 MLOAD DUP1 SWAP2 SUB SWAP1 REVERT JUMPDEST PUSH0 DUP5 PUSH1 0x20 ADD PUSH1 0x20 DUP2 ADD SWAP1 PUSH2 0x1B78 SWAP2 SWAP1 PUSH2 0x3F39 JUMP JUMPDEST SWAP1 POP PUSH0 DUP1 PUSH0 DUP1 PUSH0 DUP1 DUP11 DUP1 PUSH1 0x60 ADD SWAP1 PUSH2 0x1B90 SWAP2 SWAP1 PUSH2 0x500E JUMP JUMPDEST DUP2 ADD SWAP1 PUSH2 0x1B9D SWAP2 SWAP1 PUSH2 0x50D6 JUMP JUMPDEST SWAP6 POP SWAP6 POP SWAP6 POP SWAP6 POP SWAP6 POP SWAP6 POP PUSH2 0x1BB6 DUP6 DUP6 DUP6 DUP6 DUP6 PUSH2 0x1DCE JUMP JUMPDEST PUSH32 0x8A69E2B5FBCC69A1F5D6326FB26DB5BC43CD18D09D2E79A48A50B77DA16432F9 DUP7 DUP7 DUP7 DUP7 DUP7 DUP13 PUSH32 0x0 PUSH1 0x40 MLOAD PUSH2 0x1C11 SWAP8 SWAP7 SWAP6 SWAP5 SWAP4 SWAP3 SWAP2 SWAP1 PUSH2 0x4E5C JUMP JUMPDEST PUSH1 0x40 MLOAD DUP1 SWAP2 SUB SWAP1 LOG1 POP POP POP POP POP POP POP POP POP POP PUSH2 0x1C2B PUSH2 0x23D5 JUMP JUMPDEST POP JUMP JUMPDEST PUSH0 PUSH1 0x5 PUSH0 SWAP1 SLOAD SWAP1 PUSH2 0x100 EXP SWAP1 DIV PUSH20 0xFFFFFFFFFFFFFFFFFFFFFFFFFFFFFFFFFFFFFFFF AND SWAP1 POP SWAP1 JUMP JUMPDEST PUSH2 0x1C68 PUSH2 0x1C61 PUSH2 0x23DF JUMP JUMPDEST DUP4 DUP4 PUSH2 0x260F JUMP JUMPDEST POP POP JUMP JUMPDEST ADDRESS PUSH20 0xFFFFFFFFFFFFFFFFFFFFFFFFFFFFFFFFFFFFFFFF AND CALLER PUSH20 0xFFFFFFFFFFFFFFFFFFFFFFFFFFFFFFFFFFFFFFFF AND EQ ISZERO DUP1 ISZERO PUSH2 0x1CF5 JUMPI POP PUSH1 0x7 PUSH0 SWAP1 SLOAD SWAP1 PUSH2 0x100 EXP SWAP1 DIV PUSH20 0xFFFFFFFFFFFFFFFFFFFFFFFFFFFFFFFFFFFFFFFF AND PUSH20 0xFFFFFFFFFFFFFFFFFFFFFFFFFFFFFFFFFFFFFFFF AND CALLER PUSH20 0xFFFFFFFFFFFFFFFFFFFFFFFFFFFFFFFFFFFFFFFF AND EQ ISZERO JUMPDEST ISZERO PUSH2 0x1D37 JUMPI CALLER PUSH1 0x40 MLOAD PUSH32 0xEE4A26F200000000000000000000000000000000000000000000000000000000 DUP2 MSTORE PUSH1 0x4 ADD PUSH2 0x1D2E SWAP2 SWAP1 PUSH2 0x431C JUMP JUMPDEST PUSH1 0x40 MLOAD DUP1 SWAP2 SUB SWAP1 REVERT JUMPDEST PUSH2 0x1D43 DUP6 DUP6 DUP6 DUP6 PUSH2 0x2778 JUMP JUMPDEST PUSH0 JUMPDEST DUP5 MLOAD DUP2 LT ISZERO PUSH2 0x1DAC JUMPI DUP2 DUP2 DUP2 MLOAD DUP2 LT PUSH2 0x1D61 JUMPI PUSH2 0x1D60 PUSH2 0x4EF7 JUMP JUMPDEST JUMPDEST PUSH1 0x20 MUL PUSH1 0x20 ADD ADD MLOAD PUSH1 0x8 PUSH0 DUP8 DUP5 DUP2 MLOAD DUP2 LT PUSH2 0x1D7F JUMPI PUSH2 0x1D7E PUSH2 0x4EF7 JUMP JUMPDEST JUMPDEST PUSH1 0x20 MUL PUSH1 0x20 ADD ADD MLOAD DUP2 MSTORE PUSH1 0x20 ADD SWAP1 DUP2 MSTORE PUSH1 0x20 ADD PUSH0 KECCAK256 SWAP1 DUP2 PUSH2 0x1DA0 SWAP2 SWAP1 PUSH2 0x51EF JUMP JUMPDEST POP DUP1 PUSH1 0x1 ADD SWAP1 POP PUSH2 0x1D45 JUMP JUMPDEST POP POP POP POP POP POP JUMP JUMPDEST PUSH0 PUSH1 0x3 PUSH0 DUP4 DUP2 MSTORE PUSH1 0x20 ADD SWAP1 DUP2 MSTORE PUSH1 0x20 ADD PUSH0 KECCAK256 SLOAD SWAP1 POP SWAP2 SWAP1 POP JUMP JUMPDEST ADDRESS PUSH20 0xFFFFFFFFFFFFFFFFFFFFFFFFFFFFFFFFFFFFFFFF AND CALLER PUSH20 0xFFFFFFFFFFFFFFFFFFFFFFFFFFFFFFFFFFFFFFFF AND EQ ISZERO DUP1 ISZERO PUSH2 0x1E57 JUMPI POP PUSH1 0x7 PUSH0 SWAP1 SLOAD SWAP1 PUSH2 0x100 EXP SWAP1 DIV PUSH20 0xFFFFFFFFFFFFFFFFFFFFFFFFFFFFFFFFFFFFFFFF AND PUSH20 0xFFFFFFFFFFFFFFFFFFFFFFFFFFFFFFFFFFFFFFFF AND CALLER PUSH20 0xFFFFFFFFFFFFFFFFFFFFFFFFFFFFFFFFFFFFFFFF AND EQ ISZERO JUMPDEST ISZERO PUSH2 0x1E99 JUMPI CALLER PUSH1 0x40 MLOAD PUSH32 0xEE4A26F200000000000000000000000000000000000000000000000000000000 DUP2 MSTORE PUSH1 0x4 ADD PUSH2 0x1E90 SWAP2 SWAP1 PUSH2 0x431C JUMP JUMPDEST PUSH1 0x40 MLOAD DUP1 SWAP2 SUB SWAP1 REVERT JUMPDEST PUSH2 0x1EA5 DUP6 DUP6 DUP6 DUP6 PUSH2 0x27FB JUMP JUMPDEST DUP1 PUSH1 0x8 PUSH0 DUP7 DUP2 MSTORE PUSH1 0x20 ADD SWAP1 DUP2 MSTORE PUSH1 0x20 ADD PUSH0 KECCAK256 SWAP1 DUP2 PUSH2 0x1EC3 SWAP2 SWAP1 PUSH2 0x51EF JUMP JUMPDEST POP POP POP POP POP POP JUMP JUMPDEST PUSH0 PUSH1 0x1 PUSH0 DUP5 PUSH20 0xFFFFFFFFFFFFFFFFFFFFFFFFFFFFFFFFFFFFFFFF AND PUSH20 0xFFFFFFFFFFFFFFFFFFFFFFFFFFFFFFFFFFFFFFFF AND DUP2 MSTORE PUSH1 0x20 ADD SWAP1 DUP2 MSTORE PUSH1 0x20 ADD PUSH0 KECCAK256 PUSH0 DUP4 PUSH20 0xFFFFFFFFFFFFFFFFFFFFFFFFFFFFFFFFFFFFFFFF AND PUSH20 0xFFFFFFFFFFFFFFFFFFFFFFFFFFFFFFFFFFFFFFFF AND DUP2 MSTORE PUSH1 0x20 ADD SWAP1 DUP2 MSTORE PUSH1 0x20 ADD PUSH0 KECCAK256 PUSH0 SWAP1 SLOAD SWAP1 PUSH2 0x100 EXP SWAP1 DIV PUSH1 0xFF AND SWAP1 POP SWAP3 SWAP2 POP POP JUMP JUMPDEST PUSH0 PUSH2 0x1F62 PUSH2 0x23DF JUMP JUMPDEST SWAP1 POP DUP1 PUSH20 0xFFFFFFFFFFFFFFFFFFFFFFFFFFFFFFFFFFFFFFFF AND DUP7 PUSH20 0xFFFFFFFFFFFFFFFFFFFFFFFFFFFFFFFFFFFFFFFF AND EQ ISZERO DUP1 ISZERO PUSH2 0x1FA7 JUMPI POP PUSH2 0x1FA5 DUP7 DUP3 PUSH2 0x1ECB JUMP JUMPDEST ISZERO JUMPDEST ISZERO PUSH2 0x1FEB JUMPI DUP1 DUP7 PUSH1 0x40 MLOAD PUSH32 0xE237D92200000000000000000000000000000000000000000000000000000000 DUP2 MSTORE PUSH1 0x4 ADD PUSH2 0x1FE2 SWAP3 SWAP2 SWAP1 PUSH2 0x4ED0 JUMP JUMPDEST PUSH1 0x40 MLOAD DUP1 SWAP2 SUB SWAP1 REVERT JUMPDEST PUSH2 0x1FF8 DUP7 DUP7 DUP7 DUP7 DUP7 PUSH2 0x2890 JUMP JUMPDEST POP POP POP POP POP POP JUMP JUMPDEST PUSH2 0x2008 PUSH2 0x226C JUMP JUMPDEST PUSH2 0x2011 DUP2 PUSH2 0x2996 JUMP JUMPDEST POP JUMP JUMPDEST ADDRESS PUSH20 0xFFFFFFFFFFFFFFFFFFFFFFFFFFFFFFFFFFFFFFFF AND CALLER PUSH20 0xFFFFFFFFFFFFFFFFFFFFFFFFFFFFFFFFFFFFFFFF AND EQ ISZERO DUP1 ISZERO PUSH2 0x209D JUMPI POP PUSH1 0x7 PUSH0 SWAP1 SLOAD SWAP1 PUSH2 0x100 EXP SWAP1 DIV PUSH20 0xFFFFFFFFFFFFFFFFFFFFFFFFFFFFFFFFFFFFFFFF AND PUSH20 0xFFFFFFFFFFFFFFFFFFFFFFFFFFFFFFFFFFFFFFFF AND CALLER PUSH20 0xFFFFFFFFFFFFFFFFFFFFFFFFFFFFFFFFFFFFFFFF AND EQ ISZERO JUMPDEST ISZERO PUSH2 0x20DF JUMPI CALLER PUSH1 0x40 MLOAD PUSH32 0xEE4A26F200000000000000000000000000000000000000000000000000000000 DUP2 MSTORE PUSH1 0x4 ADD PUSH2 0x20D6 SWAP2 SWAP1 PUSH2 0x431C JUMP JUMPDEST PUSH1 0x40 MLOAD DUP1 SWAP2 SUB SWAP1 REVERT JUMPDEST PUSH2 0x20E7 PUSH2 0x23DF JUMP JUMPDEST PUSH20 0xFFFFFFFFFFFFFFFFFFFFFFFFFFFFFFFFFFFFFFFF AND DUP4 PUSH20 0xFFFFFFFFFFFFFFFFFFFFFFFFFFFFFFFFFFFFFFFF AND EQ ISZERO DUP1 ISZERO PUSH2 0x2130 JUMPI POP PUSH2 0x212E DUP4 PUSH2 0x2129 PUSH2 0x23DF JUMP JUMPDEST PUSH2 0x1ECB JUMP JUMPDEST ISZERO JUMPDEST ISZERO PUSH2 0x217B JUMPI PUSH2 0x213D PUSH2 0x23DF JUMP JUMPDEST DUP4 PUSH1 0x40 MLOAD PUSH32 0xE237D92200000000000000000000000000000000000000000000000000000000 DUP2 MSTORE PUSH1 0x4 ADD PUSH2 0x2172 SWAP3 SWAP2 SWAP1 PUSH2 0x4ED0 JUMP JUMPDEST PUSH1 0x40 MLOAD DUP1 SWAP2 SUB SWAP1 REVERT JUMPDEST PUSH2 0x2186 DUP4 DUP4 DUP4 PUSH2 0x2AC2 JUMP JUMPDEST POP POP POP JUMP JUMPDEST PUSH0 PUSH32 0xD9B67A2600000000000000000000000000000000000000000000000000000000 PUSH28 0xFFFFFFFFFFFFFFFFFFFFFFFFFFFFFFFFFFFFFFFFFFFFFFFFFFFFFFFF NOT AND DUP3 PUSH28 0xFFFFFFFFFFFFFFFFFFFFFFFFFFFFFFFFFFFFFFFFFFFFFFFFFFFFFFFF NOT AND EQ DUP1 PUSH2 0x2255 JUMPI POP PUSH32 0xE89341C00000000000000000000000000000000000000000000000000000000 PUSH28 0xFFFFFFFFFFFFFFFFFFFFFFFFFFFFFFFFFFFFFFFFFFFFFFFFFFFFFFFF NOT AND DUP3 PUSH28 0xFFFFFFFFFFFFFFFFFFFFFFFFFFFFFFFFFFFFFFFFFFFFFFFFFFFFFFFF NOT AND EQ JUMPDEST DUP1 PUSH2 0x2265 JUMPI POP PUSH2 0x2264 DUP3 PUSH2 0x2B64 JUMP JUMPDEST JUMPDEST SWAP1 POP SWAP2 SWAP1 POP JUMP JUMPDEST PUSH1 0x5 PUSH0 SWAP1 SLOAD SWAP1 PUSH2 0x100 EXP SWAP1 DIV PUSH20 0xFFFFFFFFFFFFFFFFFFFFFFFFFFFFFFFFFFFFFFFF AND PUSH20 0xFFFFFFFFFFFFFFFFFFFFFFFFFFFFFFFFFFFFFFFF AND CALLER PUSH20 0xFFFFFFFFFFFFFFFFFFFFFFFFFFFFFFFFFFFFFFFF AND EQ PUSH2 0x22FB JUMPI PUSH1 0x40 MLOAD PUSH32 0x8C379A000000000000000000000000000000000000000000000000000000000 DUP2 MSTORE PUSH1 0x4 ADD PUSH2 0x22F2 SWAP1 PUSH2 0x5308 JUMP JUMPDEST PUSH1 0x40 MLOAD DUP1 SWAP2 SUB SWAP1 REVERT JUMPDEST JUMP JUMPDEST PUSH1 0x60 PUSH1 0x2 DUP1 SLOAD PUSH2 0x230C SWAP1 PUSH2 0x47E7 JUMP JUMPDEST DUP1 PUSH1 0x1F ADD PUSH1 0x20 DUP1 SWAP2 DIV MUL PUSH1 0x20 ADD PUSH1 0x40 MLOAD SWAP1 DUP2 ADD PUSH1 0x40 MSTORE DUP1 SWAP3 SWAP2 SWAP1 DUP2 DUP2 MSTORE PUSH1 0x20 ADD DUP3 DUP1 SLOAD PUSH2 0x2338 SWAP1 PUSH2 0x47E7 JUMP JUMPDEST DUP1 ISZERO PUSH2 0x2383 JUMPI DUP1 PUSH1 0x1F LT PUSH2 0x235A JUMPI PUSH2 0x100 DUP1 DUP4 SLOAD DIV MUL DUP4 MSTORE SWAP2 PUSH1 0x20 ADD SWAP2 PUSH2 0x2383 JUMP JUMPDEST DUP3 ADD SWAP2 SWAP1 PUSH0 MSTORE PUSH1 0x20 PUSH0 KECCAK256 SWAP1 JUMPDEST DUP2 SLOAD DUP2 MSTORE SWAP1 PUSH1 0x1 ADD SWAP1 PUSH1 0x20 ADD DUP1 DUP4 GT PUSH2 0x2366 JUMPI DUP3 SWAP1 SUB PUSH1 0x1F AND DUP3 ADD SWAP2 JUMPDEST POP POP POP POP POP SWAP1 POP SWAP2 SWAP1 POP JUMP JUMPDEST PUSH1 0x2 PUSH1 0x9 SLOAD SUB PUSH2 0x23CB JUMPI PUSH1 0x40 MLOAD PUSH32 0x3EE5AEB500000000000000000000000000000000000000000000000000000000 DUP2 MSTORE PUSH1 0x4 ADD PUSH1 0x40 MLOAD DUP1 SWAP2 SUB SWAP1 REVERT JUMPDEST PUSH1 0x2 PUSH1 0x9 DUP2 SWAP1 SSTORE POP JUMP JUMPDEST PUSH1 0x1 PUSH1 0x9 DUP2 SWAP1 SSTORE POP JUMP JUMPDEST PUSH0 CALLER SWAP1 POP SWAP1 JUMP JUMPDEST PUSH0 PUSH20 0xFFFFFFFFFFFFFFFFFFFFFFFFFFFFFFFFFFFFFFFF AND DUP5 PUSH20 0xFFFFFFFFFFFFFFFFFFFFFFFFFFFFFFFFFFFFFFFF AND SUB PUSH2 0x2456 JUMPI PUSH0 PUSH1 0x40 MLOAD PUSH32 0x57F447CE00000000000000000000000000000000000000000000000000000000 DUP2 MSTORE PUSH1 0x4 ADD PUSH2 0x244D SWAP2 SWAP1 PUSH2 0x431C JUMP JUMPDEST PUSH1 0x40 MLOAD DUP1 SWAP2 SUB SWAP1 REVERT JUMPDEST PUSH0 PUSH20 0xFFFFFFFFFFFFFFFFFFFFFFFFFFFFFFFFFFFFFFFF AND DUP6 PUSH20 0xFFFFFFFFFFFFFFFFFFFFFFFFFFFFFFFFFFFFFFFF AND SUB PUSH2 0x24C6 JUMPI PUSH0 PUSH1 0x40 MLOAD PUSH32 0x1A8351400000000000000000000000000000000000000000000000000000000 DUP2 MSTORE PUSH1 0x4 ADD PUSH2 0x24BD SWAP2 SWAP1 PUSH2 0x431C JUMP JUMPDEST PUSH1 0x40 MLOAD DUP1 SWAP2 SUB SWAP1 REVERT JUMPDEST PUSH2 0x24D3 DUP6 DUP6 DUP6 DUP6 DUP6 PUSH2 0x2BCD JUMP JUMPDEST POP POP POP POP POP JUMP JUMPDEST PUSH2 0x2554 DUP4 DUP5 PUSH20 0xFFFFFFFFFFFFFFFFFFFFFFFFFFFFFFFFFFFFFFFF AND PUSH4 0xA9059CBB DUP6 DUP6 PUSH1 0x40 MLOAD PUSH1 0x24 ADD PUSH2 0x250D SWAP3 SWAP2 SWAP1 PUSH2 0x4DA1 JUMP JUMPDEST PUSH1 0x40 MLOAD PUSH1 0x20 DUP2 DUP4 SUB SUB DUP2 MSTORE SWAP1 PUSH1 0x40 MSTORE SWAP2 POP PUSH1 0xE0 SHL PUSH1 0x20 DUP3 ADD DUP1 MLOAD PUSH28 0xFFFFFFFFFFFFFFFFFFFFFFFFFFFFFFFFFFFFFFFFFFFFFFFFFFFFFFFF DUP4 DUP2 DUP4 AND OR DUP4 MSTORE POP POP POP POP PUSH2 0x2C79 JUMP JUMPDEST POP POP POP JUMP JUMPDEST PUSH0 PUSH1 0x20 DUP3 MUL PUSH1 0x20 DUP5 ADD ADD MLOAD SWAP1 POP SWAP3 SWAP2 POP POP JUMP JUMPDEST PUSH0 PUSH1 0x20 DUP3 MUL PUSH1 0x20 DUP5 ADD ADD MLOAD SWAP1 POP SWAP3 SWAP2 POP POP JUMP JUMPDEST PUSH0 PUSH20 0xFFFFFFFFFFFFFFFFFFFFFFFFFFFFFFFFFFFFFFFF AND DUP4 PUSH20 0xFFFFFFFFFFFFFFFFFFFFFFFFFFFFFFFFFFFFFFFF AND SUB PUSH2 0x25EF JUMPI PUSH0 PUSH1 0x40 MLOAD PUSH32 0x1A8351400000000000000000000000000000000000000000000000000000000 DUP2 MSTORE PUSH1 0x4 ADD PUSH2 0x25E6 SWAP2 SWAP1 PUSH2 0x431C JUMP JUMPDEST PUSH1 0x40 MLOAD DUP1 SWAP2 SUB SWAP1 REVERT JUMPDEST PUSH2 0x260A DUP4 PUSH0 DUP5 DUP5 PUSH1 0x40 MLOAD DUP1 PUSH1 0x20 ADD PUSH1 0x40 MSTORE DUP1 PUSH0 DUP2 MSTORE POP PUSH2 0x2BCD JUMP JUMPDEST POP POP POP JUMP JUMPDEST PUSH0 PUSH20 0xFFFFFFFFFFFFFFFFFFFFFFFFFFFFFFFFFFFFFFFF AND DUP3 PUSH20 0xFFFFFFFFFFFFFFFFFFFFFFFFFFFFFFFFFFFFFFFF AND SUB PUSH2 0x267F JUMPI PUSH0 PUSH1 0x40 MLOAD PUSH32 0xCED3E10000000000000000000000000000000000000000000000000000000000 DUP2 MSTORE PUSH1 0x4 ADD PUSH2 0x2676 SWAP2 SWAP1 PUSH2 0x431C JUMP JUMPDEST PUSH1 0x40 MLOAD DUP1 SWAP2 SUB SWAP1 REVERT JUMPDEST DUP1 PUSH1 0x1 PUSH0 DUP6 PUSH20 0xFFFFFFFFFFFFFFFFFFFFFFFFFFFFFFFFFFFFFFFF AND PUSH20 0xFFFFFFFFFFFFFFFFFFFFFFFFFFFFFFFFFFFFFFFF AND DUP2 MSTORE PUSH1 0x20 ADD SWAP1 DUP2 MSTORE PUSH1 0x20 ADD PUSH0 KECCAK256 PUSH0 DUP5 PUSH20 0xFFFFFFFFFFFFFFFFFFFFFFFFFFFFFFFFFFFFFFFF AND PUSH20 0xFFFFFFFFFFFFFFFFFFFFFFFFFFFFFFFFFFFFFFFF AND DUP2 MSTORE PUSH1 0x20 ADD SWAP1 DUP2 MSTORE PUSH1 0x20 ADD PUSH0 KECCAK256 PUSH0 PUSH2 0x100 EXP DUP2 SLOAD DUP2 PUSH1 0xFF MUL NOT AND SWAP1 DUP4 ISZERO ISZERO MUL OR SWAP1 SSTORE POP DUP2 PUSH20 0xFFFFFFFFFFFFFFFFFFFFFFFFFFFFFFFFFFFFFFFF AND DUP4 PUSH20 0xFFFFFFFFFFFFFFFFFFFFFFFFFFFFFFFFFFFFFFFF AND PUSH32 0x17307EAB39AB6107E8899845AD3D59BD9653F200F220920489CA2B5937696C31 DUP4 PUSH1 0x40 MLOAD PUSH2 0x276B SWAP2 SWAP1 PUSH2 0x399C JUMP JUMPDEST PUSH1 0x40 MLOAD DUP1 SWAP2 SUB SWAP1 LOG3 POP POP POP JUMP JUMPDEST PUSH0 PUSH20 0xFFFFFFFFFFFFFFFFFFFFFFFFFFFFFFFFFFFFFFFF AND DUP5 PUSH20 0xFFFFFFFFFFFFFFFFFFFFFFFFFFFFFFFFFFFFFFFF AND SUB PUSH2 0x27E8 JUMPI PUSH0 PUSH1 0x40 MLOAD PUSH32 0x57F447CE00000000000000000000000000000000000000000000000000000000 DUP2 MSTORE PUSH1 0x4 ADD PUSH2 0x27DF SWAP2 SWAP1 PUSH2 0x431C JUMP JUMPDEST PUSH1 0x40 MLOAD DUP1 SWAP2 SUB SWAP1 REVERT JUMPDEST PUSH2 0x27F5 PUSH0 DUP6 DUP6 DUP6 DUP6 PUSH2 0x2BCD JUMP JUMPDEST POP POP POP POP JUMP JUMPDEST PUSH0 PUSH20 0xFFFFFFFFFFFFFFFFFFFFFFFFFFFFFFFFFFFFFFFF AND DUP5 PUSH20 0xFFFFFFFFFFFFFFFFFFFFFFFFFFFFFFFFFFFFFFFF AND SUB PUSH2 0x286B JUMPI PUSH0 PUSH1 0x40 MLOAD PUSH32 0x57F447CE00000000000000000000000000000000000000000000000000000000 DUP2 MSTORE PUSH1 0x4 ADD PUSH2 0x2862 SWAP2 SWAP1 PUSH2 0x431C JUMP JUMPDEST PUSH1 0x40 MLOAD DUP1 SWAP2 SUB SWAP1 REVERT JUMPDEST PUSH0 DUP1 PUSH2 0x2877 DUP6 DUP6 PUSH2 0x2D0E JUMP JUMPDEST SWAP2 POP SWAP2 POP PUSH2 0x2888 PUSH0 DUP8 DUP5 DUP5 DUP8 PUSH2 0x2BCD JUMP JUMPDEST POP POP POP POP POP POP JUMP JUMPDEST PUSH0 PUSH20 0xFFFFFFFFFFFFFFFFFFFFFFFFFFFFFFFFFFFFFFFF AND DUP5 PUSH20 0xFFFFFFFFFFFFFFFFFFFFFFFFFFFFFFFFFFFFFFFF AND SUB PUSH2 0x2900 JUMPI PUSH0 PUSH1 0x40 MLOAD PUSH32 0x57F447CE00000000000000000000000000000000000000000000000000000000 DUP2 MSTORE PUSH1 0x4 ADD PUSH2 0x28F7 SWAP2 SWAP1 PUSH2 0x431C JUMP JUMPDEST PUSH1 0x40 MLOAD DUP1 SWAP2 SUB SWAP1 REVERT JUMPDEST PUSH0 PUSH20 0xFFFFFFFFFFFFFFFFFFFFFFFFFFFFFFFFFFFFFFFF AND DUP6 PUSH20 0xFFFFFFFFFFFFFFFFFFFFFFFFFFFFFFFFFFFFFFFF AND SUB PUSH2 0x2970 JUMPI PUSH0 PUSH1 0x40 MLOAD PUSH32 0x1A8351400000000000000000000000000000000000000000000000000000000 DUP2 MSTORE PUSH1 0x4 ADD PUSH2 0x2967 SWAP2 SWAP1 PUSH2 0x431C JUMP JUMPDEST PUSH1 0x40 MLOAD DUP1 SWAP2 SUB SWAP1 REVERT JUMPDEST PUSH0 DUP1 PUSH2 0x297C DUP6 DUP6 PUSH2 0x2D0E JUMP JUMPDEST SWAP2 POP SWAP2 POP PUSH2 0x298D DUP8 DUP8 DUP5 DUP5 DUP8 PUSH2 0x2BCD JUMP JUMPDEST POP POP POP POP POP POP POP JUMP JUMPDEST CALLER PUSH20 0xFFFFFFFFFFFFFFFFFFFFFFFFFFFFFFFFFFFFFFFF AND DUP2 PUSH20 0xFFFFFFFFFFFFFFFFFFFFFFFFFFFFFFFFFFFFFFFF AND SUB PUSH2 0x2A04 JUMPI PUSH1 0x40 MLOAD PUSH32 0x8C379A000000000000000000000000000000000000000000000000000000000 DUP2 MSTORE PUSH1 0x4 ADD PUSH2 0x29FB SWAP1 PUSH2 0x5370 JUMP JUMPDEST PUSH1 0x40 MLOAD DUP1 SWAP2 SUB SWAP1 REVERT JUMPDEST DUP1 PUSH1 0x6 PUSH0 PUSH2 0x100 EXP DUP2 SLOAD DUP2 PUSH20 0xFFFFFFFFFFFFFFFFFFFFFFFFFFFFFFFFFFFFFFFF MUL NOT AND SWAP1 DUP4 PUSH20 0xFFFFFFFFFFFFFFFFFFFFFFFFFFFFFFFFFFFFFFFF AND MUL OR SWAP1 SSTORE POP DUP1 PUSH20 0xFFFFFFFFFFFFFFFFFFFFFFFFFFFFFFFFFFFFFFFF AND PUSH1 0x5 PUSH0 SWAP1 SLOAD SWAP1 PUSH2 0x100 EXP SWAP1 DIV PUSH20 0xFFFFFFFFFFFFFFFFFFFFFFFFFFFFFFFFFFFFFFFF AND PUSH20 0xFFFFFFFFFFFFFFFFFFFFFFFFFFFFFFFFFFFFFFFF AND PUSH32 0xED8889F560326EB138920D842192F0EB3DD22B4F139C87A2C57538E05BAE1278 PUSH1 0x40 MLOAD PUSH1 0x40 MLOAD DUP1 SWAP2 SUB SWAP1 LOG3 POP JUMP JUMPDEST PUSH0 PUSH20 0xFFFFFFFFFFFFFFFFFFFFFFFFFFFFFFFFFFFFFFFF AND DUP4 PUSH20 0xFFFFFFFFFFFFFFFFFFFFFFFFFFFFFFFFFFFFFFFF AND SUB PUSH2 0x2B32 JUMPI PUSH0 PUSH1 0x40 MLOAD PUSH32 0x1A8351400000000000000000000000000000000000000000000000000000000 DUP2 MSTORE PUSH1 0x4 ADD PUSH2 0x2B29 SWAP2 SWAP1 PUSH2 0x431C JUMP JUMPDEST PUSH1 0x40 MLOAD DUP1 SWAP2 SUB SWAP1 REVERT JUMPDEST PUSH0 DUP1 PUSH2 0x2B3E DUP5 DUP5 PUSH2 0x2D0E JUMP JUMPDEST SWAP2 POP SWAP2 POP PUSH2 0x2B5D DUP6 PUSH0 DUP5 DUP5 PUSH1 0x40 MLOAD DUP1 PUSH1 0x20 ADD PUSH1 0x40 MSTORE DUP1 PUSH0 DUP2 MSTORE POP PUSH2 0x2BCD JUMP JUMPDEST POP POP POP POP POP JUMP JUMPDEST PUSH0 PUSH32 0x1FFC9A700000000000000000000000000000000000000000000000000000000 PUSH28 0xFFFFFFFFFFFFFFFFFFFFFFFFFFFFFFFFFFFFFFFFFFFFFFFFFFFFFFFF NOT AND DUP3 PUSH28 0xFFFFFFFFFFFFFFFFFFFFFFFFFFFFFFFFFFFFFFFFFFFFFFFFFFFFFFFF NOT AND EQ SWAP1 POP SWAP2 SWAP1 POP JUMP JUMPDEST PUSH2 0x2BD9 DUP6 DUP6 DUP6 DUP6 PUSH2 0x2D3E JUMP JUMPDEST PUSH0 PUSH20 0xFFFFFFFFFFFFFFFFFFFFFFFFFFFFFFFFFFFFFFFF AND DUP5 PUSH20 0xFFFFFFFFFFFFFFFFFFFFFFFFFFFFFFFFFFFFFFFF AND EQ PUSH2 0x2C72 JUMPI PUSH0 PUSH2 0x2C15 PUSH2 0x23DF JUMP JUMPDEST SWAP1 POP PUSH1 0x1 DUP5 MLOAD SUB PUSH2 0x2C61 JUMPI PUSH0 PUSH2 0x2C34 PUSH0 DUP7 PUSH2 0x256C SWAP1 SWAP2 SWAP1 PUSH4 0xFFFFFFFF AND JUMP JUMPDEST SWAP1 POP PUSH0 PUSH2 0x2C4A PUSH0 DUP7 PUSH2 0x256C SWAP1 SWAP2 SWAP1 PUSH4 0xFFFFFFFF AND JUMP JUMPDEST SWAP1 POP PUSH2 0x2C5A DUP4 DUP10 DUP10 DUP6 DUP6 DUP10 PUSH2 0x2EDB JUMP JUMPDEST POP POP PUSH2 0x2C70 JUMP JUMPDEST PUSH2 0x2C6F DUP2 DUP8 DUP8 DUP8 DUP8 DUP8 PUSH2 0x308A JUMP JUMPDEST JUMPDEST POP JUMPDEST POP POP POP POP POP JUMP JUMPDEST PUSH0 PUSH2 0x2CA3 DUP3 DUP5 PUSH20 0xFFFFFFFFFFFFFFFFFFFFFFFFFFFFFFFFFFFFFFFF AND PUSH2 0x3239 SWAP1 SWAP2 SWAP1 PUSH4 0xFFFFFFFF AND JUMP JUMPDEST SWAP1 POP PUSH0 DUP2 MLOAD EQ ISZERO DUP1 ISZERO PUSH2 0x2CC7 JUMPI POP DUP1 DUP1 PUSH1 0x20 ADD SWAP1 MLOAD DUP2 ADD SWAP1 PUSH2 0x2CC5 SWAP2 SWAP1 PUSH2 0x4DDC JUMP JUMPDEST ISZERO JUMPDEST ISZERO PUSH2 0x2D09 JUMPI DUP3 PUSH1 0x40 MLOAD PUSH32 0x5274AFE700000000000000000000000000000000000000000000000000000000 DUP2 MSTORE PUSH1 0x4 ADD PUSH2 0x2D00 SWAP2 SWAP1 PUSH2 0x431C JUMP JUMPDEST PUSH1 0x40 MLOAD DUP1 SWAP2 SUB SWAP1 REVERT JUMPDEST POP POP POP JUMP JUMPDEST PUSH1 0x60 DUP1 PUSH1 0x40 MLOAD SWAP2 POP PUSH1 0x1 DUP3 MSTORE DUP4 PUSH1 0x20 DUP4 ADD MSTORE PUSH1 0x40 DUP3 ADD SWAP1 POP PUSH1 0x1 DUP2 MSTORE DUP3 PUSH1 0x20 DUP3 ADD MSTORE PUSH1 0x40 DUP2 ADD PUSH1 0x40 MSTORE SWAP3 POP SWAP3 SWAP1 POP JUMP JUMPDEST PUSH2 0x2D4A DUP5 DUP5 DUP5 DUP5 PUSH2 0x324E JUMP JUMPDEST PUSH0 PUSH20 0xFFFFFFFFFFFFFFFFFFFFFFFFFFFFFFFFFFFFFFFF AND DUP5 PUSH20 0xFFFFFFFFFFFFFFFFFFFFFFFFFFFFFFFFFFFFFFFF AND SUB PUSH2 0x2E1D JUMPI PUSH0 DUP1 JUMPDEST DUP4 MLOAD DUP2 LT ISZERO PUSH2 0x2E02 JUMPI PUSH0 DUP4 DUP3 DUP2 MLOAD DUP2 LT PUSH2 0x2D9D JUMPI PUSH2 0x2D9C PUSH2 0x4EF7 JUMP JUMPDEST JUMPDEST PUSH1 0x20 MUL PUSH1 0x20 ADD ADD MLOAD SWAP1 POP DUP1 PUSH1 0x3 PUSH0 DUP8 DUP6 DUP2 MLOAD DUP2 LT PUSH2 0x2DBE JUMPI PUSH2 0x2DBD PUSH2 0x4EF7 JUMP JUMPDEST JUMPDEST PUSH1 0x20 MUL PUSH1 0x20 ADD ADD MLOAD DUP2 MSTORE PUSH1 0x20 ADD SWAP1 DUP2 MSTORE PUSH1 0x20 ADD PUSH0 KECCAK256 PUSH0 DUP3 DUP3 SLOAD PUSH2 0x2DE1 SWAP2 SWAP1 PUSH2 0x53BB JUMP JUMPDEST SWAP3 POP POP DUP2 SWAP1 SSTORE POP DUP1 DUP4 PUSH2 0x2DF4 SWAP2 SWAP1 PUSH2 0x53BB JUMP JUMPDEST SWAP3 POP POP DUP1 PUSH1 0x1 ADD SWAP1 POP PUSH2 0x2D80 JUMP JUMPDEST POP DUP1 PUSH1 0x4 PUSH0 DUP3 DUP3 SLOAD PUSH2 0x2E14 SWAP2 SWAP1 PUSH2 0x53BB JUMP JUMPDEST SWAP3 POP POP DUP2 SWAP1 SSTORE POP POP JUMPDEST PUSH0 PUSH20 0xFFFFFFFFFFFFFFFFFFFFFFFFFFFFFFFFFFFFFFFF AND DUP4 PUSH20 0xFFFFFFFFFFFFFFFFFFFFFFFFFFFFFFFFFFFFFFFF AND SUB PUSH2 0x2ED5 JUMPI PUSH0 DUP1 JUMPDEST DUP4 MLOAD DUP2 LT ISZERO PUSH2 0x2EC3 JUMPI PUSH0 DUP4 DUP3 DUP2 MLOAD DUP2 LT PUSH2 0x2E70 JUMPI PUSH2 0x2E6F PUSH2 0x4EF7 JUMP JUMPDEST JUMPDEST PUSH1 0x20 MUL PUSH1 0x20 ADD ADD MLOAD SWAP1 POP DUP1 PUSH1 0x3 PUSH0 DUP8 DUP6 DUP2 MLOAD DUP2 LT PUSH2 0x2E91 JUMPI PUSH2 0x2E90 PUSH2 0x4EF7 JUMP JUMPDEST JUMPDEST PUSH1 0x20 MUL PUSH1 0x20 ADD ADD MLOAD DUP2 MSTORE PUSH1 0x20 ADD SWAP1 DUP2 MSTORE PUSH1 0x20 ADD PUSH0 KECCAK256 PUSH0 DUP3 DUP3 SLOAD SUB SWAP3 POP POP DUP2 SWAP1 SSTORE POP DUP1 DUP4 ADD SWAP3 POP POP DUP1 PUSH1 0x1 ADD SWAP1 POP PUSH2 0x2E53 JUMP JUMPDEST POP DUP1 PUSH1 0x4 PUSH0 DUP3 DUP3 SLOAD SUB SWAP3 POP POP DUP2 SWAP1 SSTORE POP POP JUMPDEST POP POP POP POP JUMP JUMPDEST PUSH0 DUP5 PUSH20 0xFFFFFFFFFFFFFFFFFFFFFFFFFFFFFFFFFFFFFFFF AND EXTCODESIZE GT ISZERO PUSH2 0x3082 JUMPI DUP4 PUSH20 0xFFFFFFFFFFFFFFFFFFFFFFFFFFFFFFFFFFFFFFFF AND PUSH4 0xF23A6E61 DUP8 DUP8 DUP7 DUP7 DUP7 PUSH1 0x40 MLOAD DUP7 PUSH4 0xFFFFFFFF AND PUSH1 0xE0 SHL DUP2 MSTORE PUSH1 0x4 ADD PUSH2 0x2F3B SWAP6 SWAP5 SWAP4 SWAP3 SWAP2 SWAP1 PUSH2 0x53EE JUMP JUMPDEST PUSH1 0x20 PUSH1 0x40 MLOAD DUP1 DUP4 SUB DUP2 PUSH0 DUP8 GAS CALL SWAP3 POP POP POP DUP1 ISZERO PUSH2 0x2F76 JUMPI POP PUSH1 0x40 MLOAD RETURNDATASIZE PUSH1 0x1F NOT PUSH1 0x1F DUP3 ADD AND DUP3 ADD DUP1 PUSH1 0x40 MSTORE POP DUP2 ADD SWAP1 PUSH2 0x2F73 SWAP2 SWAP1 PUSH2 0x545A JUMP JUMPDEST PUSH1 0x1 JUMPDEST PUSH2 0x2FF7 JUMPI RETURNDATASIZE DUP1 PUSH0 DUP2 EQ PUSH2 0x2FA4 JUMPI PUSH1 0x40 MLOAD SWAP2 POP PUSH1 0x1F NOT PUSH1 0x3F RETURNDATASIZE ADD AND DUP3 ADD PUSH1 0x40 MSTORE RETURNDATASIZE DUP3 MSTORE RETURNDATASIZE PUSH0 PUSH1 0x20 DUP5 ADD RETURNDATACOPY PUSH2 0x2FA9 JUMP JUMPDEST PUSH1 0x60 SWAP2 POP JUMPDEST POP PUSH0 DUP2 MLOAD SUB PUSH2 0x2FEF JUMPI DUP5 PUSH1 0x40 MLOAD PUSH32 0x57F447CE00000000000000000000000000000000000000000000000000000000 DUP2 MSTORE PUSH1 0x4 ADD PUSH2 0x2FE6 SWAP2 SWAP1 PUSH2 0x431C JUMP JUMPDEST PUSH1 0x40 MLOAD DUP1 SWAP2 SUB SWAP1 REVERT JUMPDEST DUP1 MLOAD DUP2 PUSH1 0x20 ADD REVERT JUMPDEST PUSH4 0xF23A6E61 PUSH1 0xE0 SHL PUSH28 0xFFFFFFFFFFFFFFFFFFFFFFFFFFFFFFFFFFFFFFFFFFFFFFFFFFFFFFFF NOT AND DUP2 PUSH28 0xFFFFFFFFFFFFFFFFFFFFFFFFFFFFFFFFFFFFFFFFFFFFFFFFFFFFFFFF NOT AND EQ PUSH2 0x3080 JUMPI DUP5 PUSH1 0x40 MLOAD PUSH32 0x57F447CE00000000000000000000000000000000000000000000000000000000 DUP2 MSTORE PUSH1 0x4 ADD PUSH2 0x3077 SWAP2 SWAP1 PUSH2 0x431C JUMP JUMPDEST PUSH1 0x40 MLOAD DUP1 SWAP2 SUB SWAP1 REVERT JUMPDEST POP JUMPDEST POP POP POP POP POP POP JUMP JUMPDEST PUSH0 DUP5 PUSH20 0xFFFFFFFFFFFFFFFFFFFFFFFFFFFFFFFFFFFFFFFF AND EXTCODESIZE GT ISZERO PUSH2 0x3231 JUMPI DUP4 PUSH20 0xFFFFFFFFFFFFFFFFFFFFFFFFFFFFFFFFFFFFFFFF AND PUSH4 0xBC197C81 DUP8 DUP8 DUP7 DUP7 DUP7 PUSH1 0x40 MLOAD DUP7 PUSH4 0xFFFFFFFF AND PUSH1 0xE0 SHL DUP2 MSTORE PUSH1 0x4 ADD PUSH2 0x30EA SWAP6 SWAP5 SWAP4 SWAP3 SWAP2 SWAP1 PUSH2 0x5485 JUMP JUMPDEST PUSH1 0x20 PUSH1 0x40 MLOAD DUP1 DUP4 SUB DUP2 PUSH0 DUP8 GAS CALL SWAP3 POP POP POP DUP1 ISZERO PUSH2 0x3125 JUMPI POP PUSH1 0x40 MLOAD RETURNDATASIZE PUSH1 0x1F NOT PUSH1 0x1F DUP3 ADD AND DUP3 ADD DUP1 PUSH1 0x40 MSTORE POP DUP2 ADD SWAP1 PUSH2 0x3122 SWAP2 SWAP1 PUSH2 0x545A JUMP JUMPDEST PUSH1 0x1 JUMPDEST PUSH2 0x31A6 JUMPI RETURNDATASIZE DUP1 PUSH0 DUP2 EQ PUSH2 0x3153 JUMPI PUSH1 0x40 MLOAD SWAP2 POP PUSH1 0x1F NOT PUSH1 0x3F RETURNDATASIZE ADD AND DUP3 ADD PUSH1 0x40 MSTORE RETURNDATASIZE DUP3 MSTORE RETURNDATASIZE PUSH0 PUSH1 0x20 DUP5 ADD RETURNDATACOPY PUSH2 0x3158 JUMP JUMPDEST PUSH1 0x60 SWAP2 POP JUMPDEST POP PUSH0 DUP2 MLOAD SUB PUSH2 0x319E JUMPI DUP5 PUSH1 0x40 MLOAD PUSH32 0x57F447CE00000000000000000000000000000000000000000000000000000000 DUP2 MSTORE PUSH1 0x4 ADD PUSH2 0x3195 SWAP2 SWAP1 PUSH2 0x431C JUMP JUMPDEST PUSH1 0x40 MLOAD DUP1 SWAP2 SUB SWAP1 REVERT JUMPDEST DUP1 MLOAD DUP2 PUSH1 0x20 ADD REVERT JUMPDEST PUSH4 0xBC197C81 PUSH1 0xE0 SHL PUSH28 0xFFFFFFFFFFFFFFFFFFFFFFFFFFFFFFFFFFFFFFFFFFFFFFFFFFFFFFFF NOT AND DUP2 PUSH28 0xFFFFFFFFFFFFFFFFFFFFFFFFFFFFFFFFFFFFFFFFFFFFFFFFFFFFFFFF NOT AND EQ PUSH2 0x322F JUMPI DUP5 PUSH1 0x40 MLOAD PUSH32 0x57F447CE00000000000000000000000000000000000000000000000000000000 DUP2 MSTORE PUSH1 0x4 ADD PUSH2 0x3226 SWAP2 SWAP1 PUSH2 0x431C JUMP JUMPDEST PUSH1 0x40 MLOAD DUP1 SWAP2 SUB SWAP1 REVERT JUMPDEST POP JUMPDEST POP POP POP POP POP POP JUMP JUMPDEST PUSH1 0x60 PUSH2 0x3246 DUP4 DUP4 PUSH0 PUSH2 0x35DE JUMP JUMPDEST SWAP1 POP SWAP3 SWAP2 POP POP JUMP JUMPDEST DUP1 MLOAD DUP3 MLOAD EQ PUSH2 0x3298 JUMPI DUP2 MLOAD DUP2 MLOAD PUSH1 0x40 MLOAD PUSH32 0x5B05999100000000000000000000000000000000000000000000000000000000 DUP2 MSTORE PUSH1 0x4 ADD PUSH2 0x328F SWAP3 SWAP2 SWAP1 PUSH2 0x4D7A JUMP JUMPDEST PUSH1 0x40 MLOAD DUP1 SWAP2 SUB SWAP1 REVERT JUMPDEST PUSH0 PUSH2 0x32A1 PUSH2 0x23DF JUMP JUMPDEST SWAP1 POP PUSH0 JUMPDEST DUP4 MLOAD DUP2 LT ISZERO PUSH2 0x349D JUMPI PUSH0 PUSH2 0x32C2 DUP3 DUP7 PUSH2 0x256C SWAP1 SWAP2 SWAP1 PUSH4 0xFFFFFFFF AND JUMP JUMPDEST SWAP1 POP PUSH0 PUSH2 0x32D8 DUP4 DUP7 PUSH2 0x256C SWAP1 SWAP2 SWAP1 PUSH4 0xFFFFFFFF AND JUMP JUMPDEST SWAP1 POP PUSH0 PUSH20 0xFFFFFFFFFFFFFFFFFFFFFFFFFFFFFFFFFFFFFFFF AND DUP9 PUSH20 0xFFFFFFFFFFFFFFFFFFFFFFFFFFFFFFFFFFFFFFFF AND EQ PUSH2 0x33FB JUMPI PUSH0 DUP1 PUSH0 DUP5 DUP2 MSTORE PUSH1 0x20 ADD SWAP1 DUP2 MSTORE PUSH1 0x20 ADD PUSH0 KECCAK256 PUSH0 DUP11 PUSH20 0xFFFFFFFFFFFFFFFFFFFFFFFFFFFFFFFFFFFFFFFF AND PUSH20 0xFFFFFFFFFFFFFFFFFFFFFFFFFFFFFFFFFFFFFFFF AND DUP2 MSTORE PUSH1 0x20 ADD SWAP1 DUP2 MSTORE PUSH1 0x20 ADD PUSH0 KECCAK256 SLOAD SWAP1 POP DUP2 DUP2 LT ISZERO PUSH2 0x33A7 JUMPI DUP9 DUP2 DUP4 DUP6 PUSH1 0x40 MLOAD PUSH32 0x3DEE4C500000000000000000000000000000000000000000000000000000000 DUP2 MSTORE PUSH1 0x4 ADD PUSH2 0x339E SWAP5 SWAP4 SWAP3 SWAP2 SWAP1 PUSH2 0x54EB JUMP JUMPDEST PUSH1 0x40 MLOAD DUP1 SWAP2 SUB SWAP1 REVERT JUMPDEST DUP2 DUP2 SUB PUSH0 DUP1 DUP6 DUP2 MSTORE PUSH1 0x20 ADD SWAP1 DUP2 MSTORE PUSH1 0x20 ADD PUSH0 KECCAK256 PUSH0 DUP12 PUSH20 0xFFFFFFFFFFFFFFFFFFFFFFFFFFFFFFFFFFFFFFFF AND PUSH20 0xFFFFFFFFFFFFFFFFFFFFFFFFFFFFFFFFFFFFFFFF AND DUP2 MSTORE PUSH1 0x20 ADD SWAP1 DUP2 MSTORE PUSH1 0x20 ADD PUSH0 KECCAK256 DUP2 SWAP1 SSTORE POP POP JUMPDEST PUSH0 PUSH20 0xFFFFFFFFFFFFFFFFFFFFFFFFFFFFFFFFFFFFFFFF AND DUP8 PUSH20 0xFFFFFFFFFFFFFFFFFFFFFFFFFFFFFFFFFFFFFFFF AND EQ PUSH2 0x3490 JUMPI DUP1 PUSH0 DUP1 DUP5 DUP2 MSTORE PUSH1 0x20 ADD SWAP1 DUP2 MSTORE PUSH1 0x20 ADD PUSH0 KECCAK256 PUSH0 DUP10 PUSH20 0xFFFFFFFFFFFFFFFFFFFFFFFFFFFFFFFFFFFFFFFF AND PUSH20 0xFFFFFFFFFFFFFFFFFFFFFFFFFFFFFFFFFFFFFFFF AND DUP2 MSTORE PUSH1 0x20 ADD SWAP1 DUP2 MSTORE PUSH1 0x20 ADD PUSH0 KECCAK256 PUSH0 DUP3 DUP3 SLOAD PUSH2 0x3488 SWAP2 SWAP1 PUSH2 0x53BB JUMP JUMPDEST SWAP3 POP POP DUP2 SWAP1 SSTORE POP JUMPDEST POP POP DUP1 PUSH1 0x1 ADD SWAP1 POP PUSH2 0x32A5 JUMP JUMPDEST POP PUSH1 0x1 DUP4 MLOAD SUB PUSH2 0x3558 JUMPI PUSH0 PUSH2 0x34BB PUSH0 DUP6 PUSH2 0x256C SWAP1 SWAP2 SWAP1 PUSH4 0xFFFFFFFF AND JUMP JUMPDEST SWAP1 POP PUSH0 PUSH2 0x34D1 PUSH0 DUP6 PUSH2 0x256C SWAP1 SWAP2 SWAP1 PUSH4 0xFFFFFFFF AND JUMP JUMPDEST SWAP1 POP DUP6 PUSH20 0xFFFFFFFFFFFFFFFFFFFFFFFFFFFFFFFFFFFFFFFF AND DUP8 PUSH20 0xFFFFFFFFFFFFFFFFFFFFFFFFFFFFFFFFFFFFFFFF AND DUP5 PUSH20 0xFFFFFFFFFFFFFFFFFFFFFFFFFFFFFFFFFFFFFFFF AND PUSH32 0xC3D58168C5AE7397731D063D5BBF3D657854427343F4C083240F7AACAA2D0F62 DUP6 DUP6 PUSH1 0x40 MLOAD PUSH2 0x3549 SWAP3 SWAP2 SWAP1 PUSH2 0x4D7A JUMP JUMPDEST PUSH1 0x40 MLOAD DUP1 SWAP2 SUB SWAP1 LOG4 POP POP PUSH2 0x35D7 JUMP JUMPDEST DUP4 PUSH20 0xFFFFFFFFFFFFFFFFFFFFFFFFFFFFFFFFFFFFFFFF AND DUP6 PUSH20 0xFFFFFFFFFFFFFFFFFFFFFFFFFFFFFFFFFFFFFFFF AND DUP3 PUSH20 0xFFFFFFFFFFFFFFFFFFFFFFFFFFFFFFFFFFFFFFFF AND PUSH32 0x4A39DC06D4C0DBC64B70AF90FD698A233A518AA5D07E595D983B8C0526C8F7FB DUP7 DUP7 PUSH1 0x40 MLOAD PUSH2 0x35CE SWAP3 SWAP2 SWAP1 PUSH2 0x552E JUMP JUMPDEST PUSH1 0x40 MLOAD DUP1 SWAP2 SUB SWAP1 LOG4 JUMPDEST POP POP POP POP POP JUMP JUMPDEST PUSH1 0x60 DUP2 SELFBALANCE LT ISZERO PUSH2 0x3625 JUMPI ADDRESS PUSH1 0x40 MLOAD PUSH32 0xCD78605900000000000000000000000000000000000000000000000000000000 DUP2 MSTORE PUSH1 0x4 ADD PUSH2 0x361C SWAP2 SWAP1 PUSH2 0x431C JUMP JUMPDEST PUSH1 0x40 MLOAD DUP1 SWAP2 SUB SWAP1 REVERT JUMPDEST PUSH0 DUP1 DUP6 PUSH20 0xFFFFFFFFFFFFFFFFFFFFFFFFFFFFFFFFFFFFFFFF AND DUP5 DUP7 PUSH1 0x40 MLOAD PUSH2 0x364D SWAP2 SWAP1 PUSH2 0x5593 JUMP JUMPDEST PUSH0 PUSH1 0x40 MLOAD DUP1 DUP4 SUB DUP2 DUP6 DUP8 GAS CALL SWAP3 POP POP POP RETURNDATASIZE DUP1 PUSH0 DUP2 EQ PUSH2 0x3687 JUMPI PUSH1 0x40 MLOAD SWAP2 POP PUSH1 0x1F NOT PUSH1 0x3F RETURNDATASIZE ADD AND DUP3 ADD PUSH1 0x40 MSTORE RETURNDATASIZE DUP3 MSTORE RETURNDATASIZE PUSH0 PUSH1 0x20 DUP5 ADD RETURNDATACOPY PUSH2 0x368C JUMP JUMPDEST PUSH1 0x60 SWAP2 POP JUMPDEST POP SWAP2 POP SWAP2 POP PUSH2 0x369C DUP7 DUP4 DUP4 PUSH2 0x36A7 JUMP JUMPDEST SWAP3 POP POP POP SWAP4 SWAP3 POP POP POP JUMP JUMPDEST PUSH1 0x60 DUP3 PUSH2 0x36BC JUMPI PUSH2 0x36B7 DUP3 PUSH2 0x3734 JUMP JUMPDEST PUSH2 0x372C JUMP JUMPDEST PUSH0 DUP3 MLOAD EQ DUP1 ISZERO PUSH2 0x36E2 JUMPI POP PUSH0 DUP5 PUSH20 0xFFFFFFFFFFFFFFFFFFFFFFFFFFFFFFFFFFFFFFFF AND EXTCODESIZE EQ JUMPDEST ISZERO PUSH2 0x3724 JUMPI DUP4 PUSH1 0x40 MLOAD PUSH32 0x9996B31500000000000000000000000000000000000000000000000000000000 DUP2 MSTORE PUSH1 0x4 ADD PUSH2 0x371B SWAP2 SWAP1 PUSH2 0x431C JUMP JUMPDEST PUSH1 0x40 MLOAD DUP1 SWAP2 SUB SWAP1 REVERT JUMPDEST DUP2 SWAP1 POP PUSH2 0x372D JUMP JUMPDEST JUMPDEST SWAP4 SWAP3 POP POP POP JUMP JUMPDEST PUSH0 DUP2 MLOAD GT ISZERO PUSH2 0x3746 JUMPI DUP1 MLOAD DUP1 DUP3 PUSH1 0x20 ADD REVERT JUMPDEST PUSH1 0x40 MLOAD PUSH32 0x1425EA4200000000000000000000000000000000000000000000000000000000 DUP2 MSTORE PUSH1 0x4 ADD PUSH1 0x40 MLOAD DUP1 SWAP2 SUB SWAP1 REVERT JUMPDEST PUSH1 0x40 MLOAD DUP1 PUSH1 0x40 ADD PUSH1 0x40 MSTORE DUP1 PUSH0 PUSH20 0xFFFFFFFFFFFFFFFFFFFFFFFFFFFFFFFFFFFFFFFF AND DUP2 MSTORE PUSH1 0x20 ADD PUSH0 DUP2 MSTORE POP SWAP1 JUMP JUMPDEST POP DUP1 SLOAD PUSH2 0x37B2 SWAP1 PUSH2 0x47E7 JUMP JUMPDEST PUSH0 DUP3 SSTORE DUP1 PUSH1 0x1F LT PUSH2 0x37C3 JUMPI POP PUSH2 0x37E0 JUMP JUMPDEST PUSH1 0x1F ADD PUSH1 0x20 SWAP1 DIV SWAP1 PUSH0 MSTORE PUSH1 0x20 PUSH0 KECCAK256 SWAP1 DUP2 ADD SWAP1 PUSH2 0x37DF SWAP2 SWAP1 PUSH2 0x37E3 JUMP JUMPDEST JUMPDEST POP JUMP JUMPDEST JUMPDEST DUP1 DUP3 GT ISZERO PUSH2 0x37FA JUMPI PUSH0 DUP2 PUSH0 SWAP1 SSTORE POP PUSH1 0x1 ADD PUSH2 0x37E4 JUMP JUMPDEST POP SWAP1 JUMP JUMPDEST PUSH0 PUSH1 0x40 MLOAD SWAP1 POP SWAP1 JUMP JUMPDEST PUSH0 DUP1 REVERT JUMPDEST PUSH0 DUP1 REVERT JUMPDEST PUSH0 PUSH20 0xFFFFFFFFFFFFFFFFFFFFFFFFFFFFFFFFFFFFFFFF DUP3 AND SWAP1 POP SWAP2 SWAP1 POP JUMP JUMPDEST PUSH0 PUSH2 0x3838 DUP3 PUSH2 0x380F JUMP JUMPDEST SWAP1 POP SWAP2 SWAP1 POP JUMP JUMPDEST PUSH2 0x3848 DUP2 PUSH2 0x382E JUMP JUMPDEST DUP2 EQ PUSH2 0x3852 JUMPI PUSH0 DUP1 REVERT JUMPDEST POP JUMP JUMPDEST PUSH0 DUP2 CALLDATALOAD SWAP1 POP PUSH2 0x3863 DUP2 PUSH2 0x383F JUMP JUMPDEST SWAP3 SWAP2 POP POP JUMP JUMPDEST PUSH0 DUP2 SWAP1 POP SWAP2 SWAP1 POP JUMP JUMPDEST PUSH2 0x387B DUP2 PUSH2 0x3869 JUMP JUMPDEST DUP2 EQ PUSH2 0x3885 JUMPI PUSH0 DUP1 REVERT JUMPDEST POP JUMP JUMPDEST PUSH0 DUP2 CALLDATALOAD SWAP1 POP PUSH2 0x3896 DUP2 PUSH2 0x3872 JUMP JUMPDEST SWAP3 SWAP2 POP POP JUMP JUMPDEST PUSH0 DUP1 PUSH1 0x40 DUP4 DUP6 SUB SLT ISZERO PUSH2 0x38B2 JUMPI PUSH2 0x38B1 PUSH2 0x3807 JUMP JUMPDEST JUMPDEST PUSH0 PUSH2 0x38BF DUP6 DUP3 DUP7 ADD PUSH2 0x3855 JUMP JUMPDEST SWAP3 POP POP PUSH1 0x20 PUSH2 0x38D0 DUP6 DUP3 DUP7 ADD PUSH2 0x3888 JUMP JUMPDEST SWAP2 POP POP SWAP3 POP SWAP3 SWAP1 POP JUMP JUMPDEST PUSH2 0x38E3 DUP2 PUSH2 0x3869 JUMP JUMPDEST DUP3 MSTORE POP POP JUMP JUMPDEST PUSH0 PUSH1 0x20 DUP3 ADD SWAP1 POP PUSH2 0x38FC PUSH0 DUP4 ADD DUP5 PUSH2 0x38DA JUMP JUMPDEST SWAP3 SWAP2 POP POP JUMP JUMPDEST PUSH0 PUSH32 0xFFFFFFFF00000000000000000000000000000000000000000000000000000000 DUP3 AND SWAP1 POP SWAP2 SWAP1 POP JUMP JUMPDEST PUSH2 0x3936 DUP2 PUSH2 0x3902 JUMP JUMPDEST DUP2 EQ PUSH2 0x3940 JUMPI PUSH0 DUP1 REVERT JUMPDEST POP JUMP JUMPDEST PUSH0 DUP2 CALLDATALOAD SWAP1 POP PUSH2 0x3951 DUP2 PUSH2 0x392D JUMP JUMPDEST SWAP3 SWAP2 POP POP JUMP JUMPDEST PUSH0 PUSH1 0x20 DUP3 DUP5 SUB SLT ISZERO PUSH2 0x396C JUMPI PUSH2 0x396B PUSH2 0x3807 JUMP JUMPDEST JUMPDEST PUSH0 PUSH2 0x3979 DUP5 DUP3 DUP6 ADD PUSH2 0x3943 JUMP JUMPDEST SWAP2 POP POP SWAP3 SWAP2 POP POP JUMP JUMPDEST PUSH0 DUP2 ISZERO ISZERO SWAP1 POP SWAP2 SWAP1 POP JUMP JUMPDEST PUSH2 0x3996 DUP2 PUSH2 0x3982 JUMP JUMPDEST DUP3 MSTORE POP POP JUMP JUMPDEST PUSH0 PUSH1 0x20 DUP3 ADD SWAP1 POP PUSH2 0x39AF PUSH0 DUP4 ADD DUP5 PUSH2 0x398D JUMP JUMPDEST SWAP3 SWAP2 POP POP JUMP JUMPDEST PUSH0 PUSH8 0xFFFFFFFFFFFFFFFF DUP3 AND SWAP1 POP SWAP2 SWAP1 POP JUMP JUMPDEST PUSH2 0x39D1 DUP2 PUSH2 0x39B5 JUMP JUMPDEST DUP2 EQ PUSH2 0x39DB JUMPI PUSH0 DUP1 REVERT JUMPDEST POP JUMP JUMPDEST PUSH0 DUP2 CALLDATALOAD SWAP1 POP PUSH2 0x39EC DUP2 PUSH2 0x39C8 JUMP JUMPDEST SWAP3 SWAP2 POP POP JUMP JUMPDEST PUSH0 DUP1 REVERT JUMPDEST PUSH0 DUP1 REVERT JUMPDEST PUSH0 PUSH1 0x1F NOT PUSH1 0x1F DUP4 ADD AND SWAP1 POP SWAP2 SWAP1 POP JUMP JUMPDEST PUSH32 0x4E487B7100000000000000000000000000000000000000000000000000000000 PUSH0 MSTORE PUSH1 0x41 PUSH1 0x4 MSTORE PUSH1 0x24 PUSH0 REVERT JUMPDEST PUSH2 0x3A40 DUP3 PUSH2 0x39FA JUMP JUMPDEST DUP2 ADD DUP2 DUP2 LT PUSH8 0xFFFFFFFFFFFFFFFF DUP3 GT OR ISZERO PUSH2 0x3A5F JUMPI PUSH2 0x3A5E PUSH2 0x3A0A JUMP JUMPDEST JUMPDEST DUP1 PUSH1 0x40 MSTORE POP POP POP JUMP JUMPDEST PUSH0 PUSH2 0x3A71 PUSH2 0x37FE JUMP JUMPDEST SWAP1 POP PUSH2 0x3A7D DUP3 DUP3 PUSH2 0x3A37 JUMP JUMPDEST SWAP2 SWAP1 POP JUMP JUMPDEST PUSH0 PUSH8 0xFFFFFFFFFFFFFFFF DUP3 GT ISZERO PUSH2 0x3A9C JUMPI PUSH2 0x3A9B PUSH2 0x3A0A JUMP JUMPDEST JUMPDEST PUSH2 0x3AA5 DUP3 PUSH2 0x39FA JUMP JUMPDEST SWAP1 POP PUSH1 0x20 DUP2 ADD SWAP1 POP SWAP2 SWAP1 POP JUMP JUMPDEST DUP3 DUP2 DUP4 CALLDATACOPY PUSH0 DUP4 DUP4 ADD MSTORE POP POP POP JUMP JUMPDEST PUSH0 PUSH2 0x3AD2 PUSH2 0x3ACD DUP5 PUSH2 0x3A82 JUMP JUMPDEST PUSH2 0x3A68 JUMP JUMPDEST SWAP1 POP DUP3 DUP2 MSTORE PUSH1 0x20 DUP2 ADD DUP5 DUP5 DUP5 ADD GT ISZERO PUSH2 0x3AEE JUMPI PUSH2 0x3AED PUSH2 0x39F6 JUMP JUMPDEST JUMPDEST PUSH2 0x3AF9 DUP5 DUP3 DUP6 PUSH2 0x3AB2 JUMP JUMPDEST POP SWAP4 SWAP3 POP POP POP JUMP JUMPDEST PUSH0 DUP3 PUSH1 0x1F DUP4 ADD SLT PUSH2 0x3B15 JUMPI PUSH2 0x3B14 PUSH2 0x39F2 JUMP JUMPDEST JUMPDEST DUP2 CALLDATALOAD PUSH2 0x3B25 DUP5 DUP3 PUSH1 0x20 DUP7 ADD PUSH2 0x3AC0 JUMP JUMPDEST SWAP2 POP POP SWAP3 SWAP2 POP POP JUMP JUMPDEST PUSH0 DUP1 PUSH0 PUSH1 0x60 DUP5 DUP7 SUB SLT ISZERO PUSH2 0x3B45 JUMPI PUSH2 0x3B44 PUSH2 0x3807 JUMP JUMPDEST JUMPDEST PUSH0 PUSH2 0x3B52 DUP7 DUP3 DUP8 ADD PUSH2 0x39DE JUMP JUMPDEST SWAP4 POP POP PUSH1 0x20 PUSH2 0x3B63 DUP7 DUP3 DUP8 ADD PUSH2 0x3855 JUMP JUMPDEST SWAP3 POP POP PUSH1 0x40 DUP5 ADD CALLDATALOAD PUSH8 0xFFFFFFFFFFFFFFFF DUP2 GT ISZERO PUSH2 0x3B84 JUMPI PUSH2 0x3B83 PUSH2 0x380B JUMP JUMPDEST JUMPDEST PUSH2 0x3B90 DUP7 DUP3 DUP8 ADD PUSH2 0x3B01 JUMP JUMPDEST SWAP2 POP POP SWAP3 POP SWAP3 POP SWAP3 JUMP JUMPDEST PUSH0 PUSH1 0x20 DUP3 DUP5 SUB SLT ISZERO PUSH2 0x3BAF JUMPI PUSH2 0x3BAE PUSH2 0x3807 JUMP JUMPDEST JUMPDEST PUSH0 PUSH2 0x3BBC DUP5 DUP3 DUP6 ADD PUSH2 0x3888 JUMP JUMPDEST SWAP2 POP POP SWAP3 SWAP2 POP POP JUMP JUMPDEST PUSH0 DUP2 MLOAD SWAP1 POP SWAP2 SWAP1 POP JUMP JUMPDEST PUSH0 DUP3 DUP3 MSTORE PUSH1 0x20 DUP3 ADD SWAP1 POP SWAP3 SWAP2 POP POP JUMP JUMPDEST PUSH0 JUMPDEST DUP4 DUP2 LT ISZERO PUSH2 0x3BFC JUMPI DUP1 DUP3 ADD MLOAD DUP2 DUP5 ADD MSTORE PUSH1 0x20 DUP2 ADD SWAP1 POP PUSH2 0x3BE1 JUMP JUMPDEST PUSH0 DUP5 DUP5 ADD MSTORE POP POP POP POP JUMP JUMPDEST PUSH0 PUSH2 0x3C11 DUP3 PUSH2 0x3BC5 JUMP JUMPDEST PUSH2 0x3C1B DUP2 DUP6 PUSH2 0x3BCF JUMP JUMPDEST SWAP4 POP PUSH2 0x3C2B DUP2 DUP6 PUSH1 0x20 DUP7 ADD PUSH2 0x3BDF JUMP JUMPDEST PUSH2 0x3C34 DUP2 PUSH2 0x39FA JUMP JUMPDEST DUP5 ADD SWAP2 POP POP SWAP3 SWAP2 POP POP JUMP JUMPDEST PUSH0 PUSH1 0x20 DUP3 ADD SWAP1 POP DUP2 DUP2 SUB PUSH0 DUP4 ADD MSTORE PUSH2 0x3C57 DUP2 DUP5 PUSH2 0x3C07 JUMP JUMPDEST SWAP1 POP SWAP3 SWAP2 POP POP JUMP JUMPDEST PUSH1 0x2 DUP2 LT PUSH2 0x3C6B JUMPI PUSH0 DUP1 REVERT JUMPDEST POP JUMP JUMPDEST PUSH0 DUP2 CALLDATALOAD SWAP1 POP PUSH2 0x3C7C DUP2 PUSH2 0x3C5F JUMP JUMPDEST SWAP3 SWAP2 POP POP JUMP JUMPDEST PUSH0 DUP1 PUSH0 DUP1 PUSH0 DUP1 PUSH0 PUSH1 0xE0 DUP9 DUP11 SUB SLT ISZERO PUSH2 0x3C9D JUMPI PUSH2 0x3C9C PUSH2 0x3807 JUMP JUMPDEST JUMPDEST PUSH0 PUSH2 0x3CAA DUP11 DUP3 DUP12 ADD PUSH2 0x3855 JUMP JUMPDEST SWAP8 POP POP PUSH1 0x20 PUSH2 0x3CBB DUP11 DUP3 DUP12 ADD PUSH2 0x3855 JUMP JUMPDEST SWAP7 POP POP PUSH1 0x40 PUSH2 0x3CCC DUP11 DUP3 DUP12 ADD PUSH2 0x3888 JUMP JUMPDEST SWAP6 POP POP PUSH1 0x60 PUSH2 0x3CDD DUP11 DUP3 DUP12 ADD PUSH2 0x3888 JUMP JUMPDEST SWAP5 POP POP PUSH1 0x80 DUP9 ADD CALLDATALOAD PUSH8 0xFFFFFFFFFFFFFFFF DUP2 GT ISZERO PUSH2 0x3CFE JUMPI PUSH2 0x3CFD PUSH2 0x380B JUMP JUMPDEST JUMPDEST PUSH2 0x3D0A DUP11 DUP3 DUP12 ADD PUSH2 0x3B01 JUMP JUMPDEST SWAP4 POP POP PUSH1 0xA0 PUSH2 0x3D1B DUP11 DUP3 DUP12 ADD PUSH2 0x39DE JUMP JUMPDEST SWAP3 POP POP PUSH1 0xC0 PUSH2 0x3D2C DUP11 DUP3 DUP12 ADD PUSH2 0x3C6E JUMP JUMPDEST SWAP2 POP POP SWAP3 SWAP6 SWAP9 SWAP2 SWAP5 SWAP8 POP SWAP3 SWAP6 POP JUMP JUMPDEST PUSH0 DUP2 SWAP1 POP SWAP2 SWAP1 POP JUMP JUMPDEST PUSH2 0x3D4D DUP2 PUSH2 0x3D3B JUMP JUMPDEST DUP3 MSTORE POP POP JUMP JUMPDEST PUSH0 PUSH1 0x20 DUP3 ADD SWAP1 POP PUSH2 0x3D66 PUSH0 DUP4 ADD DUP5 PUSH2 0x3D44 JUMP JUMPDEST SWAP3 SWAP2 POP POP JUMP JUMPDEST PUSH0 PUSH8 0xFFFFFFFFFFFFFFFF DUP3 GT ISZERO PUSH2 0x3D86 JUMPI PUSH2 0x3D85 PUSH2 0x3A0A JUMP JUMPDEST JUMPDEST PUSH1 0x20 DUP3 MUL SWAP1 POP PUSH1 0x20 DUP2 ADD SWAP1 POP SWAP2 SWAP1 POP JUMP JUMPDEST PUSH0 DUP1 REVERT JUMPDEST PUSH0 PUSH2 0x3DAD PUSH2 0x3DA8 DUP5 PUSH2 0x3D6C JUMP JUMPDEST PUSH2 0x3A68 JUMP JUMPDEST SWAP1 POP DUP1 DUP4 DUP3 MSTORE PUSH1 0x20 DUP3 ADD SWAP1 POP PUSH1 0x20 DUP5 MUL DUP4 ADD DUP6 DUP2 GT ISZERO PUSH2 0x3DD0 JUMPI PUSH2 0x3DCF PUSH2 0x3D97 JUMP JUMPDEST JUMPDEST DUP4 JUMPDEST DUP2 DUP2 LT ISZERO PUSH2 0x3DF9 JUMPI DUP1 PUSH2 0x3DE5 DUP9 DUP3 PUSH2 0x3888 JUMP JUMPDEST DUP5 MSTORE PUSH1 0x20 DUP5 ADD SWAP4 POP POP PUSH1 0x20 DUP2 ADD SWAP1 POP PUSH2 0x3DD2 JUMP JUMPDEST POP POP POP SWAP4 SWAP3 POP POP POP JUMP JUMPDEST PUSH0 DUP3 PUSH1 0x1F DUP4 ADD SLT PUSH2 0x3E17 JUMPI PUSH2 0x3E16 PUSH2 0x39F2 JUMP JUMPDEST JUMPDEST DUP2 CALLDATALOAD PUSH2 0x3E27 DUP5 DUP3 PUSH1 0x20 DUP7 ADD PUSH2 0x3D9B JUMP JUMPDEST SWAP2 POP POP SWAP3 SWAP2 POP POP JUMP JUMPDEST PUSH0 DUP1 PUSH0 DUP1 PUSH0 PUSH1 0xA0 DUP7 DUP9 SUB SLT ISZERO PUSH2 0x3E49 JUMPI PUSH2 0x3E48 PUSH2 0x3807 JUMP JUMPDEST JUMPDEST PUSH0 PUSH2 0x3E56 DUP9 DUP3 DUP10 ADD PUSH2 0x3855 JUMP JUMPDEST SWAP6 POP POP PUSH1 0x20 PUSH2 0x3E67 DUP9 DUP3 DUP10 ADD PUSH2 0x3855 JUMP JUMPDEST SWAP5 POP POP PUSH1 0x40 DUP7 ADD CALLDATALOAD PUSH8 0xFFFFFFFFFFFFFFFF DUP2 GT ISZERO PUSH2 0x3E88 JUMPI PUSH2 0x3E87 PUSH2 0x380B JUMP JUMPDEST JUMPDEST PUSH2 0x3E94 DUP9 DUP3 DUP10 ADD PUSH2 0x3E03 JUMP JUMPDEST SWAP4 POP POP PUSH1 0x60 DUP7 ADD CALLDATALOAD PUSH8 0xFFFFFFFFFFFFFFFF DUP2 GT ISZERO PUSH2 0x3EB5 JUMPI PUSH2 0x3EB4 PUSH2 0x380B JUMP JUMPDEST JUMPDEST PUSH2 0x3EC1 DUP9 DUP3 DUP10 ADD PUSH2 0x3E03 JUMP JUMPDEST SWAP3 POP POP PUSH1 0x80 DUP7 ADD CALLDATALOAD PUSH8 0xFFFFFFFFFFFFFFFF DUP2 GT ISZERO PUSH2 0x3EE2 JUMPI PUSH2 0x3EE1 PUSH2 0x380B JUMP JUMPDEST JUMPDEST PUSH2 0x3EEE DUP9 DUP3 DUP10 ADD PUSH2 0x3B01 JUMP JUMPDEST SWAP2 POP POP SWAP3 SWAP6 POP SWAP3 SWAP6 SWAP1 SWAP4 POP JUMP JUMPDEST PUSH0 DUP1 PUSH1 0x40 DUP4 DUP6 SUB SLT ISZERO PUSH2 0x3F11 JUMPI PUSH2 0x3F10 PUSH2 0x3807 JUMP JUMPDEST JUMPDEST PUSH0 PUSH2 0x3F1E DUP6 DUP3 DUP7 ADD PUSH2 0x3855 JUMP JUMPDEST SWAP3 POP POP PUSH1 0x20 PUSH2 0x3F2F DUP6 DUP3 DUP7 ADD PUSH2 0x3855 JUMP JUMPDEST SWAP2 POP POP SWAP3 POP SWAP3 SWAP1 POP JUMP JUMPDEST PUSH0 PUSH1 0x20 DUP3 DUP5 SUB SLT ISZERO PUSH2 0x3F4E JUMPI PUSH2 0x3F4D PUSH2 0x3807 JUMP JUMPDEST JUMPDEST PUSH0 PUSH2 0x3F5B DUP5 DUP3 DUP6 ADD PUSH2 0x39DE JUMP JUMPDEST SWAP2 POP POP SWAP3 SWAP2 POP POP JUMP JUMPDEST PUSH0 PUSH8 0xFFFFFFFFFFFFFFFF DUP3 GT ISZERO PUSH2 0x3F7E JUMPI PUSH2 0x3F7D PUSH2 0x3A0A JUMP JUMPDEST JUMPDEST PUSH1 0x20 DUP3 MUL SWAP1 POP PUSH1 0x20 DUP2 ADD SWAP1 POP SWAP2 SWAP1 POP JUMP JUMPDEST PUSH0 PUSH2 0x3FA1 PUSH2 0x3F9C DUP5 PUSH2 0x3F64 JUMP JUMPDEST PUSH2 0x3A68 JUMP JUMPDEST SWAP1 POP DUP1 DUP4 DUP3 MSTORE PUSH1 0x20 DUP3 ADD SWAP1 POP PUSH1 0x20 DUP5 MUL DUP4 ADD DUP6 DUP2 GT ISZERO PUSH2 0x3FC4 JUMPI PUSH2 0x3FC3 PUSH2 0x3D97 JUMP JUMPDEST JUMPDEST DUP4 JUMPDEST DUP2 DUP2 LT ISZERO PUSH2 0x3FED JUMPI DUP1 PUSH2 0x3FD9 DUP9 DUP3 PUSH2 0x3855 JUMP JUMPDEST DUP5 MSTORE PUSH1 0x20 DUP5 ADD SWAP4 POP POP PUSH1 0x20 DUP2 ADD SWAP1 POP PUSH2 0x3FC6 JUMP JUMPDEST POP POP POP SWAP4 SWAP3 POP POP POP JUMP JUMPDEST PUSH0 DUP3 PUSH1 0x1F DUP4 ADD SLT PUSH2 0x400B JUMPI PUSH2 0x400A PUSH2 0x39F2 JUMP JUMPDEST JUMPDEST DUP2 CALLDATALOAD PUSH2 0x401B DUP5 DUP3 PUSH1 0x20 DUP7 ADD PUSH2 0x3F8F JUMP JUMPDEST SWAP2 POP POP SWAP3 SWAP2 POP POP JUMP JUMPDEST PUSH0 DUP1 PUSH1 0x40 DUP4 DUP6 SUB SLT ISZERO PUSH2 0x403A JUMPI PUSH2 0x4039 PUSH2 0x3807 JUMP JUMPDEST JUMPDEST PUSH0 DUP4 ADD CALLDATALOAD PUSH8 0xFFFFFFFFFFFFFFFF DUP2 GT ISZERO PUSH2 0x4057 JUMPI PUSH2 0x4056 PUSH2 0x380B JUMP JUMPDEST JUMPDEST PUSH2 0x4063 DUP6 DUP3 DUP7 ADD PUSH2 0x3FF7 JUMP JUMPDEST SWAP3 POP POP PUSH1 0x20 DUP4 ADD CALLDATALOAD PUSH8 0xFFFFFFFFFFFFFFFF DUP2 GT ISZERO PUSH2 0x4084 JUMPI PUSH2 0x4083 PUSH2 0x380B JUMP JUMPDEST JUMPDEST PUSH2 0x4090 DUP6 DUP3 DUP7 ADD PUSH2 0x3E03 JUMP JUMPDEST SWAP2 POP POP SWAP3 POP SWAP3 SWAP1 POP JUMP JUMPDEST PUSH0 DUP2 MLOAD SWAP1 POP SWAP2 SWAP1 POP JUMP JUMPDEST PUSH0 DUP3 DUP3 MSTORE PUSH1 0x20 DUP3 ADD SWAP1 POP SWAP3 SWAP2 POP POP JUMP JUMPDEST PUSH0 DUP2 SWAP1 POP PUSH1 0x20 DUP3 ADD SWAP1 POP SWAP2 SWAP1 POP JUMP JUMPDEST PUSH2 0x40CC DUP2 PUSH2 0x3869 JUMP JUMPDEST DUP3 MSTORE POP POP JUMP JUMPDEST PUSH0 PUSH2 0x40DD DUP4 DUP4 PUSH2 0x40C3 JUMP JUMPDEST PUSH1 0x20 DUP4 ADD SWAP1 POP SWAP3 SWAP2 POP POP JUMP JUMPDEST PUSH0 PUSH1 0x20 DUP3 ADD SWAP1 POP SWAP2 SWAP1 POP JUMP JUMPDEST PUSH0 PUSH2 0x40FF DUP3 PUSH2 0x409A JUMP JUMPDEST PUSH2 0x4109 DUP2 DUP6 PUSH2 0x40A4 JUMP JUMPDEST SWAP4 POP PUSH2 0x4114 DUP4 PUSH2 0x40B4 JUMP JUMPDEST DUP1 PUSH0 JUMPDEST DUP4 DUP2 LT ISZERO PUSH2 0x4144 JUMPI DUP2 MLOAD PUSH2 0x412B DUP9 DUP3 PUSH2 0x40D2 JUMP JUMPDEST SWAP8 POP PUSH2 0x4136 DUP4 PUSH2 0x40E9 JUMP JUMPDEST SWAP3 POP POP PUSH1 0x1 DUP2 ADD SWAP1 POP PUSH2 0x4117 JUMP JUMPDEST POP DUP6 SWAP4 POP POP POP POP SWAP3 SWAP2 POP POP JUMP JUMPDEST PUSH0 PUSH1 0x20 DUP3 ADD SWAP1 POP DUP2 DUP2 SUB PUSH0 DUP4 ADD MSTORE PUSH2 0x4169 DUP2 DUP5 PUSH2 0x40F5 JUMP JUMPDEST SWAP1 POP SWAP3 SWAP2 POP POP JUMP JUMPDEST PUSH0 PUSH1 0x20 DUP3 DUP5 SUB SLT ISZERO PUSH2 0x4186 JUMPI PUSH2 0x4185 PUSH2 0x3807 JUMP JUMPDEST JUMPDEST PUSH0 PUSH2 0x4193 DUP5 DUP3 DUP6 ADD PUSH2 0x3855 JUMP JUMPDEST SWAP2 POP POP SWAP3 SWAP2 POP POP JUMP JUMPDEST PUSH2 0x41A5 DUP2 PUSH2 0x382E JUMP JUMPDEST DUP3 MSTORE POP POP JUMP JUMPDEST PUSH0 DUP2 MLOAD SWAP1 POP SWAP2 SWAP1 POP JUMP JUMPDEST PUSH0 DUP3 DUP3 MSTORE PUSH1 0x20 DUP3 ADD SWAP1 POP SWAP3 SWAP2 POP POP JUMP JUMPDEST PUSH0 PUSH2 0x41CF DUP3 PUSH2 0x41AB JUMP JUMPDEST PUSH2 0x41D9 DUP2 DUP6 PUSH2 0x41B5 JUMP JUMPDEST SWAP4 POP PUSH2 0x41E9 DUP2 DUP6 PUSH1 0x20 DUP7 ADD PUSH2 0x3BDF JUMP JUMPDEST PUSH2 0x41F2 DUP2 PUSH2 0x39FA JUMP JUMPDEST DUP5 ADD SWAP2 POP POP SWAP3 SWAP2 POP POP JUMP JUMPDEST PUSH0 PUSH1 0x40 DUP3 ADD SWAP1 POP PUSH2 0x4210 PUSH0 DUP4 ADD DUP6 PUSH2 0x419C JUMP JUMPDEST DUP2 DUP2 SUB PUSH1 0x20 DUP4 ADD MSTORE PUSH2 0x4222 DUP2 DUP5 PUSH2 0x41C5 JUMP JUMPDEST SWAP1 POP SWAP4 SWAP3 POP POP POP JUMP JUMPDEST PUSH0 DUP1 PUSH0 PUSH1 0x60 DUP5 DUP7 SUB SLT ISZERO PUSH2 0x4242 JUMPI PUSH2 0x4241 PUSH2 0x3807 JUMP JUMPDEST JUMPDEST PUSH0 PUSH2 0x424F DUP7 DUP3 DUP8 ADD PUSH2 0x3855 JUMP JUMPDEST SWAP4 POP POP PUSH1 0x20 DUP5 ADD CALLDATALOAD PUSH8 0xFFFFFFFFFFFFFFFF DUP2 GT ISZERO PUSH2 0x4270 JUMPI PUSH2 0x426F PUSH2 0x380B JUMP JUMPDEST JUMPDEST PUSH2 0x427C DUP7 DUP3 DUP8 ADD PUSH2 0x3E03 JUMP JUMPDEST SWAP3 POP POP PUSH1 0x40 DUP5 ADD CALLDATALOAD PUSH8 0xFFFFFFFFFFFFFFFF DUP2 GT ISZERO PUSH2 0x429D JUMPI PUSH2 0x429C PUSH2 0x380B JUMP JUMPDEST JUMPDEST PUSH2 0x42A9 DUP7 DUP3 DUP8 ADD PUSH2 0x3E03 JUMP JUMPDEST SWAP2 POP POP SWAP3 POP SWAP3 POP SWAP3 JUMP JUMPDEST PUSH0 DUP1 REVERT JUMPDEST PUSH0 PUSH1 0xA0 DUP3 DUP5 SUB SLT ISZERO PUSH2 0x42CC JUMPI PUSH2 0x42CB PUSH2 0x42B3 JUMP JUMPDEST JUMPDEST DUP2 SWAP1 POP SWAP3 SWAP2 POP POP JUMP JUMPDEST PUSH0 PUSH1 0x20 DUP3 DUP5 SUB SLT ISZERO PUSH2 0x42EA JUMPI PUSH2 0x42E9 PUSH2 0x3807 JUMP JUMPDEST JUMPDEST PUSH0 DUP3 ADD CALLDATALOAD PUSH8 0xFFFFFFFFFFFFFFFF DUP2 GT ISZERO PUSH2 0x4307 JUMPI PUSH2 0x4306 PUSH2 0x380B JUMP JUMPDEST JUMPDEST PUSH2 0x4313 DUP5 DUP3 DUP6 ADD PUSH2 0x42B7 JUMP JUMPDEST SWAP2 POP POP SWAP3 SWAP2 POP POP JUMP JUMPDEST PUSH0 PUSH1 0x20 DUP3 ADD SWAP1 POP PUSH2 0x432F PUSH0 DUP4 ADD DUP5 PUSH2 0x419C JUMP JUMPDEST SWAP3 SWAP2 POP POP JUMP JUMPDEST PUSH2 0x433E DUP2 PUSH2 0x3982 JUMP JUMPDEST DUP2 EQ PUSH2 0x4348 JUMPI PUSH0 DUP1 REVERT JUMPDEST POP JUMP JUMPDEST PUSH0 DUP2 CALLDATALOAD SWAP1 POP PUSH2 0x4359 DUP2 PUSH2 0x4335 JUMP JUMPDEST SWAP3 SWAP2 POP POP JUMP JUMPDEST PUSH0 DUP1 PUSH1 0x40 DUP4 DUP6 SUB SLT ISZERO PUSH2 0x4375 JUMPI PUSH2 0x4374 PUSH2 0x3807 JUMP JUMPDEST JUMPDEST PUSH0 PUSH2 0x4382 DUP6 DUP3 DUP7 ADD PUSH2 0x3855 JUMP JUMPDEST SWAP3 POP POP PUSH1 0x20 PUSH2 0x4393 DUP6 DUP3 DUP7 ADD PUSH2 0x434B JUMP JUMPDEST SWAP2 POP POP SWAP3 POP SWAP3 SWAP1 POP JUMP JUMPDEST PUSH0 PUSH8 0xFFFFFFFFFFFFFFFF DUP3 GT ISZERO PUSH2 0x43B7 JUMPI PUSH2 0x43B6 PUSH2 0x3A0A JUMP JUMPDEST JUMPDEST PUSH1 0x20 DUP3 MUL SWAP1 POP PUSH1 0x20 DUP2 ADD SWAP1 POP SWAP2 SWAP1 POP JUMP JUMPDEST PUSH0 PUSH8 0xFFFFFFFFFFFFFFFF DUP3 GT ISZERO PUSH2 0x43E2 JUMPI PUSH2 0x43E1 PUSH2 0x3A0A JUMP JUMPDEST JUMPDEST PUSH2 0x43EB DUP3 PUSH2 0x39FA JUMP JUMPDEST SWAP1 POP PUSH1 0x20 DUP2 ADD SWAP1 POP SWAP2 SWAP1 POP JUMP JUMPDEST PUSH0 PUSH2 0x440A PUSH2 0x4405 DUP5 PUSH2 0x43C8 JUMP JUMPDEST PUSH2 0x3A68 JUMP JUMPDEST SWAP1 POP DUP3 DUP2 MSTORE PUSH1 0x20 DUP2 ADD DUP5 DUP5 DUP5 ADD GT ISZERO PUSH2 0x4426 JUMPI PUSH2 0x4425 PUSH2 0x39F6 JUMP JUMPDEST JUMPDEST PUSH2 0x4431 DUP5 DUP3 DUP6 PUSH2 0x3AB2 JUMP JUMPDEST POP SWAP4 SWAP3 POP POP POP JUMP JUMPDEST PUSH0 DUP3 PUSH1 0x1F DUP4 ADD SLT PUSH2 0x444D JUMPI PUSH2 0x444C PUSH2 0x39F2 JUMP JUMPDEST JUMPDEST DUP2 CALLDATALOAD PUSH2 0x445D DUP5 DUP3 PUSH1 0x20 DUP7 ADD PUSH2 0x43F8 JUMP JUMPDEST SWAP2 POP POP SWAP3 SWAP2 POP POP JUMP JUMPDEST PUSH0 PUSH2 0x4478 PUSH2 0x4473 DUP5 PUSH2 0x439D JUMP JUMPDEST PUSH2 0x3A68 JUMP JUMPDEST SWAP1 POP DUP1 DUP4 DUP3 MSTORE PUSH1 0x20 DUP3 ADD SWAP1 POP PUSH1 0x20 DUP5 MUL DUP4 ADD DUP6 DUP2 GT ISZERO PUSH2 0x449B JUMPI PUSH2 0x449A PUSH2 0x3D97 JUMP JUMPDEST JUMPDEST DUP4 JUMPDEST DUP2 DUP2 LT ISZERO PUSH2 0x44E2 JUMPI DUP1 CALLDATALOAD PUSH8 0xFFFFFFFFFFFFFFFF DUP2 GT ISZERO PUSH2 0x44C0 JUMPI PUSH2 0x44BF PUSH2 0x39F2 JUMP JUMPDEST JUMPDEST DUP1 DUP7 ADD PUSH2 0x44CD DUP10 DUP3 PUSH2 0x4439 JUMP JUMPDEST DUP6 MSTORE PUSH1 0x20 DUP6 ADD SWAP5 POP POP POP PUSH1 0x20 DUP2 ADD SWAP1 POP PUSH2 0x449D JUMP JUMPDEST POP POP POP SWAP4 SWAP3 POP POP POP JUMP JUMPDEST PUSH0 DUP3 PUSH1 0x1F DUP4 ADD SLT PUSH2 0x4500 JUMPI PUSH2 0x44FF PUSH2 0x39F2 JUMP JUMPDEST JUMPDEST DUP2 CALLDATALOAD PUSH2 0x4510 DUP5 DUP3 PUSH1 0x20 DUP7 ADD PUSH2 0x4466 JUMP JUMPDEST SWAP2 POP POP SWAP3 SWAP2 POP POP JUMP JUMPDEST PUSH0 DUP1 PUSH0 DUP1 PUSH0 PUSH1 0xA0 DUP7 DUP9 SUB SLT ISZERO PUSH2 0x4532 JUMPI PUSH2 0x4531 PUSH2 0x3807 JUMP JUMPDEST JUMPDEST PUSH0 PUSH2 0x453F DUP9 DUP3 DUP10 ADD PUSH2 0x3855 JUMP JUMPDEST SWAP6 POP POP PUSH1 0x20 DUP7 ADD CALLDATALOAD PUSH8 0xFFFFFFFFFFFFFFFF DUP2 GT ISZERO PUSH2 0x4560 JUMPI PUSH2 0x455F PUSH2 0x380B JUMP JUMPDEST JUMPDEST PUSH2 0x456C DUP9 DUP3 DUP10 ADD PUSH2 0x3E03 JUMP JUMPDEST SWAP5 POP POP PUSH1 0x40 DUP7 ADD CALLDATALOAD PUSH8 0xFFFFFFFFFFFFFFFF DUP2 GT ISZERO PUSH2 0x458D JUMPI PUSH2 0x458C PUSH2 0x380B JUMP JUMPDEST JUMPDEST PUSH2 0x4599 DUP9 DUP3 DUP10 ADD PUSH2 0x3E03 JUMP JUMPDEST SWAP4 POP POP PUSH1 0x60 DUP7 ADD CALLDATALOAD PUSH8 0xFFFFFFFFFFFFFFFF DUP2 GT ISZERO PUSH2 0x45BA JUMPI PUSH2 0x45B9 PUSH2 0x380B JUMP JUMPDEST JUMPDEST PUSH2 0x45C6 DUP9 DUP3 DUP10 ADD PUSH2 0x3B01 JUMP JUMPDEST SWAP3 POP POP PUSH1 0x80 DUP7 ADD CALLDATALOAD PUSH8 0xFFFFFFFFFFFFFFFF DUP2 GT ISZERO PUSH2 0x45E7 JUMPI PUSH2 0x45E6 PUSH2 0x380B JUMP JUMPDEST JUMPDEST PUSH2 0x45F3 DUP9 DUP3 DUP10 ADD PUSH2 0x44EC JUMP JUMPDEST SWAP2 POP POP SWAP3 SWAP6 POP SWAP3 SWAP6 SWAP1 SWAP4 POP JUMP JUMPDEST PUSH0 DUP1 PUSH0 DUP1 PUSH0 PUSH1 0xA0 DUP7 DUP9 SUB SLT ISZERO PUSH2 0x4619 JUMPI PUSH2 0x4618 PUSH2 0x3807 JUMP JUMPDEST JUMPDEST PUSH0 PUSH2 0x4626 DUP9 DUP3 DUP10 ADD PUSH2 0x3855 JUMP JUMPDEST SWAP6 POP POP PUSH1 0x20 PUSH2 0x4637 DUP9 DUP3 DUP10 ADD PUSH2 0x3888 JUMP JUMPDEST SWAP5 POP POP PUSH1 0x40 PUSH2 0x4648 DUP9 DUP3 DUP10 ADD PUSH2 0x3888 JUMP JUMPDEST SWAP4 POP POP PUSH1 0x60 DUP7 ADD CALLDATALOAD PUSH8 0xFFFFFFFFFFFFFFFF DUP2 GT ISZERO PUSH2 0x4669 JUMPI PUSH2 0x4668 PUSH2 0x380B JUMP JUMPDEST JUMPDEST PUSH2 0x4675 DUP9 DUP3 DUP10 ADD PUSH2 0x3B01 JUMP JUMPDEST SWAP3 POP POP PUSH1 0x80 DUP7 ADD CALLDATALOAD PUSH8 0xFFFFFFFFFFFFFFFF DUP2 GT ISZERO PUSH2 0x4696 JUMPI PUSH2 0x4695 PUSH2 0x380B JUMP JUMPDEST JUMPDEST PUSH2 0x46A2 DUP9 DUP3 DUP10 ADD PUSH2 0x4439 JUMP JUMPDEST SWAP2 POP POP SWAP3 SWAP6 POP SWAP3 SWAP6 SWAP1 SWAP4 POP JUMP JUMPDEST PUSH0 DUP1 PUSH0 DUP1 PUSH0 PUSH1 0xA0 DUP7 DUP9 SUB SLT ISZERO PUSH2 0x46C8 JUMPI PUSH2 0x46C7 PUSH2 0x3807 JUMP JUMPDEST JUMPDEST PUSH0 PUSH2 0x46D5 DUP9 DUP3 DUP10 ADD PUSH2 0x3855 JUMP JUMPDEST SWAP6 POP POP PUSH1 0x20 PUSH2 0x46E6 DUP9 DUP3 DUP10 ADD PUSH2 0x3855 JUMP JUMPDEST SWAP5 POP POP PUSH1 0x40 PUSH2 0x46F7 DUP9 DUP3 DUP10 ADD PUSH2 0x3888 JUMP JUMPDEST SWAP4 POP POP PUSH1 0x60 PUSH2 0x4708 DUP9 DUP3 DUP10 ADD PUSH2 0x3888 JUMP JUMPDEST SWAP3 POP POP PUSH1 0x80 DUP7 ADD CALLDATALOAD PUSH8 0xFFFFFFFFFFFFFFFF DUP2 GT ISZERO PUSH2 0x4729 JUMPI PUSH2 0x4728 PUSH2 0x380B JUMP JUMPDEST JUMPDEST PUSH2 0x4735 DUP9 DUP3 DUP10 ADD PUSH2 0x3B01 JUMP JUMPDEST SWAP2 POP POP SWAP3 SWAP6 POP SWAP3 SWAP6 SWAP1 SWAP4 POP JUMP JUMPDEST PUSH0 DUP1 PUSH0 PUSH1 0x60 DUP5 DUP7 SUB SLT ISZERO PUSH2 0x4759 JUMPI PUSH2 0x4758 PUSH2 0x3807 JUMP JUMPDEST JUMPDEST PUSH0 PUSH2 0x4766 DUP7 DUP3 DUP8 ADD PUSH2 0x3855 JUMP JUMPDEST SWAP4 POP POP PUSH1 0x20 PUSH2 0x4777 DUP7 DUP3 DUP8 ADD PUSH2 0x3888 JUMP JUMPDEST SWAP3 POP POP PUSH1 0x40 PUSH2 0x4788 DUP7 DUP3 DUP8 ADD PUSH2 0x3888 JUMP JUMPDEST SWAP2 POP POP SWAP3 POP SWAP3 POP SWAP3 JUMP JUMPDEST PUSH2 0x479B DUP2 PUSH2 0x39B5 JUMP JUMPDEST DUP3 MSTORE POP POP JUMP JUMPDEST PUSH0 PUSH1 0x20 DUP3 ADD SWAP1 POP PUSH2 0x47B4 PUSH0 DUP4 ADD DUP5 PUSH2 0x4792 JUMP JUMPDEST SWAP3 SWAP2 POP POP JUMP JUMPDEST PUSH32 0x4E487B7100000000000000000000000000000000000000000000000000000000 PUSH0 MSTORE PUSH1 0x22 PUSH1 0x4 MSTORE PUSH1 0x24 PUSH0 REVERT JUMPDEST PUSH0 PUSH1 0x2 DUP3 DIV SWAP1 POP PUSH1 0x1 DUP3 AND DUP1 PUSH2 0x47FE JUMPI PUSH1 0x7F DUP3 AND SWAP2 POP JUMPDEST PUSH1 0x20 DUP3 LT DUP2 SUB PUSH2 0x4811 JUMPI PUSH2 0x4810 PUSH2 0x47BA JUMP JUMPDEST JUMPDEST POP SWAP2 SWAP1 POP JUMP JUMPDEST PUSH0 DUP2 SWAP1 POP DUP2 PUSH0 MSTORE PUSH1 0x20 PUSH0 KECCAK256 SWAP1 POP SWAP2 SWAP1 POP JUMP JUMPDEST PUSH0 PUSH1 0x20 PUSH1 0x1F DUP4 ADD DIV SWAP1 POP SWAP2 SWAP1 POP JUMP JUMPDEST PUSH0 DUP3 DUP3 SHL SWAP1 POP SWAP3 SWAP2 POP POP JUMP JUMPDEST PUSH0 PUSH1 0x8 DUP4 MUL PUSH2 0x4873 PUSH32 0xFFFFFFFFFFFFFFFFFFFFFFFFFFFFFFFFFFFFFFFFFFFFFFFFFFFFFFFFFFFFFFFF DUP3 PUSH2 0x4838 JUMP JUMPDEST PUSH2 0x487D DUP7 DUP4 PUSH2 0x4838 JUMP JUMPDEST SWAP6 POP DUP1 NOT DUP5 AND SWAP4 POP DUP1 DUP7 AND DUP5 OR SWAP3 POP POP POP SWAP4 SWAP3 POP POP POP JUMP JUMPDEST PUSH0 DUP2 SWAP1 POP SWAP2 SWAP1 POP JUMP JUMPDEST PUSH0 PUSH2 0x48B8 PUSH2 0x48B3 PUSH2 0x48AE DUP5 PUSH2 0x3869 JUMP JUMPDEST PUSH2 0x4895 JUMP JUMPDEST PUSH2 0x3869 JUMP JUMPDEST SWAP1 POP SWAP2 SWAP1 POP JUMP JUMPDEST PUSH0 DUP2 SWAP1 POP SWAP2 SWAP1 POP JUMP JUMPDEST PUSH2 0x48D1 DUP4 PUSH2 0x489E JUMP JUMPDEST PUSH2 0x48E5 PUSH2 0x48DD DUP3 PUSH2 0x48BF JUMP JUMPDEST DUP5 DUP5 SLOAD PUSH2 0x4844 JUMP JUMPDEST DUP3 SSTORE POP POP POP POP JUMP JUMPDEST PUSH0 SWAP1 JUMP JUMPDEST PUSH2 0x48F9 PUSH2 0x48ED JUMP JUMPDEST PUSH2 0x4904 DUP2 DUP5 DUP5 PUSH2 0x48C8 JUMP JUMPDEST POP POP POP JUMP JUMPDEST JUMPDEST DUP2 DUP2 LT ISZERO PUSH2 0x4927 JUMPI PUSH2 0x491C PUSH0 DUP3 PUSH2 0x48F1 JUMP JUMPDEST PUSH1 0x1 DUP2 ADD SWAP1 POP PUSH2 0x490A JUMP JUMPDEST POP POP JUMP JUMPDEST PUSH1 0x1F DUP3 GT ISZERO PUSH2 0x496C JUMPI PUSH2 0x493D DUP2 PUSH2 0x4817 JUMP JUMPDEST PUSH2 0x4946 DUP5 PUSH2 0x4829 JUMP JUMPDEST DUP2 ADD PUSH1 0x20 DUP6 LT ISZERO PUSH2 0x4955 JUMPI DUP2 SWAP1 POP JUMPDEST PUSH2 0x4969 PUSH2 0x4961 DUP6 PUSH2 0x4829 JUMP JUMPDEST DUP4 ADD DUP3 PUSH2 0x4909 JUMP JUMPDEST POP POP JUMPDEST POP POP POP JUMP JUMPDEST PUSH0 DUP3 DUP3 SHR SWAP1 POP SWAP3 SWAP2 POP POP JUMP JUMPDEST PUSH0 PUSH2 0x498C PUSH0 NOT DUP5 PUSH1 0x8 MUL PUSH2 0x4971 JUMP JUMPDEST NOT DUP1 DUP4 AND SWAP2 POP POP SWAP3 SWAP2 POP POP JUMP JUMPDEST PUSH0 PUSH2 0x49A4 DUP4 DUP4 PUSH2 0x497D JUMP JUMPDEST SWAP2 POP DUP3 PUSH1 0x2 MUL DUP3 OR SWAP1 POP SWAP3 SWAP2 POP POP JUMP JUMPDEST PUSH2 0x49BD DUP3 PUSH2 0x41AB JUMP JUMPDEST PUSH8 0xFFFFFFFFFFFFFFFF DUP2 GT ISZERO PUSH2 0x49D6 JUMPI PUSH2 0x49D5 PUSH2 0x3A0A JUMP JUMPDEST JUMPDEST PUSH2 0x49E0 DUP3 SLOAD PUSH2 0x47E7 JUMP JUMPDEST PUSH2 0x49EB DUP3 DUP3 DUP6 PUSH2 0x492B JUMP JUMPDEST PUSH0 PUSH1 0x20 SWAP1 POP PUSH1 0x1F DUP4 GT PUSH1 0x1 DUP2 EQ PUSH2 0x4A1C JUMPI PUSH0 DUP5 ISZERO PUSH2 0x4A0A JUMPI DUP3 DUP8 ADD MLOAD SWAP1 POP JUMPDEST PUSH2 0x4A14 DUP6 DUP3 PUSH2 0x4999 JUMP JUMPDEST DUP7 SSTORE POP PUSH2 0x4A7B JUMP JUMPDEST PUSH1 0x1F NOT DUP5 AND PUSH2 0x4A2A DUP7 PUSH2 0x4817 JUMP JUMPDEST PUSH0 JUMPDEST DUP3 DUP2 LT ISZERO PUSH2 0x4A51 JUMPI DUP5 DUP10 ADD MLOAD DUP3 SSTORE PUSH1 0x1 DUP3 ADD SWAP2 POP PUSH1 0x20 DUP6 ADD SWAP5 POP PUSH1 0x20 DUP2 ADD SWAP1 POP PUSH2 0x4A2C JUMP JUMPDEST DUP7 DUP4 LT ISZERO PUSH2 0x4A6E JUMPI DUP5 DUP10 ADD MLOAD PUSH2 0x4A6A PUSH1 0x1F DUP10 AND DUP3 PUSH2 0x497D JUMP JUMPDEST DUP4 SSTORE POP JUMPDEST PUSH1 0x1 PUSH1 0x2 DUP9 MUL ADD DUP9 SSTORE POP POP POP JUMPDEST POP POP POP POP POP POP JUMP JUMPDEST PUSH0 PUSH1 0x60 DUP3 ADD SWAP1 POP PUSH2 0x4A96 PUSH0 DUP4 ADD DUP7 PUSH2 0x4792 JUMP JUMPDEST PUSH2 0x4AA3 PUSH1 0x20 DUP4 ADD DUP6 PUSH2 0x419C JUMP JUMPDEST DUP2 DUP2 SUB PUSH1 0x40 DUP4 ADD MSTORE PUSH2 0x4AB5 DUP2 DUP5 PUSH2 0x41C5 JUMP JUMPDEST SWAP1 POP SWAP5 SWAP4 POP POP POP POP JUMP JUMPDEST PUSH0 PUSH1 0xC0 DUP3 ADD SWAP1 POP PUSH2 0x4AD2 PUSH0 DUP4 ADD DUP10 PUSH2 0x419C JUMP JUMPDEST PUSH2 0x4ADF PUSH1 0x20 DUP4 ADD DUP9 PUSH2 0x419C JUMP JUMPDEST PUSH2 0x4AEC PUSH1 0x40 DUP4 ADD DUP8 PUSH2 0x38DA JUMP JUMPDEST PUSH2 0x4AF9 PUSH1 0x60 DUP4 ADD DUP7 PUSH2 0x38DA JUMP JUMPDEST DUP2 DUP2 SUB PUSH1 0x80 DUP4 ADD MSTORE PUSH2 0x4B0B DUP2 DUP6 PUSH2 0x41C5 JUMP JUMPDEST SWAP1 POP DUP2 DUP2 SUB PUSH1 0xA0 DUP4 ADD MSTORE PUSH2 0x4B1F DUP2 DUP5 PUSH2 0x3C07 JUMP JUMPDEST SWAP1 POP SWAP8 SWAP7 POP POP POP POP POP POP POP JUMP JUMPDEST PUSH32 0x4E487B7100000000000000000000000000000000000000000000000000000000 PUSH0 MSTORE PUSH1 0x21 PUSH1 0x4 MSTORE PUSH1 0x24 PUSH0 REVERT JUMPDEST PUSH0 DUP3 DUP3 MSTORE PUSH1 0x20 DUP3 ADD SWAP1 POP SWAP3 SWAP2 POP POP JUMP JUMPDEST PUSH0 PUSH2 0x4B73 DUP3 PUSH2 0x41AB JUMP JUMPDEST PUSH2 0x4B7D DUP2 DUP6 PUSH2 0x4B59 JUMP JUMPDEST SWAP4 POP PUSH2 0x4B8D DUP2 DUP6 PUSH1 0x20 DUP7 ADD PUSH2 0x3BDF JUMP JUMPDEST PUSH2 0x4B96 DUP2 PUSH2 0x39FA JUMP JUMPDEST DUP5 ADD SWAP2 POP POP SWAP3 SWAP2 POP POP JUMP JUMPDEST PUSH0 DUP2 MLOAD SWAP1 POP SWAP2 SWAP1 POP JUMP JUMPDEST PUSH0 DUP3 DUP3 MSTORE PUSH1 0x20 DUP3 ADD SWAP1 POP SWAP3 SWAP2 POP POP JUMP JUMPDEST PUSH0 DUP2 SWAP1 POP PUSH1 0x20 DUP3 ADD SWAP1 POP SWAP2 SWAP1 POP JUMP JUMPDEST PUSH2 0x4BD3 DUP2 PUSH2 0x382E JUMP JUMPDEST DUP3 MSTORE POP POP JUMP JUMPDEST PUSH1 0x40 DUP3 ADD PUSH0 DUP3 ADD MLOAD PUSH2 0x4BED PUSH0 DUP6 ADD DUP3 PUSH2 0x4BCA JUMP JUMPDEST POP PUSH1 0x20 DUP3 ADD MLOAD PUSH2 0x4C00 PUSH1 0x20 DUP6 ADD DUP3 PUSH2 0x40C3 JUMP JUMPDEST POP POP POP POP JUMP JUMPDEST PUSH0 PUSH2 0x4C11 DUP4 DUP4 PUSH2 0x4BD9 JUMP JUMPDEST PUSH1 0x40 DUP4 ADD SWAP1 POP SWAP3 SWAP2 POP POP JUMP JUMPDEST PUSH0 PUSH1 0x20 DUP3 ADD SWAP1 POP SWAP2 SWAP1 POP JUMP JUMPDEST PUSH0 PUSH2 0x4C33 DUP3 PUSH2 0x4BA1 JUMP JUMPDEST PUSH2 0x4C3D DUP2 DUP6 PUSH2 0x4BAB JUMP JUMPDEST SWAP4 POP PUSH2 0x4C48 DUP4 PUSH2 0x4BBB JUMP JUMPDEST DUP1 PUSH0 JUMPDEST DUP4 DUP2 LT ISZERO PUSH2 0x4C78 JUMPI DUP2 MLOAD PUSH2 0x4C5F DUP9 DUP3 PUSH2 0x4C06 JUMP JUMPDEST SWAP8 POP PUSH2 0x4C6A DUP4 PUSH2 0x4C1D JUMP JUMPDEST SWAP3 POP POP PUSH1 0x1 DUP2 ADD SWAP1 POP PUSH2 0x4C4B JUMP JUMPDEST POP DUP6 SWAP4 POP POP POP POP SWAP3 SWAP2 POP POP JUMP JUMPDEST PUSH0 PUSH1 0xA0 DUP4 ADD PUSH0 DUP4 ADD MLOAD DUP5 DUP3 SUB PUSH0 DUP7 ADD MSTORE PUSH2 0x4C9F DUP3 DUP3 PUSH2 0x4B69 JUMP JUMPDEST SWAP2 POP POP PUSH1 0x20 DUP4 ADD MLOAD DUP5 DUP3 SUB PUSH1 0x20 DUP7 ADD MSTORE PUSH2 0x4CB9 DUP3 DUP3 PUSH2 0x4B69 JUMP JUMPDEST SWAP2 POP POP PUSH1 0x40 DUP4 ADD MLOAD DUP5 DUP3 SUB PUSH1 0x40 DUP7 ADD MSTORE PUSH2 0x4CD3 DUP3 DUP3 PUSH2 0x4C29 JUMP JUMPDEST SWAP2 POP POP PUSH1 0x60 DUP4 ADD MLOAD PUSH2 0x4CE8 PUSH1 0x60 DUP7 ADD DUP3 PUSH2 0x4BCA JUMP JUMPDEST POP PUSH1 0x80 DUP4 ADD MLOAD DUP5 DUP3 SUB PUSH1 0x80 DUP7 ADD MSTORE PUSH2 0x4D00 DUP3 DUP3 PUSH2 0x4B69 JUMP JUMPDEST SWAP2 POP POP DUP1 SWAP2 POP POP SWAP3 SWAP2 POP POP JUMP JUMPDEST PUSH0 PUSH1 0x40 DUP3 ADD SWAP1 POP PUSH2 0x4D20 PUSH0 DUP4 ADD DUP6 PUSH2 0x4792 JUMP JUMPDEST DUP2 DUP2 SUB PUSH1 0x20 DUP4 ADD MSTORE PUSH2 0x4D32 DUP2 DUP5 PUSH2 0x4C85 JUMP JUMPDEST SWAP1 POP SWAP4 SWAP3 POP POP POP JUMP JUMPDEST PUSH0 DUP2 MLOAD SWAP1 POP PUSH2 0x4D49 DUP2 PUSH2 0x3872 JUMP JUMPDEST SWAP3 SWAP2 POP POP JUMP JUMPDEST PUSH0 PUSH1 0x20 DUP3 DUP5 SUB SLT ISZERO PUSH2 0x4D64 JUMPI PUSH2 0x4D63 PUSH2 0x3807 JUMP JUMPDEST JUMPDEST PUSH0 PUSH2 0x4D71 DUP5 DUP3 DUP6 ADD PUSH2 0x4D3B JUMP JUMPDEST SWAP2 POP POP SWAP3 SWAP2 POP POP JUMP JUMPDEST PUSH0 PUSH1 0x40 DUP3 ADD SWAP1 POP PUSH2 0x4D8D PUSH0 DUP4 ADD DUP6 PUSH2 0x38DA JUMP JUMPDEST PUSH2 0x4D9A PUSH1 0x20 DUP4 ADD DUP5 PUSH2 0x38DA JUMP JUMPDEST SWAP4 SWAP3 POP POP POP JUMP JUMPDEST PUSH0 PUSH1 0x40 DUP3 ADD SWAP1 POP PUSH2 0x4DB4 PUSH0 DUP4 ADD DUP6 PUSH2 0x419C JUMP JUMPDEST PUSH2 0x4DC1 PUSH1 0x20 DUP4 ADD DUP5 PUSH2 0x38DA JUMP JUMPDEST SWAP4 SWAP3 POP POP POP JUMP JUMPDEST PUSH0 DUP2 MLOAD SWAP1 POP PUSH2 0x4DD6 DUP2 PUSH2 0x4335 JUMP JUMPDEST SWAP3 SWAP2 POP POP JUMP JUMPDEST PUSH0 PUSH1 0x20 DUP3 DUP5 SUB SLT ISZERO PUSH2 0x4DF1 JUMPI PUSH2 0x4DF0 PUSH2 0x3807 JUMP JUMPDEST JUMPDEST PUSH0 PUSH2 0x4DFE DUP5 DUP3 DUP6 ADD PUSH2 0x4DC8 JUMP JUMPDEST SWAP2 POP POP SWAP3 SWAP2 POP POP JUMP JUMPDEST PUSH2 0x4E10 DUP2 PUSH2 0x3D3B JUMP JUMPDEST DUP2 EQ PUSH2 0x4E1A JUMPI PUSH0 DUP1 REVERT JUMPDEST POP JUMP JUMPDEST PUSH0 DUP2 MLOAD SWAP1 POP PUSH2 0x4E2B DUP2 PUSH2 0x4E07 JUMP JUMPDEST SWAP3 SWAP2 POP POP JUMP JUMPDEST PUSH0 PUSH1 0x20 DUP3 DUP5 SUB SLT ISZERO PUSH2 0x4E46 JUMPI PUSH2 0x4E45 PUSH2 0x3807 JUMP JUMPDEST JUMPDEST PUSH0 PUSH2 0x4E53 DUP5 DUP3 DUP6 ADD PUSH2 0x4E1D JUMP JUMPDEST SWAP2 POP POP SWAP3 SWAP2 POP POP JUMP JUMPDEST PUSH0 PUSH1 0xE0 DUP3 ADD SWAP1 POP PUSH2 0x4E6F PUSH0 DUP4 ADD DUP11 PUSH2 0x419C JUMP JUMPDEST PUSH2 0x4E7C PUSH1 0x20 DUP4 ADD DUP10 PUSH2 0x419C JUMP JUMPDEST PUSH2 0x4E89 PUSH1 0x40 DUP4 ADD DUP9 PUSH2 0x38DA JUMP JUMPDEST PUSH2 0x4E96 PUSH1 0x60 DUP4 ADD DUP8 PUSH2 0x38DA JUMP JUMPDEST DUP2 DUP2 SUB PUSH1 0x80 DUP4 ADD MSTORE PUSH2 0x4EA8 DUP2 DUP7 PUSH2 0x41C5 JUMP JUMPDEST SWAP1 POP PUSH2 0x4EB7 PUSH1 0xA0 DUP4 ADD DUP6 PUSH2 0x4792 JUMP JUMPDEST PUSH2 0x4EC4 PUSH1 0xC0 DUP4 ADD DUP5 PUSH2 0x4792 JUMP JUMPDEST SWAP9 SWAP8 POP POP POP POP POP POP POP POP JUMP JUMPDEST PUSH0 PUSH1 0x40 DUP3 ADD SWAP1 POP PUSH2 0x4EE3 PUSH0 DUP4 ADD DUP6 PUSH2 0x419C JUMP JUMPDEST PUSH2 0x4EF0 PUSH1 0x20 DUP4 ADD DUP5 PUSH2 0x419C JUMP JUMPDEST SWAP4 SWAP3 POP POP POP JUMP JUMPDEST PUSH32 0x4E487B7100000000000000000000000000000000000000000000000000000000 PUSH0 MSTORE PUSH1 0x32 PUSH1 0x4 MSTORE PUSH1 0x24 PUSH0 REVERT JUMPDEST PUSH0 DUP2 SWAP1 POP SWAP3 SWAP2 POP POP JUMP JUMPDEST POP JUMP JUMPDEST PUSH0 PUSH2 0x4F3C PUSH0 DUP4 PUSH2 0x4F24 JUMP JUMPDEST SWAP2 POP PUSH2 0x4F47 DUP3 PUSH2 0x4F2E JUMP JUMPDEST PUSH0 DUP3 ADD SWAP1 POP SWAP2 SWAP1 POP JUMP JUMPDEST PUSH0 PUSH2 0x4F5B DUP3 PUSH2 0x4F31 JUMP JUMPDEST SWAP2 POP DUP2 SWAP1 POP SWAP2 SWAP1 POP JUMP JUMPDEST PUSH0 PUSH1 0x60 DUP3 ADD SWAP1 POP PUSH2 0x4F78 PUSH0 DUP4 ADD DUP7 PUSH2 0x419C JUMP JUMPDEST PUSH2 0x4F85 PUSH1 0x20 DUP4 ADD DUP6 PUSH2 0x419C JUMP JUMPDEST PUSH2 0x4F92 PUSH1 0x40 DUP4 ADD DUP5 PUSH2 0x38DA JUMP JUMPDEST SWAP5 SWAP4 POP POP POP POP JUMP JUMPDEST PUSH32 0x4D7573742062652070726F706F736564206F776E657200000000000000000000 PUSH0 DUP3 ADD MSTORE POP JUMP JUMPDEST PUSH0 PUSH2 0x4FCE PUSH1 0x16 DUP4 PUSH2 0x3BCF JUMP JUMPDEST SWAP2 POP PUSH2 0x4FD9 DUP3 PUSH2 0x4F9A JUMP JUMPDEST PUSH1 0x20 DUP3 ADD SWAP1 POP SWAP2 SWAP1 POP JUMP JUMPDEST PUSH0 PUSH1 0x20 DUP3 ADD SWAP1 POP DUP2 DUP2 SUB PUSH0 DUP4 ADD MSTORE PUSH2 0x4FFB DUP2 PUSH2 0x4FC2 JUMP JUMPDEST SWAP1 POP SWAP2 SWAP1 POP JUMP JUMPDEST PUSH0 DUP1 REVERT JUMPDEST PUSH0 DUP1 REVERT JUMPDEST PUSH0 DUP1 REVERT JUMPDEST PUSH0 DUP1 DUP4 CALLDATALOAD PUSH1 0x1 PUSH1 0x20 SUB DUP5 CALLDATASIZE SUB SUB DUP2 SLT PUSH2 0x502A JUMPI PUSH2 0x5029 PUSH2 0x5002 JUMP JUMPDEST JUMPDEST DUP1 DUP5 ADD SWAP3 POP DUP3 CALLDATALOAD SWAP2 POP PUSH8 0xFFFFFFFFFFFFFFFF DUP3 GT ISZERO PUSH2 0x504C JUMPI PUSH2 0x504B PUSH2 0x5006 JUMP JUMPDEST JUMPDEST PUSH1 0x20 DUP4 ADD SWAP3 POP PUSH1 0x1 DUP3 MUL CALLDATASIZE SUB DUP4 SGT ISZERO PUSH2 0x5068 JUMPI PUSH2 0x5067 PUSH2 0x500A JUMP JUMPDEST JUMPDEST POP SWAP3 POP SWAP3 SWAP1 POP JUMP JUMPDEST PUSH0 PUSH2 0x507A DUP3 PUSH2 0x380F JUMP JUMPDEST SWAP1 POP SWAP2 SWAP1 POP JUMP JUMPDEST PUSH2 0x508A DUP2 PUSH2 0x5070 JUMP JUMPDEST DUP2 EQ PUSH2 0x5094 JUMPI PUSH0 DUP1 REVERT JUMPDEST POP JUMP JUMPDEST PUSH0 DUP2 CALLDATALOAD SWAP1 POP PUSH2 0x50A5 DUP2 PUSH2 0x5081 JUMP JUMPDEST SWAP3 SWAP2 POP POP JUMP JUMPDEST PUSH0 PUSH1 0x20 DUP3 DUP5 SUB SLT ISZERO PUSH2 0x50C0 JUMPI PUSH2 0x50BF PUSH2 0x3807 JUMP JUMPDEST JUMPDEST PUSH0 PUSH2 0x50CD DUP5 DUP3 DUP6 ADD PUSH2 0x5097 JUMP JUMPDEST SWAP2 POP POP SWAP3 SWAP2 POP POP JUMP JUMPDEST PUSH0 DUP1 PUSH0 DUP1 PUSH0 DUP1 PUSH1 0xC0 DUP8 DUP10 SUB SLT ISZERO PUSH2 0x50F0 JUMPI PUSH2 0x50EF PUSH2 0x3807 JUMP JUMPDEST JUMPDEST PUSH0 PUSH2 0x50FD DUP10 DUP3 DUP11 ADD PUSH2 0x5097 JUMP JUMPDEST SWAP7 POP POP PUSH1 0x20 PUSH2 0x510E DUP10 DUP3 DUP11 ADD PUSH2 0x5097 JUMP JUMPDEST SWAP6 POP POP PUSH1 0x40 PUSH2 0x511F DUP10 DUP3 DUP11 ADD PUSH2 0x3888 JUMP JUMPDEST SWAP5 POP POP PUSH1 0x60 PUSH2 0x5130 DUP10 DUP3 DUP11 ADD PUSH2 0x3888 JUMP JUMPDEST SWAP4 POP POP PUSH1 0x80 DUP8 ADD CALLDATALOAD PUSH8 0xFFFFFFFFFFFFFFFF DUP2 GT ISZERO PUSH2 0x5151 JUMPI PUSH2 0x5150 PUSH2 0x380B JUMP JUMPDEST JUMPDEST PUSH2 0x515D DUP10 DUP3 DUP11 ADD PUSH2 0x3B01 JUMP JUMPDEST SWAP3 POP POP PUSH1 0xA0 DUP8 ADD CALLDATALOAD PUSH8 0xFFFFFFFFFFFFFFFF DUP2 GT ISZERO PUSH2 0x517E JUMPI PUSH2 0x517D PUSH2 0x380B JUMP JUMPDEST JUMPDEST PUSH2 0x518A DUP10 DUP3 DUP11 ADD PUSH2 0x4439 JUMP JUMPDEST SWAP2 POP POP SWAP3 SWAP6 POP SWAP3 SWAP6 POP SWAP3 SWAP6 JUMP JUMPDEST PUSH0 DUP2 SWAP1 POP DUP2 PUSH0 MSTORE PUSH1 0x20 PUSH0 KECCAK256 SWAP1 POP SWAP2 SWAP1 POP JUMP JUMPDEST PUSH1 0x1F DUP3 GT ISZERO PUSH2 0x51EA JUMPI PUSH2 0x51BB DUP2 PUSH2 0x5197 JUMP JUMPDEST PUSH2 0x51C4 DUP5 PUSH2 0x4829 JUMP JUMPDEST DUP2 ADD PUSH1 0x20 DUP6 LT ISZERO PUSH2 0x51D3 JUMPI DUP2 SWAP1 POP JUMPDEST PUSH2 0x51E7 PUSH2 0x51DF DUP6 PUSH2 0x4829 JUMP JUMPDEST DUP4 ADD DUP3 PUSH2 0x4909 JUMP JUMPDEST POP POP JUMPDEST POP POP POP JUMP JUMPDEST PUSH2 0x51F8 DUP3 PUSH2 0x3BC5 JUMP JUMPDEST PUSH8 0xFFFFFFFFFFFFFFFF DUP2 GT ISZERO PUSH2 0x5211 JUMPI PUSH2 0x5210 PUSH2 0x3A0A JUMP JUMPDEST JUMPDEST PUSH2 0x521B DUP3 SLOAD PUSH2 0x47E7 JUMP JUMPDEST PUSH2 0x5226 DUP3 DUP3 DUP6 PUSH2 0x51A9 JUMP JUMPDEST PUSH0 PUSH1 0x20 SWAP1 POP PUSH1 0x1F DUP4 GT PUSH1 0x1 DUP2 EQ PUSH2 0x5257 JUMPI PUSH0 DUP5 ISZERO PUSH2 0x5245 JUMPI DUP3 DUP8 ADD MLOAD SWAP1 POP JUMPDEST PUSH2 0x524F DUP6 DUP3 PUSH2 0x4999 JUMP JUMPDEST DUP7 SSTORE POP PUSH2 0x52B6 JUMP JUMPDEST PUSH1 0x1F NOT DUP5 AND PUSH2 0x5265 DUP7 PUSH2 0x5197 JUMP JUMPDEST PUSH0 JUMPDEST DUP3 DUP2 LT ISZERO PUSH2 0x528C JUMPI DUP5 DUP10 ADD MLOAD DUP3 SSTORE PUSH1 0x1 DUP3 ADD SWAP2 POP PUSH1 0x20 DUP6 ADD SWAP5 POP PUSH1 0x20 DUP2 ADD SWAP1 POP PUSH2 0x5267 JUMP JUMPDEST DUP7 DUP4 LT ISZERO PUSH2 0x52A9 JUMPI DUP5 DUP10 ADD MLOAD PUSH2 0x52A5 PUSH1 0x1F DUP10 AND DUP3 PUSH2 0x497D JUMP JUMPDEST DUP4 SSTORE POP JUMPDEST PUSH1 0x1 PUSH1 0x2 DUP9 MUL ADD DUP9 SSTORE POP POP POP JUMPDEST POP POP POP POP POP POP JUMP JUMPDEST PUSH32 0x4F6E6C792063616C6C61626C65206279206F776E657200000000000000000000 PUSH0 DUP3 ADD MSTORE POP JUMP JUMPDEST PUSH0 PUSH2 0x52F2 PUSH1 0x16 DUP4 PUSH2 0x3BCF JUMP JUMPDEST SWAP2 POP PUSH2 0x52FD DUP3 PUSH2 0x52BE JUMP JUMPDEST PUSH1 0x20 DUP3 ADD SWAP1 POP SWAP2 SWAP1 POP JUMP JUMPDEST PUSH0 PUSH1 0x20 DUP3 ADD SWAP1 POP DUP2 DUP2 SUB PUSH0 DUP4 ADD MSTORE PUSH2 0x531F DUP2 PUSH2 0x52E6 JUMP JUMPDEST SWAP1 POP SWAP2 SWAP1 POP JUMP JUMPDEST PUSH32 0x43616E6E6F74207472616E7366657220746F2073656C66000000000000000000 PUSH0 DUP3 ADD MSTORE POP JUMP JUMPDEST PUSH0 PUSH2 0x535A PUSH1 0x17 DUP4 PUSH2 0x3BCF JUMP JUMPDEST SWAP2 POP PUSH2 0x5365 DUP3 PUSH2 0x5326 JUMP JUMPDEST PUSH1 0x20 DUP3 ADD SWAP1 POP SWAP2 SWAP1 POP JUMP JUMPDEST PUSH0 PUSH1 0x20 DUP3 ADD SWAP1 POP DUP2 DUP2 SUB PUSH0 DUP4 ADD MSTORE PUSH2 0x5387 DUP2 PUSH2 0x534E JUMP JUMPDEST SWAP1 POP SWAP2 SWAP1 POP JUMP JUMPDEST PUSH32 0x4E487B7100000000000000000000000000000000000000000000000000000000 PUSH0 MSTORE PUSH1 0x11 PUSH1 0x4 MSTORE PUSH1 0x24 PUSH0 REVERT JUMPDEST PUSH0 PUSH2 0x53C5 DUP3 PUSH2 0x3869 JUMP JUMPDEST SWAP2 POP PUSH2 0x53D0 DUP4 PUSH2 0x3869 JUMP JUMPDEST SWAP3 POP DUP3 DUP3 ADD SWAP1 POP DUP1 DUP3 GT ISZERO PUSH2 0x53E8 JUMPI PUSH2 0x53E7 PUSH2 0x538E JUMP JUMPDEST JUMPDEST SWAP3 SWAP2 POP POP JUMP JUMPDEST PUSH0 PUSH1 0xA0 DUP3 ADD SWAP1 POP PUSH2 0x5401 PUSH0 DUP4 ADD DUP9 PUSH2 0x419C JUMP JUMPDEST PUSH2 0x540E PUSH1 0x20 DUP4 ADD DUP8 PUSH2 0x419C JUMP JUMPDEST PUSH2 0x541B PUSH1 0x40 DUP4 ADD DUP7 PUSH2 0x38DA JUMP JUMPDEST PUSH2 0x5428 PUSH1 0x60 DUP4 ADD DUP6 PUSH2 0x38DA JUMP JUMPDEST DUP2 DUP2 SUB PUSH1 0x80 DUP4 ADD MSTORE PUSH2 0x543A DUP2 DUP5 PUSH2 0x41C5 JUMP JUMPDEST SWAP1 POP SWAP7 SWAP6 POP POP POP POP POP POP JUMP JUMPDEST PUSH0 DUP2 MLOAD SWAP1 POP PUSH2 0x5454 DUP2 PUSH2 0x392D JUMP JUMPDEST SWAP3 SWAP2 POP POP JUMP JUMPDEST PUSH0 PUSH1 0x20 DUP3 DUP5 SUB SLT ISZERO PUSH2 0x546F JUMPI PUSH2 0x546E PUSH2 0x3807 JUMP JUMPDEST JUMPDEST PUSH0 PUSH2 0x547C DUP5 DUP3 DUP6 ADD PUSH2 0x5446 JUMP JUMPDEST SWAP2 POP POP SWAP3 SWAP2 POP POP JUMP JUMPDEST PUSH0 PUSH1 0xA0 DUP3 ADD SWAP1 POP PUSH2 0x5498 PUSH0 DUP4 ADD DUP9 PUSH2 0x419C JUMP JUMPDEST PUSH2 0x54A5 PUSH1 0x20 DUP4 ADD DUP8 PUSH2 0x419C JUMP JUMPDEST DUP2 DUP2 SUB PUSH1 0x40 DUP4 ADD MSTORE PUSH2 0x54B7 DUP2 DUP7 PUSH2 0x40F5 JUMP JUMPDEST SWAP1 POP DUP2 DUP2 SUB PUSH1 0x60 DUP4 ADD MSTORE PUSH2 0x54CB DUP2 DUP6 PUSH2 0x40F5 JUMP JUMPDEST SWAP1 POP DUP2 DUP2 SUB PUSH1 0x80 DUP4 ADD MSTORE PUSH2 0x54DF DUP2 DUP5 PUSH2 0x41C5 JUMP JUMPDEST SWAP1 POP SWAP7 SWAP6 POP POP POP POP POP POP JUMP JUMPDEST PUSH0 PUSH1 0x80 DUP3 ADD SWAP1 POP PUSH2 0x54FE PUSH0 DUP4 ADD DUP8 PUSH2 0x419C JUMP JUMPDEST PUSH2 0x550B PUSH1 0x20 DUP4 ADD DUP7 PUSH2 0x38DA JUMP JUMPDEST PUSH2 0x5518 PUSH1 0x40 DUP4 ADD DUP6 PUSH2 0x38DA JUMP JUMPDEST PUSH2 0x5525 PUSH1 0x60 DUP4 ADD DUP5 PUSH2 0x38DA JUMP JUMPDEST SWAP6 SWAP5 POP POP POP POP POP JUMP JUMPDEST PUSH0 PUSH1 0x40 DUP3 ADD SWAP1 POP DUP2 DUP2 SUB PUSH0 DUP4 ADD MSTORE PUSH2 0x5546 DUP2 DUP6 PUSH2 0x40F5 JUMP JUMPDEST SWAP1 POP DUP2 DUP2 SUB PUSH1 0x20 DUP4 ADD MSTORE PUSH2 0x555A DUP2 DUP5 PUSH2 0x40F5 JUMP JUMPDEST SWAP1 POP SWAP4 SWAP3 POP POP POP JUMP JUMPDEST PUSH0 PUSH2 0x556D DUP3 PUSH2 0x41AB JUMP JUMPDEST PUSH2 0x5577 DUP2 DUP6 PUSH2 0x4F24 JUMP JUMPDEST SWAP4 POP PUSH2 0x5587 DUP2 DUP6 PUSH1 0x20 DUP7 ADD PUSH2 0x3BDF JUMP JUMPDEST DUP1 DUP5 ADD SWAP2 POP POP SWAP3 SWAP2 POP POP JUMP JUMPDEST PUSH0 PUSH2 0x559E DUP3 DUP5 PUSH2 0x5563 JUMP JUMPDEST SWAP2 POP DUP2 SWAP1 POP SWAP3 SWAP2 POP POP JUMP INVALID LOG2 PUSH5 0x6970667358 0x22 SLT KECCAK256 0xA7 PUSH21 0x3FACB304E24C5DCAA55D49E8D7557BD64060CCC9CA 0xA8 0xBA PUSH0 SWAP5 DUP9 PUSH8 0xB713064736F6C63 NUMBER STOP ADDMOD XOR STOP CALLER "
		},
		"gasEstimates": {
			"creation": {
				"codeDepositCost": "4396600",
				"executionCost": "infinite",
				"totalCost": "infinite"
			},
			"external": {
				"acceptOwnership()": "54600",
				"balanceOf(address,uint256)": "infinite",
				"balanceOfBatch(address[],uint256[])": "infinite",
				"burn(address,uint256,uint256)": "infinite",
				"burnBatch(address,uint256[],uint256[])": "infinite",
				"ccipReceive((bytes32,uint64,bytes,bytes,(address,uint256)[]))": "infinite",
				"crossChainTransferFrom(address,address,uint256,uint256,bytes,uint64,uint8)": "infinite",
				"disableChain(uint64)": "infinite",
				"enableChain(uint64,address,bytes)": "infinite",
				"exists(uint256)": "2890",
				"isApprovedForAll(address,address)": "infinite",
				"mint(address,uint256,uint256,bytes,string)": "infinite",
				"mintBatch(address,uint256[],uint256[],bytes,string[])": "infinite",
				"owner()": "2626",
				"s_chains(uint64)": "infinite",
				"safeBatchTransferFrom(address,address,uint256[],uint256[],bytes)": "infinite",
				"safeTransferFrom(address,address,uint256,uint256,bytes)": "infinite",
				"setApprovalForAll(address,bool)": "infinite",
				"setIssuer(address)": "28180",
				"supportsInterface(bytes4)": "897",
				"totalSupply()": "2544",
				"totalSupply(uint256)": "infinite",
				"transferOwnership(address)": "30739",
				"uri(uint256)": "infinite",
				"withdraw(address)": "infinite",
				"withdrawToken(address,address)": "infinite"
			}
		},
		"methodIdentifiers": {
			"acceptOwnership()": "79ba5097",
			"balanceOf(address,uint256)": "00fdd58e",
			"balanceOfBatch(address[],uint256[])": "4e1273f4",
			"burn(address,uint256,uint256)": "f5298aca",
			"burnBatch(address,uint256[],uint256[])": "6b20c454",
			"ccipReceive((bytes32,uint64,bytes,bytes,(address,uint256)[]))": "85572ffb",
			"crossChainTransferFrom(address,address,uint256,uint256,bytes,uint64,uint8)": "240b3b49",
			"disableChain(uint64)": "41eade46",
			"enableChain(uint64,address,bytes)": "0ce639c4",
			"exists(uint256)": "4f558e79",
			"isApprovedForAll(address,address)": "e985e9c5",
			"mint(address,uint256,uint256,bytes,string)": "c1341c4f",
			"mintBatch(address,uint256[],uint256[],bytes,string[])": "b942f8cb",
			"owner()": "8da5cb5b",
			"s_chains(uint64)": "5dc5ebdb",
			"safeBatchTransferFrom(address,address,uint256[],uint256[],bytes)": "2eb2c2d6",
			"safeTransferFrom(address,address,uint256,uint256,bytes)": "f242432a",
			"setApprovalForAll(address,bool)": "a22cb465",
			"setIssuer(address)": "55cc4e57",
			"supportsInterface(bytes4)": "01ffc9a7",
			"totalSupply()": "18160ddd",
			"totalSupply(uint256)": "bd85b039",
			"transferOwnership(address)": "f2fde38b",
			"uri(uint256)": "0e89341c",
			"withdraw(address)": "51cff8d9",
			"withdrawToken(address,address)": "3aeac4e1"
		}
	},
	"abi": [
		{
			"inputs": [
				{
					"internalType": "string",
					"name": "uri_",
					"type": "string"
				},
				{
					"internalType": "address",
					"name": "ccipRouterAddress",
					"type": "address"
				},
				{
					"internalType": "address",
					"name": "linkTokenAddress",
					"type": "address"
				},
				{
					"internalType": "uint64",
					"name": "currentChainSelector",
					"type": "uint64"
				}
			],
			"stateMutability": "nonpayable",
			"type": "constructor"
		},
		{
			"inputs": [
				{
					"internalType": "address",
					"name": "target",
					"type": "address"
				}
			],
			"name": "AddressEmptyCode",
			"type": "error"
		},
		{
			"inputs": [
				{
					"internalType": "address",
					"name": "account",
					"type": "address"
				}
			],
			"name": "AddressInsufficientBalance",
			"type": "error"
		},
		{
			"inputs": [
				{
					"internalType": "uint64",
					"name": "chainSelector",
					"type": "uint64"
				}
			],
			"name": "ChainNotEnabled",
			"type": "error"
		},
		{
			"inputs": [
				{
					"internalType": "address",
					"name": "msgSender",
					"type": "address"
				}
			],
			"name": "ERC1155Core_CallerIsNotIssuerOrItself",
			"type": "error"
		},
		{
			"inputs": [
				{
					"internalType": "address",
					"name": "sender",
					"type": "address"
				},
				{
					"internalType": "uint256",
					"name": "balance",
					"type": "uint256"
				},
				{
					"internalType": "uint256",
					"name": "needed",
					"type": "uint256"
				},
				{
					"internalType": "uint256",
					"name": "tokenId",
					"type": "uint256"
				}
			],
			"name": "ERC1155InsufficientBalance",
			"type": "error"
		},
		{
			"inputs": [
				{
					"internalType": "address",
					"name": "approver",
					"type": "address"
				}
			],
			"name": "ERC1155InvalidApprover",
			"type": "error"
		},
		{
			"inputs": [
				{
					"internalType": "uint256",
					"name": "idsLength",
					"type": "uint256"
				},
				{
					"internalType": "uint256",
					"name": "valuesLength",
					"type": "uint256"
				}
			],
			"name": "ERC1155InvalidArrayLength",
			"type": "error"
		},
		{
			"inputs": [
				{
					"internalType": "address",
					"name": "operator",
					"type": "address"
				}
			],
			"name": "ERC1155InvalidOperator",
			"type": "error"
		},
		{
			"inputs": [
				{
					"internalType": "address",
					"name": "receiver",
					"type": "address"
				}
			],
			"name": "ERC1155InvalidReceiver",
			"type": "error"
		},
		{
			"inputs": [
				{
					"internalType": "address",
					"name": "sender",
					"type": "address"
				}
			],
			"name": "ERC1155InvalidSender",
			"type": "error"
		},
		{
			"inputs": [
				{
					"internalType": "address",
					"name": "operator",
					"type": "address"
				},
				{
					"internalType": "address",
					"name": "owner",
					"type": "address"
				}
			],
			"name": "ERC1155MissingApprovalForAll",
			"type": "error"
		},
		{
			"inputs": [],
			"name": "FailedInnerCall",
			"type": "error"
		},
		{
			"inputs": [
				{
					"internalType": "address",
					"name": "owner",
					"type": "address"
				},
				{
					"internalType": "address",
					"name": "target",
					"type": "address"
				},
				{
					"internalType": "uint256",
					"name": "value",
					"type": "uint256"
				}
			],
			"name": "FailedToWithdrawEth",
			"type": "error"
		},
		{
			"inputs": [
				{
					"internalType": "address",
					"name": "router",
					"type": "address"
				}
			],
			"name": "InvalidRouter",
			"type": "error"
		},
		{
			"inputs": [
				{
					"internalType": "uint256",
					"name": "currentBalance",
					"type": "uint256"
				},
				{
					"internalType": "uint256",
					"name": "calculatedFees",
					"type": "uint256"
				}
			],
			"name": "NotEnoughBalanceForFees",
			"type": "error"
		},
		{
			"inputs": [],
			"name": "NothingToWithdraw",
			"type": "error"
		},
		{
			"inputs": [
				{
					"internalType": "uint64",
					"name": "chainSelector",
					"type": "uint64"
				}
			],
			"name": "OperationNotAllowedOnCurrentChain",
			"type": "error"
		},
		{
			"inputs": [],
			"name": "ReentrancyGuardReentrantCall",
			"type": "error"
		},
		{
			"inputs": [
				{
					"internalType": "address",
					"name": "token",
					"type": "address"
				}
			],
			"name": "SafeERC20FailedOperation",
			"type": "error"
		},
		{
			"inputs": [
				{
					"internalType": "address",
					"name": "sender",
					"type": "address"
				}
			],
			"name": "SenderNotEnabled",
			"type": "error"
		},
		{
			"anonymous": false,
			"inputs": [
				{
					"indexed": true,
					"internalType": "address",
					"name": "account",
					"type": "address"
				},
				{
					"indexed": true,
					"internalType": "address",
					"name": "operator",
					"type": "address"
				},
				{
					"indexed": false,
					"internalType": "bool",
					"name": "approved",
					"type": "bool"
				}
			],
			"name": "ApprovalForAll",
			"type": "event"
		},
		{
			"anonymous": false,
			"inputs": [
				{
					"indexed": false,
					"internalType": "uint64",
					"name": "chainSelector",
					"type": "uint64"
				}
			],
			"name": "ChainDisabled",
			"type": "event"
		},
		{
			"anonymous": false,
			"inputs": [
				{
					"indexed": false,
					"internalType": "uint64",
					"name": "chainSelector",
					"type": "uint64"
				},
				{
					"indexed": false,
					"internalType": "address",
					"name": "xNftAddress",
					"type": "address"
				},
				{
					"indexed": false,
					"internalType": "bytes",
					"name": "ccipExtraArgs",
					"type": "bytes"
				}
			],
			"name": "ChainEnabled",
			"type": "event"
		},
		{
			"anonymous": false,
			"inputs": [
				{
					"indexed": false,
					"internalType": "address",
					"name": "from",
					"type": "address"
				},
				{
					"indexed": false,
					"internalType": "address",
					"name": "to",
					"type": "address"
				},
				{
					"indexed": false,
					"internalType": "uint256",
					"name": "id",
					"type": "uint256"
				},
				{
					"indexed": false,
					"internalType": "uint256",
					"name": "amount",
					"type": "uint256"
				},
				{
					"indexed": false,
					"internalType": "bytes",
					"name": "data",
					"type": "bytes"
				},
				{
					"indexed": false,
					"internalType": "uint64",
					"name": "sourceChainSelector",
					"type": "uint64"
				},
				{
					"indexed": false,
					"internalType": "uint64",
					"name": "destinationChainSelector",
					"type": "uint64"
				}
			],
			"name": "CrossChainReceived",
			"type": "event"
		},
		{
			"anonymous": false,
			"inputs": [
				{
					"indexed": false,
					"internalType": "address",
					"name": "from",
					"type": "address"
				},
				{
					"indexed": false,
					"internalType": "address",
					"name": "to",
					"type": "address"
				},
				{
					"indexed": false,
					"internalType": "uint256",
					"name": "id",
					"type": "uint256"
				},
				{
					"indexed": false,
					"internalType": "uint256",
					"name": "amount",
					"type": "uint256"
				},
				{
					"indexed": false,
					"internalType": "bytes",
					"name": "data",
					"type": "bytes"
				},
				{
					"indexed": false,
					"internalType": "uint64",
					"name": "sourceChainSelector",
					"type": "uint64"
				},
				{
					"indexed": false,
					"internalType": "uint64",
					"name": "destinationChainSelector",
					"type": "uint64"
				}
			],
			"name": "CrossChainSent",
			"type": "event"
		},
		{
			"anonymous": false,
			"inputs": [
				{
					"indexed": true,
					"internalType": "address",
					"name": "from",
					"type": "address"
				},
				{
					"indexed": true,
					"internalType": "address",
					"name": "to",
					"type": "address"
				}
			],
			"name": "OwnershipTransferRequested",
			"type": "event"
		},
		{
			"anonymous": false,
			"inputs": [
				{
					"indexed": true,
					"internalType": "address",
					"name": "from",
					"type": "address"
				},
				{
					"indexed": true,
					"internalType": "address",
					"name": "to",
					"type": "address"
				}
			],
			"name": "OwnershipTransferred",
			"type": "event"
		},
		{
			"anonymous": false,
			"inputs": [
				{
					"indexed": true,
					"internalType": "address",
					"name": "issuer",
					"type": "address"
				}
			],
			"name": "SetIssuer",
			"type": "event"
		},
		{
			"anonymous": false,
			"inputs": [
				{
					"indexed": true,
					"internalType": "address",
					"name": "operator",
					"type": "address"
				},
				{
					"indexed": true,
					"internalType": "address",
					"name": "from",
					"type": "address"
				},
				{
					"indexed": true,
					"internalType": "address",
					"name": "to",
					"type": "address"
				},
				{
					"indexed": false,
					"internalType": "uint256[]",
					"name": "ids",
					"type": "uint256[]"
				},
				{
					"indexed": false,
					"internalType": "uint256[]",
					"name": "values",
					"type": "uint256[]"
				}
			],
			"name": "TransferBatch",
			"type": "event"
		},
		{
			"anonymous": false,
			"inputs": [
				{
					"indexed": true,
					"internalType": "address",
					"name": "operator",
					"type": "address"
				},
				{
					"indexed": true,
					"internalType": "address",
					"name": "from",
					"type": "address"
				},
				{
					"indexed": true,
					"internalType": "address",
					"name": "to",
					"type": "address"
				},
				{
					"indexed": false,
					"internalType": "uint256",
					"name": "id",
					"type": "uint256"
				},
				{
					"indexed": false,
					"internalType": "uint256",
					"name": "value",
					"type": "uint256"
				}
			],
			"name": "TransferSingle",
			"type": "event"
		},
		{
			"anonymous": false,
			"inputs": [
				{
					"indexed": false,
					"internalType": "string",
					"name": "value",
					"type": "string"
				},
				{
					"indexed": true,
					"internalType": "uint256",
					"name": "id",
					"type": "uint256"
				}
			],
			"name": "URI",
			"type": "event"
		},
		{
			"inputs": [],
			"name": "acceptOwnership",
			"outputs": [],
			"stateMutability": "nonpayable",
			"type": "function"
		},
		{
			"inputs": [
				{
					"internalType": "address",
					"name": "account",
					"type": "address"
				},
				{
					"internalType": "uint256",
					"name": "id",
					"type": "uint256"
				}
			],
			"name": "balanceOf",
			"outputs": [
				{
					"internalType": "uint256",
					"name": "",
					"type": "uint256"
				}
			],
			"stateMutability": "view",
			"type": "function"
		},
		{
			"inputs": [
				{
					"internalType": "address[]",
					"name": "accounts",
					"type": "address[]"
				},
				{
					"internalType": "uint256[]",
					"name": "ids",
					"type": "uint256[]"
				}
			],
			"name": "balanceOfBatch",
			"outputs": [
				{
					"internalType": "uint256[]",
					"name": "",
					"type": "uint256[]"
				}
			],
			"stateMutability": "view",
			"type": "function"
		},
		{
			"inputs": [
				{
					"internalType": "address",
					"name": "account",
					"type": "address"
				},
				{
					"internalType": "uint256",
					"name": "id",
					"type": "uint256"
				},
				{
					"internalType": "uint256",
					"name": "amount",
					"type": "uint256"
				}
			],
			"name": "burn",
			"outputs": [],
			"stateMutability": "nonpayable",
			"type": "function"
		},
		{
			"inputs": [
				{
					"internalType": "address",
					"name": "account",
					"type": "address"
				},
				{
					"internalType": "uint256[]",
					"name": "ids",
					"type": "uint256[]"
				},
				{
					"internalType": "uint256[]",
					"name": "amounts",
					"type": "uint256[]"
				}
			],
			"name": "burnBatch",
			"outputs": [],
			"stateMutability": "nonpayable",
			"type": "function"
		},
		{
			"inputs": [
				{
					"components": [
						{
							"internalType": "bytes32",
							"name": "messageId",
							"type": "bytes32"
						},
						{
							"internalType": "uint64",
							"name": "sourceChainSelector",
							"type": "uint64"
						},
						{
							"internalType": "bytes",
							"name": "sender",
							"type": "bytes"
						},
						{
							"internalType": "bytes",
							"name": "data",
							"type": "bytes"
						},
						{
							"components": [
								{
									"internalType": "address",
									"name": "token",
									"type": "address"
								},
								{
									"internalType": "uint256",
									"name": "amount",
									"type": "uint256"
								}
							],
							"internalType": "struct Client.EVMTokenAmount[]",
							"name": "destTokenAmounts",
							"type": "tuple[]"
						}
					],
					"internalType": "struct Client.Any2EVMMessage",
					"name": "message",
					"type": "tuple"
				}
			],
			"name": "ccipReceive",
			"outputs": [],
			"stateMutability": "nonpayable",
			"type": "function"
		},
		{
			"inputs": [
				{
					"internalType": "address",
					"name": "from",
					"type": "address"
				},
				{
					"internalType": "address",
					"name": "to",
					"type": "address"
				},
				{
					"internalType": "uint256",
					"name": "id",
					"type": "uint256"
				},
				{
					"internalType": "uint256",
					"name": "amount",
					"type": "uint256"
				},
				{
					"internalType": "bytes",
					"name": "data",
					"type": "bytes"
				},
				{
					"internalType": "uint64",
					"name": "destinationChainSelector",
					"type": "uint64"
				},
				{
					"internalType": "enum CrossChainBurnAndMintERC1155.PayFeesIn",
					"name": "payFeesIn",
					"type": "uint8"
				}
			],
			"name": "crossChainTransferFrom",
			"outputs": [
				{
					"internalType": "bytes32",
					"name": "messageId",
					"type": "bytes32"
				}
			],
			"stateMutability": "nonpayable",
			"type": "function"
		},
		{
			"inputs": [
				{
					"internalType": "uint64",
					"name": "chainSelector",
					"type": "uint64"
				}
			],
			"name": "disableChain",
			"outputs": [],
			"stateMutability": "nonpayable",
			"type": "function"
		},
		{
			"inputs": [
				{
					"internalType": "uint64",
					"name": "chainSelector",
					"type": "uint64"
				},
				{
					"internalType": "address",
					"name": "xNftAddress",
					"type": "address"
				},
				{
					"internalType": "bytes",
					"name": "ccipExtraArgs",
					"type": "bytes"
				}
			],
			"name": "enableChain",
			"outputs": [],
			"stateMutability": "nonpayable",
			"type": "function"
		},
		{
			"inputs": [
				{
					"internalType": "uint256",
					"name": "id",
					"type": "uint256"
				}
			],
			"name": "exists",
			"outputs": [
				{
					"internalType": "bool",
					"name": "",
					"type": "bool"
				}
			],
			"stateMutability": "view",
			"type": "function"
		},
		{
			"inputs": [
				{
					"internalType": "address",
					"name": "account",
					"type": "address"
				},
				{
					"internalType": "address",
					"name": "operator",
					"type": "address"
				}
			],
			"name": "isApprovedForAll",
			"outputs": [
				{
					"internalType": "bool",
					"name": "",
					"type": "bool"
				}
			],
			"stateMutability": "view",
			"type": "function"
		},
		{
			"inputs": [
				{
					"internalType": "address",
					"name": "_to",
					"type": "address"
				},
				{
					"internalType": "uint256",
					"name": "_id",
					"type": "uint256"
				},
				{
					"internalType": "uint256",
					"name": "_amount",
					"type": "uint256"
				},
				{
					"internalType": "bytes",
					"name": "_data",
					"type": "bytes"
				},
				{
					"internalType": "string",
					"name": "_tokenUri",
					"type": "string"
				}
			],
			"name": "mint",
			"outputs": [],
			"stateMutability": "nonpayable",
			"type": "function"
		},
		{
			"inputs": [
				{
					"internalType": "address",
					"name": "_to",
					"type": "address"
				},
				{
					"internalType": "uint256[]",
					"name": "_ids",
					"type": "uint256[]"
				},
				{
					"internalType": "uint256[]",
					"name": "_amounts",
					"type": "uint256[]"
				},
				{
					"internalType": "bytes",
					"name": "_data",
					"type": "bytes"
				},
				{
					"internalType": "string[]",
					"name": "_tokenUris",
					"type": "string[]"
				}
			],
			"name": "mintBatch",
			"outputs": [],
			"stateMutability": "nonpayable",
			"type": "function"
		},
		{
			"inputs": [],
			"name": "owner",
			"outputs": [
				{
					"internalType": "address",
					"name": "",
					"type": "address"
				}
			],
			"stateMutability": "view",
			"type": "function"
		},
		{
			"inputs": [
				{
					"internalType": "uint64",
					"name": "destChainSelector",
					"type": "uint64"
				}
			],
			"name": "s_chains",
			"outputs": [
				{
					"internalType": "address",
					"name": "xNftAddress",
					"type": "address"
				},
				{
					"internalType": "bytes",
					"name": "ccipExtraArgsBytes",
					"type": "bytes"
				}
			],
			"stateMutability": "view",
			"type": "function"
		},
		{
			"inputs": [
				{
					"internalType": "address",
					"name": "from",
					"type": "address"
				},
				{
					"internalType": "address",
					"name": "to",
					"type": "address"
				},
				{
					"internalType": "uint256[]",
					"name": "ids",
					"type": "uint256[]"
				},
				{
					"internalType": "uint256[]",
					"name": "values",
					"type": "uint256[]"
				},
				{
					"internalType": "bytes",
					"name": "data",
					"type": "bytes"
				}
			],
			"name": "safeBatchTransferFrom",
			"outputs": [],
			"stateMutability": "nonpayable",
			"type": "function"
		},
		{
			"inputs": [
				{
					"internalType": "address",
					"name": "from",
					"type": "address"
				},
				{
					"internalType": "address",
					"name": "to",
					"type": "address"
				},
				{
					"internalType": "uint256",
					"name": "id",
					"type": "uint256"
				},
				{
					"internalType": "uint256",
					"name": "value",
					"type": "uint256"
				},
				{
					"internalType": "bytes",
					"name": "data",
					"type": "bytes"
				}
			],
			"name": "safeTransferFrom",
			"outputs": [],
			"stateMutability": "nonpayable",
			"type": "function"
		},
		{
			"inputs": [
				{
					"internalType": "address",
					"name": "operator",
					"type": "address"
				},
				{
					"internalType": "bool",
					"name": "approved",
					"type": "bool"
				}
			],
			"name": "setApprovalForAll",
			"outputs": [],
			"stateMutability": "nonpayable",
			"type": "function"
		},
		{
			"inputs": [
				{
					"internalType": "address",
					"name": "_issuer",
					"type": "address"
				}
			],
			"name": "setIssuer",
			"outputs": [],
			"stateMutability": "nonpayable",
			"type": "function"
		},
		{
			"inputs": [
				{
					"internalType": "bytes4",
					"name": "interfaceId",
					"type": "bytes4"
				}
			],
			"name": "supportsInterface",
			"outputs": [
				{
					"internalType": "bool",
					"name": "",
					"type": "bool"
				}
			],
			"stateMutability": "view",
			"type": "function"
		},
		{
			"inputs": [],
			"name": "totalSupply",
			"outputs": [
				{
					"internalType": "uint256",
					"name": "",
					"type": "uint256"
				}
			],
			"stateMutability": "view",
			"type": "function"
		},
		{
			"inputs": [
				{
					"internalType": "uint256",
					"name": "id",
					"type": "uint256"
				}
			],
			"name": "totalSupply",
			"outputs": [
				{
					"internalType": "uint256",
					"name": "",
					"type": "uint256"
				}
			],
			"stateMutability": "view",
			"type": "function"
		},
		{
			"inputs": [
				{
					"internalType": "address",
					"name": "to",
					"type": "address"
				}
			],
			"name": "transferOwnership",
			"outputs": [],
			"stateMutability": "nonpayable",
			"type": "function"
		},
		{
			"inputs": [
				{
					"internalType": "uint256",
					"name": "tokenId",
					"type": "uint256"
				}
			],
			"name": "uri",
			"outputs": [
				{
					"internalType": "string",
					"name": "",
					"type": "string"
				}
			],
			"stateMutability": "view",
			"type": "function"
		},
		{
			"inputs": [
				{
					"internalType": "address",
					"name": "_beneficiary",
					"type": "address"
				}
			],
			"name": "withdraw",
			"outputs": [],
			"stateMutability": "nonpayable",
			"type": "function"
		},
		{
			"inputs": [
				{
					"internalType": "address",
					"name": "_beneficiary",
					"type": "address"
				},
				{
					"internalType": "address",
					"name": "_token",
					"type": "address"
				}
			],
			"name": "withdrawToken",
			"outputs": [],
			"stateMutability": "nonpayable",
			"type": "function"
		}
	]
}