{
	"data": {
		"bytecode": {
			"linkReferences": {},
			"object": "61010060405260405180610460016040528061043b815260200162007ce461043b91396005908162000032919062000641565b50604051806102e001604052806102b181526020016200811f6102b191396006908162000060919062000641565b503480156200006e57600080fd5b50604051620083d0380380620083d0833981810160405281019062000094919062000936565b808585858583338060008884620000b1816200028160201b60201c565b508073ffffffffffffffffffffffffffffffffffffffff1660808173ffffffffffffffffffffffffffffffffffffffff168152505050600073ffffffffffffffffffffffffffffffffffffffff168273ffffffffffffffffffffffffffffffffffffffff160362000159576040517f08c379a0000000000000000000000000000000000000000000000000000000008152600401620001509062000a3e565b60405180910390fd5b81600760006101000a81548173ffffffffffffffffffffffffffffffffffffffff021916908373ffffffffffffffffffffffffffffffffffffffff160217905550600073ffffffffffffffffffffffffffffffffffffffff168173ffffffffffffffffffffffffffffffffffffffff1614620001e157620001e0816200029660201b60201c565b5b505050506001600b819055508273ffffffffffffffffffffffffffffffffffffffff1660a08173ffffffffffffffffffffffffffffffffffffffff16815250508173ffffffffffffffffffffffffffffffffffffffff1660c08173ffffffffffffffffffffffffffffffffffffffff16815250508067ffffffffffffffff1660e08167ffffffffffffffff16815250505050505050505050505062000ad2565b806002908162000292919062000641565b5050565b3373ffffffffffffffffffffffffffffffffffffffff168173ffffffffffffffffffffffffffffffffffffffff160362000307576040517f08c379a0000000000000000000000000000000000000000000000000000000008152600401620002fe9062000ab0565b60405180910390fd5b80600860006101000a81548173ffffffffffffffffffffffffffffffffffffffff021916908373ffffffffffffffffffffffffffffffffffffffff1602179055508073ffffffffffffffffffffffffffffffffffffffff16600760009054906101000a900473ffffffffffffffffffffffffffffffffffffffff1673ffffffffffffffffffffffffffffffffffffffff167fed8889f560326eb138920d842192f0eb3dd22b4f139c87a2c57538e05bae127860405160405180910390a350565b600081519050919050565b7f4e487b7100000000000000000000000000000000000000000000000000000000600052604160045260246000fd5b7f4e487b7100000000000000000000000000000000000000000000000000000000600052602260045260246000fd5b600060028204905060018216806200044957607f821691505b6020821081036200045f576200045e62000401565b5b50919050565b60008190508160005260206000209050919050565b60006020601f8301049050919050565b600082821b905092915050565b600060088302620004c97fffffffffffffffffffffffffffffffffffffffffffffffffffffffffffffffff826200048a565b620004d586836200048a565b95508019841693508086168417925050509392505050565b6000819050919050565b6000819050919050565b6000620005226200051c6200051684620004ed565b620004f7565b620004ed565b9050919050565b6000819050919050565b6200053e8362000501565b620005566200054d8262000529565b84845462000497565b825550505050565b600090565b6200056d6200055e565b6200057a81848462000533565b505050565b5b81811015620005a2576200059660008262000563565b60018101905062000580565b5050565b601f821115620005f157620005bb8162000465565b620005c6846200047a565b81016020851015620005d6578190505b620005ee620005e5856200047a565b8301826200057f565b50505b505050565b600082821c905092915050565b60006200061660001984600802620005f6565b1980831691505092915050565b600062000631838362000603565b9150826002028217905092915050565b6200064c82620003c7565b67ffffffffffffffff811115620006685762000667620003d2565b5b62000674825462000430565b62000681828285620005a6565b600060209050601f831160018114620006b95760008415620006a4578287015190505b620006b0858262000623565b86555062000720565b601f198416620006c98662000465565b60005b82811015620006f357848901518255600182019150602085019450602081019050620006cc565b868310156200071357848901516200070f601f89168262000603565b8355505b6001600288020188555050505b505050505050565b6000604051905090565b600080fd5b600080fd5b600080fd5b600080fd5b6000601f19601f8301169050919050565b620007628262000746565b810181811067ffffffffffffffff82111715620007845762000783620003d2565b5b80604052505050565b60006200079962000728565b9050620007a7828262000757565b919050565b600067ffffffffffffffff821115620007ca57620007c9620003d2565b5b620007d58262000746565b9050602081019050919050565b60005b8381101562000802578082015181840152602081019050620007e5565b60008484015250505050565b6000620008256200081f84620007ac565b6200078d565b90508281526020810184848401111562000844576200084362000741565b5b62000851848285620007e2565b509392505050565b600082601f8301126200087157620008706200073c565b5b8151620008838482602086016200080e565b91505092915050565b600073ffffffffffffffffffffffffffffffffffffffff82169050919050565b6000620008b9826200088c565b9050919050565b620008cb81620008ac565b8114620008d757600080fd5b50565b600081519050620008eb81620008c0565b92915050565b600067ffffffffffffffff82169050919050565b6200091081620008f1565b81146200091c57600080fd5b50565b600081519050620009308162000905565b92915050565b600080600080600060a0868803121562000955576200095462000732565b5b600086015167ffffffffffffffff81111562000976576200097562000737565b5b620009848882890162000859565b95505060206200099788828901620008da565b9450506040620009aa88828901620008da565b9350506060620009bd888289016200091f565b9250506080620009d088828901620008da565b9150509295509295909350565b600082825260208201905092915050565b7f43616e6e6f7420736574206f776e657220746f207a65726f0000000000000000600082015250565b600062000a26601883620009dd565b915062000a3382620009ee565b602082019050919050565b6000602082019050818103600083015262000a598162000a17565b9050919050565b7f43616e6e6f74207472616e7366657220746f2073656c66000000000000000000600082015250565b600062000a98601783620009dd565b915062000aa58262000a60565b602082019050919050565b6000602082019050818103600083015262000acb8162000a89565b9050919050565b60805160a05160c05160e05161718b62000b59600039600081816107e8015281816111e1015281816113d60152611e3c015260008181610c3501528181610df501528181610e960152610f6e015260008181610d2c01528181610faa0152818161102d015281816111190152611b6f01526000818161071d0152613407015261718b6000f3fe608060405234801561001057600080fd5b50600436106101ef5760003560e01c806379ba50971161010f578063c1341c4f116100a2578063f0ed2e8011610071578063f0ed2e80146105c3578063f242432a146105f3578063f2fde38b1461060f578063f5298aca1461062b576101ef565b8063c1341c4f1461053d578063d40d17bc14610559578063e6b46ff514610575578063e985e9c514610593576101ef565b8063a843a0ab116100de578063a843a0ab146104a3578063b942f8cb146104d3578063bd85b039146104ef578063bd9a548b1461051f576101ef565b806379ba50971461044357806385572ffb1461044d5780638da5cb5b14610469578063a22cb46514610487576101ef565b80633aeac4e11161018757806351cff8d91161015657806351cff8d9146103be57806355cc4e57146103da5780635dc5ebdb146103f65780636b20c45414610427576101ef565b80633aeac4e11461032657806341eade46146103425780634e1273f41461035e5780634f558e791461038e576101ef565b80630e89341c116101c35780630e89341c1461028c57806318160ddd146102bc578063240b3b49146102da5780632eb2c2d61461030a576101ef565b8062fdd58e146101f457806301ffc9a7146102245780630ca76175146102545780630ce639c414610270575b600080fd5b61020e60048036038101906102099190614d84565b610647565b60405161021b9190614dd3565b60405180910390f35b61023e60048036038101906102399190614e46565b6106a1565b60405161024b9190614e8e565b60405180910390f35b61026e60048036038101906102699190615025565b61071b565b005b61028a600480360381019061028591906150f0565b6107dd565b005b6102a660048036038101906102a1919061515f565b610951565b6040516102b3919061520b565b60405180910390f35b6102c4610a14565b6040516102d19190614dd3565b60405180910390f35b6102f460048036038101906102ef9190615252565b610a1e565b604051610301919061531f565b60405180910390f35b610324600480360381019061031f9190615402565b611233565b005b610340600480360381019061033b91906154d1565b6112db565b005b61035c60048036038101906103579190615511565b6113cb565b005b61037860048036038101906103739190615601565b6114e8565b6040516103859190615737565b60405180910390f35b6103a860048036038101906103a3919061515f565b6115f1565b6040516103b59190614e8e565b60405180910390f35b6103d860048036038101906103d39190615759565b611605565b005b6103f460048036038101906103ef9190615759565b611703565b005b610410600480360381019061040b9190615511565b611792565b60405161041e9291906157ea565b60405180910390f35b610441600480360381019061043c919061581a565b61185e565b005b61044b6119d6565b005b610467600480360381019061046291906158c9565b611b6d565b005b610471611e8b565b60405161047e9190615912565b60405180910390f35b6104a1600480360381019061049c9190615959565b611eb5565b005b6104bd60048036038101906104b89190615a76565b611ecb565b6040516104ca919061531f565b60405180910390f35b6104ed60048036038101906104e89190615bda565b6120c9565b005b6105096004803603810190610504919061515f565b612215565b6040516105169190614dd3565b60405180910390f35b610527612232565b604051610534919061520b565b60405180910390f35b61055760048036038101906105529190615cc5565b6122c0565b005b610573600480360381019061056e9190615759565b6123c0565b005b61057d61240c565b60405161058a919061520b565b60405180910390f35b6105ad60048036038101906105a891906154d1565b61249a565b6040516105ba9190614e8e565b60405180910390f35b6105dd60048036038101906105d8919061515f565b61252e565b6040516105ea9190615ddf565b60405180910390f35b61060d60048036038101906106089190615dfa565b612603565b005b61062960048036038101906106249190615759565b6126ab565b005b61064560048036038101906106409190615e91565b6126bf565b005b600080600083815260200190815260200160002060008473ffffffffffffffffffffffffffffffffffffffff1673ffffffffffffffffffffffffffffffffffffffff16815260200190815260200160002054905092915050565b60007f85572ffb000000000000000000000000000000000000000000000000000000007bffffffffffffffffffffffffffffffffffffffffffffffffffffffff1916827bffffffffffffffffffffffffffffffffffffffffffffffffffffffff19161480610714575061071382612837565b5b9050919050565b7f000000000000000000000000000000000000000000000000000000000000000073ffffffffffffffffffffffffffffffffffffffff163373ffffffffffffffffffffffffffffffffffffffff16146107a0576040517fc6829f8300000000000000000000000000000000000000000000000000000000815260040160405180910390fd5b6107ab838383612919565b827f85e1543bf2f84fe80c6badbce3648c8539ad1df4d2b3d822938ca0538be727e660405160405180910390a2505050565b6107e5612a78565b827f000000000000000000000000000000000000000000000000000000000000000067ffffffffffffffff168167ffffffffffffffff160361085e57806040517f40d8e3a10000000000000000000000000000000000000000000000000000000081526004016108559190615ef3565b60405180910390fd5b60405180604001604052808473ffffffffffffffffffffffffffffffffffffffff16815260200183815250600c60008667ffffffffffffffff1667ffffffffffffffff16815260200190815260200160002060008201518160000160006101000a81548173ffffffffffffffffffffffffffffffffffffffff021916908373ffffffffffffffffffffffffffffffffffffffff160217905550602082015181600101908161090c919061611a565b509050507f59cc0b49d3359ac35e3872e99199469b6a1025c9a945cd9b6a411bffe337272d848484604051610943939291906161ec565b60405180910390a150505050565b60606000600a6000848152602001908152602001600020805461097390615f3d565b80601f016020809104026020016040519081016040528092919081815260200182805461099f90615f3d565b80156109ec5780601f106109c1576101008083540402835291602001916109ec565b820191906000526020600020905b8154815290600101906020018083116109cf57829003601f168201915b505050505090506000815111610a0a57610a0583612b0a565b610a0c565b805b915050919050565b6000600454905090565b6000610a28612b9e565b82600073ffffffffffffffffffffffffffffffffffffffff16600c60008367ffffffffffffffff1667ffffffffffffffff16815260200190815260200160002060000160009054906101000a900473ffffffffffffffffffffffffffffffffffffffff1673ffffffffffffffffffffffffffffffffffffffff1603610ae457806040517f1c33fbee000000000000000000000000000000000000000000000000000000008152600401610adb9190615ef3565b60405180910390fd5b6000610aef88610951565b9050610afc8a89896126bf565b60006040518060a00160405280600c60008967ffffffffffffffff1667ffffffffffffffff16815260200190815260200160002060000160009054906101000a900473ffffffffffffffffffffffffffffffffffffffff16604051602001610b649190615912565b60405160208183030381529060405281526020018c8c8c8c8c88604051602001610b939695949392919061622a565b6040516020818303038152906040528152602001600067ffffffffffffffff811115610bc257610bc1614efa565b5b604051908082528060200260200182016040528015610bfb57816020015b610be8614b5e565b815260200190600190039081610be05790505b508152602001600180811115610c1457610c13616299565b5b876001811115610c2757610c26616299565b5b14610c33576000610c55565b7f00000000000000000000000000000000000000000000000000000000000000005b73ffffffffffffffffffffffffffffffffffffffff168152602001600c60008967ffffffffffffffff1667ffffffffffffffff1681526020019081526020016000206001018054610ca590615f3d565b80601f0160208091040260200160405190810160405280929190818152602001828054610cd190615f3d565b8015610d1e5780601f10610cf357610100808354040283529160200191610d1e565b820191906000526020600020905b815481529060010190602001808311610d0157829003601f168201915b5050505050815250905060007f000000000000000000000000000000000000000000000000000000000000000073ffffffffffffffffffffffffffffffffffffffff166320487ded88846040518363ffffffff1660e01b8152600401610d8592919061648a565b602060405180830381865afa158015610da2573d6000803e3d6000fd5b505050506040513d601f19601f82011682018060405250810190610dc691906164cf565b9050600180811115610ddb57610dda616299565b5b866001811115610dee57610ded616299565b5b036110d0577f000000000000000000000000000000000000000000000000000000000000000073ffffffffffffffffffffffffffffffffffffffff166370a08231306040518263ffffffff1660e01b8152600401610e4c9190615912565b602060405180830381865afa158015610e69573d6000803e3d6000fd5b505050506040513d601f19601f82011682018060405250810190610e8d91906164cf565b811115610f6c577f000000000000000000000000000000000000000000000000000000000000000073ffffffffffffffffffffffffffffffffffffffff166370a08231306040518263ffffffff1660e01b8152600401610eed9190615912565b602060405180830381865afa158015610f0a573d6000803e3d6000fd5b505050506040513d601f19601f82011682018060405250810190610f2e91906164cf565b816040517f28fdcaa1000000000000000000000000000000000000000000000000000000008152600401610f639291906164fc565b60405180910390fd5b7f000000000000000000000000000000000000000000000000000000000000000073ffffffffffffffffffffffffffffffffffffffff1663095ea7b37f0000000000000000000000000000000000000000000000000000000000000000836040518363ffffffff1660e01b8152600401610fe7929190616525565b6020604051808303816000875af1158015611006573d6000803e3d6000fd5b505050506040513d601f19601f8201168201806040525081019061102a9190616563565b507f000000000000000000000000000000000000000000000000000000000000000073ffffffffffffffffffffffffffffffffffffffff166396f4e9f988846040518363ffffffff1660e01b815260040161108692919061648a565b6020604051808303816000875af11580156110a5573d6000803e3d6000fd5b505050506040513d601f19601f820116820180604052508101906110c991906165a5565b94506111b9565b478111156111175747816040517f28fdcaa100000000000000000000000000000000000000000000000000000000815260040161110e9291906164fc565b60405180910390fd5b7f000000000000000000000000000000000000000000000000000000000000000073ffffffffffffffffffffffffffffffffffffffff166396f4e9f98289856040518463ffffffff1660e01b815260040161117392919061648a565b60206040518083038185885af1158015611191573d6000803e3d6000fd5b50505050506040513d601f19601f820116820180604052508101906111b691906165a5565b94505b7f300e6c20d2e9d8db9b2df40ebce943d9dae3fa3a8eaec841a3d1cb9a1e8b6ad78c8c8c8c8c7f00000000000000000000000000000000000000000000000000000000000000008d60405161121497969594939291906165d2565b60405180910390a150505050611228612be4565b979650505050505050565b600061123d612bee565b90508073ffffffffffffffffffffffffffffffffffffffff168673ffffffffffffffffffffffffffffffffffffffff16141580156112825750611280868261249a565b155b156112c65780866040517fe237d9220000000000000000000000000000000000000000000000000000000081526004016112bd929190616648565b60405180910390fd5b6112d38686868686612bf6565b505050505050565b6112e3612a78565b60008173ffffffffffffffffffffffffffffffffffffffff166370a08231306040518263ffffffff1660e01b815260040161131e9190615912565b602060405180830381865afa15801561133b573d6000803e3d6000fd5b505050506040513d601f19601f8201168201806040525081019061135f91906164cf565b90506000810361139b576040517fd0d04f6000000000000000000000000000000000000000000000000000000000815260040160405180910390fd5b6113c683828473ffffffffffffffffffffffffffffffffffffffff16612cee9092919063ffffffff16565b505050565b6113d3612a78565b807f000000000000000000000000000000000000000000000000000000000000000067ffffffffffffffff168167ffffffffffffffff160361144c57806040517f40d8e3a10000000000000000000000000000000000000000000000000000000081526004016114439190615ef3565b60405180910390fd5b600c60008367ffffffffffffffff1667ffffffffffffffff168152602001908152602001600020600080820160006101000a81549073ffffffffffffffffffffffffffffffffffffffff02191690556001820160006114ab9190614b8e565b50507f67e02000179a6045f4db8fb1b09f01e170b0347e0b698fc5112ce4d798ef19f6826040516114dc9190615ef3565b60405180910390a15050565b6060815183511461153457815183516040517f5b05999100000000000000000000000000000000000000000000000000000000815260040161152b9291906164fc565b60405180910390fd5b6000835167ffffffffffffffff81111561155157611550614efa565b5b60405190808252806020026020018201604052801561157f5781602001602082028036833780820191505090505b50905060005b84518110156115e6576115bc6115a48287612d6d90919063ffffffff16565b6115b78387612d8190919063ffffffff16565b610647565b8282815181106115cf576115ce616671565b5b602002602001018181525050806001019050611585565b508091505092915050565b6000806115fd83612215565b119050919050565b61160d612a78565b60004790506000810361164c576040517fd0d04f6000000000000000000000000000000000000000000000000000000000815260040160405180910390fd5b60008273ffffffffffffffffffffffffffffffffffffffff1682604051611672906166d1565b60006040518083038185875af1925050503d80600081146116af576040519150601f19603f3d011682016040523d82523d6000602084013e6116b4565b606091505b50509050806116fe573383836040517f9d11f5630000000000000000000000000000000000000000000000000000000081526004016116f5939291906166e6565b60405180910390fd5b505050565b61170b612a78565b80600960006101000a81548173ffffffffffffffffffffffffffffffffffffffff021916908373ffffffffffffffffffffffffffffffffffffffff1602179055508073ffffffffffffffffffffffffffffffffffffffff167fd56ed7b1c1110348b1fbf418469f6fc4acc32d9b675e9e1e448cc19169a64ca060405160405180910390a250565b600c6020528060005260406000206000915090508060000160009054906101000a900473ffffffffffffffffffffffffffffffffffffffff16908060010180546117db90615f3d565b80601f016020809104026020016040519081016040528092919081815260200182805461180790615f3d565b80156118545780601f1061182957610100808354040283529160200191611854565b820191906000526020600020905b81548152906001019060200180831161183757829003601f168201915b5050505050905082565b3073ffffffffffffffffffffffffffffffffffffffff163373ffffffffffffffffffffffffffffffffffffffff16141580156118e85750600960009054906101000a900473ffffffffffffffffffffffffffffffffffffffff1673ffffffffffffffffffffffffffffffffffffffff163373ffffffffffffffffffffffffffffffffffffffff1614155b1561192a57336040517fee4a26f20000000000000000000000000000000000000000000000000000000081526004016119219190615912565b60405180910390fd5b611932612bee565b73ffffffffffffffffffffffffffffffffffffffff168373ffffffffffffffffffffffffffffffffffffffff161415801561197b575061197983611974612bee565b61249a565b155b156119c657611988612bee565b836040517fe237d9220000000000000000000000000000000000000000000000000000000081526004016119bd929190616648565b60405180910390fd5b6119d1838383612d95565b505050565b600860009054906101000a900473ffffffffffffffffffffffffffffffffffffffff1673ffffffffffffffffffffffffffffffffffffffff163373ffffffffffffffffffffffffffffffffffffffff1614611a66576040517f08c379a0000000000000000000000000000000000000000000000000000000008152600401611a5d90616769565b60405180910390fd5b6000600760009054906101000a900473ffffffffffffffffffffffffffffffffffffffff16905033600760006101000a81548173ffffffffffffffffffffffffffffffffffffffff021916908373ffffffffffffffffffffffffffffffffffffffff1602179055506000600860006101000a81548173ffffffffffffffffffffffffffffffffffffffff021916908373ffffffffffffffffffffffffffffffffffffffff1602179055503373ffffffffffffffffffffffffffffffffffffffff168173ffffffffffffffffffffffffffffffffffffffff167f8be0079c531659141344cd1fd0a4f28419497f9722a3daafe3b4186f6b6457e060405160405180910390a350565b7f000000000000000000000000000000000000000000000000000000000000000073ffffffffffffffffffffffffffffffffffffffff163373ffffffffffffffffffffffffffffffffffffffff1614611bfd57336040517fd7f73334000000000000000000000000000000000000000000000000000000008152600401611bf49190615912565b60405180910390fd5b611c05612b9e565b806020016020810190611c189190615511565b600073ffffffffffffffffffffffffffffffffffffffff16600c60008367ffffffffffffffff1667ffffffffffffffff16815260200190815260200160002060000160009054906101000a900473ffffffffffffffffffffffffffffffffffffffff1673ffffffffffffffffffffffffffffffffffffffff1603611cd357806040517f1c33fbee000000000000000000000000000000000000000000000000000000008152600401611cca9190615ef3565b60405180910390fd5b816020016020810190611ce69190615511565b828060400190611cf69190616798565b810190611d039190616839565b8073ffffffffffffffffffffffffffffffffffffffff16600c60008467ffffffffffffffff1667ffffffffffffffff16815260200190815260200160002060000160009054906101000a900473ffffffffffffffffffffffffffffffffffffffff1673ffffffffffffffffffffffffffffffffffffffff1614611dbd57806040517fbaf46cd1000000000000000000000000000000000000000000000000000000008152600401611db49190615912565b60405180910390fd5b6000846020016020810190611dd29190615511565b90506000806000806000808a8060600190611ded9190616798565b810190611dfa9190616866565b955095509550955095509550611e1385858585856122c0565b7f8a69e2b5fbcc69a1f5d6326fb26db5bc43cd18d09d2e79a48a50b77da16432f986868686868c7f0000000000000000000000000000000000000000000000000000000000000000604051611e6e97969594939291906165d2565b60405180910390a150505050505050505050611e88612be4565b50565b6000600760009054906101000a900473ffffffffffffffffffffffffffffffffffffffff16905090565b611ec7611ec0612bee565b8383612e29565b5050565b6000600d60009054906101000a900473ffffffffffffffffffffffffffffffffffffffff1673ffffffffffffffffffffffffffffffffffffffff163373ffffffffffffffffffffffffffffffffffffffff1614158015611f5e5750611f2e611e8b565b73ffffffffffffffffffffffffffffffffffffffff163373ffffffffffffffffffffffffffffffffffffffff1614155b15611f95576040517f0b71f4bc00000000000000000000000000000000000000000000000000000000815260040160405180910390fd5b611f9d614bce565b6120233073ffffffffffffffffffffffffffffffffffffffff1663bd9a548b6040518163ffffffff1660e01b8152600401600060405180830381865afa158015611feb573d6000803e3d6000fd5b505050506040513d6000823e3d601f19601f82011682018060405250810190612014919061699b565b82612f9990919063ffffffff16565b6000600167ffffffffffffffff8111156120405761203f614efa565b5b60405190808252806020026020018201604052801561207357816020015b606081526020019060019003908161205e5790505b509050868160008151811061208b5761208a616671565b5b60200260200101819052506120a98183612faa90919063ffffffff16565b6120bd6120b583612ff2565b878787613402565b92505050949350505050565b3073ffffffffffffffffffffffffffffffffffffffff163373ffffffffffffffffffffffffffffffffffffffff16141580156121535750600960009054906101000a900473ffffffffffffffffffffffffffffffffffffffff1673ffffffffffffffffffffffffffffffffffffffff163373ffffffffffffffffffffffffffffffffffffffff1614155b1561219557336040517fee4a26f200000000000000000000000000000000000000000000000000000000815260040161218c9190615912565b60405180910390fd5b6121a1858585856134e5565b60005b845181101561220d578181815181106121c0576121bf616671565b5b6020026020010151600a60008784815181106121df576121de616671565b5b6020026020010151815260200190815260200160002090816122019190616a3f565b508060010190506121a4565b505050505050565b600060036000838152602001908152602001600020549050919050565b6006805461223f90615f3d565b80601f016020809104026020016040519081016040528092919081815260200182805461226b90615f3d565b80156122b85780601f1061228d576101008083540402835291602001916122b8565b820191906000526020600020905b81548152906001019060200180831161229b57829003601f168201915b505050505081565b3073ffffffffffffffffffffffffffffffffffffffff163373ffffffffffffffffffffffffffffffffffffffff161415801561234a5750600960009054906101000a900473ffffffffffffffffffffffffffffffffffffffff1673ffffffffffffffffffffffffffffffffffffffff163373ffffffffffffffffffffffffffffffffffffffff1614155b1561238c57336040517fee4a26f20000000000000000000000000000000000000000000000000000000081526004016123839190615912565b60405180910390fd5b6123988585858561356b565b80600a600086815260200190815260200160002090816123b89190616a3f565b505050505050565b6123c8612a78565b80600d60006101000a81548173ffffffffffffffffffffffffffffffffffffffff021916908373ffffffffffffffffffffffffffffffffffffffff16021790555050565b6005805461241990615f3d565b80601f016020809104026020016040519081016040528092919081815260200182805461244590615f3d565b80156124925780601f1061246757610100808354040283529160200191612492565b820191906000526020600020905b81548152906001019060200180831161247557829003601f168201915b505050505081565b6000600160008473ffffffffffffffffffffffffffffffffffffffff1673ffffffffffffffffffffffffffffffffffffffff16815260200190815260200160002060008373ffffffffffffffffffffffffffffffffffffffff1673ffffffffffffffffffffffffffffffffffffffff16815260200190815260200160002060009054906101000a900460ff16905092915050565b612536614c40565b600e60008381526020019081526020016000206040518060600160405290816000820160009054906101000a900469ffffffffffffffffffff1669ffffffffffffffffffff1669ffffffffffffffffffff16815260200160008201600a9054906101000a900469ffffffffffffffffffff1669ffffffffffffffffffff1669ffffffffffffffffffff1681526020016000820160149054906101000a900469ffffffffffffffffffff1669ffffffffffffffffffff1669ffffffffffffffffffff16815250509050919050565b600061260d612bee565b90508073ffffffffffffffffffffffffffffffffffffffff168673ffffffffffffffffffffffffffffffffffffffff16141580156126525750612650868261249a565b155b156126965780866040517fe237d92200000000000000000000000000000000000000000000000000000000815260040161268d929190616648565b60405180910390fd5b6126a38686868686613604565b505050505050565b6126b3612a78565b6126bc8161370f565b50565b3073ffffffffffffffffffffffffffffffffffffffff163373ffffffffffffffffffffffffffffffffffffffff16141580156127495750600960009054906101000a900473ffffffffffffffffffffffffffffffffffffffff1673ffffffffffffffffffffffffffffffffffffffff163373ffffffffffffffffffffffffffffffffffffffff1614155b1561278b57336040517fee4a26f20000000000000000000000000000000000000000000000000000000081526004016127829190615912565b60405180910390fd5b612793612bee565b73ffffffffffffffffffffffffffffffffffffffff168373ffffffffffffffffffffffffffffffffffffffff16141580156127dc57506127da836127d5612bee565b61249a565b155b15612827576127e9612bee565b836040517fe237d92200000000000000000000000000000000000000000000000000000000815260040161281e929190616648565b60405180910390fd5b61283283838361383d565b505050565b60007fd9b67a26000000000000000000000000000000000000000000000000000000007bffffffffffffffffffffffffffffffffffffffffffffffffffffffff1916827bffffffffffffffffffffffffffffffffffffffffffffffffffffffff1916148061290257507f0e89341c000000000000000000000000000000000000000000000000000000007bffffffffffffffffffffffffffffffffffffffffffffffffffffffff1916827bffffffffffffffffffffffffffffffffffffffffffffffffffffffff1916145b806129125750612911826138e4565b5b9050919050565b600081511461295f57806040517f08c379a0000000000000000000000000000000000000000000000000000000008152600401612956919061520b565b60405180910390fd5b600080600080858060200190518101906129799190616b11565b935093509350935060405180606001604052808469ffffffffffffffffffff1681526020018369ffffffffffffffffffff1681526020018269ffffffffffffffffffff16815250600e600086815260200190815260200160002060008201518160000160006101000a81548169ffffffffffffffffffff021916908369ffffffffffffffffffff160217905550602082015181600001600a6101000a81548169ffffffffffffffffffff021916908369ffffffffffffffffffff16021790555060408201518160000160146101000a81548169ffffffffffffffffffff021916908369ffffffffffffffffffff16021790555090505050505050505050565b600760009054906101000a900473ffffffffffffffffffffffffffffffffffffffff1673ffffffffffffffffffffffffffffffffffffffff163373ffffffffffffffffffffffffffffffffffffffff1614612b08576040517f08c379a0000000000000000000000000000000000000000000000000000000008152600401612aff90616bc4565b60405180910390fd5b565b606060028054612b1990615f3d565b80601f0160208091040260200160405190810160405280929190818152602001828054612b4590615f3d565b8015612b925780601f10612b6757610100808354040283529160200191612b92565b820191906000526020600020905b815481529060010190602001808311612b7557829003601f168201915b50505050509050919050565b6002600b5403612bda576040517f3ee5aeb500000000000000000000000000000000000000000000000000000000815260040160405180910390fd5b6002600b81905550565b6001600b81905550565b600033905090565b600073ffffffffffffffffffffffffffffffffffffffff168473ffffffffffffffffffffffffffffffffffffffff1603612c685760006040517f57f447ce000000000000000000000000000000000000000000000000000000008152600401612c5f9190615912565b60405180910390fd5b600073ffffffffffffffffffffffffffffffffffffffff168573ffffffffffffffffffffffffffffffffffffffff1603612cda5760006040517f01a83514000000000000000000000000000000000000000000000000000000008152600401612cd19190615912565b60405180910390fd5b612ce7858585858561394e565b5050505050565b612d68838473ffffffffffffffffffffffffffffffffffffffff1663a9059cbb8585604051602401612d21929190616525565b604051602081830303815290604052915060e01b6020820180517bffffffffffffffffffffffffffffffffffffffffffffffffffffffff8381831617835250505050613a00565b505050565b600060208202602084010151905092915050565b600060208202602084010151905092915050565b600073ffffffffffffffffffffffffffffffffffffffff168373ffffffffffffffffffffffffffffffffffffffff1603612e075760006040517f01a83514000000000000000000000000000000000000000000000000000000008152600401612dfe9190615912565b60405180910390fd5b612e2483600084846040518060200160405280600081525061394e565b505050565b600073ffffffffffffffffffffffffffffffffffffffff168273ffffffffffffffffffffffffffffffffffffffff1603612e9b5760006040517fced3e100000000000000000000000000000000000000000000000000000000008152600401612e929190615912565b60405180910390fd5b80600160008573ffffffffffffffffffffffffffffffffffffffff1673ffffffffffffffffffffffffffffffffffffffff16815260200190815260200160002060008473ffffffffffffffffffffffffffffffffffffffff1673ffffffffffffffffffffffffffffffffffffffff16815260200190815260200160002060006101000a81548160ff0219169083151502179055508173ffffffffffffffffffffffffffffffffffffffff168373ffffffffffffffffffffffffffffffffffffffff167f17307eab39ab6107e8899845ad3d59bd9653f200f220920489ca2b5937696c3183604051612f8c9190614e8e565b60405180910390a3505050565b612fa68260008084613a97565b5050565b6000815103612fe5576040517ffe936cb700000000000000000000000000000000000000000000000000000000815260040160405180910390fd5b808260a001819052505050565b60606000613001610100613b41565b905061304b6040518060400160405280600c81526020017f636f64654c6f636174696f6e000000000000000000000000000000000000000081525082613b6890919063ffffffff16565b6130748360000151600281111561306557613064616299565b5b82613b9190919063ffffffff16565b6130bc6040518060400160405280600881526020017f6c616e677561676500000000000000000000000000000000000000000000000081525082613b6890919063ffffffff16565b6130e5836040015160008111156130d6576130d5616299565b5b82613b9190919063ffffffff16565b61312d6040518060400160405280600681526020017f736f75726365000000000000000000000000000000000000000000000000000081525082613b6890919063ffffffff16565b613144836060015182613b6890919063ffffffff16565b60008360a001515111156131fa5761319a6040518060400160405280600481526020017f617267730000000000000000000000000000000000000000000000000000000081525082613b6890919063ffffffff16565b6131a381613be1565b60005b8360a00151518110156131ef576131e48460a0015182815181106131cd576131cc616671565b5b602002602001015183613b6890919063ffffffff16565b8060010190506131a6565b506131f981613c09565b5b6000836080015151111561333b576000600281111561321c5761321b616299565b5b8360200151600281111561323357613232616299565b5b0361326a576040517fa80d31f700000000000000000000000000000000000000000000000000000000815260040160405180910390fd5b6132b26040518060400160405280600f81526020017f736563726574734c6f636174696f6e000000000000000000000000000000000081525082613b6890919063ffffffff16565b6132db836020015160028111156132cc576132cb616299565b5b82613b9190919063ffffffff16565b6133236040518060400160405280600781526020017f736563726574730000000000000000000000000000000000000000000000000081525082613b6890919063ffffffff16565b61333a836080015182613c3190919063ffffffff16565b5b60008360c001515111156133f1576133916040518060400160405280600981526020017f627974657341726773000000000000000000000000000000000000000000000081525082613b6890919063ffffffff16565b61339a81613be1565b60005b8360c00151518110156133e6576133db8460c0015182815181106133c4576133c3616671565b5b602002602001015183613c3190919063ffffffff16565b80600101905061339d565b506133f081613c09565b5b806000015160000151915050919050565b6000807f000000000000000000000000000000000000000000000000000000000000000073ffffffffffffffffffffffffffffffffffffffff1663461d27628688600188886040518663ffffffff1660e01b8152600401613467959493929190616c10565b6020604051808303816000875af1158015613486573d6000803e3d6000fd5b505050506040513d601f19601f820116820180604052508101906134aa91906165a5565b9050807f1131472297a800fee664d1d89cfa8f7676ff07189ecc53f80bbb5f4969099db860405160405180910390a280915050949350505050565b600073ffffffffffffffffffffffffffffffffffffffff168473ffffffffffffffffffffffffffffffffffffffff16036135575760006040517f57f447ce00000000000000000000000000000000000000000000000000000000815260040161354e9190615912565b60405180910390fd5b61356560008585858561394e565b50505050565b600073ffffffffffffffffffffffffffffffffffffffff168473ffffffffffffffffffffffffffffffffffffffff16036135dd5760006040517f57f447ce0000000000000000000000000000000000000000000000000000000081526004016135d49190615912565b60405180910390fd5b6000806135ea8585613c5a565b915091506135fc60008784848761394e565b505050505050565b600073ffffffffffffffffffffffffffffffffffffffff168473ffffffffffffffffffffffffffffffffffffffff16036136765760006040517f57f447ce00000000000000000000000000000000000000000000000000000000815260040161366d9190615912565b60405180910390fd5b600073ffffffffffffffffffffffffffffffffffffffff168573ffffffffffffffffffffffffffffffffffffffff16036136e85760006040517f01a835140000000000000000000000000000000000000000000000000000000081526004016136df9190615912565b60405180910390fd5b6000806136f58585613c5a565b91509150613706878784848761394e565b50505050505050565b3373ffffffffffffffffffffffffffffffffffffffff168173ffffffffffffffffffffffffffffffffffffffff160361377d576040517f08c379a000000000000000000000000000000000000000000000000000000000815260040161377490616cb6565b60405180910390fd5b80600860006101000a81548173ffffffffffffffffffffffffffffffffffffffff021916908373ffffffffffffffffffffffffffffffffffffffff1602179055508073ffffffffffffffffffffffffffffffffffffffff16600760009054906101000a900473ffffffffffffffffffffffffffffffffffffffff1673ffffffffffffffffffffffffffffffffffffffff167fed8889f560326eb138920d842192f0eb3dd22b4f139c87a2c57538e05bae127860405160405180910390a350565b600073ffffffffffffffffffffffffffffffffffffffff168373ffffffffffffffffffffffffffffffffffffffff16036138af5760006040517f01a835140000000000000000000000000000000000000000000000000000000081526004016138a69190615912565b60405180910390fd5b6000806138bc8484613c5a565b915091506138dd85600084846040518060200160405280600081525061394e565b5050505050565b60007f01ffc9a7000000000000000000000000000000000000000000000000000000007bffffffffffffffffffffffffffffffffffffffffffffffffffffffff1916827bffffffffffffffffffffffffffffffffffffffffffffffffffffffff1916149050919050565b61395a85858585613c8a565b600073ffffffffffffffffffffffffffffffffffffffff168473ffffffffffffffffffffffffffffffffffffffff16146139f9576000613998612bee565b905060018451036139e85760006139b9600086612d8190919063ffffffff16565b905060006139d1600086612d8190919063ffffffff16565b90506139e1838989858589613e35565b50506139f7565b6139f6818787878787613fe9565b5b505b5050505050565b6000613a2b828473ffffffffffffffffffffffffffffffffffffffff1661419d90919063ffffffff16565b90506000815114158015613a50575080806020019051810190613a4e9190616563565b155b15613a9257826040517f5274afe7000000000000000000000000000000000000000000000000000000008152600401613a899190615912565b60405180910390fd5b505050565b6000815103613ad2576040517f22ce3edd00000000000000000000000000000000000000000000000000000000815260040160405180910390fd5b8284600001906002811115613aea57613ae9616299565b5b90816002811115613afe57613afd616299565b5b815250508184604001906000811115613b1a57613b19616299565b5b90816000811115613b2e57613b2d616299565b5b8152505080846060018190525050505050565b613b49614c85565b613b578160000151836141b3565b506000816020018181525050919050565b613b75826003835161422c565b613b8c8183600001516143d590919063ffffffff16565b505050565b613bb360026005600660ff16901b1783600001516143f190919063ffffffff16565b50613bdd8282604051602001613bc99190614dd3565b604051602081830303815290604052613c31565b5050565b613bec81600461445b565b600181602001818151613bff9190616d05565b9150818152505050565b613c1481600761445b565b600181602001818151613c279190616d39565b9150818152505050565b613c3e826002835161422c565b613c558183600001516143d590919063ffffffff16565b505050565b60608060405191506001825283602083015260408201905060018152826020820152604081016040529250929050565b613c9684848484614481565b600073ffffffffffffffffffffffffffffffffffffffff168473ffffffffffffffffffffffffffffffffffffffff1603613d70576000805b8351811015613d54576000838281518110613cec57613ceb616671565b5b602002602001015190508060036000878581518110613d0e57613d0d616671565b5b602002602001015181526020019081526020016000206000828254613d339190616d05565b925050819055508083613d469190616d05565b925050806001019050613cce565b508060046000828254613d679190616d05565b92505081905550505b600073ffffffffffffffffffffffffffffffffffffffff168373ffffffffffffffffffffffffffffffffffffffff1603613e2f576000805b8351811015613e1c576000838281518110613dc657613dc5616671565b5b602002602001015190508060036000878581518110613de857613de7616671565b5b6020026020010151815260200190815260200160002060008282540392505081905550808301925050806001019050613da8565b5080600460008282540392505081905550505b50505050565b60008473ffffffffffffffffffffffffffffffffffffffff163b1115613fe1578373ffffffffffffffffffffffffffffffffffffffff1663f23a6e6187878686866040518663ffffffff1660e01b8152600401613e96959493929190616d6d565b6020604051808303816000875af1925050508015613ed257506040513d601f19601f82011682018060405250810190613ecf9190616ddc565b60015b613f56573d8060008114613f02576040519150601f19603f3d011682016040523d82523d6000602084013e613f07565b606091505b506000815103613f4e57846040517f57f447ce000000000000000000000000000000000000000000000000000000008152600401613f459190615912565b60405180910390fd5b805181602001fd5b63f23a6e6160e01b7bffffffffffffffffffffffffffffffffffffffffffffffffffffffff1916817bffffffffffffffffffffffffffffffffffffffffffffffffffffffff191614613fdf57846040517f57f447ce000000000000000000000000000000000000000000000000000000008152600401613fd69190615912565b60405180910390fd5b505b505050505050565b60008473ffffffffffffffffffffffffffffffffffffffff163b1115614195578373ffffffffffffffffffffffffffffffffffffffff1663bc197c8187878686866040518663ffffffff1660e01b815260040161404a959493929190616e09565b6020604051808303816000875af192505050801561408657506040513d601f19601f820116820180604052508101906140839190616ddc565b60015b61410a573d80600081146140b6576040519150601f19603f3d011682016040523d82523d6000602084013e6140bb565b606091505b50600081510361410257846040517f57f447ce0000000000000000000000000000000000000000000000000000000081526004016140f99190615912565b60405180910390fd5b805181602001fd5b63bc197c8160e01b7bffffffffffffffffffffffffffffffffffffffffffffffffffffffff1916817bffffffffffffffffffffffffffffffffffffffffffffffffffffffff19161461419357846040517f57f447ce00000000000000000000000000000000000000000000000000000000815260040161418a9190615912565b60405180910390fd5b505b505050505050565b60606141ab83836000614829565b905092915050565b6141bb614ca5565b60006020836141ca9190616ea0565b146141f6576020826141dc9190616ea0565b60206141e89190616d39565b826141f39190616d05565b91505b81836020018181525050604051808452600081528281016020018181101561421d57600080fd5b80604052505082905092915050565b60178167ffffffffffffffff1611614267576142618160058460ff16901b60ff161784600001516143f190919063ffffffff16565b506143d0565b60ff8167ffffffffffffffff16116142c55761429a601860058460ff16901b1784600001516143f190919063ffffffff16565b506142bf8167ffffffffffffffff16600185600001516148f69092919063ffffffff16565b506143cf565b61ffff8167ffffffffffffffff1611614324576142f9601960058460ff16901b1784600001516143f190919063ffffffff16565b5061431e8167ffffffffffffffff16600285600001516148f69092919063ffffffff16565b506143ce565b63ffffffff8167ffffffffffffffff16116143855761435a601a60058460ff16901b1784600001516143f190919063ffffffff16565b5061437f8167ffffffffffffffff16600485600001516148f69092919063ffffffff16565b506143cd565b6143a6601b60058460ff16901b1784600001516143f190919063ffffffff16565b506143cb8167ffffffffffffffff16600885600001516148f69092919063ffffffff16565b505b5b5b5b505050565b6143dd614ca5565b6143e983838451614983565b905092915050565b6143f9614ca5565b6000836000015151905060006001826144129190616d05565b90508460200151821061443657614435856002836144309190616ed1565b614a66565b5b8451602083820101858153815183111561444e578282525b5050849250505092915050565b61447c601f60058360ff16901b1783600001516143f190919063ffffffff16565b505050565b80518251146144cb57815181516040517f5b0599910000000000000000000000000000000000000000000000000000000081526004016144c29291906164fc565b60405180910390fd5b60006144d5612bee565b905060005b83518110156146e45760006144f88286612d8190919063ffffffff16565b9050600061450f8386612d8190919063ffffffff16565b9050600073ffffffffffffffffffffffffffffffffffffffff168873ffffffffffffffffffffffffffffffffffffffff161461463c57600080600084815260200190815260200160002060008a73ffffffffffffffffffffffffffffffffffffffff1673ffffffffffffffffffffffffffffffffffffffff168152602001908152602001600020549050818110156145e457888183856040517f03dee4c50000000000000000000000000000000000000000000000000000000081526004016145db9493929190616f13565b60405180910390fd5b81810360008085815260200190815260200160002060008b73ffffffffffffffffffffffffffffffffffffffff1673ffffffffffffffffffffffffffffffffffffffff16815260200190815260200160002081905550505b600073ffffffffffffffffffffffffffffffffffffffff168773ffffffffffffffffffffffffffffffffffffffff16146146d7578060008084815260200190815260200160002060008973ffffffffffffffffffffffffffffffffffffffff1673ffffffffffffffffffffffffffffffffffffffff16815260200190815260200160002060008282546146cf9190616d05565b925050819055505b50508060010190506144da565b5060018351036147a3576000614704600085612d8190919063ffffffff16565b9050600061471c600085612d8190919063ffffffff16565b90508573ffffffffffffffffffffffffffffffffffffffff168773ffffffffffffffffffffffffffffffffffffffff168473ffffffffffffffffffffffffffffffffffffffff167fc3d58168c5ae7397731d063d5bbf3d657854427343f4c083240f7aacaa2d0f6285856040516147949291906164fc565b60405180910390a45050614822565b8373ffffffffffffffffffffffffffffffffffffffff168573ffffffffffffffffffffffffffffffffffffffff168273ffffffffffffffffffffffffffffffffffffffff167f4a39dc06d4c0dbc64b70af90fd698a233a518aa5d07e595d983b8c0526c8f7fb8686604051614819929190616f58565b60405180910390a45b5050505050565b60608147101561487057306040517fcd7860590000000000000000000000000000000000000000000000000000000081526004016148679190615912565b60405180910390fd5b6000808573ffffffffffffffffffffffffffffffffffffffff1684866040516148999190616fc0565b60006040518083038185875af1925050503d80600081146148d6576040519150601f19603f3d011682016040523d82523d6000602084013e6148db565b606091505b50915091506148eb868383614a8a565b925050509392505050565b6148fe614ca5565b60008460000151519050600081846149169190616d05565b9050856020015181111561493b5761493a866002836149359190616ed1565b614a66565b5b600060018561010061494d919061710a565b6149579190616d39565b905086518281018783198251161781528151841115614974578382525b50508693505050509392505050565b61498b614ca5565b825182111561499957600080fd5b60008460000151519050600083826149b19190616d05565b905085602001518111156149d6576149d5866002836149d09190616ed1565b614a66565b5b600080875180518560208301019350808511156149f1578482525b60208901925050505b60208610614a385780518252602082614a139190616d05565b9150602081614a229190616d05565b9050602086614a319190616d39565b95506149fa565b60006001876020036101000a0390508019825116818451168181178552505050879450505050509392505050565b600082600001519050614a7983836141b3565b50614a8483826143d5565b50505050565b606082614a9f57614a9a82614b19565b614b11565b60008251148015614ac7575060008473ffffffffffffffffffffffffffffffffffffffff163b145b15614b0957836040517f9996b315000000000000000000000000000000000000000000000000000000008152600401614b009190615912565b60405180910390fd5b819050614b12565b5b9392505050565b600081511115614b2c5780518082602001fd5b6040517f1425ea4200000000000000000000000000000000000000000000000000000000815260040160405180910390fd5b6040518060400160405280600073ffffffffffffffffffffffffffffffffffffffff168152602001600081525090565b508054614b9a90615f3d565b6000825580601f10614bac5750614bcb565b601f016020900490600052602060002090810190614bca9190614cbf565b5b50565b6040518060e0016040528060006002811115614bed57614bec616299565b5b815260200160006002811115614c0657614c05616299565b5b8152602001600080811115614c1e57614c1d616299565b5b8152602001606081526020016060815260200160608152602001606081525090565b6040518060600160405280600069ffffffffffffffffffff168152602001600069ffffffffffffffffffff168152602001600069ffffffffffffffffffff1681525090565b6040518060400160405280614c98614ca5565b8152602001600081525090565b604051806040016040528060608152602001600081525090565b5b80821115614cd8576000816000905550600101614cc0565b5090565b6000604051905090565b600080fd5b600080fd5b600073ffffffffffffffffffffffffffffffffffffffff82169050919050565b6000614d1b82614cf0565b9050919050565b614d2b81614d10565b8114614d3657600080fd5b50565b600081359050614d4881614d22565b92915050565b6000819050919050565b614d6181614d4e565b8114614d6c57600080fd5b50565b600081359050614d7e81614d58565b92915050565b60008060408385031215614d9b57614d9a614ce6565b5b6000614da985828601614d39565b9250506020614dba85828601614d6f565b9150509250929050565b614dcd81614d4e565b82525050565b6000602082019050614de86000830184614dc4565b92915050565b60007fffffffff0000000000000000000000000000000000000000000000000000000082169050919050565b614e2381614dee565b8114614e2e57600080fd5b50565b600081359050614e4081614e1a565b92915050565b600060208284031215614e5c57614e5b614ce6565b5b6000614e6a84828501614e31565b91505092915050565b60008115159050919050565b614e8881614e73565b82525050565b6000602082019050614ea36000830184614e7f565b92915050565b6000819050919050565b614ebc81614ea9565b8114614ec757600080fd5b50565b600081359050614ed981614eb3565b92915050565b600080fd5b600080fd5b6000601f19601f8301169050919050565b7f4e487b7100000000000000000000000000000000000000000000000000000000600052604160045260246000fd5b614f3282614ee9565b810181811067ffffffffffffffff82111715614f5157614f50614efa565b5b80604052505050565b6000614f64614cdc565b9050614f708282614f29565b919050565b600067ffffffffffffffff821115614f9057614f8f614efa565b5b614f9982614ee9565b9050602081019050919050565b82818337600083830152505050565b6000614fc8614fc384614f75565b614f5a565b905082815260208101848484011115614fe457614fe3614ee4565b5b614fef848285614fa6565b509392505050565b600082601f83011261500c5761500b614edf565b5b813561501c848260208601614fb5565b91505092915050565b60008060006060848603121561503e5761503d614ce6565b5b600061504c86828701614eca565b935050602084013567ffffffffffffffff81111561506d5761506c614ceb565b5b61507986828701614ff7565b925050604084013567ffffffffffffffff81111561509a57615099614ceb565b5b6150a686828701614ff7565b9150509250925092565b600067ffffffffffffffff82169050919050565b6150cd816150b0565b81146150d857600080fd5b50565b6000813590506150ea816150c4565b92915050565b60008060006060848603121561510957615108614ce6565b5b6000615117868287016150db565b935050602061512886828701614d39565b925050604084013567ffffffffffffffff81111561514957615148614ceb565b5b61515586828701614ff7565b9150509250925092565b60006020828403121561517557615174614ce6565b5b600061518384828501614d6f565b91505092915050565b600081519050919050565b600082825260208201905092915050565b60005b838110156151c65780820151818401526020810190506151ab565b60008484015250505050565b60006151dd8261518c565b6151e78185615197565b93506151f78185602086016151a8565b61520081614ee9565b840191505092915050565b6000602082019050818103600083015261522581846151d2565b905092915050565b6002811061523a57600080fd5b50565b60008135905061524c8161522d565b92915050565b600080600080600080600060e0888a03121561527157615270614ce6565b5b600061527f8a828b01614d39565b97505060206152908a828b01614d39565b96505060406152a18a828b01614d6f565b95505060606152b28a828b01614d6f565b945050608088013567ffffffffffffffff8111156152d3576152d2614ceb565b5b6152df8a828b01614ff7565b93505060a06152f08a828b016150db565b92505060c06153018a828b0161523d565b91505092959891949750929550565b61531981614ea9565b82525050565b60006020820190506153346000830184615310565b92915050565b600067ffffffffffffffff82111561535557615354614efa565b5b602082029050602081019050919050565b600080fd5b600061537e6153798461533a565b614f5a565b905080838252602082019050602084028301858111156153a1576153a0615366565b5b835b818110156153ca57806153b68882614d6f565b8452602084019350506020810190506153a3565b5050509392505050565b600082601f8301126153e9576153e8614edf565b5b81356153f984826020860161536b565b91505092915050565b600080600080600060a0868803121561541e5761541d614ce6565b5b600061542c88828901614d39565b955050602061543d88828901614d39565b945050604086013567ffffffffffffffff81111561545e5761545d614ceb565b5b61546a888289016153d4565b935050606086013567ffffffffffffffff81111561548b5761548a614ceb565b5b615497888289016153d4565b925050608086013567ffffffffffffffff8111156154b8576154b7614ceb565b5b6154c488828901614ff7565b9150509295509295909350565b600080604083850312156154e8576154e7614ce6565b5b60006154f685828601614d39565b925050602061550785828601614d39565b9150509250929050565b60006020828403121561552757615526614ce6565b5b6000615535848285016150db565b91505092915050565b600067ffffffffffffffff82111561555957615558614efa565b5b602082029050602081019050919050565b600061557d6155788461553e565b614f5a565b905080838252602082019050602084028301858111156155a05761559f615366565b5b835b818110156155c957806155b58882614d39565b8452602084019350506020810190506155a2565b5050509392505050565b600082601f8301126155e8576155e7614edf565b5b81356155f884826020860161556a565b91505092915050565b6000806040838503121561561857615617614ce6565b5b600083013567ffffffffffffffff81111561563657615635614ceb565b5b615642858286016155d3565b925050602083013567ffffffffffffffff81111561566357615662614ceb565b5b61566f858286016153d4565b9150509250929050565b600081519050919050565b600082825260208201905092915050565b6000819050602082019050919050565b6156ae81614d4e565b82525050565b60006156c083836156a5565b60208301905092915050565b6000602082019050919050565b60006156e482615679565b6156ee8185615684565b93506156f983615695565b8060005b8381101561572a57815161571188826156b4565b975061571c836156cc565b9250506001810190506156fd565b5085935050505092915050565b6000602082019050818103600083015261575181846156d9565b905092915050565b60006020828403121561576f5761576e614ce6565b5b600061577d84828501614d39565b91505092915050565b61578f81614d10565b82525050565b600081519050919050565b600082825260208201905092915050565b60006157bc82615795565b6157c681856157a0565b93506157d68185602086016151a8565b6157df81614ee9565b840191505092915050565b60006040820190506157ff6000830185615786565b818103602083015261581181846157b1565b90509392505050565b60008060006060848603121561583357615832614ce6565b5b600061584186828701614d39565b935050602084013567ffffffffffffffff81111561586257615861614ceb565b5b61586e868287016153d4565b925050604084013567ffffffffffffffff81111561588f5761588e614ceb565b5b61589b868287016153d4565b9150509250925092565b600080fd5b600060a082840312156158c0576158bf6158a5565b5b81905092915050565b6000602082840312156158df576158de614ce6565b5b600082013567ffffffffffffffff8111156158fd576158fc614ceb565b5b615909848285016158aa565b91505092915050565b60006020820190506159276000830184615786565b92915050565b61593681614e73565b811461594157600080fd5b50565b6000813590506159538161592d565b92915050565b600080604083850312156159705761596f614ce6565b5b600061597e85828601614d39565b925050602061598f85828601615944565b9150509250929050565b600067ffffffffffffffff8211156159b4576159b3614efa565b5b6159bd82614ee9565b9050602081019050919050565b60006159dd6159d884615999565b614f5a565b9050828152602081018484840111156159f9576159f8614ee4565b5b615a04848285614fa6565b509392505050565b600082601f830112615a2157615a20614edf565b5b8135615a318482602086016159ca565b91505092915050565b600063ffffffff82169050919050565b615a5381615a3a565b8114615a5e57600080fd5b50565b600081359050615a7081615a4a565b92915050565b60008060008060808587031215615a9057615a8f614ce6565b5b600085013567ffffffffffffffff811115615aae57615aad614ceb565b5b615aba87828801615a0c565b9450506020615acb878288016150db565b9350506040615adc87828801615a61565b9250506060615aed87828801614eca565b91505092959194509250565b600067ffffffffffffffff821115615b1457615b13614efa565b5b602082029050602081019050919050565b6000615b38615b3384615af9565b614f5a565b90508083825260208201905060208402830185811115615b5b57615b5a615366565b5b835b81811015615ba257803567ffffffffffffffff811115615b8057615b7f614edf565b5b808601615b8d8982615a0c565b85526020850194505050602081019050615b5d565b5050509392505050565b600082601f830112615bc157615bc0614edf565b5b8135615bd1848260208601615b25565b91505092915050565b600080600080600060a08688031215615bf657615bf5614ce6565b5b6000615c0488828901614d39565b955050602086013567ffffffffffffffff811115615c2557615c24614ceb565b5b615c31888289016153d4565b945050604086013567ffffffffffffffff811115615c5257615c51614ceb565b5b615c5e888289016153d4565b935050606086013567ffffffffffffffff811115615c7f57615c7e614ceb565b5b615c8b88828901614ff7565b925050608086013567ffffffffffffffff811115615cac57615cab614ceb565b5b615cb888828901615bac565b9150509295509295909350565b600080600080600060a08688031215615ce157615ce0614ce6565b5b6000615cef88828901614d39565b9550506020615d0088828901614d6f565b9450506040615d1188828901614d6f565b935050606086013567ffffffffffffffff811115615d3257615d31614ceb565b5b615d3e88828901614ff7565b925050608086013567ffffffffffffffff811115615d5f57615d5e614ceb565b5b615d6b88828901615a0c565b9150509295509295909350565b600069ffffffffffffffffffff82169050919050565b615d9781615d78565b82525050565b606082016000820151615db36000850182615d8e565b506020820151615dc66020850182615d8e565b506040820151615dd96040850182615d8e565b50505050565b6000606082019050615df46000830184615d9d565b92915050565b600080600080600060a08688031215615e1657615e15614ce6565b5b6000615e2488828901614d39565b9550506020615e3588828901614d39565b9450506040615e4688828901614d6f565b9350506060615e5788828901614d6f565b925050608086013567ffffffffffffffff811115615e7857615e77614ceb565b5b615e8488828901614ff7565b9150509295509295909350565b600080600060608486031215615eaa57615ea9614ce6565b5b6000615eb886828701614d39565b9350506020615ec986828701614d6f565b9250506040615eda86828701614d6f565b9150509250925092565b615eed816150b0565b82525050565b6000602082019050615f086000830184615ee4565b92915050565b7f4e487b7100000000000000000000000000000000000000000000000000000000600052602260045260246000fd5b60006002820490506001821680615f5557607f821691505b602082108103615f6857615f67615f0e565b5b50919050565b60008190508160005260206000209050919050565b60006020601f8301049050919050565b600082821b905092915050565b600060088302615fd07fffffffffffffffffffffffffffffffffffffffffffffffffffffffffffffffff82615f93565b615fda8683615f93565b95508019841693508086168417925050509392505050565b6000819050919050565b600061601761601261600d84614d4e565b615ff2565b614d4e565b9050919050565b6000819050919050565b61603183615ffc565b61604561603d8261601e565b848454615fa0565b825550505050565b600090565b61605a61604d565b616065818484616028565b505050565b5b818110156160895761607e600082616052565b60018101905061606b565b5050565b601f8211156160ce5761609f81615f6e565b6160a884615f83565b810160208510156160b7578190505b6160cb6160c385615f83565b83018261606a565b50505b505050565b600082821c905092915050565b60006160f1600019846008026160d3565b1980831691505092915050565b600061610a83836160e0565b9150826002028217905092915050565b61612382615795565b67ffffffffffffffff81111561613c5761613b614efa565b5b6161468254615f3d565b61615182828561608d565b600060209050601f8311600181146161845760008415616172578287015190505b61617c85826160fe565b8655506161e4565b601f19841661619286615f6e565b60005b828110156161ba57848901518255600182019150602085019450602081019050616195565b868310156161d757848901516161d3601f8916826160e0565b8355505b6001600288020188555050505b505050505050565b60006060820190506162016000830186615ee4565b61620e6020830185615786565b818103604083015261622081846157b1565b9050949350505050565b600060c08201905061623f6000830189615786565b61624c6020830188615786565b6162596040830187614dc4565b6162666060830186614dc4565b818103608083015261627881856157b1565b905081810360a083015261628c81846151d2565b9050979650505050505050565b7f4e487b7100000000000000000000000000000000000000000000000000000000600052602160045260246000fd5b600082825260208201905092915050565b60006162e482615795565b6162ee81856162c8565b93506162fe8185602086016151a8565b61630781614ee9565b840191505092915050565b600081519050919050565b600082825260208201905092915050565b6000819050602082019050919050565b61634781614d10565b82525050565b604082016000820151616363600085018261633e565b50602082015161637660208501826156a5565b50505050565b6000616388838361634d565b60408301905092915050565b6000602082019050919050565b60006163ac82616312565b6163b6818561631d565b93506163c18361632e565b8060005b838110156163f25781516163d9888261637c565b97506163e483616394565b9250506001810190506163c5565b5085935050505092915050565b600060a083016000830151848203600086015261641c82826162d9565b9150506020830151848203602086015261643682826162d9565b9150506040830151848203604086015261645082826163a1565b9150506060830151616465606086018261633e565b506080830151848203608086015261647d82826162d9565b9150508091505092915050565b600060408201905061649f6000830185615ee4565b81810360208301526164b181846163ff565b90509392505050565b6000815190506164c981614d58565b92915050565b6000602082840312156164e5576164e4614ce6565b5b60006164f3848285016164ba565b91505092915050565b60006040820190506165116000830185614dc4565b61651e6020830184614dc4565b9392505050565b600060408201905061653a6000830185615786565b6165476020830184614dc4565b9392505050565b60008151905061655d8161592d565b92915050565b60006020828403121561657957616578614ce6565b5b60006165878482850161654e565b91505092915050565b60008151905061659f81614eb3565b92915050565b6000602082840312156165bb576165ba614ce6565b5b60006165c984828501616590565b91505092915050565b600060e0820190506165e7600083018a615786565b6165f46020830189615786565b6166016040830188614dc4565b61660e6060830187614dc4565b818103608083015261662081866157b1565b905061662f60a0830185615ee4565b61663c60c0830184615ee4565b98975050505050505050565b600060408201905061665d6000830185615786565b61666a6020830184615786565b9392505050565b7f4e487b7100000000000000000000000000000000000000000000000000000000600052603260045260246000fd5b600081905092915050565b50565b60006166bb6000836166a0565b91506166c6826166ab565b600082019050919050565b60006166dc826166ae565b9150819050919050565b60006060820190506166fb6000830186615786565b6167086020830185615786565b6167156040830184614dc4565b949350505050565b7f4d7573742062652070726f706f736564206f776e657200000000000000000000600082015250565b6000616753601683615197565b915061675e8261671d565b602082019050919050565b6000602082019050818103600083015261678281616746565b9050919050565b600080fd5b600080fd5b600080fd5b600080833560016020038436030381126167b5576167b4616789565b5b80840192508235915067ffffffffffffffff8211156167d7576167d661678e565b5b6020830192506001820236038313156167f3576167f2616793565b5b509250929050565b600061680682614cf0565b9050919050565b616816816167fb565b811461682157600080fd5b50565b6000813590506168338161680d565b92915050565b60006020828403121561684f5761684e614ce6565b5b600061685d84828501616824565b91505092915050565b60008060008060008060c0878903121561688357616882614ce6565b5b600061689189828a01616824565b96505060206168a289828a01616824565b95505060406168b389828a01614d6f565b94505060606168c489828a01614d6f565b935050608087013567ffffffffffffffff8111156168e5576168e4614ceb565b5b6168f189828a01614ff7565b92505060a087013567ffffffffffffffff81111561691257616911614ceb565b5b61691e89828a01615a0c565b9150509295509295509295565b600061693e61693984615999565b614f5a565b90508281526020810184848401111561695a57616959614ee4565b5b6169658482856151a8565b509392505050565b600082601f83011261698257616981614edf565b5b815161699284826020860161692b565b91505092915050565b6000602082840312156169b1576169b0614ce6565b5b600082015167ffffffffffffffff8111156169cf576169ce614ceb565b5b6169db8482850161696d565b91505092915050565b60008190508160005260206000209050919050565b601f821115616a3a57616a0b816169e4565b616a1484615f83565b81016020851015616a23578190505b616a37616a2f85615f83565b83018261606a565b50505b505050565b616a488261518c565b67ffffffffffffffff811115616a6157616a60614efa565b5b616a6b8254615f3d565b616a768282856169f9565b600060209050601f831160018114616aa95760008415616a97578287015190505b616aa185826160fe565b865550616b09565b601f198416616ab7866169e4565b60005b82811015616adf57848901518255600182019150602085019450602081019050616aba565b86831015616afc5784890151616af8601f8916826160e0565b8355505b6001600288020188555050505b505050505050565b60008060008060808587031215616b2b57616b2a614ce6565b5b6000616b39878288016164ba565b9450506020616b4a878288016164ba565b9350506040616b5b878288016164ba565b9250506060616b6c878288016164ba565b91505092959194509250565b7f4f6e6c792063616c6c61626c65206279206f776e657200000000000000000000600082015250565b6000616bae601683615197565b9150616bb982616b78565b602082019050919050565b60006020820190508181036000830152616bdd81616ba1565b9050919050565b600061ffff82169050919050565b616bfb81616be4565b82525050565b616c0a81615a3a565b82525050565b600060a082019050616c256000830188615ee4565b8181036020830152616c3781876157b1565b9050616c466040830186616bf2565b616c536060830185616c01565b616c606080830184615310565b9695505050505050565b7f43616e6e6f74207472616e7366657220746f2073656c66000000000000000000600082015250565b6000616ca0601783615197565b9150616cab82616c6a565b602082019050919050565b60006020820190508181036000830152616ccf81616c93565b9050919050565b7f4e487b7100000000000000000000000000000000000000000000000000000000600052601160045260246000fd5b6000616d1082614d4e565b9150616d1b83614d4e565b9250828201905080821115616d3357616d32616cd6565b5b92915050565b6000616d4482614d4e565b9150616d4f83614d4e565b9250828203905081811115616d6757616d66616cd6565b5b92915050565b600060a082019050616d826000830188615786565b616d8f6020830187615786565b616d9c6040830186614dc4565b616da96060830185614dc4565b8181036080830152616dbb81846157b1565b90509695505050505050565b600081519050616dd681614e1a565b92915050565b600060208284031215616df257616df1614ce6565b5b6000616e0084828501616dc7565b91505092915050565b600060a082019050616e1e6000830188615786565b616e2b6020830187615786565b8181036040830152616e3d81866156d9565b90508181036060830152616e5181856156d9565b90508181036080830152616e6581846157b1565b90509695505050505050565b7f4e487b7100000000000000000000000000000000000000000000000000000000600052601260045260246000fd5b6000616eab82614d4e565b9150616eb683614d4e565b925082616ec657616ec5616e71565b5b828206905092915050565b6000616edc82614d4e565b9150616ee783614d4e565b9250828202616ef581614d4e565b91508282048414831517616f0c57616f0b616cd6565b5b5092915050565b6000608082019050616f286000830187615786565b616f356020830186614dc4565b616f426040830185614dc4565b616f4f6060830184614dc4565b95945050505050565b60006040820190508181036000830152616f7281856156d9565b90508181036020830152616f8681846156d9565b90509392505050565b6000616f9a82615795565b616fa481856166a0565b9350616fb48185602086016151a8565b80840191505092915050565b6000616fcc8284616f8f565b915081905092915050565b60008160011c9050919050565b6000808291508390505b600185111561702e5780860481111561700a57617009616cd6565b5b60018516156170195780820291505b808102905061702785616fd7565b9450616fee565b94509492505050565b6000826170475760019050617103565b816170555760009050617103565b816001811461706b5760028114617075576170a4565b6001915050617103565b60ff84111561708757617086616cd6565b5b8360020a91508482111561709e5761709d616cd6565b5b50617103565b5060208310610133831016604e8410600b84101617156170d95782820a9050838111156170d4576170d3616cd6565b5b617103565b6170e68484846001616fe4565b925090508184048111156170fd576170fc616cd6565b5b81810290505b9392505050565b600061711582614d4e565b915061712083614d4e565b925061714d7fffffffffffffffffffffffffffffffffffffffffffffffffffffffffffffffff8484617037565b90509291505056fea2646970667358221220b9933118ec3c95844fff8a26ecc21d64279305fd219ab41c94064ed3691717bc64736f6c63430008180033636f6e7374207b20657468657273207d203d20617761697420696d706f727428276e706d3a65746865727340362e31302e3027293b636f6e73742048617368203d20617761697420696d706f727428276e706d3a697066732d6f6e6c792d6861736840342e302e3027293b636f6e737420617069526573706f6e7365203d2061776169742046756e6374696f6e732e6d616b654874747052657175657374287b2020202075726c3a206068747470733a2f2f6170692e627269646765646174616f75747075742e636f6d2f6170692f76322f4f446174612f746573742f50726f70657274792827505f35646261316662393461613430353562396632393639366627293f6163636573735f746f6b656e3d3662616361353437373432633666393661366666373162313338343234663231602c7d293b636f6e7374207265616c45737461746541646472657373203d20617069526573706f6e73652e646174612e556e706172736564416464726573733b636f6e737420796561724275696c74203d204e756d62657228617069526573706f6e73652e646174612e596561724275696c74293b636f6e7374206c6f7453697a6553717561726546656574203d204e756d62657228617069526573706f6e73652e646174612e4c6f7453697a6553717561726546656574293b636f6e7374206c6976696e6741726561203d204e756d62657228617069526573706f6e73652e646174612e4c6976696e6741726561293b636f6e737420626564726f6f6d73546f74616c203d204e756d62657228617069526573706f6e73652e646174612e426564726f6f6d73546f74616c293b636f6e7374206d65746164617461203d207b6e616d653a20605265616c2045737461746520546f6b656e602c617474726962757465733a205b7b2074726169745f747970653a20607265616c45737461746541646472657373602c2076616c75653a207265616c45737461746541646472657373207d2c7b2074726169745f747970653a2060796561724275696c74602c2076616c75653a20796561724275696c74207d2c7b2074726169745f747970653a20606c6f7453697a6553717561726546656574602c2076616c75653a206c6f7453697a6553717561726546656574207d2c7b2074726169745f747970653a20606c6976696e6741726561602c2076616c75653a206c6976696e6741726561207d2c7b2074726169745f747970653a2060626564726f6f6d73546f74616c602c2076616c75653a20626564726f6f6d73546f74616c207d5d7d3b636f6e7374206d65746164617461537472696e67203d204a534f4e2e737472696e67696679286d65746164617461293b636f6e73742069706673436964203d20617761697420486173682e6f66286d65746164617461537472696e67293b72657475726e2046756e6374696f6e732e656e636f6465537472696e672860697066733a2f2f247b697066734369647d60293b636f6e7374207b20657468657273207d203d20617761697420696d706f727428276e706d3a65746865727340362e31302e3027293b636f6e737420616269436f646572203d206574686572732e416269436f6465722e64656661756c74416269436f64657228293b636f6e737420746f6b656e4964203d20617267735b305d3b636f6e737420617069526573706f6e7365203d2061776169742046756e6374696f6e732e6d616b654874747052657175657374287b2020202075726c3a206068747470733a2f2f6170692e627269646765646174616f75747075742e636f6d2f6170692f76322f4f446174612f746573742f50726f70657274792827505f35646261316662393461613430353562396632393639366627293f6163636573735f746f6b656e3d3662616361353437373432633666393661366666373162313338343234663231602c7d293b636f6e7374206c6973745072696365203d204e756d62657228617069526573706f6e73652e646174612e4c6973745072696365293b636f6e7374206f726967696e616c4c6973745072696365203d204e756d62657228617069526573706f6e73652e646174612e4f726967696e616c4c6973745072696365293b636f6e737420746178417373657373656456616c7565203d204e756d62657228617069526573706f6e73652e646174612e546178417373657373656456616c7565293b636f6e737420656e636f646564203d20616269436f6465722e656e636f6465285b6075696e74323536602c206075696e74323536602c206075696e74323536602c206075696e74323536605d2c205b746f6b656e49642c206c69737450726963652c206f726967696e616c4c69737450726963652c20746178417373657373656456616c75655d293b72657475726e206574686572732e676574427974657328656e636f646564293b",
			"opcodes": "PUSH2 0x100 PUSH1 0x40 MSTORE PUSH1 0x40 MLOAD DUP1 PUSH2 0x460 ADD PUSH1 0x40 MSTORE DUP1 PUSH2 0x43B DUP2 MSTORE PUSH1 0x20 ADD PUSH3 0x7CE4 PUSH2 0x43B SWAP2 CODECOPY PUSH1 0x5 SWAP1 DUP2 PUSH3 0x32 SWAP2 SWAP1 PUSH3 0x641 JUMP JUMPDEST POP PUSH1 0x40 MLOAD DUP1 PUSH2 0x2E0 ADD PUSH1 0x40 MSTORE DUP1 PUSH2 0x2B1 DUP2 MSTORE PUSH1 0x20 ADD PUSH3 0x811F PUSH2 0x2B1 SWAP2 CODECOPY PUSH1 0x6 SWAP1 DUP2 PUSH3 0x60 SWAP2 SWAP1 PUSH3 0x641 JUMP JUMPDEST POP CALLVALUE DUP1 ISZERO PUSH3 0x6E JUMPI PUSH1 0x0 DUP1 REVERT JUMPDEST POP PUSH1 0x40 MLOAD PUSH3 0x83D0 CODESIZE SUB DUP1 PUSH3 0x83D0 DUP4 CODECOPY DUP2 DUP2 ADD PUSH1 0x40 MSTORE DUP2 ADD SWAP1 PUSH3 0x94 SWAP2 SWAP1 PUSH3 0x936 JUMP JUMPDEST DUP1 DUP6 DUP6 DUP6 DUP6 DUP4 CALLER DUP1 PUSH1 0x0 DUP9 DUP5 PUSH3 0xB1 DUP2 PUSH3 0x281 PUSH1 0x20 SHL PUSH1 0x20 SHR JUMP JUMPDEST POP DUP1 PUSH20 0xFFFFFFFFFFFFFFFFFFFFFFFFFFFFFFFFFFFFFFFF AND PUSH1 0x80 DUP2 PUSH20 0xFFFFFFFFFFFFFFFFFFFFFFFFFFFFFFFFFFFFFFFF AND DUP2 MSTORE POP POP POP PUSH1 0x0 PUSH20 0xFFFFFFFFFFFFFFFFFFFFFFFFFFFFFFFFFFFFFFFF AND DUP3 PUSH20 0xFFFFFFFFFFFFFFFFFFFFFFFFFFFFFFFFFFFFFFFF AND SUB PUSH3 0x159 JUMPI PUSH1 0x40 MLOAD PUSH32 0x8C379A000000000000000000000000000000000000000000000000000000000 DUP2 MSTORE PUSH1 0x4 ADD PUSH3 0x150 SWAP1 PUSH3 0xA3E JUMP JUMPDEST PUSH1 0x40 MLOAD DUP1 SWAP2 SUB SWAP1 REVERT JUMPDEST DUP2 PUSH1 0x7 PUSH1 0x0 PUSH2 0x100 EXP DUP2 SLOAD DUP2 PUSH20 0xFFFFFFFFFFFFFFFFFFFFFFFFFFFFFFFFFFFFFFFF MUL NOT AND SWAP1 DUP4 PUSH20 0xFFFFFFFFFFFFFFFFFFFFFFFFFFFFFFFFFFFFFFFF AND MUL OR SWAP1 SSTORE POP PUSH1 0x0 PUSH20 0xFFFFFFFFFFFFFFFFFFFFFFFFFFFFFFFFFFFFFFFF AND DUP2 PUSH20 0xFFFFFFFFFFFFFFFFFFFFFFFFFFFFFFFFFFFFFFFF AND EQ PUSH3 0x1E1 JUMPI PUSH3 0x1E0 DUP2 PUSH3 0x296 PUSH1 0x20 SHL PUSH1 0x20 SHR JUMP JUMPDEST JUMPDEST POP POP POP POP PUSH1 0x1 PUSH1 0xB DUP2 SWAP1 SSTORE POP DUP3 PUSH20 0xFFFFFFFFFFFFFFFFFFFFFFFFFFFFFFFFFFFFFFFF AND PUSH1 0xA0 DUP2 PUSH20 0xFFFFFFFFFFFFFFFFFFFFFFFFFFFFFFFFFFFFFFFF AND DUP2 MSTORE POP POP DUP2 PUSH20 0xFFFFFFFFFFFFFFFFFFFFFFFFFFFFFFFFFFFFFFFF AND PUSH1 0xC0 DUP2 PUSH20 0xFFFFFFFFFFFFFFFFFFFFFFFFFFFFFFFFFFFFFFFF AND DUP2 MSTORE POP POP DUP1 PUSH8 0xFFFFFFFFFFFFFFFF AND PUSH1 0xE0 DUP2 PUSH8 0xFFFFFFFFFFFFFFFF AND DUP2 MSTORE POP POP POP POP POP POP POP POP POP POP POP POP PUSH3 0xAD2 JUMP JUMPDEST DUP1 PUSH1 0x2 SWAP1 DUP2 PUSH3 0x292 SWAP2 SWAP1 PUSH3 0x641 JUMP JUMPDEST POP POP JUMP JUMPDEST CALLER PUSH20 0xFFFFFFFFFFFFFFFFFFFFFFFFFFFFFFFFFFFFFFFF AND DUP2 PUSH20 0xFFFFFFFFFFFFFFFFFFFFFFFFFFFFFFFFFFFFFFFF AND SUB PUSH3 0x307 JUMPI PUSH1 0x40 MLOAD PUSH32 0x8C379A000000000000000000000000000000000000000000000000000000000 DUP2 MSTORE PUSH1 0x4 ADD PUSH3 0x2FE SWAP1 PUSH3 0xAB0 JUMP JUMPDEST PUSH1 0x40 MLOAD DUP1 SWAP2 SUB SWAP1 REVERT JUMPDEST DUP1 PUSH1 0x8 PUSH1 0x0 PUSH2 0x100 EXP DUP2 SLOAD DUP2 PUSH20 0xFFFFFFFFFFFFFFFFFFFFFFFFFFFFFFFFFFFFFFFF MUL NOT AND SWAP1 DUP4 PUSH20 0xFFFFFFFFFFFFFFFFFFFFFFFFFFFFFFFFFFFFFFFF AND MUL OR SWAP1 SSTORE POP DUP1 PUSH20 0xFFFFFFFFFFFFFFFFFFFFFFFFFFFFFFFFFFFFFFFF AND PUSH1 0x7 PUSH1 0x0 SWAP1 SLOAD SWAP1 PUSH2 0x100 EXP SWAP1 DIV PUSH20 0xFFFFFFFFFFFFFFFFFFFFFFFFFFFFFFFFFFFFFFFF AND PUSH20 0xFFFFFFFFFFFFFFFFFFFFFFFFFFFFFFFFFFFFFFFF AND PUSH32 0xED8889F560326EB138920D842192F0EB3DD22B4F139C87A2C57538E05BAE1278 PUSH1 0x40 MLOAD PUSH1 0x40 MLOAD DUP1 SWAP2 SUB SWAP1 LOG3 POP JUMP JUMPDEST PUSH1 0x0 DUP2 MLOAD SWAP1 POP SWAP2 SWAP1 POP JUMP JUMPDEST PUSH32 0x4E487B7100000000000000000000000000000000000000000000000000000000 PUSH1 0x0 MSTORE PUSH1 0x41 PUSH1 0x4 MSTORE PUSH1 0x24 PUSH1 0x0 REVERT JUMPDEST PUSH32 0x4E487B7100000000000000000000000000000000000000000000000000000000 PUSH1 0x0 MSTORE PUSH1 0x22 PUSH1 0x4 MSTORE PUSH1 0x24 PUSH1 0x0 REVERT JUMPDEST PUSH1 0x0 PUSH1 0x2 DUP3 DIV SWAP1 POP PUSH1 0x1 DUP3 AND DUP1 PUSH3 0x449 JUMPI PUSH1 0x7F DUP3 AND SWAP2 POP JUMPDEST PUSH1 0x20 DUP3 LT DUP2 SUB PUSH3 0x45F JUMPI PUSH3 0x45E PUSH3 0x401 JUMP JUMPDEST JUMPDEST POP SWAP2 SWAP1 POP JUMP JUMPDEST PUSH1 0x0 DUP2 SWAP1 POP DUP2 PUSH1 0x0 MSTORE PUSH1 0x20 PUSH1 0x0 KECCAK256 SWAP1 POP SWAP2 SWAP1 POP JUMP JUMPDEST PUSH1 0x0 PUSH1 0x20 PUSH1 0x1F DUP4 ADD DIV SWAP1 POP SWAP2 SWAP1 POP JUMP JUMPDEST PUSH1 0x0 DUP3 DUP3 SHL SWAP1 POP SWAP3 SWAP2 POP POP JUMP JUMPDEST PUSH1 0x0 PUSH1 0x8 DUP4 MUL PUSH3 0x4C9 PUSH32 0xFFFFFFFFFFFFFFFFFFFFFFFFFFFFFFFFFFFFFFFFFFFFFFFFFFFFFFFFFFFFFFFF DUP3 PUSH3 0x48A JUMP JUMPDEST PUSH3 0x4D5 DUP7 DUP4 PUSH3 0x48A JUMP JUMPDEST SWAP6 POP DUP1 NOT DUP5 AND SWAP4 POP DUP1 DUP7 AND DUP5 OR SWAP3 POP POP POP SWAP4 SWAP3 POP POP POP JUMP JUMPDEST PUSH1 0x0 DUP2 SWAP1 POP SWAP2 SWAP1 POP JUMP JUMPDEST PUSH1 0x0 DUP2 SWAP1 POP SWAP2 SWAP1 POP JUMP JUMPDEST PUSH1 0x0 PUSH3 0x522 PUSH3 0x51C PUSH3 0x516 DUP5 PUSH3 0x4ED JUMP JUMPDEST PUSH3 0x4F7 JUMP JUMPDEST PUSH3 0x4ED JUMP JUMPDEST SWAP1 POP SWAP2 SWAP1 POP JUMP JUMPDEST PUSH1 0x0 DUP2 SWAP1 POP SWAP2 SWAP1 POP JUMP JUMPDEST PUSH3 0x53E DUP4 PUSH3 0x501 JUMP JUMPDEST PUSH3 0x556 PUSH3 0x54D DUP3 PUSH3 0x529 JUMP JUMPDEST DUP5 DUP5 SLOAD PUSH3 0x497 JUMP JUMPDEST DUP3 SSTORE POP POP POP POP JUMP JUMPDEST PUSH1 0x0 SWAP1 JUMP JUMPDEST PUSH3 0x56D PUSH3 0x55E JUMP JUMPDEST PUSH3 0x57A DUP2 DUP5 DUP5 PUSH3 0x533 JUMP JUMPDEST POP POP POP JUMP JUMPDEST JUMPDEST DUP2 DUP2 LT ISZERO PUSH3 0x5A2 JUMPI PUSH3 0x596 PUSH1 0x0 DUP3 PUSH3 0x563 JUMP JUMPDEST PUSH1 0x1 DUP2 ADD SWAP1 POP PUSH3 0x580 JUMP JUMPDEST POP POP JUMP JUMPDEST PUSH1 0x1F DUP3 GT ISZERO PUSH3 0x5F1 JUMPI PUSH3 0x5BB DUP2 PUSH3 0x465 JUMP JUMPDEST PUSH3 0x5C6 DUP5 PUSH3 0x47A JUMP JUMPDEST DUP2 ADD PUSH1 0x20 DUP6 LT ISZERO PUSH3 0x5D6 JUMPI DUP2 SWAP1 POP JUMPDEST PUSH3 0x5EE PUSH3 0x5E5 DUP6 PUSH3 0x47A JUMP JUMPDEST DUP4 ADD DUP3 PUSH3 0x57F JUMP JUMPDEST POP POP JUMPDEST POP POP POP JUMP JUMPDEST PUSH1 0x0 DUP3 DUP3 SHR SWAP1 POP SWAP3 SWAP2 POP POP JUMP JUMPDEST PUSH1 0x0 PUSH3 0x616 PUSH1 0x0 NOT DUP5 PUSH1 0x8 MUL PUSH3 0x5F6 JUMP JUMPDEST NOT DUP1 DUP4 AND SWAP2 POP POP SWAP3 SWAP2 POP POP JUMP JUMPDEST PUSH1 0x0 PUSH3 0x631 DUP4 DUP4 PUSH3 0x603 JUMP JUMPDEST SWAP2 POP DUP3 PUSH1 0x2 MUL DUP3 OR SWAP1 POP SWAP3 SWAP2 POP POP JUMP JUMPDEST PUSH3 0x64C DUP3 PUSH3 0x3C7 JUMP JUMPDEST PUSH8 0xFFFFFFFFFFFFFFFF DUP2 GT ISZERO PUSH3 0x668 JUMPI PUSH3 0x667 PUSH3 0x3D2 JUMP JUMPDEST JUMPDEST PUSH3 0x674 DUP3 SLOAD PUSH3 0x430 JUMP JUMPDEST PUSH3 0x681 DUP3 DUP3 DUP6 PUSH3 0x5A6 JUMP JUMPDEST PUSH1 0x0 PUSH1 0x20 SWAP1 POP PUSH1 0x1F DUP4 GT PUSH1 0x1 DUP2 EQ PUSH3 0x6B9 JUMPI PUSH1 0x0 DUP5 ISZERO PUSH3 0x6A4 JUMPI DUP3 DUP8 ADD MLOAD SWAP1 POP JUMPDEST PUSH3 0x6B0 DUP6 DUP3 PUSH3 0x623 JUMP JUMPDEST DUP7 SSTORE POP PUSH3 0x720 JUMP JUMPDEST PUSH1 0x1F NOT DUP5 AND PUSH3 0x6C9 DUP7 PUSH3 0x465 JUMP JUMPDEST PUSH1 0x0 JUMPDEST DUP3 DUP2 LT ISZERO PUSH3 0x6F3 JUMPI DUP5 DUP10 ADD MLOAD DUP3 SSTORE PUSH1 0x1 DUP3 ADD SWAP2 POP PUSH1 0x20 DUP6 ADD SWAP5 POP PUSH1 0x20 DUP2 ADD SWAP1 POP PUSH3 0x6CC JUMP JUMPDEST DUP7 DUP4 LT ISZERO PUSH3 0x713 JUMPI DUP5 DUP10 ADD MLOAD PUSH3 0x70F PUSH1 0x1F DUP10 AND DUP3 PUSH3 0x603 JUMP JUMPDEST DUP4 SSTORE POP JUMPDEST PUSH1 0x1 PUSH1 0x2 DUP9 MUL ADD DUP9 SSTORE POP POP POP JUMPDEST POP POP POP POP POP POP JUMP JUMPDEST PUSH1 0x0 PUSH1 0x40 MLOAD SWAP1 POP SWAP1 JUMP JUMPDEST PUSH1 0x0 DUP1 REVERT JUMPDEST PUSH1 0x0 DUP1 REVERT JUMPDEST PUSH1 0x0 DUP1 REVERT JUMPDEST PUSH1 0x0 DUP1 REVERT JUMPDEST PUSH1 0x0 PUSH1 0x1F NOT PUSH1 0x1F DUP4 ADD AND SWAP1 POP SWAP2 SWAP1 POP JUMP JUMPDEST PUSH3 0x762 DUP3 PUSH3 0x746 JUMP JUMPDEST DUP2 ADD DUP2 DUP2 LT PUSH8 0xFFFFFFFFFFFFFFFF DUP3 GT OR ISZERO PUSH3 0x784 JUMPI PUSH3 0x783 PUSH3 0x3D2 JUMP JUMPDEST JUMPDEST DUP1 PUSH1 0x40 MSTORE POP POP POP JUMP JUMPDEST PUSH1 0x0 PUSH3 0x799 PUSH3 0x728 JUMP JUMPDEST SWAP1 POP PUSH3 0x7A7 DUP3 DUP3 PUSH3 0x757 JUMP JUMPDEST SWAP2 SWAP1 POP JUMP JUMPDEST PUSH1 0x0 PUSH8 0xFFFFFFFFFFFFFFFF DUP3 GT ISZERO PUSH3 0x7CA JUMPI PUSH3 0x7C9 PUSH3 0x3D2 JUMP JUMPDEST JUMPDEST PUSH3 0x7D5 DUP3 PUSH3 0x746 JUMP JUMPDEST SWAP1 POP PUSH1 0x20 DUP2 ADD SWAP1 POP SWAP2 SWAP1 POP JUMP JUMPDEST PUSH1 0x0 JUMPDEST DUP4 DUP2 LT ISZERO PUSH3 0x802 JUMPI DUP1 DUP3 ADD MLOAD DUP2 DUP5 ADD MSTORE PUSH1 0x20 DUP2 ADD SWAP1 POP PUSH3 0x7E5 JUMP JUMPDEST PUSH1 0x0 DUP5 DUP5 ADD MSTORE POP POP POP POP JUMP JUMPDEST PUSH1 0x0 PUSH3 0x825 PUSH3 0x81F DUP5 PUSH3 0x7AC JUMP JUMPDEST PUSH3 0x78D JUMP JUMPDEST SWAP1 POP DUP3 DUP2 MSTORE PUSH1 0x20 DUP2 ADD DUP5 DUP5 DUP5 ADD GT ISZERO PUSH3 0x844 JUMPI PUSH3 0x843 PUSH3 0x741 JUMP JUMPDEST JUMPDEST PUSH3 0x851 DUP5 DUP3 DUP6 PUSH3 0x7E2 JUMP JUMPDEST POP SWAP4 SWAP3 POP POP POP JUMP JUMPDEST PUSH1 0x0 DUP3 PUSH1 0x1F DUP4 ADD SLT PUSH3 0x871 JUMPI PUSH3 0x870 PUSH3 0x73C JUMP JUMPDEST JUMPDEST DUP2 MLOAD PUSH3 0x883 DUP5 DUP3 PUSH1 0x20 DUP7 ADD PUSH3 0x80E JUMP JUMPDEST SWAP2 POP POP SWAP3 SWAP2 POP POP JUMP JUMPDEST PUSH1 0x0 PUSH20 0xFFFFFFFFFFFFFFFFFFFFFFFFFFFFFFFFFFFFFFFF DUP3 AND SWAP1 POP SWAP2 SWAP1 POP JUMP JUMPDEST PUSH1 0x0 PUSH3 0x8B9 DUP3 PUSH3 0x88C JUMP JUMPDEST SWAP1 POP SWAP2 SWAP1 POP JUMP JUMPDEST PUSH3 0x8CB DUP2 PUSH3 0x8AC JUMP JUMPDEST DUP2 EQ PUSH3 0x8D7 JUMPI PUSH1 0x0 DUP1 REVERT JUMPDEST POP JUMP JUMPDEST PUSH1 0x0 DUP2 MLOAD SWAP1 POP PUSH3 0x8EB DUP2 PUSH3 0x8C0 JUMP JUMPDEST SWAP3 SWAP2 POP POP JUMP JUMPDEST PUSH1 0x0 PUSH8 0xFFFFFFFFFFFFFFFF DUP3 AND SWAP1 POP SWAP2 SWAP1 POP JUMP JUMPDEST PUSH3 0x910 DUP2 PUSH3 0x8F1 JUMP JUMPDEST DUP2 EQ PUSH3 0x91C JUMPI PUSH1 0x0 DUP1 REVERT JUMPDEST POP JUMP JUMPDEST PUSH1 0x0 DUP2 MLOAD SWAP1 POP PUSH3 0x930 DUP2 PUSH3 0x905 JUMP JUMPDEST SWAP3 SWAP2 POP POP JUMP JUMPDEST PUSH1 0x0 DUP1 PUSH1 0x0 DUP1 PUSH1 0x0 PUSH1 0xA0 DUP7 DUP9 SUB SLT ISZERO PUSH3 0x955 JUMPI PUSH3 0x954 PUSH3 0x732 JUMP JUMPDEST JUMPDEST PUSH1 0x0 DUP7 ADD MLOAD PUSH8 0xFFFFFFFFFFFFFFFF DUP2 GT ISZERO PUSH3 0x976 JUMPI PUSH3 0x975 PUSH3 0x737 JUMP JUMPDEST JUMPDEST PUSH3 0x984 DUP9 DUP3 DUP10 ADD PUSH3 0x859 JUMP JUMPDEST SWAP6 POP POP PUSH1 0x20 PUSH3 0x997 DUP9 DUP3 DUP10 ADD PUSH3 0x8DA JUMP JUMPDEST SWAP5 POP POP PUSH1 0x40 PUSH3 0x9AA DUP9 DUP3 DUP10 ADD PUSH3 0x8DA JUMP JUMPDEST SWAP4 POP POP PUSH1 0x60 PUSH3 0x9BD DUP9 DUP3 DUP10 ADD PUSH3 0x91F JUMP JUMPDEST SWAP3 POP POP PUSH1 0x80 PUSH3 0x9D0 DUP9 DUP3 DUP10 ADD PUSH3 0x8DA JUMP JUMPDEST SWAP2 POP POP SWAP3 SWAP6 POP SWAP3 SWAP6 SWAP1 SWAP4 POP JUMP JUMPDEST PUSH1 0x0 DUP3 DUP3 MSTORE PUSH1 0x20 DUP3 ADD SWAP1 POP SWAP3 SWAP2 POP POP JUMP JUMPDEST PUSH32 0x43616E6E6F7420736574206F776E657220746F207A65726F0000000000000000 PUSH1 0x0 DUP3 ADD MSTORE POP JUMP JUMPDEST PUSH1 0x0 PUSH3 0xA26 PUSH1 0x18 DUP4 PUSH3 0x9DD JUMP JUMPDEST SWAP2 POP PUSH3 0xA33 DUP3 PUSH3 0x9EE JUMP JUMPDEST PUSH1 0x20 DUP3 ADD SWAP1 POP SWAP2 SWAP1 POP JUMP JUMPDEST PUSH1 0x0 PUSH1 0x20 DUP3 ADD SWAP1 POP DUP2 DUP2 SUB PUSH1 0x0 DUP4 ADD MSTORE PUSH3 0xA59 DUP2 PUSH3 0xA17 JUMP JUMPDEST SWAP1 POP SWAP2 SWAP1 POP JUMP JUMPDEST PUSH32 0x43616E6E6F74207472616E7366657220746F2073656C66000000000000000000 PUSH1 0x0 DUP3 ADD MSTORE POP JUMP JUMPDEST PUSH1 0x0 PUSH3 0xA98 PUSH1 0x17 DUP4 PUSH3 0x9DD JUMP JUMPDEST SWAP2 POP PUSH3 0xAA5 DUP3 PUSH3 0xA60 JUMP JUMPDEST PUSH1 0x20 DUP3 ADD SWAP1 POP SWAP2 SWAP1 POP JUMP JUMPDEST PUSH1 0x0 PUSH1 0x20 DUP3 ADD SWAP1 POP DUP2 DUP2 SUB PUSH1 0x0 DUP4 ADD MSTORE PUSH3 0xACB DUP2 PUSH3 0xA89 JUMP JUMPDEST SWAP1 POP SWAP2 SWAP1 POP JUMP JUMPDEST PUSH1 0x80 MLOAD PUSH1 0xA0 MLOAD PUSH1 0xC0 MLOAD PUSH1 0xE0 MLOAD PUSH2 0x718B PUSH3 0xB59 PUSH1 0x0 CODECOPY PUSH1 0x0 DUP2 DUP2 PUSH2 0x7E8 ADD MSTORE DUP2 DUP2 PUSH2 0x11E1 ADD MSTORE DUP2 DUP2 PUSH2 0x13D6 ADD MSTORE PUSH2 0x1E3C ADD MSTORE PUSH1 0x0 DUP2 DUP2 PUSH2 0xC35 ADD MSTORE DUP2 DUP2 PUSH2 0xDF5 ADD MSTORE DUP2 DUP2 PUSH2 0xE96 ADD MSTORE PUSH2 0xF6E ADD MSTORE PUSH1 0x0 DUP2 DUP2 PUSH2 0xD2C ADD MSTORE DUP2 DUP2 PUSH2 0xFAA ADD MSTORE DUP2 DUP2 PUSH2 0x102D ADD MSTORE DUP2 DUP2 PUSH2 0x1119 ADD MSTORE PUSH2 0x1B6F ADD MSTORE PUSH1 0x0 DUP2 DUP2 PUSH2 0x71D ADD MSTORE PUSH2 0x3407 ADD MSTORE PUSH2 0x718B PUSH1 0x0 RETURN INVALID PUSH1 0x80 PUSH1 0x40 MSTORE CALLVALUE DUP1 ISZERO PUSH2 0x10 JUMPI PUSH1 0x0 DUP1 REVERT JUMPDEST POP PUSH1 0x4 CALLDATASIZE LT PUSH2 0x1EF JUMPI PUSH1 0x0 CALLDATALOAD PUSH1 0xE0 SHR DUP1 PUSH4 0x79BA5097 GT PUSH2 0x10F JUMPI DUP1 PUSH4 0xC1341C4F GT PUSH2 0xA2 JUMPI DUP1 PUSH4 0xF0ED2E80 GT PUSH2 0x71 JUMPI DUP1 PUSH4 0xF0ED2E80 EQ PUSH2 0x5C3 JUMPI DUP1 PUSH4 0xF242432A EQ PUSH2 0x5F3 JUMPI DUP1 PUSH4 0xF2FDE38B EQ PUSH2 0x60F JUMPI DUP1 PUSH4 0xF5298ACA EQ PUSH2 0x62B JUMPI PUSH2 0x1EF JUMP JUMPDEST DUP1 PUSH4 0xC1341C4F EQ PUSH2 0x53D JUMPI DUP1 PUSH4 0xD40D17BC EQ PUSH2 0x559 JUMPI DUP1 PUSH4 0xE6B46FF5 EQ PUSH2 0x575 JUMPI DUP1 PUSH4 0xE985E9C5 EQ PUSH2 0x593 JUMPI PUSH2 0x1EF JUMP JUMPDEST DUP1 PUSH4 0xA843A0AB GT PUSH2 0xDE JUMPI DUP1 PUSH4 0xA843A0AB EQ PUSH2 0x4A3 JUMPI DUP1 PUSH4 0xB942F8CB EQ PUSH2 0x4D3 JUMPI DUP1 PUSH4 0xBD85B039 EQ PUSH2 0x4EF JUMPI DUP1 PUSH4 0xBD9A548B EQ PUSH2 0x51F JUMPI PUSH2 0x1EF JUMP JUMPDEST DUP1 PUSH4 0x79BA5097 EQ PUSH2 0x443 JUMPI DUP1 PUSH4 0x85572FFB EQ PUSH2 0x44D JUMPI DUP1 PUSH4 0x8DA5CB5B EQ PUSH2 0x469 JUMPI DUP1 PUSH4 0xA22CB465 EQ PUSH2 0x487 JUMPI PUSH2 0x1EF JUMP JUMPDEST DUP1 PUSH4 0x3AEAC4E1 GT PUSH2 0x187 JUMPI DUP1 PUSH4 0x51CFF8D9 GT PUSH2 0x156 JUMPI DUP1 PUSH4 0x51CFF8D9 EQ PUSH2 0x3BE JUMPI DUP1 PUSH4 0x55CC4E57 EQ PUSH2 0x3DA JUMPI DUP1 PUSH4 0x5DC5EBDB EQ PUSH2 0x3F6 JUMPI DUP1 PUSH4 0x6B20C454 EQ PUSH2 0x427 JUMPI PUSH2 0x1EF JUMP JUMPDEST DUP1 PUSH4 0x3AEAC4E1 EQ PUSH2 0x326 JUMPI DUP1 PUSH4 0x41EADE46 EQ PUSH2 0x342 JUMPI DUP1 PUSH4 0x4E1273F4 EQ PUSH2 0x35E JUMPI DUP1 PUSH4 0x4F558E79 EQ PUSH2 0x38E JUMPI PUSH2 0x1EF JUMP JUMPDEST DUP1 PUSH4 0xE89341C GT PUSH2 0x1C3 JUMPI DUP1 PUSH4 0xE89341C EQ PUSH2 0x28C JUMPI DUP1 PUSH4 0x18160DDD EQ PUSH2 0x2BC JUMPI DUP1 PUSH4 0x240B3B49 EQ PUSH2 0x2DA JUMPI DUP1 PUSH4 0x2EB2C2D6 EQ PUSH2 0x30A JUMPI PUSH2 0x1EF JUMP JUMPDEST DUP1 PUSH3 0xFDD58E EQ PUSH2 0x1F4 JUMPI DUP1 PUSH4 0x1FFC9A7 EQ PUSH2 0x224 JUMPI DUP1 PUSH4 0xCA76175 EQ PUSH2 0x254 JUMPI DUP1 PUSH4 0xCE639C4 EQ PUSH2 0x270 JUMPI JUMPDEST PUSH1 0x0 DUP1 REVERT JUMPDEST PUSH2 0x20E PUSH1 0x4 DUP1 CALLDATASIZE SUB DUP2 ADD SWAP1 PUSH2 0x209 SWAP2 SWAP1 PUSH2 0x4D84 JUMP JUMPDEST PUSH2 0x647 JUMP JUMPDEST PUSH1 0x40 MLOAD PUSH2 0x21B SWAP2 SWAP1 PUSH2 0x4DD3 JUMP JUMPDEST PUSH1 0x40 MLOAD DUP1 SWAP2 SUB SWAP1 RETURN JUMPDEST PUSH2 0x23E PUSH1 0x4 DUP1 CALLDATASIZE SUB DUP2 ADD SWAP1 PUSH2 0x239 SWAP2 SWAP1 PUSH2 0x4E46 JUMP JUMPDEST PUSH2 0x6A1 JUMP JUMPDEST PUSH1 0x40 MLOAD PUSH2 0x24B SWAP2 SWAP1 PUSH2 0x4E8E JUMP JUMPDEST PUSH1 0x40 MLOAD DUP1 SWAP2 SUB SWAP1 RETURN JUMPDEST PUSH2 0x26E PUSH1 0x4 DUP1 CALLDATASIZE SUB DUP2 ADD SWAP1 PUSH2 0x269 SWAP2 SWAP1 PUSH2 0x5025 JUMP JUMPDEST PUSH2 0x71B JUMP JUMPDEST STOP JUMPDEST PUSH2 0x28A PUSH1 0x4 DUP1 CALLDATASIZE SUB DUP2 ADD SWAP1 PUSH2 0x285 SWAP2 SWAP1 PUSH2 0x50F0 JUMP JUMPDEST PUSH2 0x7DD JUMP JUMPDEST STOP JUMPDEST PUSH2 0x2A6 PUSH1 0x4 DUP1 CALLDATASIZE SUB DUP2 ADD SWAP1 PUSH2 0x2A1 SWAP2 SWAP1 PUSH2 0x515F JUMP JUMPDEST PUSH2 0x951 JUMP JUMPDEST PUSH1 0x40 MLOAD PUSH2 0x2B3 SWAP2 SWAP1 PUSH2 0x520B JUMP JUMPDEST PUSH1 0x40 MLOAD DUP1 SWAP2 SUB SWAP1 RETURN JUMPDEST PUSH2 0x2C4 PUSH2 0xA14 JUMP JUMPDEST PUSH1 0x40 MLOAD PUSH2 0x2D1 SWAP2 SWAP1 PUSH2 0x4DD3 JUMP JUMPDEST PUSH1 0x40 MLOAD DUP1 SWAP2 SUB SWAP1 RETURN JUMPDEST PUSH2 0x2F4 PUSH1 0x4 DUP1 CALLDATASIZE SUB DUP2 ADD SWAP1 PUSH2 0x2EF SWAP2 SWAP1 PUSH2 0x5252 JUMP JUMPDEST PUSH2 0xA1E JUMP JUMPDEST PUSH1 0x40 MLOAD PUSH2 0x301 SWAP2 SWAP1 PUSH2 0x531F JUMP JUMPDEST PUSH1 0x40 MLOAD DUP1 SWAP2 SUB SWAP1 RETURN JUMPDEST PUSH2 0x324 PUSH1 0x4 DUP1 CALLDATASIZE SUB DUP2 ADD SWAP1 PUSH2 0x31F SWAP2 SWAP1 PUSH2 0x5402 JUMP JUMPDEST PUSH2 0x1233 JUMP JUMPDEST STOP JUMPDEST PUSH2 0x340 PUSH1 0x4 DUP1 CALLDATASIZE SUB DUP2 ADD SWAP1 PUSH2 0x33B SWAP2 SWAP1 PUSH2 0x54D1 JUMP JUMPDEST PUSH2 0x12DB JUMP JUMPDEST STOP JUMPDEST PUSH2 0x35C PUSH1 0x4 DUP1 CALLDATASIZE SUB DUP2 ADD SWAP1 PUSH2 0x357 SWAP2 SWAP1 PUSH2 0x5511 JUMP JUMPDEST PUSH2 0x13CB JUMP JUMPDEST STOP JUMPDEST PUSH2 0x378 PUSH1 0x4 DUP1 CALLDATASIZE SUB DUP2 ADD SWAP1 PUSH2 0x373 SWAP2 SWAP1 PUSH2 0x5601 JUMP JUMPDEST PUSH2 0x14E8 JUMP JUMPDEST PUSH1 0x40 MLOAD PUSH2 0x385 SWAP2 SWAP1 PUSH2 0x5737 JUMP JUMPDEST PUSH1 0x40 MLOAD DUP1 SWAP2 SUB SWAP1 RETURN JUMPDEST PUSH2 0x3A8 PUSH1 0x4 DUP1 CALLDATASIZE SUB DUP2 ADD SWAP1 PUSH2 0x3A3 SWAP2 SWAP1 PUSH2 0x515F JUMP JUMPDEST PUSH2 0x15F1 JUMP JUMPDEST PUSH1 0x40 MLOAD PUSH2 0x3B5 SWAP2 SWAP1 PUSH2 0x4E8E JUMP JUMPDEST PUSH1 0x40 MLOAD DUP1 SWAP2 SUB SWAP1 RETURN JUMPDEST PUSH2 0x3D8 PUSH1 0x4 DUP1 CALLDATASIZE SUB DUP2 ADD SWAP1 PUSH2 0x3D3 SWAP2 SWAP1 PUSH2 0x5759 JUMP JUMPDEST PUSH2 0x1605 JUMP JUMPDEST STOP JUMPDEST PUSH2 0x3F4 PUSH1 0x4 DUP1 CALLDATASIZE SUB DUP2 ADD SWAP1 PUSH2 0x3EF SWAP2 SWAP1 PUSH2 0x5759 JUMP JUMPDEST PUSH2 0x1703 JUMP JUMPDEST STOP JUMPDEST PUSH2 0x410 PUSH1 0x4 DUP1 CALLDATASIZE SUB DUP2 ADD SWAP1 PUSH2 0x40B SWAP2 SWAP1 PUSH2 0x5511 JUMP JUMPDEST PUSH2 0x1792 JUMP JUMPDEST PUSH1 0x40 MLOAD PUSH2 0x41E SWAP3 SWAP2 SWAP1 PUSH2 0x57EA JUMP JUMPDEST PUSH1 0x40 MLOAD DUP1 SWAP2 SUB SWAP1 RETURN JUMPDEST PUSH2 0x441 PUSH1 0x4 DUP1 CALLDATASIZE SUB DUP2 ADD SWAP1 PUSH2 0x43C SWAP2 SWAP1 PUSH2 0x581A JUMP JUMPDEST PUSH2 0x185E JUMP JUMPDEST STOP JUMPDEST PUSH2 0x44B PUSH2 0x19D6 JUMP JUMPDEST STOP JUMPDEST PUSH2 0x467 PUSH1 0x4 DUP1 CALLDATASIZE SUB DUP2 ADD SWAP1 PUSH2 0x462 SWAP2 SWAP1 PUSH2 0x58C9 JUMP JUMPDEST PUSH2 0x1B6D JUMP JUMPDEST STOP JUMPDEST PUSH2 0x471 PUSH2 0x1E8B JUMP JUMPDEST PUSH1 0x40 MLOAD PUSH2 0x47E SWAP2 SWAP1 PUSH2 0x5912 JUMP JUMPDEST PUSH1 0x40 MLOAD DUP1 SWAP2 SUB SWAP1 RETURN JUMPDEST PUSH2 0x4A1 PUSH1 0x4 DUP1 CALLDATASIZE SUB DUP2 ADD SWAP1 PUSH2 0x49C SWAP2 SWAP1 PUSH2 0x5959 JUMP JUMPDEST PUSH2 0x1EB5 JUMP JUMPDEST STOP JUMPDEST PUSH2 0x4BD PUSH1 0x4 DUP1 CALLDATASIZE SUB DUP2 ADD SWAP1 PUSH2 0x4B8 SWAP2 SWAP1 PUSH2 0x5A76 JUMP JUMPDEST PUSH2 0x1ECB JUMP JUMPDEST PUSH1 0x40 MLOAD PUSH2 0x4CA SWAP2 SWAP1 PUSH2 0x531F JUMP JUMPDEST PUSH1 0x40 MLOAD DUP1 SWAP2 SUB SWAP1 RETURN JUMPDEST PUSH2 0x4ED PUSH1 0x4 DUP1 CALLDATASIZE SUB DUP2 ADD SWAP1 PUSH2 0x4E8 SWAP2 SWAP1 PUSH2 0x5BDA JUMP JUMPDEST PUSH2 0x20C9 JUMP JUMPDEST STOP JUMPDEST PUSH2 0x509 PUSH1 0x4 DUP1 CALLDATASIZE SUB DUP2 ADD SWAP1 PUSH2 0x504 SWAP2 SWAP1 PUSH2 0x515F JUMP JUMPDEST PUSH2 0x2215 JUMP JUMPDEST PUSH1 0x40 MLOAD PUSH2 0x516 SWAP2 SWAP1 PUSH2 0x4DD3 JUMP JUMPDEST PUSH1 0x40 MLOAD DUP1 SWAP2 SUB SWAP1 RETURN JUMPDEST PUSH2 0x527 PUSH2 0x2232 JUMP JUMPDEST PUSH1 0x40 MLOAD PUSH2 0x534 SWAP2 SWAP1 PUSH2 0x520B JUMP JUMPDEST PUSH1 0x40 MLOAD DUP1 SWAP2 SUB SWAP1 RETURN JUMPDEST PUSH2 0x557 PUSH1 0x4 DUP1 CALLDATASIZE SUB DUP2 ADD SWAP1 PUSH2 0x552 SWAP2 SWAP1 PUSH2 0x5CC5 JUMP JUMPDEST PUSH2 0x22C0 JUMP JUMPDEST STOP JUMPDEST PUSH2 0x573 PUSH1 0x4 DUP1 CALLDATASIZE SUB DUP2 ADD SWAP1 PUSH2 0x56E SWAP2 SWAP1 PUSH2 0x5759 JUMP JUMPDEST PUSH2 0x23C0 JUMP JUMPDEST STOP JUMPDEST PUSH2 0x57D PUSH2 0x240C JUMP JUMPDEST PUSH1 0x40 MLOAD PUSH2 0x58A SWAP2 SWAP1 PUSH2 0x520B JUMP JUMPDEST PUSH1 0x40 MLOAD DUP1 SWAP2 SUB SWAP1 RETURN JUMPDEST PUSH2 0x5AD PUSH1 0x4 DUP1 CALLDATASIZE SUB DUP2 ADD SWAP1 PUSH2 0x5A8 SWAP2 SWAP1 PUSH2 0x54D1 JUMP JUMPDEST PUSH2 0x249A JUMP JUMPDEST PUSH1 0x40 MLOAD PUSH2 0x5BA SWAP2 SWAP1 PUSH2 0x4E8E JUMP JUMPDEST PUSH1 0x40 MLOAD DUP1 SWAP2 SUB SWAP1 RETURN JUMPDEST PUSH2 0x5DD PUSH1 0x4 DUP1 CALLDATASIZE SUB DUP2 ADD SWAP1 PUSH2 0x5D8 SWAP2 SWAP1 PUSH2 0x515F JUMP JUMPDEST PUSH2 0x252E JUMP JUMPDEST PUSH1 0x40 MLOAD PUSH2 0x5EA SWAP2 SWAP1 PUSH2 0x5DDF JUMP JUMPDEST PUSH1 0x40 MLOAD DUP1 SWAP2 SUB SWAP1 RETURN JUMPDEST PUSH2 0x60D PUSH1 0x4 DUP1 CALLDATASIZE SUB DUP2 ADD SWAP1 PUSH2 0x608 SWAP2 SWAP1 PUSH2 0x5DFA JUMP JUMPDEST PUSH2 0x2603 JUMP JUMPDEST STOP JUMPDEST PUSH2 0x629 PUSH1 0x4 DUP1 CALLDATASIZE SUB DUP2 ADD SWAP1 PUSH2 0x624 SWAP2 SWAP1 PUSH2 0x5759 JUMP JUMPDEST PUSH2 0x26AB JUMP JUMPDEST STOP JUMPDEST PUSH2 0x645 PUSH1 0x4 DUP1 CALLDATASIZE SUB DUP2 ADD SWAP1 PUSH2 0x640 SWAP2 SWAP1 PUSH2 0x5E91 JUMP JUMPDEST PUSH2 0x26BF JUMP JUMPDEST STOP JUMPDEST PUSH1 0x0 DUP1 PUSH1 0x0 DUP4 DUP2 MSTORE PUSH1 0x20 ADD SWAP1 DUP2 MSTORE PUSH1 0x20 ADD PUSH1 0x0 KECCAK256 PUSH1 0x0 DUP5 PUSH20 0xFFFFFFFFFFFFFFFFFFFFFFFFFFFFFFFFFFFFFFFF AND PUSH20 0xFFFFFFFFFFFFFFFFFFFFFFFFFFFFFFFFFFFFFFFF AND DUP2 MSTORE PUSH1 0x20 ADD SWAP1 DUP2 MSTORE PUSH1 0x20 ADD PUSH1 0x0 KECCAK256 SLOAD SWAP1 POP SWAP3 SWAP2 POP POP JUMP JUMPDEST PUSH1 0x0 PUSH32 0x85572FFB00000000000000000000000000000000000000000000000000000000 PUSH28 0xFFFFFFFFFFFFFFFFFFFFFFFFFFFFFFFFFFFFFFFFFFFFFFFFFFFFFFFF NOT AND DUP3 PUSH28 0xFFFFFFFFFFFFFFFFFFFFFFFFFFFFFFFFFFFFFFFFFFFFFFFFFFFFFFFF NOT AND EQ DUP1 PUSH2 0x714 JUMPI POP PUSH2 0x713 DUP3 PUSH2 0x2837 JUMP JUMPDEST JUMPDEST SWAP1 POP SWAP2 SWAP1 POP JUMP JUMPDEST PUSH32 0x0 PUSH20 0xFFFFFFFFFFFFFFFFFFFFFFFFFFFFFFFFFFFFFFFF AND CALLER PUSH20 0xFFFFFFFFFFFFFFFFFFFFFFFFFFFFFFFFFFFFFFFF AND EQ PUSH2 0x7A0 JUMPI PUSH1 0x40 MLOAD PUSH32 0xC6829F8300000000000000000000000000000000000000000000000000000000 DUP2 MSTORE PUSH1 0x4 ADD PUSH1 0x40 MLOAD DUP1 SWAP2 SUB SWAP1 REVERT JUMPDEST PUSH2 0x7AB DUP4 DUP4 DUP4 PUSH2 0x2919 JUMP JUMPDEST DUP3 PUSH32 0x85E1543BF2F84FE80C6BADBCE3648C8539AD1DF4D2B3D822938CA0538BE727E6 PUSH1 0x40 MLOAD PUSH1 0x40 MLOAD DUP1 SWAP2 SUB SWAP1 LOG2 POP POP POP JUMP JUMPDEST PUSH2 0x7E5 PUSH2 0x2A78 JUMP JUMPDEST DUP3 PUSH32 0x0 PUSH8 0xFFFFFFFFFFFFFFFF AND DUP2 PUSH8 0xFFFFFFFFFFFFFFFF AND SUB PUSH2 0x85E JUMPI DUP1 PUSH1 0x40 MLOAD PUSH32 0x40D8E3A100000000000000000000000000000000000000000000000000000000 DUP2 MSTORE PUSH1 0x4 ADD PUSH2 0x855 SWAP2 SWAP1 PUSH2 0x5EF3 JUMP JUMPDEST PUSH1 0x40 MLOAD DUP1 SWAP2 SUB SWAP1 REVERT JUMPDEST PUSH1 0x40 MLOAD DUP1 PUSH1 0x40 ADD PUSH1 0x40 MSTORE DUP1 DUP5 PUSH20 0xFFFFFFFFFFFFFFFFFFFFFFFFFFFFFFFFFFFFFFFF AND DUP2 MSTORE PUSH1 0x20 ADD DUP4 DUP2 MSTORE POP PUSH1 0xC PUSH1 0x0 DUP7 PUSH8 0xFFFFFFFFFFFFFFFF AND PUSH8 0xFFFFFFFFFFFFFFFF AND DUP2 MSTORE PUSH1 0x20 ADD SWAP1 DUP2 MSTORE PUSH1 0x20 ADD PUSH1 0x0 KECCAK256 PUSH1 0x0 DUP3 ADD MLOAD DUP2 PUSH1 0x0 ADD PUSH1 0x0 PUSH2 0x100 EXP DUP2 SLOAD DUP2 PUSH20 0xFFFFFFFFFFFFFFFFFFFFFFFFFFFFFFFFFFFFFFFF MUL NOT AND SWAP1 DUP4 PUSH20 0xFFFFFFFFFFFFFFFFFFFFFFFFFFFFFFFFFFFFFFFF AND MUL OR SWAP1 SSTORE POP PUSH1 0x20 DUP3 ADD MLOAD DUP2 PUSH1 0x1 ADD SWAP1 DUP2 PUSH2 0x90C SWAP2 SWAP1 PUSH2 0x611A JUMP JUMPDEST POP SWAP1 POP POP PUSH32 0x59CC0B49D3359AC35E3872E99199469B6A1025C9A945CD9B6A411BFFE337272D DUP5 DUP5 DUP5 PUSH1 0x40 MLOAD PUSH2 0x943 SWAP4 SWAP3 SWAP2 SWAP1 PUSH2 0x61EC JUMP JUMPDEST PUSH1 0x40 MLOAD DUP1 SWAP2 SUB SWAP1 LOG1 POP POP POP POP JUMP JUMPDEST PUSH1 0x60 PUSH1 0x0 PUSH1 0xA PUSH1 0x0 DUP5 DUP2 MSTORE PUSH1 0x20 ADD SWAP1 DUP2 MSTORE PUSH1 0x20 ADD PUSH1 0x0 KECCAK256 DUP1 SLOAD PUSH2 0x973 SWAP1 PUSH2 0x5F3D JUMP JUMPDEST DUP1 PUSH1 0x1F ADD PUSH1 0x20 DUP1 SWAP2 DIV MUL PUSH1 0x20 ADD PUSH1 0x40 MLOAD SWAP1 DUP2 ADD PUSH1 0x40 MSTORE DUP1 SWAP3 SWAP2 SWAP1 DUP2 DUP2 MSTORE PUSH1 0x20 ADD DUP3 DUP1 SLOAD PUSH2 0x99F SWAP1 PUSH2 0x5F3D JUMP JUMPDEST DUP1 ISZERO PUSH2 0x9EC JUMPI DUP1 PUSH1 0x1F LT PUSH2 0x9C1 JUMPI PUSH2 0x100 DUP1 DUP4 SLOAD DIV MUL DUP4 MSTORE SWAP2 PUSH1 0x20 ADD SWAP2 PUSH2 0x9EC JUMP JUMPDEST DUP3 ADD SWAP2 SWAP1 PUSH1 0x0 MSTORE PUSH1 0x20 PUSH1 0x0 KECCAK256 SWAP1 JUMPDEST DUP2 SLOAD DUP2 MSTORE SWAP1 PUSH1 0x1 ADD SWAP1 PUSH1 0x20 ADD DUP1 DUP4 GT PUSH2 0x9CF JUMPI DUP3 SWAP1 SUB PUSH1 0x1F AND DUP3 ADD SWAP2 JUMPDEST POP POP POP POP POP SWAP1 POP PUSH1 0x0 DUP2 MLOAD GT PUSH2 0xA0A JUMPI PUSH2 0xA05 DUP4 PUSH2 0x2B0A JUMP JUMPDEST PUSH2 0xA0C JUMP JUMPDEST DUP1 JUMPDEST SWAP2 POP POP SWAP2 SWAP1 POP JUMP JUMPDEST PUSH1 0x0 PUSH1 0x4 SLOAD SWAP1 POP SWAP1 JUMP JUMPDEST PUSH1 0x0 PUSH2 0xA28 PUSH2 0x2B9E JUMP JUMPDEST DUP3 PUSH1 0x0 PUSH20 0xFFFFFFFFFFFFFFFFFFFFFFFFFFFFFFFFFFFFFFFF AND PUSH1 0xC PUSH1 0x0 DUP4 PUSH8 0xFFFFFFFFFFFFFFFF AND PUSH8 0xFFFFFFFFFFFFFFFF AND DUP2 MSTORE PUSH1 0x20 ADD SWAP1 DUP2 MSTORE PUSH1 0x20 ADD PUSH1 0x0 KECCAK256 PUSH1 0x0 ADD PUSH1 0x0 SWAP1 SLOAD SWAP1 PUSH2 0x100 EXP SWAP1 DIV PUSH20 0xFFFFFFFFFFFFFFFFFFFFFFFFFFFFFFFFFFFFFFFF AND PUSH20 0xFFFFFFFFFFFFFFFFFFFFFFFFFFFFFFFFFFFFFFFF AND SUB PUSH2 0xAE4 JUMPI DUP1 PUSH1 0x40 MLOAD PUSH32 0x1C33FBEE00000000000000000000000000000000000000000000000000000000 DUP2 MSTORE PUSH1 0x4 ADD PUSH2 0xADB SWAP2 SWAP1 PUSH2 0x5EF3 JUMP JUMPDEST PUSH1 0x40 MLOAD DUP1 SWAP2 SUB SWAP1 REVERT JUMPDEST PUSH1 0x0 PUSH2 0xAEF DUP9 PUSH2 0x951 JUMP JUMPDEST SWAP1 POP PUSH2 0xAFC DUP11 DUP10 DUP10 PUSH2 0x26BF JUMP JUMPDEST PUSH1 0x0 PUSH1 0x40 MLOAD DUP1 PUSH1 0xA0 ADD PUSH1 0x40 MSTORE DUP1 PUSH1 0xC PUSH1 0x0 DUP10 PUSH8 0xFFFFFFFFFFFFFFFF AND PUSH8 0xFFFFFFFFFFFFFFFF AND DUP2 MSTORE PUSH1 0x20 ADD SWAP1 DUP2 MSTORE PUSH1 0x20 ADD PUSH1 0x0 KECCAK256 PUSH1 0x0 ADD PUSH1 0x0 SWAP1 SLOAD SWAP1 PUSH2 0x100 EXP SWAP1 DIV PUSH20 0xFFFFFFFFFFFFFFFFFFFFFFFFFFFFFFFFFFFFFFFF AND PUSH1 0x40 MLOAD PUSH1 0x20 ADD PUSH2 0xB64 SWAP2 SWAP1 PUSH2 0x5912 JUMP JUMPDEST PUSH1 0x40 MLOAD PUSH1 0x20 DUP2 DUP4 SUB SUB DUP2 MSTORE SWAP1 PUSH1 0x40 MSTORE DUP2 MSTORE PUSH1 0x20 ADD DUP13 DUP13 DUP13 DUP13 DUP13 DUP9 PUSH1 0x40 MLOAD PUSH1 0x20 ADD PUSH2 0xB93 SWAP7 SWAP6 SWAP5 SWAP4 SWAP3 SWAP2 SWAP1 PUSH2 0x622A JUMP JUMPDEST PUSH1 0x40 MLOAD PUSH1 0x20 DUP2 DUP4 SUB SUB DUP2 MSTORE SWAP1 PUSH1 0x40 MSTORE DUP2 MSTORE PUSH1 0x20 ADD PUSH1 0x0 PUSH8 0xFFFFFFFFFFFFFFFF DUP2 GT ISZERO PUSH2 0xBC2 JUMPI PUSH2 0xBC1 PUSH2 0x4EFA JUMP JUMPDEST JUMPDEST PUSH1 0x40 MLOAD SWAP1 DUP1 DUP3 MSTORE DUP1 PUSH1 0x20 MUL PUSH1 0x20 ADD DUP3 ADD PUSH1 0x40 MSTORE DUP1 ISZERO PUSH2 0xBFB JUMPI DUP2 PUSH1 0x20 ADD JUMPDEST PUSH2 0xBE8 PUSH2 0x4B5E JUMP JUMPDEST DUP2 MSTORE PUSH1 0x20 ADD SWAP1 PUSH1 0x1 SWAP1 SUB SWAP1 DUP2 PUSH2 0xBE0 JUMPI SWAP1 POP JUMPDEST POP DUP2 MSTORE PUSH1 0x20 ADD PUSH1 0x1 DUP1 DUP2 GT ISZERO PUSH2 0xC14 JUMPI PUSH2 0xC13 PUSH2 0x6299 JUMP JUMPDEST JUMPDEST DUP8 PUSH1 0x1 DUP2 GT ISZERO PUSH2 0xC27 JUMPI PUSH2 0xC26 PUSH2 0x6299 JUMP JUMPDEST JUMPDEST EQ PUSH2 0xC33 JUMPI PUSH1 0x0 PUSH2 0xC55 JUMP JUMPDEST PUSH32 0x0 JUMPDEST PUSH20 0xFFFFFFFFFFFFFFFFFFFFFFFFFFFFFFFFFFFFFFFF AND DUP2 MSTORE PUSH1 0x20 ADD PUSH1 0xC PUSH1 0x0 DUP10 PUSH8 0xFFFFFFFFFFFFFFFF AND PUSH8 0xFFFFFFFFFFFFFFFF AND DUP2 MSTORE PUSH1 0x20 ADD SWAP1 DUP2 MSTORE PUSH1 0x20 ADD PUSH1 0x0 KECCAK256 PUSH1 0x1 ADD DUP1 SLOAD PUSH2 0xCA5 SWAP1 PUSH2 0x5F3D JUMP JUMPDEST DUP1 PUSH1 0x1F ADD PUSH1 0x20 DUP1 SWAP2 DIV MUL PUSH1 0x20 ADD PUSH1 0x40 MLOAD SWAP1 DUP2 ADD PUSH1 0x40 MSTORE DUP1 SWAP3 SWAP2 SWAP1 DUP2 DUP2 MSTORE PUSH1 0x20 ADD DUP3 DUP1 SLOAD PUSH2 0xCD1 SWAP1 PUSH2 0x5F3D JUMP JUMPDEST DUP1 ISZERO PUSH2 0xD1E JUMPI DUP1 PUSH1 0x1F LT PUSH2 0xCF3 JUMPI PUSH2 0x100 DUP1 DUP4 SLOAD DIV MUL DUP4 MSTORE SWAP2 PUSH1 0x20 ADD SWAP2 PUSH2 0xD1E JUMP JUMPDEST DUP3 ADD SWAP2 SWAP1 PUSH1 0x0 MSTORE PUSH1 0x20 PUSH1 0x0 KECCAK256 SWAP1 JUMPDEST DUP2 SLOAD DUP2 MSTORE SWAP1 PUSH1 0x1 ADD SWAP1 PUSH1 0x20 ADD DUP1 DUP4 GT PUSH2 0xD01 JUMPI DUP3 SWAP1 SUB PUSH1 0x1F AND DUP3 ADD SWAP2 JUMPDEST POP POP POP POP POP DUP2 MSTORE POP SWAP1 POP PUSH1 0x0 PUSH32 0x0 PUSH20 0xFFFFFFFFFFFFFFFFFFFFFFFFFFFFFFFFFFFFFFFF AND PUSH4 0x20487DED DUP9 DUP5 PUSH1 0x40 MLOAD DUP4 PUSH4 0xFFFFFFFF AND PUSH1 0xE0 SHL DUP2 MSTORE PUSH1 0x4 ADD PUSH2 0xD85 SWAP3 SWAP2 SWAP1 PUSH2 0x648A JUMP JUMPDEST PUSH1 0x20 PUSH1 0x40 MLOAD DUP1 DUP4 SUB DUP2 DUP7 GAS STATICCALL ISZERO DUP1 ISZERO PUSH2 0xDA2 JUMPI RETURNDATASIZE PUSH1 0x0 DUP1 RETURNDATACOPY RETURNDATASIZE PUSH1 0x0 REVERT JUMPDEST POP POP POP POP PUSH1 0x40 MLOAD RETURNDATASIZE PUSH1 0x1F NOT PUSH1 0x1F DUP3 ADD AND DUP3 ADD DUP1 PUSH1 0x40 MSTORE POP DUP2 ADD SWAP1 PUSH2 0xDC6 SWAP2 SWAP1 PUSH2 0x64CF JUMP JUMPDEST SWAP1 POP PUSH1 0x1 DUP1 DUP2 GT ISZERO PUSH2 0xDDB JUMPI PUSH2 0xDDA PUSH2 0x6299 JUMP JUMPDEST JUMPDEST DUP7 PUSH1 0x1 DUP2 GT ISZERO PUSH2 0xDEE JUMPI PUSH2 0xDED PUSH2 0x6299 JUMP JUMPDEST JUMPDEST SUB PUSH2 0x10D0 JUMPI PUSH32 0x0 PUSH20 0xFFFFFFFFFFFFFFFFFFFFFFFFFFFFFFFFFFFFFFFF AND PUSH4 0x70A08231 ADDRESS PUSH1 0x40 MLOAD DUP3 PUSH4 0xFFFFFFFF AND PUSH1 0xE0 SHL DUP2 MSTORE PUSH1 0x4 ADD PUSH2 0xE4C SWAP2 SWAP1 PUSH2 0x5912 JUMP JUMPDEST PUSH1 0x20 PUSH1 0x40 MLOAD DUP1 DUP4 SUB DUP2 DUP7 GAS STATICCALL ISZERO DUP1 ISZERO PUSH2 0xE69 JUMPI RETURNDATASIZE PUSH1 0x0 DUP1 RETURNDATACOPY RETURNDATASIZE PUSH1 0x0 REVERT JUMPDEST POP POP POP POP PUSH1 0x40 MLOAD RETURNDATASIZE PUSH1 0x1F NOT PUSH1 0x1F DUP3 ADD AND DUP3 ADD DUP1 PUSH1 0x40 MSTORE POP DUP2 ADD SWAP1 PUSH2 0xE8D SWAP2 SWAP1 PUSH2 0x64CF JUMP JUMPDEST DUP2 GT ISZERO PUSH2 0xF6C JUMPI PUSH32 0x0 PUSH20 0xFFFFFFFFFFFFFFFFFFFFFFFFFFFFFFFFFFFFFFFF AND PUSH4 0x70A08231 ADDRESS PUSH1 0x40 MLOAD DUP3 PUSH4 0xFFFFFFFF AND PUSH1 0xE0 SHL DUP2 MSTORE PUSH1 0x4 ADD PUSH2 0xEED SWAP2 SWAP1 PUSH2 0x5912 JUMP JUMPDEST PUSH1 0x20 PUSH1 0x40 MLOAD DUP1 DUP4 SUB DUP2 DUP7 GAS STATICCALL ISZERO DUP1 ISZERO PUSH2 0xF0A JUMPI RETURNDATASIZE PUSH1 0x0 DUP1 RETURNDATACOPY RETURNDATASIZE PUSH1 0x0 REVERT JUMPDEST POP POP POP POP PUSH1 0x40 MLOAD RETURNDATASIZE PUSH1 0x1F NOT PUSH1 0x1F DUP3 ADD AND DUP3 ADD DUP1 PUSH1 0x40 MSTORE POP DUP2 ADD SWAP1 PUSH2 0xF2E SWAP2 SWAP1 PUSH2 0x64CF JUMP JUMPDEST DUP2 PUSH1 0x40 MLOAD PUSH32 0x28FDCAA100000000000000000000000000000000000000000000000000000000 DUP2 MSTORE PUSH1 0x4 ADD PUSH2 0xF63 SWAP3 SWAP2 SWAP1 PUSH2 0x64FC JUMP JUMPDEST PUSH1 0x40 MLOAD DUP1 SWAP2 SUB SWAP1 REVERT JUMPDEST PUSH32 0x0 PUSH20 0xFFFFFFFFFFFFFFFFFFFFFFFFFFFFFFFFFFFFFFFF AND PUSH4 0x95EA7B3 PUSH32 0x0 DUP4 PUSH1 0x40 MLOAD DUP4 PUSH4 0xFFFFFFFF AND PUSH1 0xE0 SHL DUP2 MSTORE PUSH1 0x4 ADD PUSH2 0xFE7 SWAP3 SWAP2 SWAP1 PUSH2 0x6525 JUMP JUMPDEST PUSH1 0x20 PUSH1 0x40 MLOAD DUP1 DUP4 SUB DUP2 PUSH1 0x0 DUP8 GAS CALL ISZERO DUP1 ISZERO PUSH2 0x1006 JUMPI RETURNDATASIZE PUSH1 0x0 DUP1 RETURNDATACOPY RETURNDATASIZE PUSH1 0x0 REVERT JUMPDEST POP POP POP POP PUSH1 0x40 MLOAD RETURNDATASIZE PUSH1 0x1F NOT PUSH1 0x1F DUP3 ADD AND DUP3 ADD DUP1 PUSH1 0x40 MSTORE POP DUP2 ADD SWAP1 PUSH2 0x102A SWAP2 SWAP1 PUSH2 0x6563 JUMP JUMPDEST POP PUSH32 0x0 PUSH20 0xFFFFFFFFFFFFFFFFFFFFFFFFFFFFFFFFFFFFFFFF AND PUSH4 0x96F4E9F9 DUP9 DUP5 PUSH1 0x40 MLOAD DUP4 PUSH4 0xFFFFFFFF AND PUSH1 0xE0 SHL DUP2 MSTORE PUSH1 0x4 ADD PUSH2 0x1086 SWAP3 SWAP2 SWAP1 PUSH2 0x648A JUMP JUMPDEST PUSH1 0x20 PUSH1 0x40 MLOAD DUP1 DUP4 SUB DUP2 PUSH1 0x0 DUP8 GAS CALL ISZERO DUP1 ISZERO PUSH2 0x10A5 JUMPI RETURNDATASIZE PUSH1 0x0 DUP1 RETURNDATACOPY RETURNDATASIZE PUSH1 0x0 REVERT JUMPDEST POP POP POP POP PUSH1 0x40 MLOAD RETURNDATASIZE PUSH1 0x1F NOT PUSH1 0x1F DUP3 ADD AND DUP3 ADD DUP1 PUSH1 0x40 MSTORE POP DUP2 ADD SWAP1 PUSH2 0x10C9 SWAP2 SWAP1 PUSH2 0x65A5 JUMP JUMPDEST SWAP5 POP PUSH2 0x11B9 JUMP JUMPDEST SELFBALANCE DUP2 GT ISZERO PUSH2 0x1117 JUMPI SELFBALANCE DUP2 PUSH1 0x40 MLOAD PUSH32 0x28FDCAA100000000000000000000000000000000000000000000000000000000 DUP2 MSTORE PUSH1 0x4 ADD PUSH2 0x110E SWAP3 SWAP2 SWAP1 PUSH2 0x64FC JUMP JUMPDEST PUSH1 0x40 MLOAD DUP1 SWAP2 SUB SWAP1 REVERT JUMPDEST PUSH32 0x0 PUSH20 0xFFFFFFFFFFFFFFFFFFFFFFFFFFFFFFFFFFFFFFFF AND PUSH4 0x96F4E9F9 DUP3 DUP10 DUP6 PUSH1 0x40 MLOAD DUP5 PUSH4 0xFFFFFFFF AND PUSH1 0xE0 SHL DUP2 MSTORE PUSH1 0x4 ADD PUSH2 0x1173 SWAP3 SWAP2 SWAP1 PUSH2 0x648A JUMP JUMPDEST PUSH1 0x20 PUSH1 0x40 MLOAD DUP1 DUP4 SUB DUP2 DUP6 DUP9 GAS CALL ISZERO DUP1 ISZERO PUSH2 0x1191 JUMPI RETURNDATASIZE PUSH1 0x0 DUP1 RETURNDATACOPY RETURNDATASIZE PUSH1 0x0 REVERT JUMPDEST POP POP POP POP POP PUSH1 0x40 MLOAD RETURNDATASIZE PUSH1 0x1F NOT PUSH1 0x1F DUP3 ADD AND DUP3 ADD DUP1 PUSH1 0x40 MSTORE POP DUP2 ADD SWAP1 PUSH2 0x11B6 SWAP2 SWAP1 PUSH2 0x65A5 JUMP JUMPDEST SWAP5 POP JUMPDEST PUSH32 0x300E6C20D2E9D8DB9B2DF40EBCE943D9DAE3FA3A8EAEC841A3D1CB9A1E8B6AD7 DUP13 DUP13 DUP13 DUP13 DUP13 PUSH32 0x0 DUP14 PUSH1 0x40 MLOAD PUSH2 0x1214 SWAP8 SWAP7 SWAP6 SWAP5 SWAP4 SWAP3 SWAP2 SWAP1 PUSH2 0x65D2 JUMP JUMPDEST PUSH1 0x40 MLOAD DUP1 SWAP2 SUB SWAP1 LOG1 POP POP POP POP PUSH2 0x1228 PUSH2 0x2BE4 JUMP JUMPDEST SWAP8 SWAP7 POP POP POP POP POP POP POP JUMP JUMPDEST PUSH1 0x0 PUSH2 0x123D PUSH2 0x2BEE JUMP JUMPDEST SWAP1 POP DUP1 PUSH20 0xFFFFFFFFFFFFFFFFFFFFFFFFFFFFFFFFFFFFFFFF AND DUP7 PUSH20 0xFFFFFFFFFFFFFFFFFFFFFFFFFFFFFFFFFFFFFFFF AND EQ ISZERO DUP1 ISZERO PUSH2 0x1282 JUMPI POP PUSH2 0x1280 DUP7 DUP3 PUSH2 0x249A JUMP JUMPDEST ISZERO JUMPDEST ISZERO PUSH2 0x12C6 JUMPI DUP1 DUP7 PUSH1 0x40 MLOAD PUSH32 0xE237D92200000000000000000000000000000000000000000000000000000000 DUP2 MSTORE PUSH1 0x4 ADD PUSH2 0x12BD SWAP3 SWAP2 SWAP1 PUSH2 0x6648 JUMP JUMPDEST PUSH1 0x40 MLOAD DUP1 SWAP2 SUB SWAP1 REVERT JUMPDEST PUSH2 0x12D3 DUP7 DUP7 DUP7 DUP7 DUP7 PUSH2 0x2BF6 JUMP JUMPDEST POP POP POP POP POP POP JUMP JUMPDEST PUSH2 0x12E3 PUSH2 0x2A78 JUMP JUMPDEST PUSH1 0x0 DUP2 PUSH20 0xFFFFFFFFFFFFFFFFFFFFFFFFFFFFFFFFFFFFFFFF AND PUSH4 0x70A08231 ADDRESS PUSH1 0x40 MLOAD DUP3 PUSH4 0xFFFFFFFF AND PUSH1 0xE0 SHL DUP2 MSTORE PUSH1 0x4 ADD PUSH2 0x131E SWAP2 SWAP1 PUSH2 0x5912 JUMP JUMPDEST PUSH1 0x20 PUSH1 0x40 MLOAD DUP1 DUP4 SUB DUP2 DUP7 GAS STATICCALL ISZERO DUP1 ISZERO PUSH2 0x133B JUMPI RETURNDATASIZE PUSH1 0x0 DUP1 RETURNDATACOPY RETURNDATASIZE PUSH1 0x0 REVERT JUMPDEST POP POP POP POP PUSH1 0x40 MLOAD RETURNDATASIZE PUSH1 0x1F NOT PUSH1 0x1F DUP3 ADD AND DUP3 ADD DUP1 PUSH1 0x40 MSTORE POP DUP2 ADD SWAP1 PUSH2 0x135F SWAP2 SWAP1 PUSH2 0x64CF JUMP JUMPDEST SWAP1 POP PUSH1 0x0 DUP2 SUB PUSH2 0x139B JUMPI PUSH1 0x40 MLOAD PUSH32 0xD0D04F6000000000000000000000000000000000000000000000000000000000 DUP2 MSTORE PUSH1 0x4 ADD PUSH1 0x40 MLOAD DUP1 SWAP2 SUB SWAP1 REVERT JUMPDEST PUSH2 0x13C6 DUP4 DUP3 DUP5 PUSH20 0xFFFFFFFFFFFFFFFFFFFFFFFFFFFFFFFFFFFFFFFF AND PUSH2 0x2CEE SWAP1 SWAP3 SWAP2 SWAP1 PUSH4 0xFFFFFFFF AND JUMP JUMPDEST POP POP POP JUMP JUMPDEST PUSH2 0x13D3 PUSH2 0x2A78 JUMP JUMPDEST DUP1 PUSH32 0x0 PUSH8 0xFFFFFFFFFFFFFFFF AND DUP2 PUSH8 0xFFFFFFFFFFFFFFFF AND SUB PUSH2 0x144C JUMPI DUP1 PUSH1 0x40 MLOAD PUSH32 0x40D8E3A100000000000000000000000000000000000000000000000000000000 DUP2 MSTORE PUSH1 0x4 ADD PUSH2 0x1443 SWAP2 SWAP1 PUSH2 0x5EF3 JUMP JUMPDEST PUSH1 0x40 MLOAD DUP1 SWAP2 SUB SWAP1 REVERT JUMPDEST PUSH1 0xC PUSH1 0x0 DUP4 PUSH8 0xFFFFFFFFFFFFFFFF AND PUSH8 0xFFFFFFFFFFFFFFFF AND DUP2 MSTORE PUSH1 0x20 ADD SWAP1 DUP2 MSTORE PUSH1 0x20 ADD PUSH1 0x0 KECCAK256 PUSH1 0x0 DUP1 DUP3 ADD PUSH1 0x0 PUSH2 0x100 EXP DUP2 SLOAD SWAP1 PUSH20 0xFFFFFFFFFFFFFFFFFFFFFFFFFFFFFFFFFFFFFFFF MUL NOT AND SWAP1 SSTORE PUSH1 0x1 DUP3 ADD PUSH1 0x0 PUSH2 0x14AB SWAP2 SWAP1 PUSH2 0x4B8E JUMP JUMPDEST POP POP PUSH32 0x67E02000179A6045F4DB8FB1B09F01E170B0347E0B698FC5112CE4D798EF19F6 DUP3 PUSH1 0x40 MLOAD PUSH2 0x14DC SWAP2 SWAP1 PUSH2 0x5EF3 JUMP JUMPDEST PUSH1 0x40 MLOAD DUP1 SWAP2 SUB SWAP1 LOG1 POP POP JUMP JUMPDEST PUSH1 0x60 DUP2 MLOAD DUP4 MLOAD EQ PUSH2 0x1534 JUMPI DUP2 MLOAD DUP4 MLOAD PUSH1 0x40 MLOAD PUSH32 0x5B05999100000000000000000000000000000000000000000000000000000000 DUP2 MSTORE PUSH1 0x4 ADD PUSH2 0x152B SWAP3 SWAP2 SWAP1 PUSH2 0x64FC JUMP JUMPDEST PUSH1 0x40 MLOAD DUP1 SWAP2 SUB SWAP1 REVERT JUMPDEST PUSH1 0x0 DUP4 MLOAD PUSH8 0xFFFFFFFFFFFFFFFF DUP2 GT ISZERO PUSH2 0x1551 JUMPI PUSH2 0x1550 PUSH2 0x4EFA JUMP JUMPDEST JUMPDEST PUSH1 0x40 MLOAD SWAP1 DUP1 DUP3 MSTORE DUP1 PUSH1 0x20 MUL PUSH1 0x20 ADD DUP3 ADD PUSH1 0x40 MSTORE DUP1 ISZERO PUSH2 0x157F JUMPI DUP2 PUSH1 0x20 ADD PUSH1 0x20 DUP3 MUL DUP1 CALLDATASIZE DUP4 CALLDATACOPY DUP1 DUP3 ADD SWAP2 POP POP SWAP1 POP JUMPDEST POP SWAP1 POP PUSH1 0x0 JUMPDEST DUP5 MLOAD DUP2 LT ISZERO PUSH2 0x15E6 JUMPI PUSH2 0x15BC PUSH2 0x15A4 DUP3 DUP8 PUSH2 0x2D6D SWAP1 SWAP2 SWAP1 PUSH4 0xFFFFFFFF AND JUMP JUMPDEST PUSH2 0x15B7 DUP4 DUP8 PUSH2 0x2D81 SWAP1 SWAP2 SWAP1 PUSH4 0xFFFFFFFF AND JUMP JUMPDEST PUSH2 0x647 JUMP JUMPDEST DUP3 DUP3 DUP2 MLOAD DUP2 LT PUSH2 0x15CF JUMPI PUSH2 0x15CE PUSH2 0x6671 JUMP JUMPDEST JUMPDEST PUSH1 0x20 MUL PUSH1 0x20 ADD ADD DUP2 DUP2 MSTORE POP POP DUP1 PUSH1 0x1 ADD SWAP1 POP PUSH2 0x1585 JUMP JUMPDEST POP DUP1 SWAP2 POP POP SWAP3 SWAP2 POP POP JUMP JUMPDEST PUSH1 0x0 DUP1 PUSH2 0x15FD DUP4 PUSH2 0x2215 JUMP JUMPDEST GT SWAP1 POP SWAP2 SWAP1 POP JUMP JUMPDEST PUSH2 0x160D PUSH2 0x2A78 JUMP JUMPDEST PUSH1 0x0 SELFBALANCE SWAP1 POP PUSH1 0x0 DUP2 SUB PUSH2 0x164C JUMPI PUSH1 0x40 MLOAD PUSH32 0xD0D04F6000000000000000000000000000000000000000000000000000000000 DUP2 MSTORE PUSH1 0x4 ADD PUSH1 0x40 MLOAD DUP1 SWAP2 SUB SWAP1 REVERT JUMPDEST PUSH1 0x0 DUP3 PUSH20 0xFFFFFFFFFFFFFFFFFFFFFFFFFFFFFFFFFFFFFFFF AND DUP3 PUSH1 0x40 MLOAD PUSH2 0x1672 SWAP1 PUSH2 0x66D1 JUMP JUMPDEST PUSH1 0x0 PUSH1 0x40 MLOAD DUP1 DUP4 SUB DUP2 DUP6 DUP8 GAS CALL SWAP3 POP POP POP RETURNDATASIZE DUP1 PUSH1 0x0 DUP2 EQ PUSH2 0x16AF JUMPI PUSH1 0x40 MLOAD SWAP2 POP PUSH1 0x1F NOT PUSH1 0x3F RETURNDATASIZE ADD AND DUP3 ADD PUSH1 0x40 MSTORE RETURNDATASIZE DUP3 MSTORE RETURNDATASIZE PUSH1 0x0 PUSH1 0x20 DUP5 ADD RETURNDATACOPY PUSH2 0x16B4 JUMP JUMPDEST PUSH1 0x60 SWAP2 POP JUMPDEST POP POP SWAP1 POP DUP1 PUSH2 0x16FE JUMPI CALLER DUP4 DUP4 PUSH1 0x40 MLOAD PUSH32 0x9D11F56300000000000000000000000000000000000000000000000000000000 DUP2 MSTORE PUSH1 0x4 ADD PUSH2 0x16F5 SWAP4 SWAP3 SWAP2 SWAP1 PUSH2 0x66E6 JUMP JUMPDEST PUSH1 0x40 MLOAD DUP1 SWAP2 SUB SWAP1 REVERT JUMPDEST POP POP POP JUMP JUMPDEST PUSH2 0x170B PUSH2 0x2A78 JUMP JUMPDEST DUP1 PUSH1 0x9 PUSH1 0x0 PUSH2 0x100 EXP DUP2 SLOAD DUP2 PUSH20 0xFFFFFFFFFFFFFFFFFFFFFFFFFFFFFFFFFFFFFFFF MUL NOT AND SWAP1 DUP4 PUSH20 0xFFFFFFFFFFFFFFFFFFFFFFFFFFFFFFFFFFFFFFFF AND MUL OR SWAP1 SSTORE POP DUP1 PUSH20 0xFFFFFFFFFFFFFFFFFFFFFFFFFFFFFFFFFFFFFFFF AND PUSH32 0xD56ED7B1C1110348B1FBF418469F6FC4ACC32D9B675E9E1E448CC19169A64CA0 PUSH1 0x40 MLOAD PUSH1 0x40 MLOAD DUP1 SWAP2 SUB SWAP1 LOG2 POP JUMP JUMPDEST PUSH1 0xC PUSH1 0x20 MSTORE DUP1 PUSH1 0x0 MSTORE PUSH1 0x40 PUSH1 0x0 KECCAK256 PUSH1 0x0 SWAP2 POP SWAP1 POP DUP1 PUSH1 0x0 ADD PUSH1 0x0 SWAP1 SLOAD SWAP1 PUSH2 0x100 EXP SWAP1 DIV PUSH20 0xFFFFFFFFFFFFFFFFFFFFFFFFFFFFFFFFFFFFFFFF AND SWAP1 DUP1 PUSH1 0x1 ADD DUP1 SLOAD PUSH2 0x17DB SWAP1 PUSH2 0x5F3D JUMP JUMPDEST DUP1 PUSH1 0x1F ADD PUSH1 0x20 DUP1 SWAP2 DIV MUL PUSH1 0x20 ADD PUSH1 0x40 MLOAD SWAP1 DUP2 ADD PUSH1 0x40 MSTORE DUP1 SWAP3 SWAP2 SWAP1 DUP2 DUP2 MSTORE PUSH1 0x20 ADD DUP3 DUP1 SLOAD PUSH2 0x1807 SWAP1 PUSH2 0x5F3D JUMP JUMPDEST DUP1 ISZERO PUSH2 0x1854 JUMPI DUP1 PUSH1 0x1F LT PUSH2 0x1829 JUMPI PUSH2 0x100 DUP1 DUP4 SLOAD DIV MUL DUP4 MSTORE SWAP2 PUSH1 0x20 ADD SWAP2 PUSH2 0x1854 JUMP JUMPDEST DUP3 ADD SWAP2 SWAP1 PUSH1 0x0 MSTORE PUSH1 0x20 PUSH1 0x0 KECCAK256 SWAP1 JUMPDEST DUP2 SLOAD DUP2 MSTORE SWAP1 PUSH1 0x1 ADD SWAP1 PUSH1 0x20 ADD DUP1 DUP4 GT PUSH2 0x1837 JUMPI DUP3 SWAP1 SUB PUSH1 0x1F AND DUP3 ADD SWAP2 JUMPDEST POP POP POP POP POP SWAP1 POP DUP3 JUMP JUMPDEST ADDRESS PUSH20 0xFFFFFFFFFFFFFFFFFFFFFFFFFFFFFFFFFFFFFFFF AND CALLER PUSH20 0xFFFFFFFFFFFFFFFFFFFFFFFFFFFFFFFFFFFFFFFF AND EQ ISZERO DUP1 ISZERO PUSH2 0x18E8 JUMPI POP PUSH1 0x9 PUSH1 0x0 SWAP1 SLOAD SWAP1 PUSH2 0x100 EXP SWAP1 DIV PUSH20 0xFFFFFFFFFFFFFFFFFFFFFFFFFFFFFFFFFFFFFFFF AND PUSH20 0xFFFFFFFFFFFFFFFFFFFFFFFFFFFFFFFFFFFFFFFF AND CALLER PUSH20 0xFFFFFFFFFFFFFFFFFFFFFFFFFFFFFFFFFFFFFFFF AND EQ ISZERO JUMPDEST ISZERO PUSH2 0x192A JUMPI CALLER PUSH1 0x40 MLOAD PUSH32 0xEE4A26F200000000000000000000000000000000000000000000000000000000 DUP2 MSTORE PUSH1 0x4 ADD PUSH2 0x1921 SWAP2 SWAP1 PUSH2 0x5912 JUMP JUMPDEST PUSH1 0x40 MLOAD DUP1 SWAP2 SUB SWAP1 REVERT JUMPDEST PUSH2 0x1932 PUSH2 0x2BEE JUMP JUMPDEST PUSH20 0xFFFFFFFFFFFFFFFFFFFFFFFFFFFFFFFFFFFFFFFF AND DUP4 PUSH20 0xFFFFFFFFFFFFFFFFFFFFFFFFFFFFFFFFFFFFFFFF AND EQ ISZERO DUP1 ISZERO PUSH2 0x197B JUMPI POP PUSH2 0x1979 DUP4 PUSH2 0x1974 PUSH2 0x2BEE JUMP JUMPDEST PUSH2 0x249A JUMP JUMPDEST ISZERO JUMPDEST ISZERO PUSH2 0x19C6 JUMPI PUSH2 0x1988 PUSH2 0x2BEE JUMP JUMPDEST DUP4 PUSH1 0x40 MLOAD PUSH32 0xE237D92200000000000000000000000000000000000000000000000000000000 DUP2 MSTORE PUSH1 0x4 ADD PUSH2 0x19BD SWAP3 SWAP2 SWAP1 PUSH2 0x6648 JUMP JUMPDEST PUSH1 0x40 MLOAD DUP1 SWAP2 SUB SWAP1 REVERT JUMPDEST PUSH2 0x19D1 DUP4 DUP4 DUP4 PUSH2 0x2D95 JUMP JUMPDEST POP POP POP JUMP JUMPDEST PUSH1 0x8 PUSH1 0x0 SWAP1 SLOAD SWAP1 PUSH2 0x100 EXP SWAP1 DIV PUSH20 0xFFFFFFFFFFFFFFFFFFFFFFFFFFFFFFFFFFFFFFFF AND PUSH20 0xFFFFFFFFFFFFFFFFFFFFFFFFFFFFFFFFFFFFFFFF AND CALLER PUSH20 0xFFFFFFFFFFFFFFFFFFFFFFFFFFFFFFFFFFFFFFFF AND EQ PUSH2 0x1A66 JUMPI PUSH1 0x40 MLOAD PUSH32 0x8C379A000000000000000000000000000000000000000000000000000000000 DUP2 MSTORE PUSH1 0x4 ADD PUSH2 0x1A5D SWAP1 PUSH2 0x6769 JUMP JUMPDEST PUSH1 0x40 MLOAD DUP1 SWAP2 SUB SWAP1 REVERT JUMPDEST PUSH1 0x0 PUSH1 0x7 PUSH1 0x0 SWAP1 SLOAD SWAP1 PUSH2 0x100 EXP SWAP1 DIV PUSH20 0xFFFFFFFFFFFFFFFFFFFFFFFFFFFFFFFFFFFFFFFF AND SWAP1 POP CALLER PUSH1 0x7 PUSH1 0x0 PUSH2 0x100 EXP DUP2 SLOAD DUP2 PUSH20 0xFFFFFFFFFFFFFFFFFFFFFFFFFFFFFFFFFFFFFFFF MUL NOT AND SWAP1 DUP4 PUSH20 0xFFFFFFFFFFFFFFFFFFFFFFFFFFFFFFFFFFFFFFFF AND MUL OR SWAP1 SSTORE POP PUSH1 0x0 PUSH1 0x8 PUSH1 0x0 PUSH2 0x100 EXP DUP2 SLOAD DUP2 PUSH20 0xFFFFFFFFFFFFFFFFFFFFFFFFFFFFFFFFFFFFFFFF MUL NOT AND SWAP1 DUP4 PUSH20 0xFFFFFFFFFFFFFFFFFFFFFFFFFFFFFFFFFFFFFFFF AND MUL OR SWAP1 SSTORE POP CALLER PUSH20 0xFFFFFFFFFFFFFFFFFFFFFFFFFFFFFFFFFFFFFFFF AND DUP2 PUSH20 0xFFFFFFFFFFFFFFFFFFFFFFFFFFFFFFFFFFFFFFFF AND PUSH32 0x8BE0079C531659141344CD1FD0A4F28419497F9722A3DAAFE3B4186F6B6457E0 PUSH1 0x40 MLOAD PUSH1 0x40 MLOAD DUP1 SWAP2 SUB SWAP1 LOG3 POP JUMP JUMPDEST PUSH32 0x0 PUSH20 0xFFFFFFFFFFFFFFFFFFFFFFFFFFFFFFFFFFFFFFFF AND CALLER PUSH20 0xFFFFFFFFFFFFFFFFFFFFFFFFFFFFFFFFFFFFFFFF AND EQ PUSH2 0x1BFD JUMPI CALLER PUSH1 0x40 MLOAD PUSH32 0xD7F7333400000000000000000000000000000000000000000000000000000000 DUP2 MSTORE PUSH1 0x4 ADD PUSH2 0x1BF4 SWAP2 SWAP1 PUSH2 0x5912 JUMP JUMPDEST PUSH1 0x40 MLOAD DUP1 SWAP2 SUB SWAP1 REVERT JUMPDEST PUSH2 0x1C05 PUSH2 0x2B9E JUMP JUMPDEST DUP1 PUSH1 0x20 ADD PUSH1 0x20 DUP2 ADD SWAP1 PUSH2 0x1C18 SWAP2 SWAP1 PUSH2 0x5511 JUMP JUMPDEST PUSH1 0x0 PUSH20 0xFFFFFFFFFFFFFFFFFFFFFFFFFFFFFFFFFFFFFFFF AND PUSH1 0xC PUSH1 0x0 DUP4 PUSH8 0xFFFFFFFFFFFFFFFF AND PUSH8 0xFFFFFFFFFFFFFFFF AND DUP2 MSTORE PUSH1 0x20 ADD SWAP1 DUP2 MSTORE PUSH1 0x20 ADD PUSH1 0x0 KECCAK256 PUSH1 0x0 ADD PUSH1 0x0 SWAP1 SLOAD SWAP1 PUSH2 0x100 EXP SWAP1 DIV PUSH20 0xFFFFFFFFFFFFFFFFFFFFFFFFFFFFFFFFFFFFFFFF AND PUSH20 0xFFFFFFFFFFFFFFFFFFFFFFFFFFFFFFFFFFFFFFFF AND SUB PUSH2 0x1CD3 JUMPI DUP1 PUSH1 0x40 MLOAD PUSH32 0x1C33FBEE00000000000000000000000000000000000000000000000000000000 DUP2 MSTORE PUSH1 0x4 ADD PUSH2 0x1CCA SWAP2 SWAP1 PUSH2 0x5EF3 JUMP JUMPDEST PUSH1 0x40 MLOAD DUP1 SWAP2 SUB SWAP1 REVERT JUMPDEST DUP2 PUSH1 0x20 ADD PUSH1 0x20 DUP2 ADD SWAP1 PUSH2 0x1CE6 SWAP2 SWAP1 PUSH2 0x5511 JUMP JUMPDEST DUP3 DUP1 PUSH1 0x40 ADD SWAP1 PUSH2 0x1CF6 SWAP2 SWAP1 PUSH2 0x6798 JUMP JUMPDEST DUP2 ADD SWAP1 PUSH2 0x1D03 SWAP2 SWAP1 PUSH2 0x6839 JUMP JUMPDEST DUP1 PUSH20 0xFFFFFFFFFFFFFFFFFFFFFFFFFFFFFFFFFFFFFFFF AND PUSH1 0xC PUSH1 0x0 DUP5 PUSH8 0xFFFFFFFFFFFFFFFF AND PUSH8 0xFFFFFFFFFFFFFFFF AND DUP2 MSTORE PUSH1 0x20 ADD SWAP1 DUP2 MSTORE PUSH1 0x20 ADD PUSH1 0x0 KECCAK256 PUSH1 0x0 ADD PUSH1 0x0 SWAP1 SLOAD SWAP1 PUSH2 0x100 EXP SWAP1 DIV PUSH20 0xFFFFFFFFFFFFFFFFFFFFFFFFFFFFFFFFFFFFFFFF AND PUSH20 0xFFFFFFFFFFFFFFFFFFFFFFFFFFFFFFFFFFFFFFFF AND EQ PUSH2 0x1DBD JUMPI DUP1 PUSH1 0x40 MLOAD PUSH32 0xBAF46CD100000000000000000000000000000000000000000000000000000000 DUP2 MSTORE PUSH1 0x4 ADD PUSH2 0x1DB4 SWAP2 SWAP1 PUSH2 0x5912 JUMP JUMPDEST PUSH1 0x40 MLOAD DUP1 SWAP2 SUB SWAP1 REVERT JUMPDEST PUSH1 0x0 DUP5 PUSH1 0x20 ADD PUSH1 0x20 DUP2 ADD SWAP1 PUSH2 0x1DD2 SWAP2 SWAP1 PUSH2 0x5511 JUMP JUMPDEST SWAP1 POP PUSH1 0x0 DUP1 PUSH1 0x0 DUP1 PUSH1 0x0 DUP1 DUP11 DUP1 PUSH1 0x60 ADD SWAP1 PUSH2 0x1DED SWAP2 SWAP1 PUSH2 0x6798 JUMP JUMPDEST DUP2 ADD SWAP1 PUSH2 0x1DFA SWAP2 SWAP1 PUSH2 0x6866 JUMP JUMPDEST SWAP6 POP SWAP6 POP SWAP6 POP SWAP6 POP SWAP6 POP SWAP6 POP PUSH2 0x1E13 DUP6 DUP6 DUP6 DUP6 DUP6 PUSH2 0x22C0 JUMP JUMPDEST PUSH32 0x8A69E2B5FBCC69A1F5D6326FB26DB5BC43CD18D09D2E79A48A50B77DA16432F9 DUP7 DUP7 DUP7 DUP7 DUP7 DUP13 PUSH32 0x0 PUSH1 0x40 MLOAD PUSH2 0x1E6E SWAP8 SWAP7 SWAP6 SWAP5 SWAP4 SWAP3 SWAP2 SWAP1 PUSH2 0x65D2 JUMP JUMPDEST PUSH1 0x40 MLOAD DUP1 SWAP2 SUB SWAP1 LOG1 POP POP POP POP POP POP POP POP POP POP PUSH2 0x1E88 PUSH2 0x2BE4 JUMP JUMPDEST POP JUMP JUMPDEST PUSH1 0x0 PUSH1 0x7 PUSH1 0x0 SWAP1 SLOAD SWAP1 PUSH2 0x100 EXP SWAP1 DIV PUSH20 0xFFFFFFFFFFFFFFFFFFFFFFFFFFFFFFFFFFFFFFFF AND SWAP1 POP SWAP1 JUMP JUMPDEST PUSH2 0x1EC7 PUSH2 0x1EC0 PUSH2 0x2BEE JUMP JUMPDEST DUP4 DUP4 PUSH2 0x2E29 JUMP JUMPDEST POP POP JUMP JUMPDEST PUSH1 0x0 PUSH1 0xD PUSH1 0x0 SWAP1 SLOAD SWAP1 PUSH2 0x100 EXP SWAP1 DIV PUSH20 0xFFFFFFFFFFFFFFFFFFFFFFFFFFFFFFFFFFFFFFFF AND PUSH20 0xFFFFFFFFFFFFFFFFFFFFFFFFFFFFFFFFFFFFFFFF AND CALLER PUSH20 0xFFFFFFFFFFFFFFFFFFFFFFFFFFFFFFFFFFFFFFFF AND EQ ISZERO DUP1 ISZERO PUSH2 0x1F5E JUMPI POP PUSH2 0x1F2E PUSH2 0x1E8B JUMP JUMPDEST PUSH20 0xFFFFFFFFFFFFFFFFFFFFFFFFFFFFFFFFFFFFFFFF AND CALLER PUSH20 0xFFFFFFFFFFFFFFFFFFFFFFFFFFFFFFFFFFFFFFFF AND EQ ISZERO JUMPDEST ISZERO PUSH2 0x1F95 JUMPI PUSH1 0x40 MLOAD PUSH32 0xB71F4BC00000000000000000000000000000000000000000000000000000000 DUP2 MSTORE PUSH1 0x4 ADD PUSH1 0x40 MLOAD DUP1 SWAP2 SUB SWAP1 REVERT JUMPDEST PUSH2 0x1F9D PUSH2 0x4BCE JUMP JUMPDEST PUSH2 0x2023 ADDRESS PUSH20 0xFFFFFFFFFFFFFFFFFFFFFFFFFFFFFFFFFFFFFFFF AND PUSH4 0xBD9A548B PUSH1 0x40 MLOAD DUP2 PUSH4 0xFFFFFFFF AND PUSH1 0xE0 SHL DUP2 MSTORE PUSH1 0x4 ADD PUSH1 0x0 PUSH1 0x40 MLOAD DUP1 DUP4 SUB DUP2 DUP7 GAS STATICCALL ISZERO DUP1 ISZERO PUSH2 0x1FEB JUMPI RETURNDATASIZE PUSH1 0x0 DUP1 RETURNDATACOPY RETURNDATASIZE PUSH1 0x0 REVERT JUMPDEST POP POP POP POP PUSH1 0x40 MLOAD RETURNDATASIZE PUSH1 0x0 DUP3 RETURNDATACOPY RETURNDATASIZE PUSH1 0x1F NOT PUSH1 0x1F DUP3 ADD AND DUP3 ADD DUP1 PUSH1 0x40 MSTORE POP DUP2 ADD SWAP1 PUSH2 0x2014 SWAP2 SWAP1 PUSH2 0x699B JUMP JUMPDEST DUP3 PUSH2 0x2F99 SWAP1 SWAP2 SWAP1 PUSH4 0xFFFFFFFF AND JUMP JUMPDEST PUSH1 0x0 PUSH1 0x1 PUSH8 0xFFFFFFFFFFFFFFFF DUP2 GT ISZERO PUSH2 0x2040 JUMPI PUSH2 0x203F PUSH2 0x4EFA JUMP JUMPDEST JUMPDEST PUSH1 0x40 MLOAD SWAP1 DUP1 DUP3 MSTORE DUP1 PUSH1 0x20 MUL PUSH1 0x20 ADD DUP3 ADD PUSH1 0x40 MSTORE DUP1 ISZERO PUSH2 0x2073 JUMPI DUP2 PUSH1 0x20 ADD JUMPDEST PUSH1 0x60 DUP2 MSTORE PUSH1 0x20 ADD SWAP1 PUSH1 0x1 SWAP1 SUB SWAP1 DUP2 PUSH2 0x205E JUMPI SWAP1 POP JUMPDEST POP SWAP1 POP DUP7 DUP2 PUSH1 0x0 DUP2 MLOAD DUP2 LT PUSH2 0x208B JUMPI PUSH2 0x208A PUSH2 0x6671 JUMP JUMPDEST JUMPDEST PUSH1 0x20 MUL PUSH1 0x20 ADD ADD DUP2 SWAP1 MSTORE POP PUSH2 0x20A9 DUP2 DUP4 PUSH2 0x2FAA SWAP1 SWAP2 SWAP1 PUSH4 0xFFFFFFFF AND JUMP JUMPDEST PUSH2 0x20BD PUSH2 0x20B5 DUP4 PUSH2 0x2FF2 JUMP JUMPDEST DUP8 DUP8 DUP8 PUSH2 0x3402 JUMP JUMPDEST SWAP3 POP POP POP SWAP5 SWAP4 POP POP POP POP JUMP JUMPDEST ADDRESS PUSH20 0xFFFFFFFFFFFFFFFFFFFFFFFFFFFFFFFFFFFFFFFF AND CALLER PUSH20 0xFFFFFFFFFFFFFFFFFFFFFFFFFFFFFFFFFFFFFFFF AND EQ ISZERO DUP1 ISZERO PUSH2 0x2153 JUMPI POP PUSH1 0x9 PUSH1 0x0 SWAP1 SLOAD SWAP1 PUSH2 0x100 EXP SWAP1 DIV PUSH20 0xFFFFFFFFFFFFFFFFFFFFFFFFFFFFFFFFFFFFFFFF AND PUSH20 0xFFFFFFFFFFFFFFFFFFFFFFFFFFFFFFFFFFFFFFFF AND CALLER PUSH20 0xFFFFFFFFFFFFFFFFFFFFFFFFFFFFFFFFFFFFFFFF AND EQ ISZERO JUMPDEST ISZERO PUSH2 0x2195 JUMPI CALLER PUSH1 0x40 MLOAD PUSH32 0xEE4A26F200000000000000000000000000000000000000000000000000000000 DUP2 MSTORE PUSH1 0x4 ADD PUSH2 0x218C SWAP2 SWAP1 PUSH2 0x5912 JUMP JUMPDEST PUSH1 0x40 MLOAD DUP1 SWAP2 SUB SWAP1 REVERT JUMPDEST PUSH2 0x21A1 DUP6 DUP6 DUP6 DUP6 PUSH2 0x34E5 JUMP JUMPDEST PUSH1 0x0 JUMPDEST DUP5 MLOAD DUP2 LT ISZERO PUSH2 0x220D JUMPI DUP2 DUP2 DUP2 MLOAD DUP2 LT PUSH2 0x21C0 JUMPI PUSH2 0x21BF PUSH2 0x6671 JUMP JUMPDEST JUMPDEST PUSH1 0x20 MUL PUSH1 0x20 ADD ADD MLOAD PUSH1 0xA PUSH1 0x0 DUP8 DUP5 DUP2 MLOAD DUP2 LT PUSH2 0x21DF JUMPI PUSH2 0x21DE PUSH2 0x6671 JUMP JUMPDEST JUMPDEST PUSH1 0x20 MUL PUSH1 0x20 ADD ADD MLOAD DUP2 MSTORE PUSH1 0x20 ADD SWAP1 DUP2 MSTORE PUSH1 0x20 ADD PUSH1 0x0 KECCAK256 SWAP1 DUP2 PUSH2 0x2201 SWAP2 SWAP1 PUSH2 0x6A3F JUMP JUMPDEST POP DUP1 PUSH1 0x1 ADD SWAP1 POP PUSH2 0x21A4 JUMP JUMPDEST POP POP POP POP POP POP JUMP JUMPDEST PUSH1 0x0 PUSH1 0x3 PUSH1 0x0 DUP4 DUP2 MSTORE PUSH1 0x20 ADD SWAP1 DUP2 MSTORE PUSH1 0x20 ADD PUSH1 0x0 KECCAK256 SLOAD SWAP1 POP SWAP2 SWAP1 POP JUMP JUMPDEST PUSH1 0x6 DUP1 SLOAD PUSH2 0x223F SWAP1 PUSH2 0x5F3D JUMP JUMPDEST DUP1 PUSH1 0x1F ADD PUSH1 0x20 DUP1 SWAP2 DIV MUL PUSH1 0x20 ADD PUSH1 0x40 MLOAD SWAP1 DUP2 ADD PUSH1 0x40 MSTORE DUP1 SWAP3 SWAP2 SWAP1 DUP2 DUP2 MSTORE PUSH1 0x20 ADD DUP3 DUP1 SLOAD PUSH2 0x226B SWAP1 PUSH2 0x5F3D JUMP JUMPDEST DUP1 ISZERO PUSH2 0x22B8 JUMPI DUP1 PUSH1 0x1F LT PUSH2 0x228D JUMPI PUSH2 0x100 DUP1 DUP4 SLOAD DIV MUL DUP4 MSTORE SWAP2 PUSH1 0x20 ADD SWAP2 PUSH2 0x22B8 JUMP JUMPDEST DUP3 ADD SWAP2 SWAP1 PUSH1 0x0 MSTORE PUSH1 0x20 PUSH1 0x0 KECCAK256 SWAP1 JUMPDEST DUP2 SLOAD DUP2 MSTORE SWAP1 PUSH1 0x1 ADD SWAP1 PUSH1 0x20 ADD DUP1 DUP4 GT PUSH2 0x229B JUMPI DUP3 SWAP1 SUB PUSH1 0x1F AND DUP3 ADD SWAP2 JUMPDEST POP POP POP POP POP DUP2 JUMP JUMPDEST ADDRESS PUSH20 0xFFFFFFFFFFFFFFFFFFFFFFFFFFFFFFFFFFFFFFFF AND CALLER PUSH20 0xFFFFFFFFFFFFFFFFFFFFFFFFFFFFFFFFFFFFFFFF AND EQ ISZERO DUP1 ISZERO PUSH2 0x234A JUMPI POP PUSH1 0x9 PUSH1 0x0 SWAP1 SLOAD SWAP1 PUSH2 0x100 EXP SWAP1 DIV PUSH20 0xFFFFFFFFFFFFFFFFFFFFFFFFFFFFFFFFFFFFFFFF AND PUSH20 0xFFFFFFFFFFFFFFFFFFFFFFFFFFFFFFFFFFFFFFFF AND CALLER PUSH20 0xFFFFFFFFFFFFFFFFFFFFFFFFFFFFFFFFFFFFFFFF AND EQ ISZERO JUMPDEST ISZERO PUSH2 0x238C JUMPI CALLER PUSH1 0x40 MLOAD PUSH32 0xEE4A26F200000000000000000000000000000000000000000000000000000000 DUP2 MSTORE PUSH1 0x4 ADD PUSH2 0x2383 SWAP2 SWAP1 PUSH2 0x5912 JUMP JUMPDEST PUSH1 0x40 MLOAD DUP1 SWAP2 SUB SWAP1 REVERT JUMPDEST PUSH2 0x2398 DUP6 DUP6 DUP6 DUP6 PUSH2 0x356B JUMP JUMPDEST DUP1 PUSH1 0xA PUSH1 0x0 DUP7 DUP2 MSTORE PUSH1 0x20 ADD SWAP1 DUP2 MSTORE PUSH1 0x20 ADD PUSH1 0x0 KECCAK256 SWAP1 DUP2 PUSH2 0x23B8 SWAP2 SWAP1 PUSH2 0x6A3F JUMP JUMPDEST POP POP POP POP POP POP JUMP JUMPDEST PUSH2 0x23C8 PUSH2 0x2A78 JUMP JUMPDEST DUP1 PUSH1 0xD PUSH1 0x0 PUSH2 0x100 EXP DUP2 SLOAD DUP2 PUSH20 0xFFFFFFFFFFFFFFFFFFFFFFFFFFFFFFFFFFFFFFFF MUL NOT AND SWAP1 DUP4 PUSH20 0xFFFFFFFFFFFFFFFFFFFFFFFFFFFFFFFFFFFFFFFF AND MUL OR SWAP1 SSTORE POP POP JUMP JUMPDEST PUSH1 0x5 DUP1 SLOAD PUSH2 0x2419 SWAP1 PUSH2 0x5F3D JUMP JUMPDEST DUP1 PUSH1 0x1F ADD PUSH1 0x20 DUP1 SWAP2 DIV MUL PUSH1 0x20 ADD PUSH1 0x40 MLOAD SWAP1 DUP2 ADD PUSH1 0x40 MSTORE DUP1 SWAP3 SWAP2 SWAP1 DUP2 DUP2 MSTORE PUSH1 0x20 ADD DUP3 DUP1 SLOAD PUSH2 0x2445 SWAP1 PUSH2 0x5F3D JUMP JUMPDEST DUP1 ISZERO PUSH2 0x2492 JUMPI DUP1 PUSH1 0x1F LT PUSH2 0x2467 JUMPI PUSH2 0x100 DUP1 DUP4 SLOAD DIV MUL DUP4 MSTORE SWAP2 PUSH1 0x20 ADD SWAP2 PUSH2 0x2492 JUMP JUMPDEST DUP3 ADD SWAP2 SWAP1 PUSH1 0x0 MSTORE PUSH1 0x20 PUSH1 0x0 KECCAK256 SWAP1 JUMPDEST DUP2 SLOAD DUP2 MSTORE SWAP1 PUSH1 0x1 ADD SWAP1 PUSH1 0x20 ADD DUP1 DUP4 GT PUSH2 0x2475 JUMPI DUP3 SWAP1 SUB PUSH1 0x1F AND DUP3 ADD SWAP2 JUMPDEST POP POP POP POP POP DUP2 JUMP JUMPDEST PUSH1 0x0 PUSH1 0x1 PUSH1 0x0 DUP5 PUSH20 0xFFFFFFFFFFFFFFFFFFFFFFFFFFFFFFFFFFFFFFFF AND PUSH20 0xFFFFFFFFFFFFFFFFFFFFFFFFFFFFFFFFFFFFFFFF AND DUP2 MSTORE PUSH1 0x20 ADD SWAP1 DUP2 MSTORE PUSH1 0x20 ADD PUSH1 0x0 KECCAK256 PUSH1 0x0 DUP4 PUSH20 0xFFFFFFFFFFFFFFFFFFFFFFFFFFFFFFFFFFFFFFFF AND PUSH20 0xFFFFFFFFFFFFFFFFFFFFFFFFFFFFFFFFFFFFFFFF AND DUP2 MSTORE PUSH1 0x20 ADD SWAP1 DUP2 MSTORE PUSH1 0x20 ADD PUSH1 0x0 KECCAK256 PUSH1 0x0 SWAP1 SLOAD SWAP1 PUSH2 0x100 EXP SWAP1 DIV PUSH1 0xFF AND SWAP1 POP SWAP3 SWAP2 POP POP JUMP JUMPDEST PUSH2 0x2536 PUSH2 0x4C40 JUMP JUMPDEST PUSH1 0xE PUSH1 0x0 DUP4 DUP2 MSTORE PUSH1 0x20 ADD SWAP1 DUP2 MSTORE PUSH1 0x20 ADD PUSH1 0x0 KECCAK256 PUSH1 0x40 MLOAD DUP1 PUSH1 0x60 ADD PUSH1 0x40 MSTORE SWAP1 DUP2 PUSH1 0x0 DUP3 ADD PUSH1 0x0 SWAP1 SLOAD SWAP1 PUSH2 0x100 EXP SWAP1 DIV PUSH10 0xFFFFFFFFFFFFFFFFFFFF AND PUSH10 0xFFFFFFFFFFFFFFFFFFFF AND PUSH10 0xFFFFFFFFFFFFFFFFFFFF AND DUP2 MSTORE PUSH1 0x20 ADD PUSH1 0x0 DUP3 ADD PUSH1 0xA SWAP1 SLOAD SWAP1 PUSH2 0x100 EXP SWAP1 DIV PUSH10 0xFFFFFFFFFFFFFFFFFFFF AND PUSH10 0xFFFFFFFFFFFFFFFFFFFF AND PUSH10 0xFFFFFFFFFFFFFFFFFFFF AND DUP2 MSTORE PUSH1 0x20 ADD PUSH1 0x0 DUP3 ADD PUSH1 0x14 SWAP1 SLOAD SWAP1 PUSH2 0x100 EXP SWAP1 DIV PUSH10 0xFFFFFFFFFFFFFFFFFFFF AND PUSH10 0xFFFFFFFFFFFFFFFFFFFF AND PUSH10 0xFFFFFFFFFFFFFFFFFFFF AND DUP2 MSTORE POP POP SWAP1 POP SWAP2 SWAP1 POP JUMP JUMPDEST PUSH1 0x0 PUSH2 0x260D PUSH2 0x2BEE JUMP JUMPDEST SWAP1 POP DUP1 PUSH20 0xFFFFFFFFFFFFFFFFFFFFFFFFFFFFFFFFFFFFFFFF AND DUP7 PUSH20 0xFFFFFFFFFFFFFFFFFFFFFFFFFFFFFFFFFFFFFFFF AND EQ ISZERO DUP1 ISZERO PUSH2 0x2652 JUMPI POP PUSH2 0x2650 DUP7 DUP3 PUSH2 0x249A JUMP JUMPDEST ISZERO JUMPDEST ISZERO PUSH2 0x2696 JUMPI DUP1 DUP7 PUSH1 0x40 MLOAD PUSH32 0xE237D92200000000000000000000000000000000000000000000000000000000 DUP2 MSTORE PUSH1 0x4 ADD PUSH2 0x268D SWAP3 SWAP2 SWAP1 PUSH2 0x6648 JUMP JUMPDEST PUSH1 0x40 MLOAD DUP1 SWAP2 SUB SWAP1 REVERT JUMPDEST PUSH2 0x26A3 DUP7 DUP7 DUP7 DUP7 DUP7 PUSH2 0x3604 JUMP JUMPDEST POP POP POP POP POP POP JUMP JUMPDEST PUSH2 0x26B3 PUSH2 0x2A78 JUMP JUMPDEST PUSH2 0x26BC DUP2 PUSH2 0x370F JUMP JUMPDEST POP JUMP JUMPDEST ADDRESS PUSH20 0xFFFFFFFFFFFFFFFFFFFFFFFFFFFFFFFFFFFFFFFF AND CALLER PUSH20 0xFFFFFFFFFFFFFFFFFFFFFFFFFFFFFFFFFFFFFFFF AND EQ ISZERO DUP1 ISZERO PUSH2 0x2749 JUMPI POP PUSH1 0x9 PUSH1 0x0 SWAP1 SLOAD SWAP1 PUSH2 0x100 EXP SWAP1 DIV PUSH20 0xFFFFFFFFFFFFFFFFFFFFFFFFFFFFFFFFFFFFFFFF AND PUSH20 0xFFFFFFFFFFFFFFFFFFFFFFFFFFFFFFFFFFFFFFFF AND CALLER PUSH20 0xFFFFFFFFFFFFFFFFFFFFFFFFFFFFFFFFFFFFFFFF AND EQ ISZERO JUMPDEST ISZERO PUSH2 0x278B JUMPI CALLER PUSH1 0x40 MLOAD PUSH32 0xEE4A26F200000000000000000000000000000000000000000000000000000000 DUP2 MSTORE PUSH1 0x4 ADD PUSH2 0x2782 SWAP2 SWAP1 PUSH2 0x5912 JUMP JUMPDEST PUSH1 0x40 MLOAD DUP1 SWAP2 SUB SWAP1 REVERT JUMPDEST PUSH2 0x2793 PUSH2 0x2BEE JUMP JUMPDEST PUSH20 0xFFFFFFFFFFFFFFFFFFFFFFFFFFFFFFFFFFFFFFFF AND DUP4 PUSH20 0xFFFFFFFFFFFFFFFFFFFFFFFFFFFFFFFFFFFFFFFF AND EQ ISZERO DUP1 ISZERO PUSH2 0x27DC JUMPI POP PUSH2 0x27DA DUP4 PUSH2 0x27D5 PUSH2 0x2BEE JUMP JUMPDEST PUSH2 0x249A JUMP JUMPDEST ISZERO JUMPDEST ISZERO PUSH2 0x2827 JUMPI PUSH2 0x27E9 PUSH2 0x2BEE JUMP JUMPDEST DUP4 PUSH1 0x40 MLOAD PUSH32 0xE237D92200000000000000000000000000000000000000000000000000000000 DUP2 MSTORE PUSH1 0x4 ADD PUSH2 0x281E SWAP3 SWAP2 SWAP1 PUSH2 0x6648 JUMP JUMPDEST PUSH1 0x40 MLOAD DUP1 SWAP2 SUB SWAP1 REVERT JUMPDEST PUSH2 0x2832 DUP4 DUP4 DUP4 PUSH2 0x383D JUMP JUMPDEST POP POP POP JUMP JUMPDEST PUSH1 0x0 PUSH32 0xD9B67A2600000000000000000000000000000000000000000000000000000000 PUSH28 0xFFFFFFFFFFFFFFFFFFFFFFFFFFFFFFFFFFFFFFFFFFFFFFFFFFFFFFFF NOT AND DUP3 PUSH28 0xFFFFFFFFFFFFFFFFFFFFFFFFFFFFFFFFFFFFFFFFFFFFFFFFFFFFFFFF NOT AND EQ DUP1 PUSH2 0x2902 JUMPI POP PUSH32 0xE89341C00000000000000000000000000000000000000000000000000000000 PUSH28 0xFFFFFFFFFFFFFFFFFFFFFFFFFFFFFFFFFFFFFFFFFFFFFFFFFFFFFFFF NOT AND DUP3 PUSH28 0xFFFFFFFFFFFFFFFFFFFFFFFFFFFFFFFFFFFFFFFFFFFFFFFFFFFFFFFF NOT AND EQ JUMPDEST DUP1 PUSH2 0x2912 JUMPI POP PUSH2 0x2911 DUP3 PUSH2 0x38E4 JUMP JUMPDEST JUMPDEST SWAP1 POP SWAP2 SWAP1 POP JUMP JUMPDEST PUSH1 0x0 DUP2 MLOAD EQ PUSH2 0x295F JUMPI DUP1 PUSH1 0x40 MLOAD PUSH32 0x8C379A000000000000000000000000000000000000000000000000000000000 DUP2 MSTORE PUSH1 0x4 ADD PUSH2 0x2956 SWAP2 SWAP1 PUSH2 0x520B JUMP JUMPDEST PUSH1 0x40 MLOAD DUP1 SWAP2 SUB SWAP1 REVERT JUMPDEST PUSH1 0x0 DUP1 PUSH1 0x0 DUP1 DUP6 DUP1 PUSH1 0x20 ADD SWAP1 MLOAD DUP2 ADD SWAP1 PUSH2 0x2979 SWAP2 SWAP1 PUSH2 0x6B11 JUMP JUMPDEST SWAP4 POP SWAP4 POP SWAP4 POP SWAP4 POP PUSH1 0x40 MLOAD DUP1 PUSH1 0x60 ADD PUSH1 0x40 MSTORE DUP1 DUP5 PUSH10 0xFFFFFFFFFFFFFFFFFFFF AND DUP2 MSTORE PUSH1 0x20 ADD DUP4 PUSH10 0xFFFFFFFFFFFFFFFFFFFF AND DUP2 MSTORE PUSH1 0x20 ADD DUP3 PUSH10 0xFFFFFFFFFFFFFFFFFFFF AND DUP2 MSTORE POP PUSH1 0xE PUSH1 0x0 DUP7 DUP2 MSTORE PUSH1 0x20 ADD SWAP1 DUP2 MSTORE PUSH1 0x20 ADD PUSH1 0x0 KECCAK256 PUSH1 0x0 DUP3 ADD MLOAD DUP2 PUSH1 0x0 ADD PUSH1 0x0 PUSH2 0x100 EXP DUP2 SLOAD DUP2 PUSH10 0xFFFFFFFFFFFFFFFFFFFF MUL NOT AND SWAP1 DUP4 PUSH10 0xFFFFFFFFFFFFFFFFFFFF AND MUL OR SWAP1 SSTORE POP PUSH1 0x20 DUP3 ADD MLOAD DUP2 PUSH1 0x0 ADD PUSH1 0xA PUSH2 0x100 EXP DUP2 SLOAD DUP2 PUSH10 0xFFFFFFFFFFFFFFFFFFFF MUL NOT AND SWAP1 DUP4 PUSH10 0xFFFFFFFFFFFFFFFFFFFF AND MUL OR SWAP1 SSTORE POP PUSH1 0x40 DUP3 ADD MLOAD DUP2 PUSH1 0x0 ADD PUSH1 0x14 PUSH2 0x100 EXP DUP2 SLOAD DUP2 PUSH10 0xFFFFFFFFFFFFFFFFFFFF MUL NOT AND SWAP1 DUP4 PUSH10 0xFFFFFFFFFFFFFFFFFFFF AND MUL OR SWAP1 SSTORE POP SWAP1 POP POP POP POP POP POP POP POP POP JUMP JUMPDEST PUSH1 0x7 PUSH1 0x0 SWAP1 SLOAD SWAP1 PUSH2 0x100 EXP SWAP1 DIV PUSH20 0xFFFFFFFFFFFFFFFFFFFFFFFFFFFFFFFFFFFFFFFF AND PUSH20 0xFFFFFFFFFFFFFFFFFFFFFFFFFFFFFFFFFFFFFFFF AND CALLER PUSH20 0xFFFFFFFFFFFFFFFFFFFFFFFFFFFFFFFFFFFFFFFF AND EQ PUSH2 0x2B08 JUMPI PUSH1 0x40 MLOAD PUSH32 0x8C379A000000000000000000000000000000000000000000000000000000000 DUP2 MSTORE PUSH1 0x4 ADD PUSH2 0x2AFF SWAP1 PUSH2 0x6BC4 JUMP JUMPDEST PUSH1 0x40 MLOAD DUP1 SWAP2 SUB SWAP1 REVERT JUMPDEST JUMP JUMPDEST PUSH1 0x60 PUSH1 0x2 DUP1 SLOAD PUSH2 0x2B19 SWAP1 PUSH2 0x5F3D JUMP JUMPDEST DUP1 PUSH1 0x1F ADD PUSH1 0x20 DUP1 SWAP2 DIV MUL PUSH1 0x20 ADD PUSH1 0x40 MLOAD SWAP1 DUP2 ADD PUSH1 0x40 MSTORE DUP1 SWAP3 SWAP2 SWAP1 DUP2 DUP2 MSTORE PUSH1 0x20 ADD DUP3 DUP1 SLOAD PUSH2 0x2B45 SWAP1 PUSH2 0x5F3D JUMP JUMPDEST DUP1 ISZERO PUSH2 0x2B92 JUMPI DUP1 PUSH1 0x1F LT PUSH2 0x2B67 JUMPI PUSH2 0x100 DUP1 DUP4 SLOAD DIV MUL DUP4 MSTORE SWAP2 PUSH1 0x20 ADD SWAP2 PUSH2 0x2B92 JUMP JUMPDEST DUP3 ADD SWAP2 SWAP1 PUSH1 0x0 MSTORE PUSH1 0x20 PUSH1 0x0 KECCAK256 SWAP1 JUMPDEST DUP2 SLOAD DUP2 MSTORE SWAP1 PUSH1 0x1 ADD SWAP1 PUSH1 0x20 ADD DUP1 DUP4 GT PUSH2 0x2B75 JUMPI DUP3 SWAP1 SUB PUSH1 0x1F AND DUP3 ADD SWAP2 JUMPDEST POP POP POP POP POP SWAP1 POP SWAP2 SWAP1 POP JUMP JUMPDEST PUSH1 0x2 PUSH1 0xB SLOAD SUB PUSH2 0x2BDA JUMPI PUSH1 0x40 MLOAD PUSH32 0x3EE5AEB500000000000000000000000000000000000000000000000000000000 DUP2 MSTORE PUSH1 0x4 ADD PUSH1 0x40 MLOAD DUP1 SWAP2 SUB SWAP1 REVERT JUMPDEST PUSH1 0x2 PUSH1 0xB DUP2 SWAP1 SSTORE POP JUMP JUMPDEST PUSH1 0x1 PUSH1 0xB DUP2 SWAP1 SSTORE POP JUMP JUMPDEST PUSH1 0x0 CALLER SWAP1 POP SWAP1 JUMP JUMPDEST PUSH1 0x0 PUSH20 0xFFFFFFFFFFFFFFFFFFFFFFFFFFFFFFFFFFFFFFFF AND DUP5 PUSH20 0xFFFFFFFFFFFFFFFFFFFFFFFFFFFFFFFFFFFFFFFF AND SUB PUSH2 0x2C68 JUMPI PUSH1 0x0 PUSH1 0x40 MLOAD PUSH32 0x57F447CE00000000000000000000000000000000000000000000000000000000 DUP2 MSTORE PUSH1 0x4 ADD PUSH2 0x2C5F SWAP2 SWAP1 PUSH2 0x5912 JUMP JUMPDEST PUSH1 0x40 MLOAD DUP1 SWAP2 SUB SWAP1 REVERT JUMPDEST PUSH1 0x0 PUSH20 0xFFFFFFFFFFFFFFFFFFFFFFFFFFFFFFFFFFFFFFFF AND DUP6 PUSH20 0xFFFFFFFFFFFFFFFFFFFFFFFFFFFFFFFFFFFFFFFF AND SUB PUSH2 0x2CDA JUMPI PUSH1 0x0 PUSH1 0x40 MLOAD PUSH32 0x1A8351400000000000000000000000000000000000000000000000000000000 DUP2 MSTORE PUSH1 0x4 ADD PUSH2 0x2CD1 SWAP2 SWAP1 PUSH2 0x5912 JUMP JUMPDEST PUSH1 0x40 MLOAD DUP1 SWAP2 SUB SWAP1 REVERT JUMPDEST PUSH2 0x2CE7 DUP6 DUP6 DUP6 DUP6 DUP6 PUSH2 0x394E JUMP JUMPDEST POP POP POP POP POP JUMP JUMPDEST PUSH2 0x2D68 DUP4 DUP5 PUSH20 0xFFFFFFFFFFFFFFFFFFFFFFFFFFFFFFFFFFFFFFFF AND PUSH4 0xA9059CBB DUP6 DUP6 PUSH1 0x40 MLOAD PUSH1 0x24 ADD PUSH2 0x2D21 SWAP3 SWAP2 SWAP1 PUSH2 0x6525 JUMP JUMPDEST PUSH1 0x40 MLOAD PUSH1 0x20 DUP2 DUP4 SUB SUB DUP2 MSTORE SWAP1 PUSH1 0x40 MSTORE SWAP2 POP PUSH1 0xE0 SHL PUSH1 0x20 DUP3 ADD DUP1 MLOAD PUSH28 0xFFFFFFFFFFFFFFFFFFFFFFFFFFFFFFFFFFFFFFFFFFFFFFFFFFFFFFFF DUP4 DUP2 DUP4 AND OR DUP4 MSTORE POP POP POP POP PUSH2 0x3A00 JUMP JUMPDEST POP POP POP JUMP JUMPDEST PUSH1 0x0 PUSH1 0x20 DUP3 MUL PUSH1 0x20 DUP5 ADD ADD MLOAD SWAP1 POP SWAP3 SWAP2 POP POP JUMP JUMPDEST PUSH1 0x0 PUSH1 0x20 DUP3 MUL PUSH1 0x20 DUP5 ADD ADD MLOAD SWAP1 POP SWAP3 SWAP2 POP POP JUMP JUMPDEST PUSH1 0x0 PUSH20 0xFFFFFFFFFFFFFFFFFFFFFFFFFFFFFFFFFFFFFFFF AND DUP4 PUSH20 0xFFFFFFFFFFFFFFFFFFFFFFFFFFFFFFFFFFFFFFFF AND SUB PUSH2 0x2E07 JUMPI PUSH1 0x0 PUSH1 0x40 MLOAD PUSH32 0x1A8351400000000000000000000000000000000000000000000000000000000 DUP2 MSTORE PUSH1 0x4 ADD PUSH2 0x2DFE SWAP2 SWAP1 PUSH2 0x5912 JUMP JUMPDEST PUSH1 0x40 MLOAD DUP1 SWAP2 SUB SWAP1 REVERT JUMPDEST PUSH2 0x2E24 DUP4 PUSH1 0x0 DUP5 DUP5 PUSH1 0x40 MLOAD DUP1 PUSH1 0x20 ADD PUSH1 0x40 MSTORE DUP1 PUSH1 0x0 DUP2 MSTORE POP PUSH2 0x394E JUMP JUMPDEST POP POP POP JUMP JUMPDEST PUSH1 0x0 PUSH20 0xFFFFFFFFFFFFFFFFFFFFFFFFFFFFFFFFFFFFFFFF AND DUP3 PUSH20 0xFFFFFFFFFFFFFFFFFFFFFFFFFFFFFFFFFFFFFFFF AND SUB PUSH2 0x2E9B JUMPI PUSH1 0x0 PUSH1 0x40 MLOAD PUSH32 0xCED3E10000000000000000000000000000000000000000000000000000000000 DUP2 MSTORE PUSH1 0x4 ADD PUSH2 0x2E92 SWAP2 SWAP1 PUSH2 0x5912 JUMP JUMPDEST PUSH1 0x40 MLOAD DUP1 SWAP2 SUB SWAP1 REVERT JUMPDEST DUP1 PUSH1 0x1 PUSH1 0x0 DUP6 PUSH20 0xFFFFFFFFFFFFFFFFFFFFFFFFFFFFFFFFFFFFFFFF AND PUSH20 0xFFFFFFFFFFFFFFFFFFFFFFFFFFFFFFFFFFFFFFFF AND DUP2 MSTORE PUSH1 0x20 ADD SWAP1 DUP2 MSTORE PUSH1 0x20 ADD PUSH1 0x0 KECCAK256 PUSH1 0x0 DUP5 PUSH20 0xFFFFFFFFFFFFFFFFFFFFFFFFFFFFFFFFFFFFFFFF AND PUSH20 0xFFFFFFFFFFFFFFFFFFFFFFFFFFFFFFFFFFFFFFFF AND DUP2 MSTORE PUSH1 0x20 ADD SWAP1 DUP2 MSTORE PUSH1 0x20 ADD PUSH1 0x0 KECCAK256 PUSH1 0x0 PUSH2 0x100 EXP DUP2 SLOAD DUP2 PUSH1 0xFF MUL NOT AND SWAP1 DUP4 ISZERO ISZERO MUL OR SWAP1 SSTORE POP DUP2 PUSH20 0xFFFFFFFFFFFFFFFFFFFFFFFFFFFFFFFFFFFFFFFF AND DUP4 PUSH20 0xFFFFFFFFFFFFFFFFFFFFFFFFFFFFFFFFFFFFFFFF AND PUSH32 0x17307EAB39AB6107E8899845AD3D59BD9653F200F220920489CA2B5937696C31 DUP4 PUSH1 0x40 MLOAD PUSH2 0x2F8C SWAP2 SWAP1 PUSH2 0x4E8E JUMP JUMPDEST PUSH1 0x40 MLOAD DUP1 SWAP2 SUB SWAP1 LOG3 POP POP POP JUMP JUMPDEST PUSH2 0x2FA6 DUP3 PUSH1 0x0 DUP1 DUP5 PUSH2 0x3A97 JUMP JUMPDEST POP POP JUMP JUMPDEST PUSH1 0x0 DUP2 MLOAD SUB PUSH2 0x2FE5 JUMPI PUSH1 0x40 MLOAD PUSH32 0xFE936CB700000000000000000000000000000000000000000000000000000000 DUP2 MSTORE PUSH1 0x4 ADD PUSH1 0x40 MLOAD DUP1 SWAP2 SUB SWAP1 REVERT JUMPDEST DUP1 DUP3 PUSH1 0xA0 ADD DUP2 SWAP1 MSTORE POP POP POP JUMP JUMPDEST PUSH1 0x60 PUSH1 0x0 PUSH2 0x3001 PUSH2 0x100 PUSH2 0x3B41 JUMP JUMPDEST SWAP1 POP PUSH2 0x304B PUSH1 0x40 MLOAD DUP1 PUSH1 0x40 ADD PUSH1 0x40 MSTORE DUP1 PUSH1 0xC DUP2 MSTORE PUSH1 0x20 ADD PUSH32 0x636F64654C6F636174696F6E0000000000000000000000000000000000000000 DUP2 MSTORE POP DUP3 PUSH2 0x3B68 SWAP1 SWAP2 SWAP1 PUSH4 0xFFFFFFFF AND JUMP JUMPDEST PUSH2 0x3074 DUP4 PUSH1 0x0 ADD MLOAD PUSH1 0x2 DUP2 GT ISZERO PUSH2 0x3065 JUMPI PUSH2 0x3064 PUSH2 0x6299 JUMP JUMPDEST JUMPDEST DUP3 PUSH2 0x3B91 SWAP1 SWAP2 SWAP1 PUSH4 0xFFFFFFFF AND JUMP JUMPDEST PUSH2 0x30BC PUSH1 0x40 MLOAD DUP1 PUSH1 0x40 ADD PUSH1 0x40 MSTORE DUP1 PUSH1 0x8 DUP2 MSTORE PUSH1 0x20 ADD PUSH32 0x6C616E6775616765000000000000000000000000000000000000000000000000 DUP2 MSTORE POP DUP3 PUSH2 0x3B68 SWAP1 SWAP2 SWAP1 PUSH4 0xFFFFFFFF AND JUMP JUMPDEST PUSH2 0x30E5 DUP4 PUSH1 0x40 ADD MLOAD PUSH1 0x0 DUP2 GT ISZERO PUSH2 0x30D6 JUMPI PUSH2 0x30D5 PUSH2 0x6299 JUMP JUMPDEST JUMPDEST DUP3 PUSH2 0x3B91 SWAP1 SWAP2 SWAP1 PUSH4 0xFFFFFFFF AND JUMP JUMPDEST PUSH2 0x312D PUSH1 0x40 MLOAD DUP1 PUSH1 0x40 ADD PUSH1 0x40 MSTORE DUP1 PUSH1 0x6 DUP2 MSTORE PUSH1 0x20 ADD PUSH32 0x736F757263650000000000000000000000000000000000000000000000000000 DUP2 MSTORE POP DUP3 PUSH2 0x3B68 SWAP1 SWAP2 SWAP1 PUSH4 0xFFFFFFFF AND JUMP JUMPDEST PUSH2 0x3144 DUP4 PUSH1 0x60 ADD MLOAD DUP3 PUSH2 0x3B68 SWAP1 SWAP2 SWAP1 PUSH4 0xFFFFFFFF AND JUMP JUMPDEST PUSH1 0x0 DUP4 PUSH1 0xA0 ADD MLOAD MLOAD GT ISZERO PUSH2 0x31FA JUMPI PUSH2 0x319A PUSH1 0x40 MLOAD DUP1 PUSH1 0x40 ADD PUSH1 0x40 MSTORE DUP1 PUSH1 0x4 DUP2 MSTORE PUSH1 0x20 ADD PUSH32 0x6172677300000000000000000000000000000000000000000000000000000000 DUP2 MSTORE POP DUP3 PUSH2 0x3B68 SWAP1 SWAP2 SWAP1 PUSH4 0xFFFFFFFF AND JUMP JUMPDEST PUSH2 0x31A3 DUP2 PUSH2 0x3BE1 JUMP JUMPDEST PUSH1 0x0 JUMPDEST DUP4 PUSH1 0xA0 ADD MLOAD MLOAD DUP2 LT ISZERO PUSH2 0x31EF JUMPI PUSH2 0x31E4 DUP5 PUSH1 0xA0 ADD MLOAD DUP3 DUP2 MLOAD DUP2 LT PUSH2 0x31CD JUMPI PUSH2 0x31CC PUSH2 0x6671 JUMP JUMPDEST JUMPDEST PUSH1 0x20 MUL PUSH1 0x20 ADD ADD MLOAD DUP4 PUSH2 0x3B68 SWAP1 SWAP2 SWAP1 PUSH4 0xFFFFFFFF AND JUMP JUMPDEST DUP1 PUSH1 0x1 ADD SWAP1 POP PUSH2 0x31A6 JUMP JUMPDEST POP PUSH2 0x31F9 DUP2 PUSH2 0x3C09 JUMP JUMPDEST JUMPDEST PUSH1 0x0 DUP4 PUSH1 0x80 ADD MLOAD MLOAD GT ISZERO PUSH2 0x333B JUMPI PUSH1 0x0 PUSH1 0x2 DUP2 GT ISZERO PUSH2 0x321C JUMPI PUSH2 0x321B PUSH2 0x6299 JUMP JUMPDEST JUMPDEST DUP4 PUSH1 0x20 ADD MLOAD PUSH1 0x2 DUP2 GT ISZERO PUSH2 0x3233 JUMPI PUSH2 0x3232 PUSH2 0x6299 JUMP JUMPDEST JUMPDEST SUB PUSH2 0x326A JUMPI PUSH1 0x40 MLOAD PUSH32 0xA80D31F700000000000000000000000000000000000000000000000000000000 DUP2 MSTORE PUSH1 0x4 ADD PUSH1 0x40 MLOAD DUP1 SWAP2 SUB SWAP1 REVERT JUMPDEST PUSH2 0x32B2 PUSH1 0x40 MLOAD DUP1 PUSH1 0x40 ADD PUSH1 0x40 MSTORE DUP1 PUSH1 0xF DUP2 MSTORE PUSH1 0x20 ADD PUSH32 0x736563726574734C6F636174696F6E0000000000000000000000000000000000 DUP2 MSTORE POP DUP3 PUSH2 0x3B68 SWAP1 SWAP2 SWAP1 PUSH4 0xFFFFFFFF AND JUMP JUMPDEST PUSH2 0x32DB DUP4 PUSH1 0x20 ADD MLOAD PUSH1 0x2 DUP2 GT ISZERO PUSH2 0x32CC JUMPI PUSH2 0x32CB PUSH2 0x6299 JUMP JUMPDEST JUMPDEST DUP3 PUSH2 0x3B91 SWAP1 SWAP2 SWAP1 PUSH4 0xFFFFFFFF AND JUMP JUMPDEST PUSH2 0x3323 PUSH1 0x40 MLOAD DUP1 PUSH1 0x40 ADD PUSH1 0x40 MSTORE DUP1 PUSH1 0x7 DUP2 MSTORE PUSH1 0x20 ADD PUSH32 0x7365637265747300000000000000000000000000000000000000000000000000 DUP2 MSTORE POP DUP3 PUSH2 0x3B68 SWAP1 SWAP2 SWAP1 PUSH4 0xFFFFFFFF AND JUMP JUMPDEST PUSH2 0x333A DUP4 PUSH1 0x80 ADD MLOAD DUP3 PUSH2 0x3C31 SWAP1 SWAP2 SWAP1 PUSH4 0xFFFFFFFF AND JUMP JUMPDEST JUMPDEST PUSH1 0x0 DUP4 PUSH1 0xC0 ADD MLOAD MLOAD GT ISZERO PUSH2 0x33F1 JUMPI PUSH2 0x3391 PUSH1 0x40 MLOAD DUP1 PUSH1 0x40 ADD PUSH1 0x40 MSTORE DUP1 PUSH1 0x9 DUP2 MSTORE PUSH1 0x20 ADD PUSH32 0x6279746573417267730000000000000000000000000000000000000000000000 DUP2 MSTORE POP DUP3 PUSH2 0x3B68 SWAP1 SWAP2 SWAP1 PUSH4 0xFFFFFFFF AND JUMP JUMPDEST PUSH2 0x339A DUP2 PUSH2 0x3BE1 JUMP JUMPDEST PUSH1 0x0 JUMPDEST DUP4 PUSH1 0xC0 ADD MLOAD MLOAD DUP2 LT ISZERO PUSH2 0x33E6 JUMPI PUSH2 0x33DB DUP5 PUSH1 0xC0 ADD MLOAD DUP3 DUP2 MLOAD DUP2 LT PUSH2 0x33C4 JUMPI PUSH2 0x33C3 PUSH2 0x6671 JUMP JUMPDEST JUMPDEST PUSH1 0x20 MUL PUSH1 0x20 ADD ADD MLOAD DUP4 PUSH2 0x3C31 SWAP1 SWAP2 SWAP1 PUSH4 0xFFFFFFFF AND JUMP JUMPDEST DUP1 PUSH1 0x1 ADD SWAP1 POP PUSH2 0x339D JUMP JUMPDEST POP PUSH2 0x33F0 DUP2 PUSH2 0x3C09 JUMP JUMPDEST JUMPDEST DUP1 PUSH1 0x0 ADD MLOAD PUSH1 0x0 ADD MLOAD SWAP2 POP POP SWAP2 SWAP1 POP JUMP JUMPDEST PUSH1 0x0 DUP1 PUSH32 0x0 PUSH20 0xFFFFFFFFFFFFFFFFFFFFFFFFFFFFFFFFFFFFFFFF AND PUSH4 0x461D2762 DUP7 DUP9 PUSH1 0x1 DUP9 DUP9 PUSH1 0x40 MLOAD DUP7 PUSH4 0xFFFFFFFF AND PUSH1 0xE0 SHL DUP2 MSTORE PUSH1 0x4 ADD PUSH2 0x3467 SWAP6 SWAP5 SWAP4 SWAP3 SWAP2 SWAP1 PUSH2 0x6C10 JUMP JUMPDEST PUSH1 0x20 PUSH1 0x40 MLOAD DUP1 DUP4 SUB DUP2 PUSH1 0x0 DUP8 GAS CALL ISZERO DUP1 ISZERO PUSH2 0x3486 JUMPI RETURNDATASIZE PUSH1 0x0 DUP1 RETURNDATACOPY RETURNDATASIZE PUSH1 0x0 REVERT JUMPDEST POP POP POP POP PUSH1 0x40 MLOAD RETURNDATASIZE PUSH1 0x1F NOT PUSH1 0x1F DUP3 ADD AND DUP3 ADD DUP1 PUSH1 0x40 MSTORE POP DUP2 ADD SWAP1 PUSH2 0x34AA SWAP2 SWAP1 PUSH2 0x65A5 JUMP JUMPDEST SWAP1 POP DUP1 PUSH32 0x1131472297A800FEE664D1D89CFA8F7676FF07189ECC53F80BBB5F4969099DB8 PUSH1 0x40 MLOAD PUSH1 0x40 MLOAD DUP1 SWAP2 SUB SWAP1 LOG2 DUP1 SWAP2 POP POP SWAP5 SWAP4 POP POP POP POP JUMP JUMPDEST PUSH1 0x0 PUSH20 0xFFFFFFFFFFFFFFFFFFFFFFFFFFFFFFFFFFFFFFFF AND DUP5 PUSH20 0xFFFFFFFFFFFFFFFFFFFFFFFFFFFFFFFFFFFFFFFF AND SUB PUSH2 0x3557 JUMPI PUSH1 0x0 PUSH1 0x40 MLOAD PUSH32 0x57F447CE00000000000000000000000000000000000000000000000000000000 DUP2 MSTORE PUSH1 0x4 ADD PUSH2 0x354E SWAP2 SWAP1 PUSH2 0x5912 JUMP JUMPDEST PUSH1 0x40 MLOAD DUP1 SWAP2 SUB SWAP1 REVERT JUMPDEST PUSH2 0x3565 PUSH1 0x0 DUP6 DUP6 DUP6 DUP6 PUSH2 0x394E JUMP JUMPDEST POP POP POP POP JUMP JUMPDEST PUSH1 0x0 PUSH20 0xFFFFFFFFFFFFFFFFFFFFFFFFFFFFFFFFFFFFFFFF AND DUP5 PUSH20 0xFFFFFFFFFFFFFFFFFFFFFFFFFFFFFFFFFFFFFFFF AND SUB PUSH2 0x35DD JUMPI PUSH1 0x0 PUSH1 0x40 MLOAD PUSH32 0x57F447CE00000000000000000000000000000000000000000000000000000000 DUP2 MSTORE PUSH1 0x4 ADD PUSH2 0x35D4 SWAP2 SWAP1 PUSH2 0x5912 JUMP JUMPDEST PUSH1 0x40 MLOAD DUP1 SWAP2 SUB SWAP1 REVERT JUMPDEST PUSH1 0x0 DUP1 PUSH2 0x35EA DUP6 DUP6 PUSH2 0x3C5A JUMP JUMPDEST SWAP2 POP SWAP2 POP PUSH2 0x35FC PUSH1 0x0 DUP8 DUP5 DUP5 DUP8 PUSH2 0x394E JUMP JUMPDEST POP POP POP POP POP POP JUMP JUMPDEST PUSH1 0x0 PUSH20 0xFFFFFFFFFFFFFFFFFFFFFFFFFFFFFFFFFFFFFFFF AND DUP5 PUSH20 0xFFFFFFFFFFFFFFFFFFFFFFFFFFFFFFFFFFFFFFFF AND SUB PUSH2 0x3676 JUMPI PUSH1 0x0 PUSH1 0x40 MLOAD PUSH32 0x57F447CE00000000000000000000000000000000000000000000000000000000 DUP2 MSTORE PUSH1 0x4 ADD PUSH2 0x366D SWAP2 SWAP1 PUSH2 0x5912 JUMP JUMPDEST PUSH1 0x40 MLOAD DUP1 SWAP2 SUB SWAP1 REVERT JUMPDEST PUSH1 0x0 PUSH20 0xFFFFFFFFFFFFFFFFFFFFFFFFFFFFFFFFFFFFFFFF AND DUP6 PUSH20 0xFFFFFFFFFFFFFFFFFFFFFFFFFFFFFFFFFFFFFFFF AND SUB PUSH2 0x36E8 JUMPI PUSH1 0x0 PUSH1 0x40 MLOAD PUSH32 0x1A8351400000000000000000000000000000000000000000000000000000000 DUP2 MSTORE PUSH1 0x4 ADD PUSH2 0x36DF SWAP2 SWAP1 PUSH2 0x5912 JUMP JUMPDEST PUSH1 0x40 MLOAD DUP1 SWAP2 SUB SWAP1 REVERT JUMPDEST PUSH1 0x0 DUP1 PUSH2 0x36F5 DUP6 DUP6 PUSH2 0x3C5A JUMP JUMPDEST SWAP2 POP SWAP2 POP PUSH2 0x3706 DUP8 DUP8 DUP5 DUP5 DUP8 PUSH2 0x394E JUMP JUMPDEST POP POP POP POP POP POP POP JUMP JUMPDEST CALLER PUSH20 0xFFFFFFFFFFFFFFFFFFFFFFFFFFFFFFFFFFFFFFFF AND DUP2 PUSH20 0xFFFFFFFFFFFFFFFFFFFFFFFFFFFFFFFFFFFFFFFF AND SUB PUSH2 0x377D JUMPI PUSH1 0x40 MLOAD PUSH32 0x8C379A000000000000000000000000000000000000000000000000000000000 DUP2 MSTORE PUSH1 0x4 ADD PUSH2 0x3774 SWAP1 PUSH2 0x6CB6 JUMP JUMPDEST PUSH1 0x40 MLOAD DUP1 SWAP2 SUB SWAP1 REVERT JUMPDEST DUP1 PUSH1 0x8 PUSH1 0x0 PUSH2 0x100 EXP DUP2 SLOAD DUP2 PUSH20 0xFFFFFFFFFFFFFFFFFFFFFFFFFFFFFFFFFFFFFFFF MUL NOT AND SWAP1 DUP4 PUSH20 0xFFFFFFFFFFFFFFFFFFFFFFFFFFFFFFFFFFFFFFFF AND MUL OR SWAP1 SSTORE POP DUP1 PUSH20 0xFFFFFFFFFFFFFFFFFFFFFFFFFFFFFFFFFFFFFFFF AND PUSH1 0x7 PUSH1 0x0 SWAP1 SLOAD SWAP1 PUSH2 0x100 EXP SWAP1 DIV PUSH20 0xFFFFFFFFFFFFFFFFFFFFFFFFFFFFFFFFFFFFFFFF AND PUSH20 0xFFFFFFFFFFFFFFFFFFFFFFFFFFFFFFFFFFFFFFFF AND PUSH32 0xED8889F560326EB138920D842192F0EB3DD22B4F139C87A2C57538E05BAE1278 PUSH1 0x40 MLOAD PUSH1 0x40 MLOAD DUP1 SWAP2 SUB SWAP1 LOG3 POP JUMP JUMPDEST PUSH1 0x0 PUSH20 0xFFFFFFFFFFFFFFFFFFFFFFFFFFFFFFFFFFFFFFFF AND DUP4 PUSH20 0xFFFFFFFFFFFFFFFFFFFFFFFFFFFFFFFFFFFFFFFF AND SUB PUSH2 0x38AF JUMPI PUSH1 0x0 PUSH1 0x40 MLOAD PUSH32 0x1A8351400000000000000000000000000000000000000000000000000000000 DUP2 MSTORE PUSH1 0x4 ADD PUSH2 0x38A6 SWAP2 SWAP1 PUSH2 0x5912 JUMP JUMPDEST PUSH1 0x40 MLOAD DUP1 SWAP2 SUB SWAP1 REVERT JUMPDEST PUSH1 0x0 DUP1 PUSH2 0x38BC DUP5 DUP5 PUSH2 0x3C5A JUMP JUMPDEST SWAP2 POP SWAP2 POP PUSH2 0x38DD DUP6 PUSH1 0x0 DUP5 DUP5 PUSH1 0x40 MLOAD DUP1 PUSH1 0x20 ADD PUSH1 0x40 MSTORE DUP1 PUSH1 0x0 DUP2 MSTORE POP PUSH2 0x394E JUMP JUMPDEST POP POP POP POP POP JUMP JUMPDEST PUSH1 0x0 PUSH32 0x1FFC9A700000000000000000000000000000000000000000000000000000000 PUSH28 0xFFFFFFFFFFFFFFFFFFFFFFFFFFFFFFFFFFFFFFFFFFFFFFFFFFFFFFFF NOT AND DUP3 PUSH28 0xFFFFFFFFFFFFFFFFFFFFFFFFFFFFFFFFFFFFFFFFFFFFFFFFFFFFFFFF NOT AND EQ SWAP1 POP SWAP2 SWAP1 POP JUMP JUMPDEST PUSH2 0x395A DUP6 DUP6 DUP6 DUP6 PUSH2 0x3C8A JUMP JUMPDEST PUSH1 0x0 PUSH20 0xFFFFFFFFFFFFFFFFFFFFFFFFFFFFFFFFFFFFFFFF AND DUP5 PUSH20 0xFFFFFFFFFFFFFFFFFFFFFFFFFFFFFFFFFFFFFFFF AND EQ PUSH2 0x39F9 JUMPI PUSH1 0x0 PUSH2 0x3998 PUSH2 0x2BEE JUMP JUMPDEST SWAP1 POP PUSH1 0x1 DUP5 MLOAD SUB PUSH2 0x39E8 JUMPI PUSH1 0x0 PUSH2 0x39B9 PUSH1 0x0 DUP7 PUSH2 0x2D81 SWAP1 SWAP2 SWAP1 PUSH4 0xFFFFFFFF AND JUMP JUMPDEST SWAP1 POP PUSH1 0x0 PUSH2 0x39D1 PUSH1 0x0 DUP7 PUSH2 0x2D81 SWAP1 SWAP2 SWAP1 PUSH4 0xFFFFFFFF AND JUMP JUMPDEST SWAP1 POP PUSH2 0x39E1 DUP4 DUP10 DUP10 DUP6 DUP6 DUP10 PUSH2 0x3E35 JUMP JUMPDEST POP POP PUSH2 0x39F7 JUMP JUMPDEST PUSH2 0x39F6 DUP2 DUP8 DUP8 DUP8 DUP8 DUP8 PUSH2 0x3FE9 JUMP JUMPDEST JUMPDEST POP JUMPDEST POP POP POP POP POP JUMP JUMPDEST PUSH1 0x0 PUSH2 0x3A2B DUP3 DUP5 PUSH20 0xFFFFFFFFFFFFFFFFFFFFFFFFFFFFFFFFFFFFFFFF AND PUSH2 0x419D SWAP1 SWAP2 SWAP1 PUSH4 0xFFFFFFFF AND JUMP JUMPDEST SWAP1 POP PUSH1 0x0 DUP2 MLOAD EQ ISZERO DUP1 ISZERO PUSH2 0x3A50 JUMPI POP DUP1 DUP1 PUSH1 0x20 ADD SWAP1 MLOAD DUP2 ADD SWAP1 PUSH2 0x3A4E SWAP2 SWAP1 PUSH2 0x6563 JUMP JUMPDEST ISZERO JUMPDEST ISZERO PUSH2 0x3A92 JUMPI DUP3 PUSH1 0x40 MLOAD PUSH32 0x5274AFE700000000000000000000000000000000000000000000000000000000 DUP2 MSTORE PUSH1 0x4 ADD PUSH2 0x3A89 SWAP2 SWAP1 PUSH2 0x5912 JUMP JUMPDEST PUSH1 0x40 MLOAD DUP1 SWAP2 SUB SWAP1 REVERT JUMPDEST POP POP POP JUMP JUMPDEST PUSH1 0x0 DUP2 MLOAD SUB PUSH2 0x3AD2 JUMPI PUSH1 0x40 MLOAD PUSH32 0x22CE3EDD00000000000000000000000000000000000000000000000000000000 DUP2 MSTORE PUSH1 0x4 ADD PUSH1 0x40 MLOAD DUP1 SWAP2 SUB SWAP1 REVERT JUMPDEST DUP3 DUP5 PUSH1 0x0 ADD SWAP1 PUSH1 0x2 DUP2 GT ISZERO PUSH2 0x3AEA JUMPI PUSH2 0x3AE9 PUSH2 0x6299 JUMP JUMPDEST JUMPDEST SWAP1 DUP2 PUSH1 0x2 DUP2 GT ISZERO PUSH2 0x3AFE JUMPI PUSH2 0x3AFD PUSH2 0x6299 JUMP JUMPDEST JUMPDEST DUP2 MSTORE POP POP DUP2 DUP5 PUSH1 0x40 ADD SWAP1 PUSH1 0x0 DUP2 GT ISZERO PUSH2 0x3B1A JUMPI PUSH2 0x3B19 PUSH2 0x6299 JUMP JUMPDEST JUMPDEST SWAP1 DUP2 PUSH1 0x0 DUP2 GT ISZERO PUSH2 0x3B2E JUMPI PUSH2 0x3B2D PUSH2 0x6299 JUMP JUMPDEST JUMPDEST DUP2 MSTORE POP POP DUP1 DUP5 PUSH1 0x60 ADD DUP2 SWAP1 MSTORE POP POP POP POP POP JUMP JUMPDEST PUSH2 0x3B49 PUSH2 0x4C85 JUMP JUMPDEST PUSH2 0x3B57 DUP2 PUSH1 0x0 ADD MLOAD DUP4 PUSH2 0x41B3 JUMP JUMPDEST POP PUSH1 0x0 DUP2 PUSH1 0x20 ADD DUP2 DUP2 MSTORE POP POP SWAP2 SWAP1 POP JUMP JUMPDEST PUSH2 0x3B75 DUP3 PUSH1 0x3 DUP4 MLOAD PUSH2 0x422C JUMP JUMPDEST PUSH2 0x3B8C DUP2 DUP4 PUSH1 0x0 ADD MLOAD PUSH2 0x43D5 SWAP1 SWAP2 SWAP1 PUSH4 0xFFFFFFFF AND JUMP JUMPDEST POP POP POP JUMP JUMPDEST PUSH2 0x3BB3 PUSH1 0x2 PUSH1 0x5 PUSH1 0x6 PUSH1 0xFF AND SWAP1 SHL OR DUP4 PUSH1 0x0 ADD MLOAD PUSH2 0x43F1 SWAP1 SWAP2 SWAP1 PUSH4 0xFFFFFFFF AND JUMP JUMPDEST POP PUSH2 0x3BDD DUP3 DUP3 PUSH1 0x40 MLOAD PUSH1 0x20 ADD PUSH2 0x3BC9 SWAP2 SWAP1 PUSH2 0x4DD3 JUMP JUMPDEST PUSH1 0x40 MLOAD PUSH1 0x20 DUP2 DUP4 SUB SUB DUP2 MSTORE SWAP1 PUSH1 0x40 MSTORE PUSH2 0x3C31 JUMP JUMPDEST POP POP JUMP JUMPDEST PUSH2 0x3BEC DUP2 PUSH1 0x4 PUSH2 0x445B JUMP JUMPDEST PUSH1 0x1 DUP2 PUSH1 0x20 ADD DUP2 DUP2 MLOAD PUSH2 0x3BFF SWAP2 SWAP1 PUSH2 0x6D05 JUMP JUMPDEST SWAP2 POP DUP2 DUP2 MSTORE POP POP POP JUMP JUMPDEST PUSH2 0x3C14 DUP2 PUSH1 0x7 PUSH2 0x445B JUMP JUMPDEST PUSH1 0x1 DUP2 PUSH1 0x20 ADD DUP2 DUP2 MLOAD PUSH2 0x3C27 SWAP2 SWAP1 PUSH2 0x6D39 JUMP JUMPDEST SWAP2 POP DUP2 DUP2 MSTORE POP POP POP JUMP JUMPDEST PUSH2 0x3C3E DUP3 PUSH1 0x2 DUP4 MLOAD PUSH2 0x422C JUMP JUMPDEST PUSH2 0x3C55 DUP2 DUP4 PUSH1 0x0 ADD MLOAD PUSH2 0x43D5 SWAP1 SWAP2 SWAP1 PUSH4 0xFFFFFFFF AND JUMP JUMPDEST POP POP POP JUMP JUMPDEST PUSH1 0x60 DUP1 PUSH1 0x40 MLOAD SWAP2 POP PUSH1 0x1 DUP3 MSTORE DUP4 PUSH1 0x20 DUP4 ADD MSTORE PUSH1 0x40 DUP3 ADD SWAP1 POP PUSH1 0x1 DUP2 MSTORE DUP3 PUSH1 0x20 DUP3 ADD MSTORE PUSH1 0x40 DUP2 ADD PUSH1 0x40 MSTORE SWAP3 POP SWAP3 SWAP1 POP JUMP JUMPDEST PUSH2 0x3C96 DUP5 DUP5 DUP5 DUP5 PUSH2 0x4481 JUMP JUMPDEST PUSH1 0x0 PUSH20 0xFFFFFFFFFFFFFFFFFFFFFFFFFFFFFFFFFFFFFFFF AND DUP5 PUSH20 0xFFFFFFFFFFFFFFFFFFFFFFFFFFFFFFFFFFFFFFFF AND SUB PUSH2 0x3D70 JUMPI PUSH1 0x0 DUP1 JUMPDEST DUP4 MLOAD DUP2 LT ISZERO PUSH2 0x3D54 JUMPI PUSH1 0x0 DUP4 DUP3 DUP2 MLOAD DUP2 LT PUSH2 0x3CEC JUMPI PUSH2 0x3CEB PUSH2 0x6671 JUMP JUMPDEST JUMPDEST PUSH1 0x20 MUL PUSH1 0x20 ADD ADD MLOAD SWAP1 POP DUP1 PUSH1 0x3 PUSH1 0x0 DUP8 DUP6 DUP2 MLOAD DUP2 LT PUSH2 0x3D0E JUMPI PUSH2 0x3D0D PUSH2 0x6671 JUMP JUMPDEST JUMPDEST PUSH1 0x20 MUL PUSH1 0x20 ADD ADD MLOAD DUP2 MSTORE PUSH1 0x20 ADD SWAP1 DUP2 MSTORE PUSH1 0x20 ADD PUSH1 0x0 KECCAK256 PUSH1 0x0 DUP3 DUP3 SLOAD PUSH2 0x3D33 SWAP2 SWAP1 PUSH2 0x6D05 JUMP JUMPDEST SWAP3 POP POP DUP2 SWAP1 SSTORE POP DUP1 DUP4 PUSH2 0x3D46 SWAP2 SWAP1 PUSH2 0x6D05 JUMP JUMPDEST SWAP3 POP POP DUP1 PUSH1 0x1 ADD SWAP1 POP PUSH2 0x3CCE JUMP JUMPDEST POP DUP1 PUSH1 0x4 PUSH1 0x0 DUP3 DUP3 SLOAD PUSH2 0x3D67 SWAP2 SWAP1 PUSH2 0x6D05 JUMP JUMPDEST SWAP3 POP POP DUP2 SWAP1 SSTORE POP POP JUMPDEST PUSH1 0x0 PUSH20 0xFFFFFFFFFFFFFFFFFFFFFFFFFFFFFFFFFFFFFFFF AND DUP4 PUSH20 0xFFFFFFFFFFFFFFFFFFFFFFFFFFFFFFFFFFFFFFFF AND SUB PUSH2 0x3E2F JUMPI PUSH1 0x0 DUP1 JUMPDEST DUP4 MLOAD DUP2 LT ISZERO PUSH2 0x3E1C JUMPI PUSH1 0x0 DUP4 DUP3 DUP2 MLOAD DUP2 LT PUSH2 0x3DC6 JUMPI PUSH2 0x3DC5 PUSH2 0x6671 JUMP JUMPDEST JUMPDEST PUSH1 0x20 MUL PUSH1 0x20 ADD ADD MLOAD SWAP1 POP DUP1 PUSH1 0x3 PUSH1 0x0 DUP8 DUP6 DUP2 MLOAD DUP2 LT PUSH2 0x3DE8 JUMPI PUSH2 0x3DE7 PUSH2 0x6671 JUMP JUMPDEST JUMPDEST PUSH1 0x20 MUL PUSH1 0x20 ADD ADD MLOAD DUP2 MSTORE PUSH1 0x20 ADD SWAP1 DUP2 MSTORE PUSH1 0x20 ADD PUSH1 0x0 KECCAK256 PUSH1 0x0 DUP3 DUP3 SLOAD SUB SWAP3 POP POP DUP2 SWAP1 SSTORE POP DUP1 DUP4 ADD SWAP3 POP POP DUP1 PUSH1 0x1 ADD SWAP1 POP PUSH2 0x3DA8 JUMP JUMPDEST POP DUP1 PUSH1 0x4 PUSH1 0x0 DUP3 DUP3 SLOAD SUB SWAP3 POP POP DUP2 SWAP1 SSTORE POP POP JUMPDEST POP POP POP POP JUMP JUMPDEST PUSH1 0x0 DUP5 PUSH20 0xFFFFFFFFFFFFFFFFFFFFFFFFFFFFFFFFFFFFFFFF AND EXTCODESIZE GT ISZERO PUSH2 0x3FE1 JUMPI DUP4 PUSH20 0xFFFFFFFFFFFFFFFFFFFFFFFFFFFFFFFFFFFFFFFF AND PUSH4 0xF23A6E61 DUP8 DUP8 DUP7 DUP7 DUP7 PUSH1 0x40 MLOAD DUP7 PUSH4 0xFFFFFFFF AND PUSH1 0xE0 SHL DUP2 MSTORE PUSH1 0x4 ADD PUSH2 0x3E96 SWAP6 SWAP5 SWAP4 SWAP3 SWAP2 SWAP1 PUSH2 0x6D6D JUMP JUMPDEST PUSH1 0x20 PUSH1 0x40 MLOAD DUP1 DUP4 SUB DUP2 PUSH1 0x0 DUP8 GAS CALL SWAP3 POP POP POP DUP1 ISZERO PUSH2 0x3ED2 JUMPI POP PUSH1 0x40 MLOAD RETURNDATASIZE PUSH1 0x1F NOT PUSH1 0x1F DUP3 ADD AND DUP3 ADD DUP1 PUSH1 0x40 MSTORE POP DUP2 ADD SWAP1 PUSH2 0x3ECF SWAP2 SWAP1 PUSH2 0x6DDC JUMP JUMPDEST PUSH1 0x1 JUMPDEST PUSH2 0x3F56 JUMPI RETURNDATASIZE DUP1 PUSH1 0x0 DUP2 EQ PUSH2 0x3F02 JUMPI PUSH1 0x40 MLOAD SWAP2 POP PUSH1 0x1F NOT PUSH1 0x3F RETURNDATASIZE ADD AND DUP3 ADD PUSH1 0x40 MSTORE RETURNDATASIZE DUP3 MSTORE RETURNDATASIZE PUSH1 0x0 PUSH1 0x20 DUP5 ADD RETURNDATACOPY PUSH2 0x3F07 JUMP JUMPDEST PUSH1 0x60 SWAP2 POP JUMPDEST POP PUSH1 0x0 DUP2 MLOAD SUB PUSH2 0x3F4E JUMPI DUP5 PUSH1 0x40 MLOAD PUSH32 0x57F447CE00000000000000000000000000000000000000000000000000000000 DUP2 MSTORE PUSH1 0x4 ADD PUSH2 0x3F45 SWAP2 SWAP1 PUSH2 0x5912 JUMP JUMPDEST PUSH1 0x40 MLOAD DUP1 SWAP2 SUB SWAP1 REVERT JUMPDEST DUP1 MLOAD DUP2 PUSH1 0x20 ADD REVERT JUMPDEST PUSH4 0xF23A6E61 PUSH1 0xE0 SHL PUSH28 0xFFFFFFFFFFFFFFFFFFFFFFFFFFFFFFFFFFFFFFFFFFFFFFFFFFFFFFFF NOT AND DUP2 PUSH28 0xFFFFFFFFFFFFFFFFFFFFFFFFFFFFFFFFFFFFFFFFFFFFFFFFFFFFFFFF NOT AND EQ PUSH2 0x3FDF JUMPI DUP5 PUSH1 0x40 MLOAD PUSH32 0x57F447CE00000000000000000000000000000000000000000000000000000000 DUP2 MSTORE PUSH1 0x4 ADD PUSH2 0x3FD6 SWAP2 SWAP1 PUSH2 0x5912 JUMP JUMPDEST PUSH1 0x40 MLOAD DUP1 SWAP2 SUB SWAP1 REVERT JUMPDEST POP JUMPDEST POP POP POP POP POP POP JUMP JUMPDEST PUSH1 0x0 DUP5 PUSH20 0xFFFFFFFFFFFFFFFFFFFFFFFFFFFFFFFFFFFFFFFF AND EXTCODESIZE GT ISZERO PUSH2 0x4195 JUMPI DUP4 PUSH20 0xFFFFFFFFFFFFFFFFFFFFFFFFFFFFFFFFFFFFFFFF AND PUSH4 0xBC197C81 DUP8 DUP8 DUP7 DUP7 DUP7 PUSH1 0x40 MLOAD DUP7 PUSH4 0xFFFFFFFF AND PUSH1 0xE0 SHL DUP2 MSTORE PUSH1 0x4 ADD PUSH2 0x404A SWAP6 SWAP5 SWAP4 SWAP3 SWAP2 SWAP1 PUSH2 0x6E09 JUMP JUMPDEST PUSH1 0x20 PUSH1 0x40 MLOAD DUP1 DUP4 SUB DUP2 PUSH1 0x0 DUP8 GAS CALL SWAP3 POP POP POP DUP1 ISZERO PUSH2 0x4086 JUMPI POP PUSH1 0x40 MLOAD RETURNDATASIZE PUSH1 0x1F NOT PUSH1 0x1F DUP3 ADD AND DUP3 ADD DUP1 PUSH1 0x40 MSTORE POP DUP2 ADD SWAP1 PUSH2 0x4083 SWAP2 SWAP1 PUSH2 0x6DDC JUMP JUMPDEST PUSH1 0x1 JUMPDEST PUSH2 0x410A JUMPI RETURNDATASIZE DUP1 PUSH1 0x0 DUP2 EQ PUSH2 0x40B6 JUMPI PUSH1 0x40 MLOAD SWAP2 POP PUSH1 0x1F NOT PUSH1 0x3F RETURNDATASIZE ADD AND DUP3 ADD PUSH1 0x40 MSTORE RETURNDATASIZE DUP3 MSTORE RETURNDATASIZE PUSH1 0x0 PUSH1 0x20 DUP5 ADD RETURNDATACOPY PUSH2 0x40BB JUMP JUMPDEST PUSH1 0x60 SWAP2 POP JUMPDEST POP PUSH1 0x0 DUP2 MLOAD SUB PUSH2 0x4102 JUMPI DUP5 PUSH1 0x40 MLOAD PUSH32 0x57F447CE00000000000000000000000000000000000000000000000000000000 DUP2 MSTORE PUSH1 0x4 ADD PUSH2 0x40F9 SWAP2 SWAP1 PUSH2 0x5912 JUMP JUMPDEST PUSH1 0x40 MLOAD DUP1 SWAP2 SUB SWAP1 REVERT JUMPDEST DUP1 MLOAD DUP2 PUSH1 0x20 ADD REVERT JUMPDEST PUSH4 0xBC197C81 PUSH1 0xE0 SHL PUSH28 0xFFFFFFFFFFFFFFFFFFFFFFFFFFFFFFFFFFFFFFFFFFFFFFFFFFFFFFFF NOT AND DUP2 PUSH28 0xFFFFFFFFFFFFFFFFFFFFFFFFFFFFFFFFFFFFFFFFFFFFFFFFFFFFFFFF NOT AND EQ PUSH2 0x4193 JUMPI DUP5 PUSH1 0x40 MLOAD PUSH32 0x57F447CE00000000000000000000000000000000000000000000000000000000 DUP2 MSTORE PUSH1 0x4 ADD PUSH2 0x418A SWAP2 SWAP1 PUSH2 0x5912 JUMP JUMPDEST PUSH1 0x40 MLOAD DUP1 SWAP2 SUB SWAP1 REVERT JUMPDEST POP JUMPDEST POP POP POP POP POP POP JUMP JUMPDEST PUSH1 0x60 PUSH2 0x41AB DUP4 DUP4 PUSH1 0x0 PUSH2 0x4829 JUMP JUMPDEST SWAP1 POP SWAP3 SWAP2 POP POP JUMP JUMPDEST PUSH2 0x41BB PUSH2 0x4CA5 JUMP JUMPDEST PUSH1 0x0 PUSH1 0x20 DUP4 PUSH2 0x41CA SWAP2 SWAP1 PUSH2 0x6EA0 JUMP JUMPDEST EQ PUSH2 0x41F6 JUMPI PUSH1 0x20 DUP3 PUSH2 0x41DC SWAP2 SWAP1 PUSH2 0x6EA0 JUMP JUMPDEST PUSH1 0x20 PUSH2 0x41E8 SWAP2 SWAP1 PUSH2 0x6D39 JUMP JUMPDEST DUP3 PUSH2 0x41F3 SWAP2 SWAP1 PUSH2 0x6D05 JUMP JUMPDEST SWAP2 POP JUMPDEST DUP2 DUP4 PUSH1 0x20 ADD DUP2 DUP2 MSTORE POP POP PUSH1 0x40 MLOAD DUP1 DUP5 MSTORE PUSH1 0x0 DUP2 MSTORE DUP3 DUP2 ADD PUSH1 0x20 ADD DUP2 DUP2 LT ISZERO PUSH2 0x421D JUMPI PUSH1 0x0 DUP1 REVERT JUMPDEST DUP1 PUSH1 0x40 MSTORE POP POP DUP3 SWAP1 POP SWAP3 SWAP2 POP POP JUMP JUMPDEST PUSH1 0x17 DUP2 PUSH8 0xFFFFFFFFFFFFFFFF AND GT PUSH2 0x4267 JUMPI PUSH2 0x4261 DUP2 PUSH1 0x5 DUP5 PUSH1 0xFF AND SWAP1 SHL PUSH1 0xFF AND OR DUP5 PUSH1 0x0 ADD MLOAD PUSH2 0x43F1 SWAP1 SWAP2 SWAP1 PUSH4 0xFFFFFFFF AND JUMP JUMPDEST POP PUSH2 0x43D0 JUMP JUMPDEST PUSH1 0xFF DUP2 PUSH8 0xFFFFFFFFFFFFFFFF AND GT PUSH2 0x42C5 JUMPI PUSH2 0x429A PUSH1 0x18 PUSH1 0x5 DUP5 PUSH1 0xFF AND SWAP1 SHL OR DUP5 PUSH1 0x0 ADD MLOAD PUSH2 0x43F1 SWAP1 SWAP2 SWAP1 PUSH4 0xFFFFFFFF AND JUMP JUMPDEST POP PUSH2 0x42BF DUP2 PUSH8 0xFFFFFFFFFFFFFFFF AND PUSH1 0x1 DUP6 PUSH1 0x0 ADD MLOAD PUSH2 0x48F6 SWAP1 SWAP3 SWAP2 SWAP1 PUSH4 0xFFFFFFFF AND JUMP JUMPDEST POP PUSH2 0x43CF JUMP JUMPDEST PUSH2 0xFFFF DUP2 PUSH8 0xFFFFFFFFFFFFFFFF AND GT PUSH2 0x4324 JUMPI PUSH2 0x42F9 PUSH1 0x19 PUSH1 0x5 DUP5 PUSH1 0xFF AND SWAP1 SHL OR DUP5 PUSH1 0x0 ADD MLOAD PUSH2 0x43F1 SWAP1 SWAP2 SWAP1 PUSH4 0xFFFFFFFF AND JUMP JUMPDEST POP PUSH2 0x431E DUP2 PUSH8 0xFFFFFFFFFFFFFFFF AND PUSH1 0x2 DUP6 PUSH1 0x0 ADD MLOAD PUSH2 0x48F6 SWAP1 SWAP3 SWAP2 SWAP1 PUSH4 0xFFFFFFFF AND JUMP JUMPDEST POP PUSH2 0x43CE JUMP JUMPDEST PUSH4 0xFFFFFFFF DUP2 PUSH8 0xFFFFFFFFFFFFFFFF AND GT PUSH2 0x4385 JUMPI PUSH2 0x435A PUSH1 0x1A PUSH1 0x5 DUP5 PUSH1 0xFF AND SWAP1 SHL OR DUP5 PUSH1 0x0 ADD MLOAD PUSH2 0x43F1 SWAP1 SWAP2 SWAP1 PUSH4 0xFFFFFFFF AND JUMP JUMPDEST POP PUSH2 0x437F DUP2 PUSH8 0xFFFFFFFFFFFFFFFF AND PUSH1 0x4 DUP6 PUSH1 0x0 ADD MLOAD PUSH2 0x48F6 SWAP1 SWAP3 SWAP2 SWAP1 PUSH4 0xFFFFFFFF AND JUMP JUMPDEST POP PUSH2 0x43CD JUMP JUMPDEST PUSH2 0x43A6 PUSH1 0x1B PUSH1 0x5 DUP5 PUSH1 0xFF AND SWAP1 SHL OR DUP5 PUSH1 0x0 ADD MLOAD PUSH2 0x43F1 SWAP1 SWAP2 SWAP1 PUSH4 0xFFFFFFFF AND JUMP JUMPDEST POP PUSH2 0x43CB DUP2 PUSH8 0xFFFFFFFFFFFFFFFF AND PUSH1 0x8 DUP6 PUSH1 0x0 ADD MLOAD PUSH2 0x48F6 SWAP1 SWAP3 SWAP2 SWAP1 PUSH4 0xFFFFFFFF AND JUMP JUMPDEST POP JUMPDEST JUMPDEST JUMPDEST JUMPDEST POP POP POP JUMP JUMPDEST PUSH2 0x43DD PUSH2 0x4CA5 JUMP JUMPDEST PUSH2 0x43E9 DUP4 DUP4 DUP5 MLOAD PUSH2 0x4983 JUMP JUMPDEST SWAP1 POP SWAP3 SWAP2 POP POP JUMP JUMPDEST PUSH2 0x43F9 PUSH2 0x4CA5 JUMP JUMPDEST PUSH1 0x0 DUP4 PUSH1 0x0 ADD MLOAD MLOAD SWAP1 POP PUSH1 0x0 PUSH1 0x1 DUP3 PUSH2 0x4412 SWAP2 SWAP1 PUSH2 0x6D05 JUMP JUMPDEST SWAP1 POP DUP5 PUSH1 0x20 ADD MLOAD DUP3 LT PUSH2 0x4436 JUMPI PUSH2 0x4435 DUP6 PUSH1 0x2 DUP4 PUSH2 0x4430 SWAP2 SWAP1 PUSH2 0x6ED1 JUMP JUMPDEST PUSH2 0x4A66 JUMP JUMPDEST JUMPDEST DUP5 MLOAD PUSH1 0x20 DUP4 DUP3 ADD ADD DUP6 DUP2 MSTORE8 DUP2 MLOAD DUP4 GT ISZERO PUSH2 0x444E JUMPI DUP3 DUP3 MSTORE JUMPDEST POP POP DUP5 SWAP3 POP POP POP SWAP3 SWAP2 POP POP JUMP JUMPDEST PUSH2 0x447C PUSH1 0x1F PUSH1 0x5 DUP4 PUSH1 0xFF AND SWAP1 SHL OR DUP4 PUSH1 0x0 ADD MLOAD PUSH2 0x43F1 SWAP1 SWAP2 SWAP1 PUSH4 0xFFFFFFFF AND JUMP JUMPDEST POP POP POP JUMP JUMPDEST DUP1 MLOAD DUP3 MLOAD EQ PUSH2 0x44CB JUMPI DUP2 MLOAD DUP2 MLOAD PUSH1 0x40 MLOAD PUSH32 0x5B05999100000000000000000000000000000000000000000000000000000000 DUP2 MSTORE PUSH1 0x4 ADD PUSH2 0x44C2 SWAP3 SWAP2 SWAP1 PUSH2 0x64FC JUMP JUMPDEST PUSH1 0x40 MLOAD DUP1 SWAP2 SUB SWAP1 REVERT JUMPDEST PUSH1 0x0 PUSH2 0x44D5 PUSH2 0x2BEE JUMP JUMPDEST SWAP1 POP PUSH1 0x0 JUMPDEST DUP4 MLOAD DUP2 LT ISZERO PUSH2 0x46E4 JUMPI PUSH1 0x0 PUSH2 0x44F8 DUP3 DUP7 PUSH2 0x2D81 SWAP1 SWAP2 SWAP1 PUSH4 0xFFFFFFFF AND JUMP JUMPDEST SWAP1 POP PUSH1 0x0 PUSH2 0x450F DUP4 DUP7 PUSH2 0x2D81 SWAP1 SWAP2 SWAP1 PUSH4 0xFFFFFFFF AND JUMP JUMPDEST SWAP1 POP PUSH1 0x0 PUSH20 0xFFFFFFFFFFFFFFFFFFFFFFFFFFFFFFFFFFFFFFFF AND DUP9 PUSH20 0xFFFFFFFFFFFFFFFFFFFFFFFFFFFFFFFFFFFFFFFF AND EQ PUSH2 0x463C JUMPI PUSH1 0x0 DUP1 PUSH1 0x0 DUP5 DUP2 MSTORE PUSH1 0x20 ADD SWAP1 DUP2 MSTORE PUSH1 0x20 ADD PUSH1 0x0 KECCAK256 PUSH1 0x0 DUP11 PUSH20 0xFFFFFFFFFFFFFFFFFFFFFFFFFFFFFFFFFFFFFFFF AND PUSH20 0xFFFFFFFFFFFFFFFFFFFFFFFFFFFFFFFFFFFFFFFF AND DUP2 MSTORE PUSH1 0x20 ADD SWAP1 DUP2 MSTORE PUSH1 0x20 ADD PUSH1 0x0 KECCAK256 SLOAD SWAP1 POP DUP2 DUP2 LT ISZERO PUSH2 0x45E4 JUMPI DUP9 DUP2 DUP4 DUP6 PUSH1 0x40 MLOAD PUSH32 0x3DEE4C500000000000000000000000000000000000000000000000000000000 DUP2 MSTORE PUSH1 0x4 ADD PUSH2 0x45DB SWAP5 SWAP4 SWAP3 SWAP2 SWAP1 PUSH2 0x6F13 JUMP JUMPDEST PUSH1 0x40 MLOAD DUP1 SWAP2 SUB SWAP1 REVERT JUMPDEST DUP2 DUP2 SUB PUSH1 0x0 DUP1 DUP6 DUP2 MSTORE PUSH1 0x20 ADD SWAP1 DUP2 MSTORE PUSH1 0x20 ADD PUSH1 0x0 KECCAK256 PUSH1 0x0 DUP12 PUSH20 0xFFFFFFFFFFFFFFFFFFFFFFFFFFFFFFFFFFFFFFFF AND PUSH20 0xFFFFFFFFFFFFFFFFFFFFFFFFFFFFFFFFFFFFFFFF AND DUP2 MSTORE PUSH1 0x20 ADD SWAP1 DUP2 MSTORE PUSH1 0x20 ADD PUSH1 0x0 KECCAK256 DUP2 SWAP1 SSTORE POP POP JUMPDEST PUSH1 0x0 PUSH20 0xFFFFFFFFFFFFFFFFFFFFFFFFFFFFFFFFFFFFFFFF AND DUP8 PUSH20 0xFFFFFFFFFFFFFFFFFFFFFFFFFFFFFFFFFFFFFFFF AND EQ PUSH2 0x46D7 JUMPI DUP1 PUSH1 0x0 DUP1 DUP5 DUP2 MSTORE PUSH1 0x20 ADD SWAP1 DUP2 MSTORE PUSH1 0x20 ADD PUSH1 0x0 KECCAK256 PUSH1 0x0 DUP10 PUSH20 0xFFFFFFFFFFFFFFFFFFFFFFFFFFFFFFFFFFFFFFFF AND PUSH20 0xFFFFFFFFFFFFFFFFFFFFFFFFFFFFFFFFFFFFFFFF AND DUP2 MSTORE PUSH1 0x20 ADD SWAP1 DUP2 MSTORE PUSH1 0x20 ADD PUSH1 0x0 KECCAK256 PUSH1 0x0 DUP3 DUP3 SLOAD PUSH2 0x46CF SWAP2 SWAP1 PUSH2 0x6D05 JUMP JUMPDEST SWAP3 POP POP DUP2 SWAP1 SSTORE POP JUMPDEST POP POP DUP1 PUSH1 0x1 ADD SWAP1 POP PUSH2 0x44DA JUMP JUMPDEST POP PUSH1 0x1 DUP4 MLOAD SUB PUSH2 0x47A3 JUMPI PUSH1 0x0 PUSH2 0x4704 PUSH1 0x0 DUP6 PUSH2 0x2D81 SWAP1 SWAP2 SWAP1 PUSH4 0xFFFFFFFF AND JUMP JUMPDEST SWAP1 POP PUSH1 0x0 PUSH2 0x471C PUSH1 0x0 DUP6 PUSH2 0x2D81 SWAP1 SWAP2 SWAP1 PUSH4 0xFFFFFFFF AND JUMP JUMPDEST SWAP1 POP DUP6 PUSH20 0xFFFFFFFFFFFFFFFFFFFFFFFFFFFFFFFFFFFFFFFF AND DUP8 PUSH20 0xFFFFFFFFFFFFFFFFFFFFFFFFFFFFFFFFFFFFFFFF AND DUP5 PUSH20 0xFFFFFFFFFFFFFFFFFFFFFFFFFFFFFFFFFFFFFFFF AND PUSH32 0xC3D58168C5AE7397731D063D5BBF3D657854427343F4C083240F7AACAA2D0F62 DUP6 DUP6 PUSH1 0x40 MLOAD PUSH2 0x4794 SWAP3 SWAP2 SWAP1 PUSH2 0x64FC JUMP JUMPDEST PUSH1 0x40 MLOAD DUP1 SWAP2 SUB SWAP1 LOG4 POP POP PUSH2 0x4822 JUMP JUMPDEST DUP4 PUSH20 0xFFFFFFFFFFFFFFFFFFFFFFFFFFFFFFFFFFFFFFFF AND DUP6 PUSH20 0xFFFFFFFFFFFFFFFFFFFFFFFFFFFFFFFFFFFFFFFF AND DUP3 PUSH20 0xFFFFFFFFFFFFFFFFFFFFFFFFFFFFFFFFFFFFFFFF AND PUSH32 0x4A39DC06D4C0DBC64B70AF90FD698A233A518AA5D07E595D983B8C0526C8F7FB DUP7 DUP7 PUSH1 0x40 MLOAD PUSH2 0x4819 SWAP3 SWAP2 SWAP1 PUSH2 0x6F58 JUMP JUMPDEST PUSH1 0x40 MLOAD DUP1 SWAP2 SUB SWAP1 LOG4 JUMPDEST POP POP POP POP POP JUMP JUMPDEST PUSH1 0x60 DUP2 SELFBALANCE LT ISZERO PUSH2 0x4870 JUMPI ADDRESS PUSH1 0x40 MLOAD PUSH32 0xCD78605900000000000000000000000000000000000000000000000000000000 DUP2 MSTORE PUSH1 0x4 ADD PUSH2 0x4867 SWAP2 SWAP1 PUSH2 0x5912 JUMP JUMPDEST PUSH1 0x40 MLOAD DUP1 SWAP2 SUB SWAP1 REVERT JUMPDEST PUSH1 0x0 DUP1 DUP6 PUSH20 0xFFFFFFFFFFFFFFFFFFFFFFFFFFFFFFFFFFFFFFFF AND DUP5 DUP7 PUSH1 0x40 MLOAD PUSH2 0x4899 SWAP2 SWAP1 PUSH2 0x6FC0 JUMP JUMPDEST PUSH1 0x0 PUSH1 0x40 MLOAD DUP1 DUP4 SUB DUP2 DUP6 DUP8 GAS CALL SWAP3 POP POP POP RETURNDATASIZE DUP1 PUSH1 0x0 DUP2 EQ PUSH2 0x48D6 JUMPI PUSH1 0x40 MLOAD SWAP2 POP PUSH1 0x1F NOT PUSH1 0x3F RETURNDATASIZE ADD AND DUP3 ADD PUSH1 0x40 MSTORE RETURNDATASIZE DUP3 MSTORE RETURNDATASIZE PUSH1 0x0 PUSH1 0x20 DUP5 ADD RETURNDATACOPY PUSH2 0x48DB JUMP JUMPDEST PUSH1 0x60 SWAP2 POP JUMPDEST POP SWAP2 POP SWAP2 POP PUSH2 0x48EB DUP7 DUP4 DUP4 PUSH2 0x4A8A JUMP JUMPDEST SWAP3 POP POP POP SWAP4 SWAP3 POP POP POP JUMP JUMPDEST PUSH2 0x48FE PUSH2 0x4CA5 JUMP JUMPDEST PUSH1 0x0 DUP5 PUSH1 0x0 ADD MLOAD MLOAD SWAP1 POP PUSH1 0x0 DUP2 DUP5 PUSH2 0x4916 SWAP2 SWAP1 PUSH2 0x6D05 JUMP JUMPDEST SWAP1 POP DUP6 PUSH1 0x20 ADD MLOAD DUP2 GT ISZERO PUSH2 0x493B JUMPI PUSH2 0x493A DUP7 PUSH1 0x2 DUP4 PUSH2 0x4935 SWAP2 SWAP1 PUSH2 0x6ED1 JUMP JUMPDEST PUSH2 0x4A66 JUMP JUMPDEST JUMPDEST PUSH1 0x0 PUSH1 0x1 DUP6 PUSH2 0x100 PUSH2 0x494D SWAP2 SWAP1 PUSH2 0x710A JUMP JUMPDEST PUSH2 0x4957 SWAP2 SWAP1 PUSH2 0x6D39 JUMP JUMPDEST SWAP1 POP DUP7 MLOAD DUP3 DUP2 ADD DUP8 DUP4 NOT DUP3 MLOAD AND OR DUP2 MSTORE DUP2 MLOAD DUP5 GT ISZERO PUSH2 0x4974 JUMPI DUP4 DUP3 MSTORE JUMPDEST POP POP DUP7 SWAP4 POP POP POP POP SWAP4 SWAP3 POP POP POP JUMP JUMPDEST PUSH2 0x498B PUSH2 0x4CA5 JUMP JUMPDEST DUP3 MLOAD DUP3 GT ISZERO PUSH2 0x4999 JUMPI PUSH1 0x0 DUP1 REVERT JUMPDEST PUSH1 0x0 DUP5 PUSH1 0x0 ADD MLOAD MLOAD SWAP1 POP PUSH1 0x0 DUP4 DUP3 PUSH2 0x49B1 SWAP2 SWAP1 PUSH2 0x6D05 JUMP JUMPDEST SWAP1 POP DUP6 PUSH1 0x20 ADD MLOAD DUP2 GT ISZERO PUSH2 0x49D6 JUMPI PUSH2 0x49D5 DUP7 PUSH1 0x2 DUP4 PUSH2 0x49D0 SWAP2 SWAP1 PUSH2 0x6ED1 JUMP JUMPDEST PUSH2 0x4A66 JUMP JUMPDEST JUMPDEST PUSH1 0x0 DUP1 DUP8 MLOAD DUP1 MLOAD DUP6 PUSH1 0x20 DUP4 ADD ADD SWAP4 POP DUP1 DUP6 GT ISZERO PUSH2 0x49F1 JUMPI DUP5 DUP3 MSTORE JUMPDEST PUSH1 0x20 DUP10 ADD SWAP3 POP POP POP JUMPDEST PUSH1 0x20 DUP7 LT PUSH2 0x4A38 JUMPI DUP1 MLOAD DUP3 MSTORE PUSH1 0x20 DUP3 PUSH2 0x4A13 SWAP2 SWAP1 PUSH2 0x6D05 JUMP JUMPDEST SWAP2 POP PUSH1 0x20 DUP2 PUSH2 0x4A22 SWAP2 SWAP1 PUSH2 0x6D05 JUMP JUMPDEST SWAP1 POP PUSH1 0x20 DUP7 PUSH2 0x4A31 SWAP2 SWAP1 PUSH2 0x6D39 JUMP JUMPDEST SWAP6 POP PUSH2 0x49FA JUMP JUMPDEST PUSH1 0x0 PUSH1 0x1 DUP8 PUSH1 0x20 SUB PUSH2 0x100 EXP SUB SWAP1 POP DUP1 NOT DUP3 MLOAD AND DUP2 DUP5 MLOAD AND DUP2 DUP2 OR DUP6 MSTORE POP POP POP DUP8 SWAP5 POP POP POP POP POP SWAP4 SWAP3 POP POP POP JUMP JUMPDEST PUSH1 0x0 DUP3 PUSH1 0x0 ADD MLOAD SWAP1 POP PUSH2 0x4A79 DUP4 DUP4 PUSH2 0x41B3 JUMP JUMPDEST POP PUSH2 0x4A84 DUP4 DUP3 PUSH2 0x43D5 JUMP JUMPDEST POP POP POP POP JUMP JUMPDEST PUSH1 0x60 DUP3 PUSH2 0x4A9F JUMPI PUSH2 0x4A9A DUP3 PUSH2 0x4B19 JUMP JUMPDEST PUSH2 0x4B11 JUMP JUMPDEST PUSH1 0x0 DUP3 MLOAD EQ DUP1 ISZERO PUSH2 0x4AC7 JUMPI POP PUSH1 0x0 DUP5 PUSH20 0xFFFFFFFFFFFFFFFFFFFFFFFFFFFFFFFFFFFFFFFF AND EXTCODESIZE EQ JUMPDEST ISZERO PUSH2 0x4B09 JUMPI DUP4 PUSH1 0x40 MLOAD PUSH32 0x9996B31500000000000000000000000000000000000000000000000000000000 DUP2 MSTORE PUSH1 0x4 ADD PUSH2 0x4B00 SWAP2 SWAP1 PUSH2 0x5912 JUMP JUMPDEST PUSH1 0x40 MLOAD DUP1 SWAP2 SUB SWAP1 REVERT JUMPDEST DUP2 SWAP1 POP PUSH2 0x4B12 JUMP JUMPDEST JUMPDEST SWAP4 SWAP3 POP POP POP JUMP JUMPDEST PUSH1 0x0 DUP2 MLOAD GT ISZERO PUSH2 0x4B2C JUMPI DUP1 MLOAD DUP1 DUP3 PUSH1 0x20 ADD REVERT JUMPDEST PUSH1 0x40 MLOAD PUSH32 0x1425EA4200000000000000000000000000000000000000000000000000000000 DUP2 MSTORE PUSH1 0x4 ADD PUSH1 0x40 MLOAD DUP1 SWAP2 SUB SWAP1 REVERT JUMPDEST PUSH1 0x40 MLOAD DUP1 PUSH1 0x40 ADD PUSH1 0x40 MSTORE DUP1 PUSH1 0x0 PUSH20 0xFFFFFFFFFFFFFFFFFFFFFFFFFFFFFFFFFFFFFFFF AND DUP2 MSTORE PUSH1 0x20 ADD PUSH1 0x0 DUP2 MSTORE POP SWAP1 JUMP JUMPDEST POP DUP1 SLOAD PUSH2 0x4B9A SWAP1 PUSH2 0x5F3D JUMP JUMPDEST PUSH1 0x0 DUP3 SSTORE DUP1 PUSH1 0x1F LT PUSH2 0x4BAC JUMPI POP PUSH2 0x4BCB JUMP JUMPDEST PUSH1 0x1F ADD PUSH1 0x20 SWAP1 DIV SWAP1 PUSH1 0x0 MSTORE PUSH1 0x20 PUSH1 0x0 KECCAK256 SWAP1 DUP2 ADD SWAP1 PUSH2 0x4BCA SWAP2 SWAP1 PUSH2 0x4CBF JUMP JUMPDEST JUMPDEST POP JUMP JUMPDEST PUSH1 0x40 MLOAD DUP1 PUSH1 0xE0 ADD PUSH1 0x40 MSTORE DUP1 PUSH1 0x0 PUSH1 0x2 DUP2 GT ISZERO PUSH2 0x4BED JUMPI PUSH2 0x4BEC PUSH2 0x6299 JUMP JUMPDEST JUMPDEST DUP2 MSTORE PUSH1 0x20 ADD PUSH1 0x0 PUSH1 0x2 DUP2 GT ISZERO PUSH2 0x4C06 JUMPI PUSH2 0x4C05 PUSH2 0x6299 JUMP JUMPDEST JUMPDEST DUP2 MSTORE PUSH1 0x20 ADD PUSH1 0x0 DUP1 DUP2 GT ISZERO PUSH2 0x4C1E JUMPI PUSH2 0x4C1D PUSH2 0x6299 JUMP JUMPDEST JUMPDEST DUP2 MSTORE PUSH1 0x20 ADD PUSH1 0x60 DUP2 MSTORE PUSH1 0x20 ADD PUSH1 0x60 DUP2 MSTORE PUSH1 0x20 ADD PUSH1 0x60 DUP2 MSTORE PUSH1 0x20 ADD PUSH1 0x60 DUP2 MSTORE POP SWAP1 JUMP JUMPDEST PUSH1 0x40 MLOAD DUP1 PUSH1 0x60 ADD PUSH1 0x40 MSTORE DUP1 PUSH1 0x0 PUSH10 0xFFFFFFFFFFFFFFFFFFFF AND DUP2 MSTORE PUSH1 0x20 ADD PUSH1 0x0 PUSH10 0xFFFFFFFFFFFFFFFFFFFF AND DUP2 MSTORE PUSH1 0x20 ADD PUSH1 0x0 PUSH10 0xFFFFFFFFFFFFFFFFFFFF AND DUP2 MSTORE POP SWAP1 JUMP JUMPDEST PUSH1 0x40 MLOAD DUP1 PUSH1 0x40 ADD PUSH1 0x40 MSTORE DUP1 PUSH2 0x4C98 PUSH2 0x4CA5 JUMP JUMPDEST DUP2 MSTORE PUSH1 0x20 ADD PUSH1 0x0 DUP2 MSTORE POP SWAP1 JUMP JUMPDEST PUSH1 0x40 MLOAD DUP1 PUSH1 0x40 ADD PUSH1 0x40 MSTORE DUP1 PUSH1 0x60 DUP2 MSTORE PUSH1 0x20 ADD PUSH1 0x0 DUP2 MSTORE POP SWAP1 JUMP JUMPDEST JUMPDEST DUP1 DUP3 GT ISZERO PUSH2 0x4CD8 JUMPI PUSH1 0x0 DUP2 PUSH1 0x0 SWAP1 SSTORE POP PUSH1 0x1 ADD PUSH2 0x4CC0 JUMP JUMPDEST POP SWAP1 JUMP JUMPDEST PUSH1 0x0 PUSH1 0x40 MLOAD SWAP1 POP SWAP1 JUMP JUMPDEST PUSH1 0x0 DUP1 REVERT JUMPDEST PUSH1 0x0 DUP1 REVERT JUMPDEST PUSH1 0x0 PUSH20 0xFFFFFFFFFFFFFFFFFFFFFFFFFFFFFFFFFFFFFFFF DUP3 AND SWAP1 POP SWAP2 SWAP1 POP JUMP JUMPDEST PUSH1 0x0 PUSH2 0x4D1B DUP3 PUSH2 0x4CF0 JUMP JUMPDEST SWAP1 POP SWAP2 SWAP1 POP JUMP JUMPDEST PUSH2 0x4D2B DUP2 PUSH2 0x4D10 JUMP JUMPDEST DUP2 EQ PUSH2 0x4D36 JUMPI PUSH1 0x0 DUP1 REVERT JUMPDEST POP JUMP JUMPDEST PUSH1 0x0 DUP2 CALLDATALOAD SWAP1 POP PUSH2 0x4D48 DUP2 PUSH2 0x4D22 JUMP JUMPDEST SWAP3 SWAP2 POP POP JUMP JUMPDEST PUSH1 0x0 DUP2 SWAP1 POP SWAP2 SWAP1 POP JUMP JUMPDEST PUSH2 0x4D61 DUP2 PUSH2 0x4D4E JUMP JUMPDEST DUP2 EQ PUSH2 0x4D6C JUMPI PUSH1 0x0 DUP1 REVERT JUMPDEST POP JUMP JUMPDEST PUSH1 0x0 DUP2 CALLDATALOAD SWAP1 POP PUSH2 0x4D7E DUP2 PUSH2 0x4D58 JUMP JUMPDEST SWAP3 SWAP2 POP POP JUMP JUMPDEST PUSH1 0x0 DUP1 PUSH1 0x40 DUP4 DUP6 SUB SLT ISZERO PUSH2 0x4D9B JUMPI PUSH2 0x4D9A PUSH2 0x4CE6 JUMP JUMPDEST JUMPDEST PUSH1 0x0 PUSH2 0x4DA9 DUP6 DUP3 DUP7 ADD PUSH2 0x4D39 JUMP JUMPDEST SWAP3 POP POP PUSH1 0x20 PUSH2 0x4DBA DUP6 DUP3 DUP7 ADD PUSH2 0x4D6F JUMP JUMPDEST SWAP2 POP POP SWAP3 POP SWAP3 SWAP1 POP JUMP JUMPDEST PUSH2 0x4DCD DUP2 PUSH2 0x4D4E JUMP JUMPDEST DUP3 MSTORE POP POP JUMP JUMPDEST PUSH1 0x0 PUSH1 0x20 DUP3 ADD SWAP1 POP PUSH2 0x4DE8 PUSH1 0x0 DUP4 ADD DUP5 PUSH2 0x4DC4 JUMP JUMPDEST SWAP3 SWAP2 POP POP JUMP JUMPDEST PUSH1 0x0 PUSH32 0xFFFFFFFF00000000000000000000000000000000000000000000000000000000 DUP3 AND SWAP1 POP SWAP2 SWAP1 POP JUMP JUMPDEST PUSH2 0x4E23 DUP2 PUSH2 0x4DEE JUMP JUMPDEST DUP2 EQ PUSH2 0x4E2E JUMPI PUSH1 0x0 DUP1 REVERT JUMPDEST POP JUMP JUMPDEST PUSH1 0x0 DUP2 CALLDATALOAD SWAP1 POP PUSH2 0x4E40 DUP2 PUSH2 0x4E1A JUMP JUMPDEST SWAP3 SWAP2 POP POP JUMP JUMPDEST PUSH1 0x0 PUSH1 0x20 DUP3 DUP5 SUB SLT ISZERO PUSH2 0x4E5C JUMPI PUSH2 0x4E5B PUSH2 0x4CE6 JUMP JUMPDEST JUMPDEST PUSH1 0x0 PUSH2 0x4E6A DUP5 DUP3 DUP6 ADD PUSH2 0x4E31 JUMP JUMPDEST SWAP2 POP POP SWAP3 SWAP2 POP POP JUMP JUMPDEST PUSH1 0x0 DUP2 ISZERO ISZERO SWAP1 POP SWAP2 SWAP1 POP JUMP JUMPDEST PUSH2 0x4E88 DUP2 PUSH2 0x4E73 JUMP JUMPDEST DUP3 MSTORE POP POP JUMP JUMPDEST PUSH1 0x0 PUSH1 0x20 DUP3 ADD SWAP1 POP PUSH2 0x4EA3 PUSH1 0x0 DUP4 ADD DUP5 PUSH2 0x4E7F JUMP JUMPDEST SWAP3 SWAP2 POP POP JUMP JUMPDEST PUSH1 0x0 DUP2 SWAP1 POP SWAP2 SWAP1 POP JUMP JUMPDEST PUSH2 0x4EBC DUP2 PUSH2 0x4EA9 JUMP JUMPDEST DUP2 EQ PUSH2 0x4EC7 JUMPI PUSH1 0x0 DUP1 REVERT JUMPDEST POP JUMP JUMPDEST PUSH1 0x0 DUP2 CALLDATALOAD SWAP1 POP PUSH2 0x4ED9 DUP2 PUSH2 0x4EB3 JUMP JUMPDEST SWAP3 SWAP2 POP POP JUMP JUMPDEST PUSH1 0x0 DUP1 REVERT JUMPDEST PUSH1 0x0 DUP1 REVERT JUMPDEST PUSH1 0x0 PUSH1 0x1F NOT PUSH1 0x1F DUP4 ADD AND SWAP1 POP SWAP2 SWAP1 POP JUMP JUMPDEST PUSH32 0x4E487B7100000000000000000000000000000000000000000000000000000000 PUSH1 0x0 MSTORE PUSH1 0x41 PUSH1 0x4 MSTORE PUSH1 0x24 PUSH1 0x0 REVERT JUMPDEST PUSH2 0x4F32 DUP3 PUSH2 0x4EE9 JUMP JUMPDEST DUP2 ADD DUP2 DUP2 LT PUSH8 0xFFFFFFFFFFFFFFFF DUP3 GT OR ISZERO PUSH2 0x4F51 JUMPI PUSH2 0x4F50 PUSH2 0x4EFA JUMP JUMPDEST JUMPDEST DUP1 PUSH1 0x40 MSTORE POP POP POP JUMP JUMPDEST PUSH1 0x0 PUSH2 0x4F64 PUSH2 0x4CDC JUMP JUMPDEST SWAP1 POP PUSH2 0x4F70 DUP3 DUP3 PUSH2 0x4F29 JUMP JUMPDEST SWAP2 SWAP1 POP JUMP JUMPDEST PUSH1 0x0 PUSH8 0xFFFFFFFFFFFFFFFF DUP3 GT ISZERO PUSH2 0x4F90 JUMPI PUSH2 0x4F8F PUSH2 0x4EFA JUMP JUMPDEST JUMPDEST PUSH2 0x4F99 DUP3 PUSH2 0x4EE9 JUMP JUMPDEST SWAP1 POP PUSH1 0x20 DUP2 ADD SWAP1 POP SWAP2 SWAP1 POP JUMP JUMPDEST DUP3 DUP2 DUP4 CALLDATACOPY PUSH1 0x0 DUP4 DUP4 ADD MSTORE POP POP POP JUMP JUMPDEST PUSH1 0x0 PUSH2 0x4FC8 PUSH2 0x4FC3 DUP5 PUSH2 0x4F75 JUMP JUMPDEST PUSH2 0x4F5A JUMP JUMPDEST SWAP1 POP DUP3 DUP2 MSTORE PUSH1 0x20 DUP2 ADD DUP5 DUP5 DUP5 ADD GT ISZERO PUSH2 0x4FE4 JUMPI PUSH2 0x4FE3 PUSH2 0x4EE4 JUMP JUMPDEST JUMPDEST PUSH2 0x4FEF DUP5 DUP3 DUP6 PUSH2 0x4FA6 JUMP JUMPDEST POP SWAP4 SWAP3 POP POP POP JUMP JUMPDEST PUSH1 0x0 DUP3 PUSH1 0x1F DUP4 ADD SLT PUSH2 0x500C JUMPI PUSH2 0x500B PUSH2 0x4EDF JUMP JUMPDEST JUMPDEST DUP2 CALLDATALOAD PUSH2 0x501C DUP5 DUP3 PUSH1 0x20 DUP7 ADD PUSH2 0x4FB5 JUMP JUMPDEST SWAP2 POP POP SWAP3 SWAP2 POP POP JUMP JUMPDEST PUSH1 0x0 DUP1 PUSH1 0x0 PUSH1 0x60 DUP5 DUP7 SUB SLT ISZERO PUSH2 0x503E JUMPI PUSH2 0x503D PUSH2 0x4CE6 JUMP JUMPDEST JUMPDEST PUSH1 0x0 PUSH2 0x504C DUP7 DUP3 DUP8 ADD PUSH2 0x4ECA JUMP JUMPDEST SWAP4 POP POP PUSH1 0x20 DUP5 ADD CALLDATALOAD PUSH8 0xFFFFFFFFFFFFFFFF DUP2 GT ISZERO PUSH2 0x506D JUMPI PUSH2 0x506C PUSH2 0x4CEB JUMP JUMPDEST JUMPDEST PUSH2 0x5079 DUP7 DUP3 DUP8 ADD PUSH2 0x4FF7 JUMP JUMPDEST SWAP3 POP POP PUSH1 0x40 DUP5 ADD CALLDATALOAD PUSH8 0xFFFFFFFFFFFFFFFF DUP2 GT ISZERO PUSH2 0x509A JUMPI PUSH2 0x5099 PUSH2 0x4CEB JUMP JUMPDEST JUMPDEST PUSH2 0x50A6 DUP7 DUP3 DUP8 ADD PUSH2 0x4FF7 JUMP JUMPDEST SWAP2 POP POP SWAP3 POP SWAP3 POP SWAP3 JUMP JUMPDEST PUSH1 0x0 PUSH8 0xFFFFFFFFFFFFFFFF DUP3 AND SWAP1 POP SWAP2 SWAP1 POP JUMP JUMPDEST PUSH2 0x50CD DUP2 PUSH2 0x50B0 JUMP JUMPDEST DUP2 EQ PUSH2 0x50D8 JUMPI PUSH1 0x0 DUP1 REVERT JUMPDEST POP JUMP JUMPDEST PUSH1 0x0 DUP2 CALLDATALOAD SWAP1 POP PUSH2 0x50EA DUP2 PUSH2 0x50C4 JUMP JUMPDEST SWAP3 SWAP2 POP POP JUMP JUMPDEST PUSH1 0x0 DUP1 PUSH1 0x0 PUSH1 0x60 DUP5 DUP7 SUB SLT ISZERO PUSH2 0x5109 JUMPI PUSH2 0x5108 PUSH2 0x4CE6 JUMP JUMPDEST JUMPDEST PUSH1 0x0 PUSH2 0x5117 DUP7 DUP3 DUP8 ADD PUSH2 0x50DB JUMP JUMPDEST SWAP4 POP POP PUSH1 0x20 PUSH2 0x5128 DUP7 DUP3 DUP8 ADD PUSH2 0x4D39 JUMP JUMPDEST SWAP3 POP POP PUSH1 0x40 DUP5 ADD CALLDATALOAD PUSH8 0xFFFFFFFFFFFFFFFF DUP2 GT ISZERO PUSH2 0x5149 JUMPI PUSH2 0x5148 PUSH2 0x4CEB JUMP JUMPDEST JUMPDEST PUSH2 0x5155 DUP7 DUP3 DUP8 ADD PUSH2 0x4FF7 JUMP JUMPDEST SWAP2 POP POP SWAP3 POP SWAP3 POP SWAP3 JUMP JUMPDEST PUSH1 0x0 PUSH1 0x20 DUP3 DUP5 SUB SLT ISZERO PUSH2 0x5175 JUMPI PUSH2 0x5174 PUSH2 0x4CE6 JUMP JUMPDEST JUMPDEST PUSH1 0x0 PUSH2 0x5183 DUP5 DUP3 DUP6 ADD PUSH2 0x4D6F JUMP JUMPDEST SWAP2 POP POP SWAP3 SWAP2 POP POP JUMP JUMPDEST PUSH1 0x0 DUP2 MLOAD SWAP1 POP SWAP2 SWAP1 POP JUMP JUMPDEST PUSH1 0x0 DUP3 DUP3 MSTORE PUSH1 0x20 DUP3 ADD SWAP1 POP SWAP3 SWAP2 POP POP JUMP JUMPDEST PUSH1 0x0 JUMPDEST DUP4 DUP2 LT ISZERO PUSH2 0x51C6 JUMPI DUP1 DUP3 ADD MLOAD DUP2 DUP5 ADD MSTORE PUSH1 0x20 DUP2 ADD SWAP1 POP PUSH2 0x51AB JUMP JUMPDEST PUSH1 0x0 DUP5 DUP5 ADD MSTORE POP POP POP POP JUMP JUMPDEST PUSH1 0x0 PUSH2 0x51DD DUP3 PUSH2 0x518C JUMP JUMPDEST PUSH2 0x51E7 DUP2 DUP6 PUSH2 0x5197 JUMP JUMPDEST SWAP4 POP PUSH2 0x51F7 DUP2 DUP6 PUSH1 0x20 DUP7 ADD PUSH2 0x51A8 JUMP JUMPDEST PUSH2 0x5200 DUP2 PUSH2 0x4EE9 JUMP JUMPDEST DUP5 ADD SWAP2 POP POP SWAP3 SWAP2 POP POP JUMP JUMPDEST PUSH1 0x0 PUSH1 0x20 DUP3 ADD SWAP1 POP DUP2 DUP2 SUB PUSH1 0x0 DUP4 ADD MSTORE PUSH2 0x5225 DUP2 DUP5 PUSH2 0x51D2 JUMP JUMPDEST SWAP1 POP SWAP3 SWAP2 POP POP JUMP JUMPDEST PUSH1 0x2 DUP2 LT PUSH2 0x523A JUMPI PUSH1 0x0 DUP1 REVERT JUMPDEST POP JUMP JUMPDEST PUSH1 0x0 DUP2 CALLDATALOAD SWAP1 POP PUSH2 0x524C DUP2 PUSH2 0x522D JUMP JUMPDEST SWAP3 SWAP2 POP POP JUMP JUMPDEST PUSH1 0x0 DUP1 PUSH1 0x0 DUP1 PUSH1 0x0 DUP1 PUSH1 0x0 PUSH1 0xE0 DUP9 DUP11 SUB SLT ISZERO PUSH2 0x5271 JUMPI PUSH2 0x5270 PUSH2 0x4CE6 JUMP JUMPDEST JUMPDEST PUSH1 0x0 PUSH2 0x527F DUP11 DUP3 DUP12 ADD PUSH2 0x4D39 JUMP JUMPDEST SWAP8 POP POP PUSH1 0x20 PUSH2 0x5290 DUP11 DUP3 DUP12 ADD PUSH2 0x4D39 JUMP JUMPDEST SWAP7 POP POP PUSH1 0x40 PUSH2 0x52A1 DUP11 DUP3 DUP12 ADD PUSH2 0x4D6F JUMP JUMPDEST SWAP6 POP POP PUSH1 0x60 PUSH2 0x52B2 DUP11 DUP3 DUP12 ADD PUSH2 0x4D6F JUMP JUMPDEST SWAP5 POP POP PUSH1 0x80 DUP9 ADD CALLDATALOAD PUSH8 0xFFFFFFFFFFFFFFFF DUP2 GT ISZERO PUSH2 0x52D3 JUMPI PUSH2 0x52D2 PUSH2 0x4CEB JUMP JUMPDEST JUMPDEST PUSH2 0x52DF DUP11 DUP3 DUP12 ADD PUSH2 0x4FF7 JUMP JUMPDEST SWAP4 POP POP PUSH1 0xA0 PUSH2 0x52F0 DUP11 DUP3 DUP12 ADD PUSH2 0x50DB JUMP JUMPDEST SWAP3 POP POP PUSH1 0xC0 PUSH2 0x5301 DUP11 DUP3 DUP12 ADD PUSH2 0x523D JUMP JUMPDEST SWAP2 POP POP SWAP3 SWAP6 SWAP9 SWAP2 SWAP5 SWAP8 POP SWAP3 SWAP6 POP JUMP JUMPDEST PUSH2 0x5319 DUP2 PUSH2 0x4EA9 JUMP JUMPDEST DUP3 MSTORE POP POP JUMP JUMPDEST PUSH1 0x0 PUSH1 0x20 DUP3 ADD SWAP1 POP PUSH2 0x5334 PUSH1 0x0 DUP4 ADD DUP5 PUSH2 0x5310 JUMP JUMPDEST SWAP3 SWAP2 POP POP JUMP JUMPDEST PUSH1 0x0 PUSH8 0xFFFFFFFFFFFFFFFF DUP3 GT ISZERO PUSH2 0x5355 JUMPI PUSH2 0x5354 PUSH2 0x4EFA JUMP JUMPDEST JUMPDEST PUSH1 0x20 DUP3 MUL SWAP1 POP PUSH1 0x20 DUP2 ADD SWAP1 POP SWAP2 SWAP1 POP JUMP JUMPDEST PUSH1 0x0 DUP1 REVERT JUMPDEST PUSH1 0x0 PUSH2 0x537E PUSH2 0x5379 DUP5 PUSH2 0x533A JUMP JUMPDEST PUSH2 0x4F5A JUMP JUMPDEST SWAP1 POP DUP1 DUP4 DUP3 MSTORE PUSH1 0x20 DUP3 ADD SWAP1 POP PUSH1 0x20 DUP5 MUL DUP4 ADD DUP6 DUP2 GT ISZERO PUSH2 0x53A1 JUMPI PUSH2 0x53A0 PUSH2 0x5366 JUMP JUMPDEST JUMPDEST DUP4 JUMPDEST DUP2 DUP2 LT ISZERO PUSH2 0x53CA JUMPI DUP1 PUSH2 0x53B6 DUP9 DUP3 PUSH2 0x4D6F JUMP JUMPDEST DUP5 MSTORE PUSH1 0x20 DUP5 ADD SWAP4 POP POP PUSH1 0x20 DUP2 ADD SWAP1 POP PUSH2 0x53A3 JUMP JUMPDEST POP POP POP SWAP4 SWAP3 POP POP POP JUMP JUMPDEST PUSH1 0x0 DUP3 PUSH1 0x1F DUP4 ADD SLT PUSH2 0x53E9 JUMPI PUSH2 0x53E8 PUSH2 0x4EDF JUMP JUMPDEST JUMPDEST DUP2 CALLDATALOAD PUSH2 0x53F9 DUP5 DUP3 PUSH1 0x20 DUP7 ADD PUSH2 0x536B JUMP JUMPDEST SWAP2 POP POP SWAP3 SWAP2 POP POP JUMP JUMPDEST PUSH1 0x0 DUP1 PUSH1 0x0 DUP1 PUSH1 0x0 PUSH1 0xA0 DUP7 DUP9 SUB SLT ISZERO PUSH2 0x541E JUMPI PUSH2 0x541D PUSH2 0x4CE6 JUMP JUMPDEST JUMPDEST PUSH1 0x0 PUSH2 0x542C DUP9 DUP3 DUP10 ADD PUSH2 0x4D39 JUMP JUMPDEST SWAP6 POP POP PUSH1 0x20 PUSH2 0x543D DUP9 DUP3 DUP10 ADD PUSH2 0x4D39 JUMP JUMPDEST SWAP5 POP POP PUSH1 0x40 DUP7 ADD CALLDATALOAD PUSH8 0xFFFFFFFFFFFFFFFF DUP2 GT ISZERO PUSH2 0x545E JUMPI PUSH2 0x545D PUSH2 0x4CEB JUMP JUMPDEST JUMPDEST PUSH2 0x546A DUP9 DUP3 DUP10 ADD PUSH2 0x53D4 JUMP JUMPDEST SWAP4 POP POP PUSH1 0x60 DUP7 ADD CALLDATALOAD PUSH8 0xFFFFFFFFFFFFFFFF DUP2 GT ISZERO PUSH2 0x548B JUMPI PUSH2 0x548A PUSH2 0x4CEB JUMP JUMPDEST JUMPDEST PUSH2 0x5497 DUP9 DUP3 DUP10 ADD PUSH2 0x53D4 JUMP JUMPDEST SWAP3 POP POP PUSH1 0x80 DUP7 ADD CALLDATALOAD PUSH8 0xFFFFFFFFFFFFFFFF DUP2 GT ISZERO PUSH2 0x54B8 JUMPI PUSH2 0x54B7 PUSH2 0x4CEB JUMP JUMPDEST JUMPDEST PUSH2 0x54C4 DUP9 DUP3 DUP10 ADD PUSH2 0x4FF7 JUMP JUMPDEST SWAP2 POP POP SWAP3 SWAP6 POP SWAP3 SWAP6 SWAP1 SWAP4 POP JUMP JUMPDEST PUSH1 0x0 DUP1 PUSH1 0x40 DUP4 DUP6 SUB SLT ISZERO PUSH2 0x54E8 JUMPI PUSH2 0x54E7 PUSH2 0x4CE6 JUMP JUMPDEST JUMPDEST PUSH1 0x0 PUSH2 0x54F6 DUP6 DUP3 DUP7 ADD PUSH2 0x4D39 JUMP JUMPDEST SWAP3 POP POP PUSH1 0x20 PUSH2 0x5507 DUP6 DUP3 DUP7 ADD PUSH2 0x4D39 JUMP JUMPDEST SWAP2 POP POP SWAP3 POP SWAP3 SWAP1 POP JUMP JUMPDEST PUSH1 0x0 PUSH1 0x20 DUP3 DUP5 SUB SLT ISZERO PUSH2 0x5527 JUMPI PUSH2 0x5526 PUSH2 0x4CE6 JUMP JUMPDEST JUMPDEST PUSH1 0x0 PUSH2 0x5535 DUP5 DUP3 DUP6 ADD PUSH2 0x50DB JUMP JUMPDEST SWAP2 POP POP SWAP3 SWAP2 POP POP JUMP JUMPDEST PUSH1 0x0 PUSH8 0xFFFFFFFFFFFFFFFF DUP3 GT ISZERO PUSH2 0x5559 JUMPI PUSH2 0x5558 PUSH2 0x4EFA JUMP JUMPDEST JUMPDEST PUSH1 0x20 DUP3 MUL SWAP1 POP PUSH1 0x20 DUP2 ADD SWAP1 POP SWAP2 SWAP1 POP JUMP JUMPDEST PUSH1 0x0 PUSH2 0x557D PUSH2 0x5578 DUP5 PUSH2 0x553E JUMP JUMPDEST PUSH2 0x4F5A JUMP JUMPDEST SWAP1 POP DUP1 DUP4 DUP3 MSTORE PUSH1 0x20 DUP3 ADD SWAP1 POP PUSH1 0x20 DUP5 MUL DUP4 ADD DUP6 DUP2 GT ISZERO PUSH2 0x55A0 JUMPI PUSH2 0x559F PUSH2 0x5366 JUMP JUMPDEST JUMPDEST DUP4 JUMPDEST DUP2 DUP2 LT ISZERO PUSH2 0x55C9 JUMPI DUP1 PUSH2 0x55B5 DUP9 DUP3 PUSH2 0x4D39 JUMP JUMPDEST DUP5 MSTORE PUSH1 0x20 DUP5 ADD SWAP4 POP POP PUSH1 0x20 DUP2 ADD SWAP1 POP PUSH2 0x55A2 JUMP JUMPDEST POP POP POP SWAP4 SWAP3 POP POP POP JUMP JUMPDEST PUSH1 0x0 DUP3 PUSH1 0x1F DUP4 ADD SLT PUSH2 0x55E8 JUMPI PUSH2 0x55E7 PUSH2 0x4EDF JUMP JUMPDEST JUMPDEST DUP2 CALLDATALOAD PUSH2 0x55F8 DUP5 DUP3 PUSH1 0x20 DUP7 ADD PUSH2 0x556A JUMP JUMPDEST SWAP2 POP POP SWAP3 SWAP2 POP POP JUMP JUMPDEST PUSH1 0x0 DUP1 PUSH1 0x40 DUP4 DUP6 SUB SLT ISZERO PUSH2 0x5618 JUMPI PUSH2 0x5617 PUSH2 0x4CE6 JUMP JUMPDEST JUMPDEST PUSH1 0x0 DUP4 ADD CALLDATALOAD PUSH8 0xFFFFFFFFFFFFFFFF DUP2 GT ISZERO PUSH2 0x5636 JUMPI PUSH2 0x5635 PUSH2 0x4CEB JUMP JUMPDEST JUMPDEST PUSH2 0x5642 DUP6 DUP3 DUP7 ADD PUSH2 0x55D3 JUMP JUMPDEST SWAP3 POP POP PUSH1 0x20 DUP4 ADD CALLDATALOAD PUSH8 0xFFFFFFFFFFFFFFFF DUP2 GT ISZERO PUSH2 0x5663 JUMPI PUSH2 0x5662 PUSH2 0x4CEB JUMP JUMPDEST JUMPDEST PUSH2 0x566F DUP6 DUP3 DUP7 ADD PUSH2 0x53D4 JUMP JUMPDEST SWAP2 POP POP SWAP3 POP SWAP3 SWAP1 POP JUMP JUMPDEST PUSH1 0x0 DUP2 MLOAD SWAP1 POP SWAP2 SWAP1 POP JUMP JUMPDEST PUSH1 0x0 DUP3 DUP3 MSTORE PUSH1 0x20 DUP3 ADD SWAP1 POP SWAP3 SWAP2 POP POP JUMP JUMPDEST PUSH1 0x0 DUP2 SWAP1 POP PUSH1 0x20 DUP3 ADD SWAP1 POP SWAP2 SWAP1 POP JUMP JUMPDEST PUSH2 0x56AE DUP2 PUSH2 0x4D4E JUMP JUMPDEST DUP3 MSTORE POP POP JUMP JUMPDEST PUSH1 0x0 PUSH2 0x56C0 DUP4 DUP4 PUSH2 0x56A5 JUMP JUMPDEST PUSH1 0x20 DUP4 ADD SWAP1 POP SWAP3 SWAP2 POP POP JUMP JUMPDEST PUSH1 0x0 PUSH1 0x20 DUP3 ADD SWAP1 POP SWAP2 SWAP1 POP JUMP JUMPDEST PUSH1 0x0 PUSH2 0x56E4 DUP3 PUSH2 0x5679 JUMP JUMPDEST PUSH2 0x56EE DUP2 DUP6 PUSH2 0x5684 JUMP JUMPDEST SWAP4 POP PUSH2 0x56F9 DUP4 PUSH2 0x5695 JUMP JUMPDEST DUP1 PUSH1 0x0 JUMPDEST DUP4 DUP2 LT ISZERO PUSH2 0x572A JUMPI DUP2 MLOAD PUSH2 0x5711 DUP9 DUP3 PUSH2 0x56B4 JUMP JUMPDEST SWAP8 POP PUSH2 0x571C DUP4 PUSH2 0x56CC JUMP JUMPDEST SWAP3 POP POP PUSH1 0x1 DUP2 ADD SWAP1 POP PUSH2 0x56FD JUMP JUMPDEST POP DUP6 SWAP4 POP POP POP POP SWAP3 SWAP2 POP POP JUMP JUMPDEST PUSH1 0x0 PUSH1 0x20 DUP3 ADD SWAP1 POP DUP2 DUP2 SUB PUSH1 0x0 DUP4 ADD MSTORE PUSH2 0x5751 DUP2 DUP5 PUSH2 0x56D9 JUMP JUMPDEST SWAP1 POP SWAP3 SWAP2 POP POP JUMP JUMPDEST PUSH1 0x0 PUSH1 0x20 DUP3 DUP5 SUB SLT ISZERO PUSH2 0x576F JUMPI PUSH2 0x576E PUSH2 0x4CE6 JUMP JUMPDEST JUMPDEST PUSH1 0x0 PUSH2 0x577D DUP5 DUP3 DUP6 ADD PUSH2 0x4D39 JUMP JUMPDEST SWAP2 POP POP SWAP3 SWAP2 POP POP JUMP JUMPDEST PUSH2 0x578F DUP2 PUSH2 0x4D10 JUMP JUMPDEST DUP3 MSTORE POP POP JUMP JUMPDEST PUSH1 0x0 DUP2 MLOAD SWAP1 POP SWAP2 SWAP1 POP JUMP JUMPDEST PUSH1 0x0 DUP3 DUP3 MSTORE PUSH1 0x20 DUP3 ADD SWAP1 POP SWAP3 SWAP2 POP POP JUMP JUMPDEST PUSH1 0x0 PUSH2 0x57BC DUP3 PUSH2 0x5795 JUMP JUMPDEST PUSH2 0x57C6 DUP2 DUP6 PUSH2 0x57A0 JUMP JUMPDEST SWAP4 POP PUSH2 0x57D6 DUP2 DUP6 PUSH1 0x20 DUP7 ADD PUSH2 0x51A8 JUMP JUMPDEST PUSH2 0x57DF DUP2 PUSH2 0x4EE9 JUMP JUMPDEST DUP5 ADD SWAP2 POP POP SWAP3 SWAP2 POP POP JUMP JUMPDEST PUSH1 0x0 PUSH1 0x40 DUP3 ADD SWAP1 POP PUSH2 0x57FF PUSH1 0x0 DUP4 ADD DUP6 PUSH2 0x5786 JUMP JUMPDEST DUP2 DUP2 SUB PUSH1 0x20 DUP4 ADD MSTORE PUSH2 0x5811 DUP2 DUP5 PUSH2 0x57B1 JUMP JUMPDEST SWAP1 POP SWAP4 SWAP3 POP POP POP JUMP JUMPDEST PUSH1 0x0 DUP1 PUSH1 0x0 PUSH1 0x60 DUP5 DUP7 SUB SLT ISZERO PUSH2 0x5833 JUMPI PUSH2 0x5832 PUSH2 0x4CE6 JUMP JUMPDEST JUMPDEST PUSH1 0x0 PUSH2 0x5841 DUP7 DUP3 DUP8 ADD PUSH2 0x4D39 JUMP JUMPDEST SWAP4 POP POP PUSH1 0x20 DUP5 ADD CALLDATALOAD PUSH8 0xFFFFFFFFFFFFFFFF DUP2 GT ISZERO PUSH2 0x5862 JUMPI PUSH2 0x5861 PUSH2 0x4CEB JUMP JUMPDEST JUMPDEST PUSH2 0x586E DUP7 DUP3 DUP8 ADD PUSH2 0x53D4 JUMP JUMPDEST SWAP3 POP POP PUSH1 0x40 DUP5 ADD CALLDATALOAD PUSH8 0xFFFFFFFFFFFFFFFF DUP2 GT ISZERO PUSH2 0x588F JUMPI PUSH2 0x588E PUSH2 0x4CEB JUMP JUMPDEST JUMPDEST PUSH2 0x589B DUP7 DUP3 DUP8 ADD PUSH2 0x53D4 JUMP JUMPDEST SWAP2 POP POP SWAP3 POP SWAP3 POP SWAP3 JUMP JUMPDEST PUSH1 0x0 DUP1 REVERT JUMPDEST PUSH1 0x0 PUSH1 0xA0 DUP3 DUP5 SUB SLT ISZERO PUSH2 0x58C0 JUMPI PUSH2 0x58BF PUSH2 0x58A5 JUMP JUMPDEST JUMPDEST DUP2 SWAP1 POP SWAP3 SWAP2 POP POP JUMP JUMPDEST PUSH1 0x0 PUSH1 0x20 DUP3 DUP5 SUB SLT ISZERO PUSH2 0x58DF JUMPI PUSH2 0x58DE PUSH2 0x4CE6 JUMP JUMPDEST JUMPDEST PUSH1 0x0 DUP3 ADD CALLDATALOAD PUSH8 0xFFFFFFFFFFFFFFFF DUP2 GT ISZERO PUSH2 0x58FD JUMPI PUSH2 0x58FC PUSH2 0x4CEB JUMP JUMPDEST JUMPDEST PUSH2 0x5909 DUP5 DUP3 DUP6 ADD PUSH2 0x58AA JUMP JUMPDEST SWAP2 POP POP SWAP3 SWAP2 POP POP JUMP JUMPDEST PUSH1 0x0 PUSH1 0x20 DUP3 ADD SWAP1 POP PUSH2 0x5927 PUSH1 0x0 DUP4 ADD DUP5 PUSH2 0x5786 JUMP JUMPDEST SWAP3 SWAP2 POP POP JUMP JUMPDEST PUSH2 0x5936 DUP2 PUSH2 0x4E73 JUMP JUMPDEST DUP2 EQ PUSH2 0x5941 JUMPI PUSH1 0x0 DUP1 REVERT JUMPDEST POP JUMP JUMPDEST PUSH1 0x0 DUP2 CALLDATALOAD SWAP1 POP PUSH2 0x5953 DUP2 PUSH2 0x592D JUMP JUMPDEST SWAP3 SWAP2 POP POP JUMP JUMPDEST PUSH1 0x0 DUP1 PUSH1 0x40 DUP4 DUP6 SUB SLT ISZERO PUSH2 0x5970 JUMPI PUSH2 0x596F PUSH2 0x4CE6 JUMP JUMPDEST JUMPDEST PUSH1 0x0 PUSH2 0x597E DUP6 DUP3 DUP7 ADD PUSH2 0x4D39 JUMP JUMPDEST SWAP3 POP POP PUSH1 0x20 PUSH2 0x598F DUP6 DUP3 DUP7 ADD PUSH2 0x5944 JUMP JUMPDEST SWAP2 POP POP SWAP3 POP SWAP3 SWAP1 POP JUMP JUMPDEST PUSH1 0x0 PUSH8 0xFFFFFFFFFFFFFFFF DUP3 GT ISZERO PUSH2 0x59B4 JUMPI PUSH2 0x59B3 PUSH2 0x4EFA JUMP JUMPDEST JUMPDEST PUSH2 0x59BD DUP3 PUSH2 0x4EE9 JUMP JUMPDEST SWAP1 POP PUSH1 0x20 DUP2 ADD SWAP1 POP SWAP2 SWAP1 POP JUMP JUMPDEST PUSH1 0x0 PUSH2 0x59DD PUSH2 0x59D8 DUP5 PUSH2 0x5999 JUMP JUMPDEST PUSH2 0x4F5A JUMP JUMPDEST SWAP1 POP DUP3 DUP2 MSTORE PUSH1 0x20 DUP2 ADD DUP5 DUP5 DUP5 ADD GT ISZERO PUSH2 0x59F9 JUMPI PUSH2 0x59F8 PUSH2 0x4EE4 JUMP JUMPDEST JUMPDEST PUSH2 0x5A04 DUP5 DUP3 DUP6 PUSH2 0x4FA6 JUMP JUMPDEST POP SWAP4 SWAP3 POP POP POP JUMP JUMPDEST PUSH1 0x0 DUP3 PUSH1 0x1F DUP4 ADD SLT PUSH2 0x5A21 JUMPI PUSH2 0x5A20 PUSH2 0x4EDF JUMP JUMPDEST JUMPDEST DUP2 CALLDATALOAD PUSH2 0x5A31 DUP5 DUP3 PUSH1 0x20 DUP7 ADD PUSH2 0x59CA JUMP JUMPDEST SWAP2 POP POP SWAP3 SWAP2 POP POP JUMP JUMPDEST PUSH1 0x0 PUSH4 0xFFFFFFFF DUP3 AND SWAP1 POP SWAP2 SWAP1 POP JUMP JUMPDEST PUSH2 0x5A53 DUP2 PUSH2 0x5A3A JUMP JUMPDEST DUP2 EQ PUSH2 0x5A5E JUMPI PUSH1 0x0 DUP1 REVERT JUMPDEST POP JUMP JUMPDEST PUSH1 0x0 DUP2 CALLDATALOAD SWAP1 POP PUSH2 0x5A70 DUP2 PUSH2 0x5A4A JUMP JUMPDEST SWAP3 SWAP2 POP POP JUMP JUMPDEST PUSH1 0x0 DUP1 PUSH1 0x0 DUP1 PUSH1 0x80 DUP6 DUP8 SUB SLT ISZERO PUSH2 0x5A90 JUMPI PUSH2 0x5A8F PUSH2 0x4CE6 JUMP JUMPDEST JUMPDEST PUSH1 0x0 DUP6 ADD CALLDATALOAD PUSH8 0xFFFFFFFFFFFFFFFF DUP2 GT ISZERO PUSH2 0x5AAE JUMPI PUSH2 0x5AAD PUSH2 0x4CEB JUMP JUMPDEST JUMPDEST PUSH2 0x5ABA DUP8 DUP3 DUP9 ADD PUSH2 0x5A0C JUMP JUMPDEST SWAP5 POP POP PUSH1 0x20 PUSH2 0x5ACB DUP8 DUP3 DUP9 ADD PUSH2 0x50DB JUMP JUMPDEST SWAP4 POP POP PUSH1 0x40 PUSH2 0x5ADC DUP8 DUP3 DUP9 ADD PUSH2 0x5A61 JUMP JUMPDEST SWAP3 POP POP PUSH1 0x60 PUSH2 0x5AED DUP8 DUP3 DUP9 ADD PUSH2 0x4ECA JUMP JUMPDEST SWAP2 POP POP SWAP3 SWAP6 SWAP2 SWAP5 POP SWAP3 POP JUMP JUMPDEST PUSH1 0x0 PUSH8 0xFFFFFFFFFFFFFFFF DUP3 GT ISZERO PUSH2 0x5B14 JUMPI PUSH2 0x5B13 PUSH2 0x4EFA JUMP JUMPDEST JUMPDEST PUSH1 0x20 DUP3 MUL SWAP1 POP PUSH1 0x20 DUP2 ADD SWAP1 POP SWAP2 SWAP1 POP JUMP JUMPDEST PUSH1 0x0 PUSH2 0x5B38 PUSH2 0x5B33 DUP5 PUSH2 0x5AF9 JUMP JUMPDEST PUSH2 0x4F5A JUMP JUMPDEST SWAP1 POP DUP1 DUP4 DUP3 MSTORE PUSH1 0x20 DUP3 ADD SWAP1 POP PUSH1 0x20 DUP5 MUL DUP4 ADD DUP6 DUP2 GT ISZERO PUSH2 0x5B5B JUMPI PUSH2 0x5B5A PUSH2 0x5366 JUMP JUMPDEST JUMPDEST DUP4 JUMPDEST DUP2 DUP2 LT ISZERO PUSH2 0x5BA2 JUMPI DUP1 CALLDATALOAD PUSH8 0xFFFFFFFFFFFFFFFF DUP2 GT ISZERO PUSH2 0x5B80 JUMPI PUSH2 0x5B7F PUSH2 0x4EDF JUMP JUMPDEST JUMPDEST DUP1 DUP7 ADD PUSH2 0x5B8D DUP10 DUP3 PUSH2 0x5A0C JUMP JUMPDEST DUP6 MSTORE PUSH1 0x20 DUP6 ADD SWAP5 POP POP POP PUSH1 0x20 DUP2 ADD SWAP1 POP PUSH2 0x5B5D JUMP JUMPDEST POP POP POP SWAP4 SWAP3 POP POP POP JUMP JUMPDEST PUSH1 0x0 DUP3 PUSH1 0x1F DUP4 ADD SLT PUSH2 0x5BC1 JUMPI PUSH2 0x5BC0 PUSH2 0x4EDF JUMP JUMPDEST JUMPDEST DUP2 CALLDATALOAD PUSH2 0x5BD1 DUP5 DUP3 PUSH1 0x20 DUP7 ADD PUSH2 0x5B25 JUMP JUMPDEST SWAP2 POP POP SWAP3 SWAP2 POP POP JUMP JUMPDEST PUSH1 0x0 DUP1 PUSH1 0x0 DUP1 PUSH1 0x0 PUSH1 0xA0 DUP7 DUP9 SUB SLT ISZERO PUSH2 0x5BF6 JUMPI PUSH2 0x5BF5 PUSH2 0x4CE6 JUMP JUMPDEST JUMPDEST PUSH1 0x0 PUSH2 0x5C04 DUP9 DUP3 DUP10 ADD PUSH2 0x4D39 JUMP JUMPDEST SWAP6 POP POP PUSH1 0x20 DUP7 ADD CALLDATALOAD PUSH8 0xFFFFFFFFFFFFFFFF DUP2 GT ISZERO PUSH2 0x5C25 JUMPI PUSH2 0x5C24 PUSH2 0x4CEB JUMP JUMPDEST JUMPDEST PUSH2 0x5C31 DUP9 DUP3 DUP10 ADD PUSH2 0x53D4 JUMP JUMPDEST SWAP5 POP POP PUSH1 0x40 DUP7 ADD CALLDATALOAD PUSH8 0xFFFFFFFFFFFFFFFF DUP2 GT ISZERO PUSH2 0x5C52 JUMPI PUSH2 0x5C51 PUSH2 0x4CEB JUMP JUMPDEST JUMPDEST PUSH2 0x5C5E DUP9 DUP3 DUP10 ADD PUSH2 0x53D4 JUMP JUMPDEST SWAP4 POP POP PUSH1 0x60 DUP7 ADD CALLDATALOAD PUSH8 0xFFFFFFFFFFFFFFFF DUP2 GT ISZERO PUSH2 0x5C7F JUMPI PUSH2 0x5C7E PUSH2 0x4CEB JUMP JUMPDEST JUMPDEST PUSH2 0x5C8B DUP9 DUP3 DUP10 ADD PUSH2 0x4FF7 JUMP JUMPDEST SWAP3 POP POP PUSH1 0x80 DUP7 ADD CALLDATALOAD PUSH8 0xFFFFFFFFFFFFFFFF DUP2 GT ISZERO PUSH2 0x5CAC JUMPI PUSH2 0x5CAB PUSH2 0x4CEB JUMP JUMPDEST JUMPDEST PUSH2 0x5CB8 DUP9 DUP3 DUP10 ADD PUSH2 0x5BAC JUMP JUMPDEST SWAP2 POP POP SWAP3 SWAP6 POP SWAP3 SWAP6 SWAP1 SWAP4 POP JUMP JUMPDEST PUSH1 0x0 DUP1 PUSH1 0x0 DUP1 PUSH1 0x0 PUSH1 0xA0 DUP7 DUP9 SUB SLT ISZERO PUSH2 0x5CE1 JUMPI PUSH2 0x5CE0 PUSH2 0x4CE6 JUMP JUMPDEST JUMPDEST PUSH1 0x0 PUSH2 0x5CEF DUP9 DUP3 DUP10 ADD PUSH2 0x4D39 JUMP JUMPDEST SWAP6 POP POP PUSH1 0x20 PUSH2 0x5D00 DUP9 DUP3 DUP10 ADD PUSH2 0x4D6F JUMP JUMPDEST SWAP5 POP POP PUSH1 0x40 PUSH2 0x5D11 DUP9 DUP3 DUP10 ADD PUSH2 0x4D6F JUMP JUMPDEST SWAP4 POP POP PUSH1 0x60 DUP7 ADD CALLDATALOAD PUSH8 0xFFFFFFFFFFFFFFFF DUP2 GT ISZERO PUSH2 0x5D32 JUMPI PUSH2 0x5D31 PUSH2 0x4CEB JUMP JUMPDEST JUMPDEST PUSH2 0x5D3E DUP9 DUP3 DUP10 ADD PUSH2 0x4FF7 JUMP JUMPDEST SWAP3 POP POP PUSH1 0x80 DUP7 ADD CALLDATALOAD PUSH8 0xFFFFFFFFFFFFFFFF DUP2 GT ISZERO PUSH2 0x5D5F JUMPI PUSH2 0x5D5E PUSH2 0x4CEB JUMP JUMPDEST JUMPDEST PUSH2 0x5D6B DUP9 DUP3 DUP10 ADD PUSH2 0x5A0C JUMP JUMPDEST SWAP2 POP POP SWAP3 SWAP6 POP SWAP3 SWAP6 SWAP1 SWAP4 POP JUMP JUMPDEST PUSH1 0x0 PUSH10 0xFFFFFFFFFFFFFFFFFFFF DUP3 AND SWAP1 POP SWAP2 SWAP1 POP JUMP JUMPDEST PUSH2 0x5D97 DUP2 PUSH2 0x5D78 JUMP JUMPDEST DUP3 MSTORE POP POP JUMP JUMPDEST PUSH1 0x60 DUP3 ADD PUSH1 0x0 DUP3 ADD MLOAD PUSH2 0x5DB3 PUSH1 0x0 DUP6 ADD DUP3 PUSH2 0x5D8E JUMP JUMPDEST POP PUSH1 0x20 DUP3 ADD MLOAD PUSH2 0x5DC6 PUSH1 0x20 DUP6 ADD DUP3 PUSH2 0x5D8E JUMP JUMPDEST POP PUSH1 0x40 DUP3 ADD MLOAD PUSH2 0x5DD9 PUSH1 0x40 DUP6 ADD DUP3 PUSH2 0x5D8E JUMP JUMPDEST POP POP POP POP JUMP JUMPDEST PUSH1 0x0 PUSH1 0x60 DUP3 ADD SWAP1 POP PUSH2 0x5DF4 PUSH1 0x0 DUP4 ADD DUP5 PUSH2 0x5D9D JUMP JUMPDEST SWAP3 SWAP2 POP POP JUMP JUMPDEST PUSH1 0x0 DUP1 PUSH1 0x0 DUP1 PUSH1 0x0 PUSH1 0xA0 DUP7 DUP9 SUB SLT ISZERO PUSH2 0x5E16 JUMPI PUSH2 0x5E15 PUSH2 0x4CE6 JUMP JUMPDEST JUMPDEST PUSH1 0x0 PUSH2 0x5E24 DUP9 DUP3 DUP10 ADD PUSH2 0x4D39 JUMP JUMPDEST SWAP6 POP POP PUSH1 0x20 PUSH2 0x5E35 DUP9 DUP3 DUP10 ADD PUSH2 0x4D39 JUMP JUMPDEST SWAP5 POP POP PUSH1 0x40 PUSH2 0x5E46 DUP9 DUP3 DUP10 ADD PUSH2 0x4D6F JUMP JUMPDEST SWAP4 POP POP PUSH1 0x60 PUSH2 0x5E57 DUP9 DUP3 DUP10 ADD PUSH2 0x4D6F JUMP JUMPDEST SWAP3 POP POP PUSH1 0x80 DUP7 ADD CALLDATALOAD PUSH8 0xFFFFFFFFFFFFFFFF DUP2 GT ISZERO PUSH2 0x5E78 JUMPI PUSH2 0x5E77 PUSH2 0x4CEB JUMP JUMPDEST JUMPDEST PUSH2 0x5E84 DUP9 DUP3 DUP10 ADD PUSH2 0x4FF7 JUMP JUMPDEST SWAP2 POP POP SWAP3 SWAP6 POP SWAP3 SWAP6 SWAP1 SWAP4 POP JUMP JUMPDEST PUSH1 0x0 DUP1 PUSH1 0x0 PUSH1 0x60 DUP5 DUP7 SUB SLT ISZERO PUSH2 0x5EAA JUMPI PUSH2 0x5EA9 PUSH2 0x4CE6 JUMP JUMPDEST JUMPDEST PUSH1 0x0 PUSH2 0x5EB8 DUP7 DUP3 DUP8 ADD PUSH2 0x4D39 JUMP JUMPDEST SWAP4 POP POP PUSH1 0x20 PUSH2 0x5EC9 DUP7 DUP3 DUP8 ADD PUSH2 0x4D6F JUMP JUMPDEST SWAP3 POP POP PUSH1 0x40 PUSH2 0x5EDA DUP7 DUP3 DUP8 ADD PUSH2 0x4D6F JUMP JUMPDEST SWAP2 POP POP SWAP3 POP SWAP3 POP SWAP3 JUMP JUMPDEST PUSH2 0x5EED DUP2 PUSH2 0x50B0 JUMP JUMPDEST DUP3 MSTORE POP POP JUMP JUMPDEST PUSH1 0x0 PUSH1 0x20 DUP3 ADD SWAP1 POP PUSH2 0x5F08 PUSH1 0x0 DUP4 ADD DUP5 PUSH2 0x5EE4 JUMP JUMPDEST SWAP3 SWAP2 POP POP JUMP JUMPDEST PUSH32 0x4E487B7100000000000000000000000000000000000000000000000000000000 PUSH1 0x0 MSTORE PUSH1 0x22 PUSH1 0x4 MSTORE PUSH1 0x24 PUSH1 0x0 REVERT JUMPDEST PUSH1 0x0 PUSH1 0x2 DUP3 DIV SWAP1 POP PUSH1 0x1 DUP3 AND DUP1 PUSH2 0x5F55 JUMPI PUSH1 0x7F DUP3 AND SWAP2 POP JUMPDEST PUSH1 0x20 DUP3 LT DUP2 SUB PUSH2 0x5F68 JUMPI PUSH2 0x5F67 PUSH2 0x5F0E JUMP JUMPDEST JUMPDEST POP SWAP2 SWAP1 POP JUMP JUMPDEST PUSH1 0x0 DUP2 SWAP1 POP DUP2 PUSH1 0x0 MSTORE PUSH1 0x20 PUSH1 0x0 KECCAK256 SWAP1 POP SWAP2 SWAP1 POP JUMP JUMPDEST PUSH1 0x0 PUSH1 0x20 PUSH1 0x1F DUP4 ADD DIV SWAP1 POP SWAP2 SWAP1 POP JUMP JUMPDEST PUSH1 0x0 DUP3 DUP3 SHL SWAP1 POP SWAP3 SWAP2 POP POP JUMP JUMPDEST PUSH1 0x0 PUSH1 0x8 DUP4 MUL PUSH2 0x5FD0 PUSH32 0xFFFFFFFFFFFFFFFFFFFFFFFFFFFFFFFFFFFFFFFFFFFFFFFFFFFFFFFFFFFFFFFF DUP3 PUSH2 0x5F93 JUMP JUMPDEST PUSH2 0x5FDA DUP7 DUP4 PUSH2 0x5F93 JUMP JUMPDEST SWAP6 POP DUP1 NOT DUP5 AND SWAP4 POP DUP1 DUP7 AND DUP5 OR SWAP3 POP POP POP SWAP4 SWAP3 POP POP POP JUMP JUMPDEST PUSH1 0x0 DUP2 SWAP1 POP SWAP2 SWAP1 POP JUMP JUMPDEST PUSH1 0x0 PUSH2 0x6017 PUSH2 0x6012 PUSH2 0x600D DUP5 PUSH2 0x4D4E JUMP JUMPDEST PUSH2 0x5FF2 JUMP JUMPDEST PUSH2 0x4D4E JUMP JUMPDEST SWAP1 POP SWAP2 SWAP1 POP JUMP JUMPDEST PUSH1 0x0 DUP2 SWAP1 POP SWAP2 SWAP1 POP JUMP JUMPDEST PUSH2 0x6031 DUP4 PUSH2 0x5FFC JUMP JUMPDEST PUSH2 0x6045 PUSH2 0x603D DUP3 PUSH2 0x601E JUMP JUMPDEST DUP5 DUP5 SLOAD PUSH2 0x5FA0 JUMP JUMPDEST DUP3 SSTORE POP POP POP POP JUMP JUMPDEST PUSH1 0x0 SWAP1 JUMP JUMPDEST PUSH2 0x605A PUSH2 0x604D JUMP JUMPDEST PUSH2 0x6065 DUP2 DUP5 DUP5 PUSH2 0x6028 JUMP JUMPDEST POP POP POP JUMP JUMPDEST JUMPDEST DUP2 DUP2 LT ISZERO PUSH2 0x6089 JUMPI PUSH2 0x607E PUSH1 0x0 DUP3 PUSH2 0x6052 JUMP JUMPDEST PUSH1 0x1 DUP2 ADD SWAP1 POP PUSH2 0x606B JUMP JUMPDEST POP POP JUMP JUMPDEST PUSH1 0x1F DUP3 GT ISZERO PUSH2 0x60CE JUMPI PUSH2 0x609F DUP2 PUSH2 0x5F6E JUMP JUMPDEST PUSH2 0x60A8 DUP5 PUSH2 0x5F83 JUMP JUMPDEST DUP2 ADD PUSH1 0x20 DUP6 LT ISZERO PUSH2 0x60B7 JUMPI DUP2 SWAP1 POP JUMPDEST PUSH2 0x60CB PUSH2 0x60C3 DUP6 PUSH2 0x5F83 JUMP JUMPDEST DUP4 ADD DUP3 PUSH2 0x606A JUMP JUMPDEST POP POP JUMPDEST POP POP POP JUMP JUMPDEST PUSH1 0x0 DUP3 DUP3 SHR SWAP1 POP SWAP3 SWAP2 POP POP JUMP JUMPDEST PUSH1 0x0 PUSH2 0x60F1 PUSH1 0x0 NOT DUP5 PUSH1 0x8 MUL PUSH2 0x60D3 JUMP JUMPDEST NOT DUP1 DUP4 AND SWAP2 POP POP SWAP3 SWAP2 POP POP JUMP JUMPDEST PUSH1 0x0 PUSH2 0x610A DUP4 DUP4 PUSH2 0x60E0 JUMP JUMPDEST SWAP2 POP DUP3 PUSH1 0x2 MUL DUP3 OR SWAP1 POP SWAP3 SWAP2 POP POP JUMP JUMPDEST PUSH2 0x6123 DUP3 PUSH2 0x5795 JUMP JUMPDEST PUSH8 0xFFFFFFFFFFFFFFFF DUP2 GT ISZERO PUSH2 0x613C JUMPI PUSH2 0x613B PUSH2 0x4EFA JUMP JUMPDEST JUMPDEST PUSH2 0x6146 DUP3 SLOAD PUSH2 0x5F3D JUMP JUMPDEST PUSH2 0x6151 DUP3 DUP3 DUP6 PUSH2 0x608D JUMP JUMPDEST PUSH1 0x0 PUSH1 0x20 SWAP1 POP PUSH1 0x1F DUP4 GT PUSH1 0x1 DUP2 EQ PUSH2 0x6184 JUMPI PUSH1 0x0 DUP5 ISZERO PUSH2 0x6172 JUMPI DUP3 DUP8 ADD MLOAD SWAP1 POP JUMPDEST PUSH2 0x617C DUP6 DUP3 PUSH2 0x60FE JUMP JUMPDEST DUP7 SSTORE POP PUSH2 0x61E4 JUMP JUMPDEST PUSH1 0x1F NOT DUP5 AND PUSH2 0x6192 DUP7 PUSH2 0x5F6E JUMP JUMPDEST PUSH1 0x0 JUMPDEST DUP3 DUP2 LT ISZERO PUSH2 0x61BA JUMPI DUP5 DUP10 ADD MLOAD DUP3 SSTORE PUSH1 0x1 DUP3 ADD SWAP2 POP PUSH1 0x20 DUP6 ADD SWAP5 POP PUSH1 0x20 DUP2 ADD SWAP1 POP PUSH2 0x6195 JUMP JUMPDEST DUP7 DUP4 LT ISZERO PUSH2 0x61D7 JUMPI DUP5 DUP10 ADD MLOAD PUSH2 0x61D3 PUSH1 0x1F DUP10 AND DUP3 PUSH2 0x60E0 JUMP JUMPDEST DUP4 SSTORE POP JUMPDEST PUSH1 0x1 PUSH1 0x2 DUP9 MUL ADD DUP9 SSTORE POP POP POP JUMPDEST POP POP POP POP POP POP JUMP JUMPDEST PUSH1 0x0 PUSH1 0x60 DUP3 ADD SWAP1 POP PUSH2 0x6201 PUSH1 0x0 DUP4 ADD DUP7 PUSH2 0x5EE4 JUMP JUMPDEST PUSH2 0x620E PUSH1 0x20 DUP4 ADD DUP6 PUSH2 0x5786 JUMP JUMPDEST DUP2 DUP2 SUB PUSH1 0x40 DUP4 ADD MSTORE PUSH2 0x6220 DUP2 DUP5 PUSH2 0x57B1 JUMP JUMPDEST SWAP1 POP SWAP5 SWAP4 POP POP POP POP JUMP JUMPDEST PUSH1 0x0 PUSH1 0xC0 DUP3 ADD SWAP1 POP PUSH2 0x623F PUSH1 0x0 DUP4 ADD DUP10 PUSH2 0x5786 JUMP JUMPDEST PUSH2 0x624C PUSH1 0x20 DUP4 ADD DUP9 PUSH2 0x5786 JUMP JUMPDEST PUSH2 0x6259 PUSH1 0x40 DUP4 ADD DUP8 PUSH2 0x4DC4 JUMP JUMPDEST PUSH2 0x6266 PUSH1 0x60 DUP4 ADD DUP7 PUSH2 0x4DC4 JUMP JUMPDEST DUP2 DUP2 SUB PUSH1 0x80 DUP4 ADD MSTORE PUSH2 0x6278 DUP2 DUP6 PUSH2 0x57B1 JUMP JUMPDEST SWAP1 POP DUP2 DUP2 SUB PUSH1 0xA0 DUP4 ADD MSTORE PUSH2 0x628C DUP2 DUP5 PUSH2 0x51D2 JUMP JUMPDEST SWAP1 POP SWAP8 SWAP7 POP POP POP POP POP POP POP JUMP JUMPDEST PUSH32 0x4E487B7100000000000000000000000000000000000000000000000000000000 PUSH1 0x0 MSTORE PUSH1 0x21 PUSH1 0x4 MSTORE PUSH1 0x24 PUSH1 0x0 REVERT JUMPDEST PUSH1 0x0 DUP3 DUP3 MSTORE PUSH1 0x20 DUP3 ADD SWAP1 POP SWAP3 SWAP2 POP POP JUMP JUMPDEST PUSH1 0x0 PUSH2 0x62E4 DUP3 PUSH2 0x5795 JUMP JUMPDEST PUSH2 0x62EE DUP2 DUP6 PUSH2 0x62C8 JUMP JUMPDEST SWAP4 POP PUSH2 0x62FE DUP2 DUP6 PUSH1 0x20 DUP7 ADD PUSH2 0x51A8 JUMP JUMPDEST PUSH2 0x6307 DUP2 PUSH2 0x4EE9 JUMP JUMPDEST DUP5 ADD SWAP2 POP POP SWAP3 SWAP2 POP POP JUMP JUMPDEST PUSH1 0x0 DUP2 MLOAD SWAP1 POP SWAP2 SWAP1 POP JUMP JUMPDEST PUSH1 0x0 DUP3 DUP3 MSTORE PUSH1 0x20 DUP3 ADD SWAP1 POP SWAP3 SWAP2 POP POP JUMP JUMPDEST PUSH1 0x0 DUP2 SWAP1 POP PUSH1 0x20 DUP3 ADD SWAP1 POP SWAP2 SWAP1 POP JUMP JUMPDEST PUSH2 0x6347 DUP2 PUSH2 0x4D10 JUMP JUMPDEST DUP3 MSTORE POP POP JUMP JUMPDEST PUSH1 0x40 DUP3 ADD PUSH1 0x0 DUP3 ADD MLOAD PUSH2 0x6363 PUSH1 0x0 DUP6 ADD DUP3 PUSH2 0x633E JUMP JUMPDEST POP PUSH1 0x20 DUP3 ADD MLOAD PUSH2 0x6376 PUSH1 0x20 DUP6 ADD DUP3 PUSH2 0x56A5 JUMP JUMPDEST POP POP POP POP JUMP JUMPDEST PUSH1 0x0 PUSH2 0x6388 DUP4 DUP4 PUSH2 0x634D JUMP JUMPDEST PUSH1 0x40 DUP4 ADD SWAP1 POP SWAP3 SWAP2 POP POP JUMP JUMPDEST PUSH1 0x0 PUSH1 0x20 DUP3 ADD SWAP1 POP SWAP2 SWAP1 POP JUMP JUMPDEST PUSH1 0x0 PUSH2 0x63AC DUP3 PUSH2 0x6312 JUMP JUMPDEST PUSH2 0x63B6 DUP2 DUP6 PUSH2 0x631D JUMP JUMPDEST SWAP4 POP PUSH2 0x63C1 DUP4 PUSH2 0x632E JUMP JUMPDEST DUP1 PUSH1 0x0 JUMPDEST DUP4 DUP2 LT ISZERO PUSH2 0x63F2 JUMPI DUP2 MLOAD PUSH2 0x63D9 DUP9 DUP3 PUSH2 0x637C JUMP JUMPDEST SWAP8 POP PUSH2 0x63E4 DUP4 PUSH2 0x6394 JUMP JUMPDEST SWAP3 POP POP PUSH1 0x1 DUP2 ADD SWAP1 POP PUSH2 0x63C5 JUMP JUMPDEST POP DUP6 SWAP4 POP POP POP POP SWAP3 SWAP2 POP POP JUMP JUMPDEST PUSH1 0x0 PUSH1 0xA0 DUP4 ADD PUSH1 0x0 DUP4 ADD MLOAD DUP5 DUP3 SUB PUSH1 0x0 DUP7 ADD MSTORE PUSH2 0x641C DUP3 DUP3 PUSH2 0x62D9 JUMP JUMPDEST SWAP2 POP POP PUSH1 0x20 DUP4 ADD MLOAD DUP5 DUP3 SUB PUSH1 0x20 DUP7 ADD MSTORE PUSH2 0x6436 DUP3 DUP3 PUSH2 0x62D9 JUMP JUMPDEST SWAP2 POP POP PUSH1 0x40 DUP4 ADD MLOAD DUP5 DUP3 SUB PUSH1 0x40 DUP7 ADD MSTORE PUSH2 0x6450 DUP3 DUP3 PUSH2 0x63A1 JUMP JUMPDEST SWAP2 POP POP PUSH1 0x60 DUP4 ADD MLOAD PUSH2 0x6465 PUSH1 0x60 DUP7 ADD DUP3 PUSH2 0x633E JUMP JUMPDEST POP PUSH1 0x80 DUP4 ADD MLOAD DUP5 DUP3 SUB PUSH1 0x80 DUP7 ADD MSTORE PUSH2 0x647D DUP3 DUP3 PUSH2 0x62D9 JUMP JUMPDEST SWAP2 POP POP DUP1 SWAP2 POP POP SWAP3 SWAP2 POP POP JUMP JUMPDEST PUSH1 0x0 PUSH1 0x40 DUP3 ADD SWAP1 POP PUSH2 0x649F PUSH1 0x0 DUP4 ADD DUP6 PUSH2 0x5EE4 JUMP JUMPDEST DUP2 DUP2 SUB PUSH1 0x20 DUP4 ADD MSTORE PUSH2 0x64B1 DUP2 DUP5 PUSH2 0x63FF JUMP JUMPDEST SWAP1 POP SWAP4 SWAP3 POP POP POP JUMP JUMPDEST PUSH1 0x0 DUP2 MLOAD SWAP1 POP PUSH2 0x64C9 DUP2 PUSH2 0x4D58 JUMP JUMPDEST SWAP3 SWAP2 POP POP JUMP JUMPDEST PUSH1 0x0 PUSH1 0x20 DUP3 DUP5 SUB SLT ISZERO PUSH2 0x64E5 JUMPI PUSH2 0x64E4 PUSH2 0x4CE6 JUMP JUMPDEST JUMPDEST PUSH1 0x0 PUSH2 0x64F3 DUP5 DUP3 DUP6 ADD PUSH2 0x64BA JUMP JUMPDEST SWAP2 POP POP SWAP3 SWAP2 POP POP JUMP JUMPDEST PUSH1 0x0 PUSH1 0x40 DUP3 ADD SWAP1 POP PUSH2 0x6511 PUSH1 0x0 DUP4 ADD DUP6 PUSH2 0x4DC4 JUMP JUMPDEST PUSH2 0x651E PUSH1 0x20 DUP4 ADD DUP5 PUSH2 0x4DC4 JUMP JUMPDEST SWAP4 SWAP3 POP POP POP JUMP JUMPDEST PUSH1 0x0 PUSH1 0x40 DUP3 ADD SWAP1 POP PUSH2 0x653A PUSH1 0x0 DUP4 ADD DUP6 PUSH2 0x5786 JUMP JUMPDEST PUSH2 0x6547 PUSH1 0x20 DUP4 ADD DUP5 PUSH2 0x4DC4 JUMP JUMPDEST SWAP4 SWAP3 POP POP POP JUMP JUMPDEST PUSH1 0x0 DUP2 MLOAD SWAP1 POP PUSH2 0x655D DUP2 PUSH2 0x592D JUMP JUMPDEST SWAP3 SWAP2 POP POP JUMP JUMPDEST PUSH1 0x0 PUSH1 0x20 DUP3 DUP5 SUB SLT ISZERO PUSH2 0x6579 JUMPI PUSH2 0x6578 PUSH2 0x4CE6 JUMP JUMPDEST JUMPDEST PUSH1 0x0 PUSH2 0x6587 DUP5 DUP3 DUP6 ADD PUSH2 0x654E JUMP JUMPDEST SWAP2 POP POP SWAP3 SWAP2 POP POP JUMP JUMPDEST PUSH1 0x0 DUP2 MLOAD SWAP1 POP PUSH2 0x659F DUP2 PUSH2 0x4EB3 JUMP JUMPDEST SWAP3 SWAP2 POP POP JUMP JUMPDEST PUSH1 0x0 PUSH1 0x20 DUP3 DUP5 SUB SLT ISZERO PUSH2 0x65BB JUMPI PUSH2 0x65BA PUSH2 0x4CE6 JUMP JUMPDEST JUMPDEST PUSH1 0x0 PUSH2 0x65C9 DUP5 DUP3 DUP6 ADD PUSH2 0x6590 JUMP JUMPDEST SWAP2 POP POP SWAP3 SWAP2 POP POP JUMP JUMPDEST PUSH1 0x0 PUSH1 0xE0 DUP3 ADD SWAP1 POP PUSH2 0x65E7 PUSH1 0x0 DUP4 ADD DUP11 PUSH2 0x5786 JUMP JUMPDEST PUSH2 0x65F4 PUSH1 0x20 DUP4 ADD DUP10 PUSH2 0x5786 JUMP JUMPDEST PUSH2 0x6601 PUSH1 0x40 DUP4 ADD DUP9 PUSH2 0x4DC4 JUMP JUMPDEST PUSH2 0x660E PUSH1 0x60 DUP4 ADD DUP8 PUSH2 0x4DC4 JUMP JUMPDEST DUP2 DUP2 SUB PUSH1 0x80 DUP4 ADD MSTORE PUSH2 0x6620 DUP2 DUP7 PUSH2 0x57B1 JUMP JUMPDEST SWAP1 POP PUSH2 0x662F PUSH1 0xA0 DUP4 ADD DUP6 PUSH2 0x5EE4 JUMP JUMPDEST PUSH2 0x663C PUSH1 0xC0 DUP4 ADD DUP5 PUSH2 0x5EE4 JUMP JUMPDEST SWAP9 SWAP8 POP POP POP POP POP POP POP POP JUMP JUMPDEST PUSH1 0x0 PUSH1 0x40 DUP3 ADD SWAP1 POP PUSH2 0x665D PUSH1 0x0 DUP4 ADD DUP6 PUSH2 0x5786 JUMP JUMPDEST PUSH2 0x666A PUSH1 0x20 DUP4 ADD DUP5 PUSH2 0x5786 JUMP JUMPDEST SWAP4 SWAP3 POP POP POP JUMP JUMPDEST PUSH32 0x4E487B7100000000000000000000000000000000000000000000000000000000 PUSH1 0x0 MSTORE PUSH1 0x32 PUSH1 0x4 MSTORE PUSH1 0x24 PUSH1 0x0 REVERT JUMPDEST PUSH1 0x0 DUP2 SWAP1 POP SWAP3 SWAP2 POP POP JUMP JUMPDEST POP JUMP JUMPDEST PUSH1 0x0 PUSH2 0x66BB PUSH1 0x0 DUP4 PUSH2 0x66A0 JUMP JUMPDEST SWAP2 POP PUSH2 0x66C6 DUP3 PUSH2 0x66AB JUMP JUMPDEST PUSH1 0x0 DUP3 ADD SWAP1 POP SWAP2 SWAP1 POP JUMP JUMPDEST PUSH1 0x0 PUSH2 0x66DC DUP3 PUSH2 0x66AE JUMP JUMPDEST SWAP2 POP DUP2 SWAP1 POP SWAP2 SWAP1 POP JUMP JUMPDEST PUSH1 0x0 PUSH1 0x60 DUP3 ADD SWAP1 POP PUSH2 0x66FB PUSH1 0x0 DUP4 ADD DUP7 PUSH2 0x5786 JUMP JUMPDEST PUSH2 0x6708 PUSH1 0x20 DUP4 ADD DUP6 PUSH2 0x5786 JUMP JUMPDEST PUSH2 0x6715 PUSH1 0x40 DUP4 ADD DUP5 PUSH2 0x4DC4 JUMP JUMPDEST SWAP5 SWAP4 POP POP POP POP JUMP JUMPDEST PUSH32 0x4D7573742062652070726F706F736564206F776E657200000000000000000000 PUSH1 0x0 DUP3 ADD MSTORE POP JUMP JUMPDEST PUSH1 0x0 PUSH2 0x6753 PUSH1 0x16 DUP4 PUSH2 0x5197 JUMP JUMPDEST SWAP2 POP PUSH2 0x675E DUP3 PUSH2 0x671D JUMP JUMPDEST PUSH1 0x20 DUP3 ADD SWAP1 POP SWAP2 SWAP1 POP JUMP JUMPDEST PUSH1 0x0 PUSH1 0x20 DUP3 ADD SWAP1 POP DUP2 DUP2 SUB PUSH1 0x0 DUP4 ADD MSTORE PUSH2 0x6782 DUP2 PUSH2 0x6746 JUMP JUMPDEST SWAP1 POP SWAP2 SWAP1 POP JUMP JUMPDEST PUSH1 0x0 DUP1 REVERT JUMPDEST PUSH1 0x0 DUP1 REVERT JUMPDEST PUSH1 0x0 DUP1 REVERT JUMPDEST PUSH1 0x0 DUP1 DUP4 CALLDATALOAD PUSH1 0x1 PUSH1 0x20 SUB DUP5 CALLDATASIZE SUB SUB DUP2 SLT PUSH2 0x67B5 JUMPI PUSH2 0x67B4 PUSH2 0x6789 JUMP JUMPDEST JUMPDEST DUP1 DUP5 ADD SWAP3 POP DUP3 CALLDATALOAD SWAP2 POP PUSH8 0xFFFFFFFFFFFFFFFF DUP3 GT ISZERO PUSH2 0x67D7 JUMPI PUSH2 0x67D6 PUSH2 0x678E JUMP JUMPDEST JUMPDEST PUSH1 0x20 DUP4 ADD SWAP3 POP PUSH1 0x1 DUP3 MUL CALLDATASIZE SUB DUP4 SGT ISZERO PUSH2 0x67F3 JUMPI PUSH2 0x67F2 PUSH2 0x6793 JUMP JUMPDEST JUMPDEST POP SWAP3 POP SWAP3 SWAP1 POP JUMP JUMPDEST PUSH1 0x0 PUSH2 0x6806 DUP3 PUSH2 0x4CF0 JUMP JUMPDEST SWAP1 POP SWAP2 SWAP1 POP JUMP JUMPDEST PUSH2 0x6816 DUP2 PUSH2 0x67FB JUMP JUMPDEST DUP2 EQ PUSH2 0x6821 JUMPI PUSH1 0x0 DUP1 REVERT JUMPDEST POP JUMP JUMPDEST PUSH1 0x0 DUP2 CALLDATALOAD SWAP1 POP PUSH2 0x6833 DUP2 PUSH2 0x680D JUMP JUMPDEST SWAP3 SWAP2 POP POP JUMP JUMPDEST PUSH1 0x0 PUSH1 0x20 DUP3 DUP5 SUB SLT ISZERO PUSH2 0x684F JUMPI PUSH2 0x684E PUSH2 0x4CE6 JUMP JUMPDEST JUMPDEST PUSH1 0x0 PUSH2 0x685D DUP5 DUP3 DUP6 ADD PUSH2 0x6824 JUMP JUMPDEST SWAP2 POP POP SWAP3 SWAP2 POP POP JUMP JUMPDEST PUSH1 0x0 DUP1 PUSH1 0x0 DUP1 PUSH1 0x0 DUP1 PUSH1 0xC0 DUP8 DUP10 SUB SLT ISZERO PUSH2 0x6883 JUMPI PUSH2 0x6882 PUSH2 0x4CE6 JUMP JUMPDEST JUMPDEST PUSH1 0x0 PUSH2 0x6891 DUP10 DUP3 DUP11 ADD PUSH2 0x6824 JUMP JUMPDEST SWAP7 POP POP PUSH1 0x20 PUSH2 0x68A2 DUP10 DUP3 DUP11 ADD PUSH2 0x6824 JUMP JUMPDEST SWAP6 POP POP PUSH1 0x40 PUSH2 0x68B3 DUP10 DUP3 DUP11 ADD PUSH2 0x4D6F JUMP JUMPDEST SWAP5 POP POP PUSH1 0x60 PUSH2 0x68C4 DUP10 DUP3 DUP11 ADD PUSH2 0x4D6F JUMP JUMPDEST SWAP4 POP POP PUSH1 0x80 DUP8 ADD CALLDATALOAD PUSH8 0xFFFFFFFFFFFFFFFF DUP2 GT ISZERO PUSH2 0x68E5 JUMPI PUSH2 0x68E4 PUSH2 0x4CEB JUMP JUMPDEST JUMPDEST PUSH2 0x68F1 DUP10 DUP3 DUP11 ADD PUSH2 0x4FF7 JUMP JUMPDEST SWAP3 POP POP PUSH1 0xA0 DUP8 ADD CALLDATALOAD PUSH8 0xFFFFFFFFFFFFFFFF DUP2 GT ISZERO PUSH2 0x6912 JUMPI PUSH2 0x6911 PUSH2 0x4CEB JUMP JUMPDEST JUMPDEST PUSH2 0x691E DUP10 DUP3 DUP11 ADD PUSH2 0x5A0C JUMP JUMPDEST SWAP2 POP POP SWAP3 SWAP6 POP SWAP3 SWAP6 POP SWAP3 SWAP6 JUMP JUMPDEST PUSH1 0x0 PUSH2 0x693E PUSH2 0x6939 DUP5 PUSH2 0x5999 JUMP JUMPDEST PUSH2 0x4F5A JUMP JUMPDEST SWAP1 POP DUP3 DUP2 MSTORE PUSH1 0x20 DUP2 ADD DUP5 DUP5 DUP5 ADD GT ISZERO PUSH2 0x695A JUMPI PUSH2 0x6959 PUSH2 0x4EE4 JUMP JUMPDEST JUMPDEST PUSH2 0x6965 DUP5 DUP3 DUP6 PUSH2 0x51A8 JUMP JUMPDEST POP SWAP4 SWAP3 POP POP POP JUMP JUMPDEST PUSH1 0x0 DUP3 PUSH1 0x1F DUP4 ADD SLT PUSH2 0x6982 JUMPI PUSH2 0x6981 PUSH2 0x4EDF JUMP JUMPDEST JUMPDEST DUP2 MLOAD PUSH2 0x6992 DUP5 DUP3 PUSH1 0x20 DUP7 ADD PUSH2 0x692B JUMP JUMPDEST SWAP2 POP POP SWAP3 SWAP2 POP POP JUMP JUMPDEST PUSH1 0x0 PUSH1 0x20 DUP3 DUP5 SUB SLT ISZERO PUSH2 0x69B1 JUMPI PUSH2 0x69B0 PUSH2 0x4CE6 JUMP JUMPDEST JUMPDEST PUSH1 0x0 DUP3 ADD MLOAD PUSH8 0xFFFFFFFFFFFFFFFF DUP2 GT ISZERO PUSH2 0x69CF JUMPI PUSH2 0x69CE PUSH2 0x4CEB JUMP JUMPDEST JUMPDEST PUSH2 0x69DB DUP5 DUP3 DUP6 ADD PUSH2 0x696D JUMP JUMPDEST SWAP2 POP POP SWAP3 SWAP2 POP POP JUMP JUMPDEST PUSH1 0x0 DUP2 SWAP1 POP DUP2 PUSH1 0x0 MSTORE PUSH1 0x20 PUSH1 0x0 KECCAK256 SWAP1 POP SWAP2 SWAP1 POP JUMP JUMPDEST PUSH1 0x1F DUP3 GT ISZERO PUSH2 0x6A3A JUMPI PUSH2 0x6A0B DUP2 PUSH2 0x69E4 JUMP JUMPDEST PUSH2 0x6A14 DUP5 PUSH2 0x5F83 JUMP JUMPDEST DUP2 ADD PUSH1 0x20 DUP6 LT ISZERO PUSH2 0x6A23 JUMPI DUP2 SWAP1 POP JUMPDEST PUSH2 0x6A37 PUSH2 0x6A2F DUP6 PUSH2 0x5F83 JUMP JUMPDEST DUP4 ADD DUP3 PUSH2 0x606A JUMP JUMPDEST POP POP JUMPDEST POP POP POP JUMP JUMPDEST PUSH2 0x6A48 DUP3 PUSH2 0x518C JUMP JUMPDEST PUSH8 0xFFFFFFFFFFFFFFFF DUP2 GT ISZERO PUSH2 0x6A61 JUMPI PUSH2 0x6A60 PUSH2 0x4EFA JUMP JUMPDEST JUMPDEST PUSH2 0x6A6B DUP3 SLOAD PUSH2 0x5F3D JUMP JUMPDEST PUSH2 0x6A76 DUP3 DUP3 DUP6 PUSH2 0x69F9 JUMP JUMPDEST PUSH1 0x0 PUSH1 0x20 SWAP1 POP PUSH1 0x1F DUP4 GT PUSH1 0x1 DUP2 EQ PUSH2 0x6AA9 JUMPI PUSH1 0x0 DUP5 ISZERO PUSH2 0x6A97 JUMPI DUP3 DUP8 ADD MLOAD SWAP1 POP JUMPDEST PUSH2 0x6AA1 DUP6 DUP3 PUSH2 0x60FE JUMP JUMPDEST DUP7 SSTORE POP PUSH2 0x6B09 JUMP JUMPDEST PUSH1 0x1F NOT DUP5 AND PUSH2 0x6AB7 DUP7 PUSH2 0x69E4 JUMP JUMPDEST PUSH1 0x0 JUMPDEST DUP3 DUP2 LT ISZERO PUSH2 0x6ADF JUMPI DUP5 DUP10 ADD MLOAD DUP3 SSTORE PUSH1 0x1 DUP3 ADD SWAP2 POP PUSH1 0x20 DUP6 ADD SWAP5 POP PUSH1 0x20 DUP2 ADD SWAP1 POP PUSH2 0x6ABA JUMP JUMPDEST DUP7 DUP4 LT ISZERO PUSH2 0x6AFC JUMPI DUP5 DUP10 ADD MLOAD PUSH2 0x6AF8 PUSH1 0x1F DUP10 AND DUP3 PUSH2 0x60E0 JUMP JUMPDEST DUP4 SSTORE POP JUMPDEST PUSH1 0x1 PUSH1 0x2 DUP9 MUL ADD DUP9 SSTORE POP POP POP JUMPDEST POP POP POP POP POP POP JUMP JUMPDEST PUSH1 0x0 DUP1 PUSH1 0x0 DUP1 PUSH1 0x80 DUP6 DUP8 SUB SLT ISZERO PUSH2 0x6B2B JUMPI PUSH2 0x6B2A PUSH2 0x4CE6 JUMP JUMPDEST JUMPDEST PUSH1 0x0 PUSH2 0x6B39 DUP8 DUP3 DUP9 ADD PUSH2 0x64BA JUMP JUMPDEST SWAP5 POP POP PUSH1 0x20 PUSH2 0x6B4A DUP8 DUP3 DUP9 ADD PUSH2 0x64BA JUMP JUMPDEST SWAP4 POP POP PUSH1 0x40 PUSH2 0x6B5B DUP8 DUP3 DUP9 ADD PUSH2 0x64BA JUMP JUMPDEST SWAP3 POP POP PUSH1 0x60 PUSH2 0x6B6C DUP8 DUP3 DUP9 ADD PUSH2 0x64BA JUMP JUMPDEST SWAP2 POP POP SWAP3 SWAP6 SWAP2 SWAP5 POP SWAP3 POP JUMP JUMPDEST PUSH32 0x4F6E6C792063616C6C61626C65206279206F776E657200000000000000000000 PUSH1 0x0 DUP3 ADD MSTORE POP JUMP JUMPDEST PUSH1 0x0 PUSH2 0x6BAE PUSH1 0x16 DUP4 PUSH2 0x5197 JUMP JUMPDEST SWAP2 POP PUSH2 0x6BB9 DUP3 PUSH2 0x6B78 JUMP JUMPDEST PUSH1 0x20 DUP3 ADD SWAP1 POP SWAP2 SWAP1 POP JUMP JUMPDEST PUSH1 0x0 PUSH1 0x20 DUP3 ADD SWAP1 POP DUP2 DUP2 SUB PUSH1 0x0 DUP4 ADD MSTORE PUSH2 0x6BDD DUP2 PUSH2 0x6BA1 JUMP JUMPDEST SWAP1 POP SWAP2 SWAP1 POP JUMP JUMPDEST PUSH1 0x0 PUSH2 0xFFFF DUP3 AND SWAP1 POP SWAP2 SWAP1 POP JUMP JUMPDEST PUSH2 0x6BFB DUP2 PUSH2 0x6BE4 JUMP JUMPDEST DUP3 MSTORE POP POP JUMP JUMPDEST PUSH2 0x6C0A DUP2 PUSH2 0x5A3A JUMP JUMPDEST DUP3 MSTORE POP POP JUMP JUMPDEST PUSH1 0x0 PUSH1 0xA0 DUP3 ADD SWAP1 POP PUSH2 0x6C25 PUSH1 0x0 DUP4 ADD DUP9 PUSH2 0x5EE4 JUMP JUMPDEST DUP2 DUP2 SUB PUSH1 0x20 DUP4 ADD MSTORE PUSH2 0x6C37 DUP2 DUP8 PUSH2 0x57B1 JUMP JUMPDEST SWAP1 POP PUSH2 0x6C46 PUSH1 0x40 DUP4 ADD DUP7 PUSH2 0x6BF2 JUMP JUMPDEST PUSH2 0x6C53 PUSH1 0x60 DUP4 ADD DUP6 PUSH2 0x6C01 JUMP JUMPDEST PUSH2 0x6C60 PUSH1 0x80 DUP4 ADD DUP5 PUSH2 0x5310 JUMP JUMPDEST SWAP7 SWAP6 POP POP POP POP POP POP JUMP JUMPDEST PUSH32 0x43616E6E6F74207472616E7366657220746F2073656C66000000000000000000 PUSH1 0x0 DUP3 ADD MSTORE POP JUMP JUMPDEST PUSH1 0x0 PUSH2 0x6CA0 PUSH1 0x17 DUP4 PUSH2 0x5197 JUMP JUMPDEST SWAP2 POP PUSH2 0x6CAB DUP3 PUSH2 0x6C6A JUMP JUMPDEST PUSH1 0x20 DUP3 ADD SWAP1 POP SWAP2 SWAP1 POP JUMP JUMPDEST PUSH1 0x0 PUSH1 0x20 DUP3 ADD SWAP1 POP DUP2 DUP2 SUB PUSH1 0x0 DUP4 ADD MSTORE PUSH2 0x6CCF DUP2 PUSH2 0x6C93 JUMP JUMPDEST SWAP1 POP SWAP2 SWAP1 POP JUMP JUMPDEST PUSH32 0x4E487B7100000000000000000000000000000000000000000000000000000000 PUSH1 0x0 MSTORE PUSH1 0x11 PUSH1 0x4 MSTORE PUSH1 0x24 PUSH1 0x0 REVERT JUMPDEST PUSH1 0x0 PUSH2 0x6D10 DUP3 PUSH2 0x4D4E JUMP JUMPDEST SWAP2 POP PUSH2 0x6D1B DUP4 PUSH2 0x4D4E JUMP JUMPDEST SWAP3 POP DUP3 DUP3 ADD SWAP1 POP DUP1 DUP3 GT ISZERO PUSH2 0x6D33 JUMPI PUSH2 0x6D32 PUSH2 0x6CD6 JUMP JUMPDEST JUMPDEST SWAP3 SWAP2 POP POP JUMP JUMPDEST PUSH1 0x0 PUSH2 0x6D44 DUP3 PUSH2 0x4D4E JUMP JUMPDEST SWAP2 POP PUSH2 0x6D4F DUP4 PUSH2 0x4D4E JUMP JUMPDEST SWAP3 POP DUP3 DUP3 SUB SWAP1 POP DUP2 DUP2 GT ISZERO PUSH2 0x6D67 JUMPI PUSH2 0x6D66 PUSH2 0x6CD6 JUMP JUMPDEST JUMPDEST SWAP3 SWAP2 POP POP JUMP JUMPDEST PUSH1 0x0 PUSH1 0xA0 DUP3 ADD SWAP1 POP PUSH2 0x6D82 PUSH1 0x0 DUP4 ADD DUP9 PUSH2 0x5786 JUMP JUMPDEST PUSH2 0x6D8F PUSH1 0x20 DUP4 ADD DUP8 PUSH2 0x5786 JUMP JUMPDEST PUSH2 0x6D9C PUSH1 0x40 DUP4 ADD DUP7 PUSH2 0x4DC4 JUMP JUMPDEST PUSH2 0x6DA9 PUSH1 0x60 DUP4 ADD DUP6 PUSH2 0x4DC4 JUMP JUMPDEST DUP2 DUP2 SUB PUSH1 0x80 DUP4 ADD MSTORE PUSH2 0x6DBB DUP2 DUP5 PUSH2 0x57B1 JUMP JUMPDEST SWAP1 POP SWAP7 SWAP6 POP POP POP POP POP POP JUMP JUMPDEST PUSH1 0x0 DUP2 MLOAD SWAP1 POP PUSH2 0x6DD6 DUP2 PUSH2 0x4E1A JUMP JUMPDEST SWAP3 SWAP2 POP POP JUMP JUMPDEST PUSH1 0x0 PUSH1 0x20 DUP3 DUP5 SUB SLT ISZERO PUSH2 0x6DF2 JUMPI PUSH2 0x6DF1 PUSH2 0x4CE6 JUMP JUMPDEST JUMPDEST PUSH1 0x0 PUSH2 0x6E00 DUP5 DUP3 DUP6 ADD PUSH2 0x6DC7 JUMP JUMPDEST SWAP2 POP POP SWAP3 SWAP2 POP POP JUMP JUMPDEST PUSH1 0x0 PUSH1 0xA0 DUP3 ADD SWAP1 POP PUSH2 0x6E1E PUSH1 0x0 DUP4 ADD DUP9 PUSH2 0x5786 JUMP JUMPDEST PUSH2 0x6E2B PUSH1 0x20 DUP4 ADD DUP8 PUSH2 0x5786 JUMP JUMPDEST DUP2 DUP2 SUB PUSH1 0x40 DUP4 ADD MSTORE PUSH2 0x6E3D DUP2 DUP7 PUSH2 0x56D9 JUMP JUMPDEST SWAP1 POP DUP2 DUP2 SUB PUSH1 0x60 DUP4 ADD MSTORE PUSH2 0x6E51 DUP2 DUP6 PUSH2 0x56D9 JUMP JUMPDEST SWAP1 POP DUP2 DUP2 SUB PUSH1 0x80 DUP4 ADD MSTORE PUSH2 0x6E65 DUP2 DUP5 PUSH2 0x57B1 JUMP JUMPDEST SWAP1 POP SWAP7 SWAP6 POP POP POP POP POP POP JUMP JUMPDEST PUSH32 0x4E487B7100000000000000000000000000000000000000000000000000000000 PUSH1 0x0 MSTORE PUSH1 0x12 PUSH1 0x4 MSTORE PUSH1 0x24 PUSH1 0x0 REVERT JUMPDEST PUSH1 0x0 PUSH2 0x6EAB DUP3 PUSH2 0x4D4E JUMP JUMPDEST SWAP2 POP PUSH2 0x6EB6 DUP4 PUSH2 0x4D4E JUMP JUMPDEST SWAP3 POP DUP3 PUSH2 0x6EC6 JUMPI PUSH2 0x6EC5 PUSH2 0x6E71 JUMP JUMPDEST JUMPDEST DUP3 DUP3 MOD SWAP1 POP SWAP3 SWAP2 POP POP JUMP JUMPDEST PUSH1 0x0 PUSH2 0x6EDC DUP3 PUSH2 0x4D4E JUMP JUMPDEST SWAP2 POP PUSH2 0x6EE7 DUP4 PUSH2 0x4D4E JUMP JUMPDEST SWAP3 POP DUP3 DUP3 MUL PUSH2 0x6EF5 DUP2 PUSH2 0x4D4E JUMP JUMPDEST SWAP2 POP DUP3 DUP3 DIV DUP5 EQ DUP4 ISZERO OR PUSH2 0x6F0C JUMPI PUSH2 0x6F0B PUSH2 0x6CD6 JUMP JUMPDEST JUMPDEST POP SWAP3 SWAP2 POP POP JUMP JUMPDEST PUSH1 0x0 PUSH1 0x80 DUP3 ADD SWAP1 POP PUSH2 0x6F28 PUSH1 0x0 DUP4 ADD DUP8 PUSH2 0x5786 JUMP JUMPDEST PUSH2 0x6F35 PUSH1 0x20 DUP4 ADD DUP7 PUSH2 0x4DC4 JUMP JUMPDEST PUSH2 0x6F42 PUSH1 0x40 DUP4 ADD DUP6 PUSH2 0x4DC4 JUMP JUMPDEST PUSH2 0x6F4F PUSH1 0x60 DUP4 ADD DUP5 PUSH2 0x4DC4 JUMP JUMPDEST SWAP6 SWAP5 POP POP POP POP POP JUMP JUMPDEST PUSH1 0x0 PUSH1 0x40 DUP3 ADD SWAP1 POP DUP2 DUP2 SUB PUSH1 0x0 DUP4 ADD MSTORE PUSH2 0x6F72 DUP2 DUP6 PUSH2 0x56D9 JUMP JUMPDEST SWAP1 POP DUP2 DUP2 SUB PUSH1 0x20 DUP4 ADD MSTORE PUSH2 0x6F86 DUP2 DUP5 PUSH2 0x56D9 JUMP JUMPDEST SWAP1 POP SWAP4 SWAP3 POP POP POP JUMP JUMPDEST PUSH1 0x0 PUSH2 0x6F9A DUP3 PUSH2 0x5795 JUMP JUMPDEST PUSH2 0x6FA4 DUP2 DUP6 PUSH2 0x66A0 JUMP JUMPDEST SWAP4 POP PUSH2 0x6FB4 DUP2 DUP6 PUSH1 0x20 DUP7 ADD PUSH2 0x51A8 JUMP JUMPDEST DUP1 DUP5 ADD SWAP2 POP POP SWAP3 SWAP2 POP POP JUMP JUMPDEST PUSH1 0x0 PUSH2 0x6FCC DUP3 DUP5 PUSH2 0x6F8F JUMP JUMPDEST SWAP2 POP DUP2 SWAP1 POP SWAP3 SWAP2 POP POP JUMP JUMPDEST PUSH1 0x0 DUP2 PUSH1 0x1 SHR SWAP1 POP SWAP2 SWAP1 POP JUMP JUMPDEST PUSH1 0x0 DUP1 DUP3 SWAP2 POP DUP4 SWAP1 POP JUMPDEST PUSH1 0x1 DUP6 GT ISZERO PUSH2 0x702E JUMPI DUP1 DUP7 DIV DUP2 GT ISZERO PUSH2 0x700A JUMPI PUSH2 0x7009 PUSH2 0x6CD6 JUMP JUMPDEST JUMPDEST PUSH1 0x1 DUP6 AND ISZERO PUSH2 0x7019 JUMPI DUP1 DUP3 MUL SWAP2 POP JUMPDEST DUP1 DUP2 MUL SWAP1 POP PUSH2 0x7027 DUP6 PUSH2 0x6FD7 JUMP JUMPDEST SWAP5 POP PUSH2 0x6FEE JUMP JUMPDEST SWAP5 POP SWAP5 SWAP3 POP POP POP JUMP JUMPDEST PUSH1 0x0 DUP3 PUSH2 0x7047 JUMPI PUSH1 0x1 SWAP1 POP PUSH2 0x7103 JUMP JUMPDEST DUP2 PUSH2 0x7055 JUMPI PUSH1 0x0 SWAP1 POP PUSH2 0x7103 JUMP JUMPDEST DUP2 PUSH1 0x1 DUP2 EQ PUSH2 0x706B JUMPI PUSH1 0x2 DUP2 EQ PUSH2 0x7075 JUMPI PUSH2 0x70A4 JUMP JUMPDEST PUSH1 0x1 SWAP2 POP POP PUSH2 0x7103 JUMP JUMPDEST PUSH1 0xFF DUP5 GT ISZERO PUSH2 0x7087 JUMPI PUSH2 0x7086 PUSH2 0x6CD6 JUMP JUMPDEST JUMPDEST DUP4 PUSH1 0x2 EXP SWAP2 POP DUP5 DUP3 GT ISZERO PUSH2 0x709E JUMPI PUSH2 0x709D PUSH2 0x6CD6 JUMP JUMPDEST JUMPDEST POP PUSH2 0x7103 JUMP JUMPDEST POP PUSH1 0x20 DUP4 LT PUSH2 0x133 DUP4 LT AND PUSH1 0x4E DUP5 LT PUSH1 0xB DUP5 LT AND OR ISZERO PUSH2 0x70D9 JUMPI DUP3 DUP3 EXP SWAP1 POP DUP4 DUP2 GT ISZERO PUSH2 0x70D4 JUMPI PUSH2 0x70D3 PUSH2 0x6CD6 JUMP JUMPDEST JUMPDEST PUSH2 0x7103 JUMP JUMPDEST PUSH2 0x70E6 DUP5 DUP5 DUP5 PUSH1 0x1 PUSH2 0x6FE4 JUMP JUMPDEST SWAP3 POP SWAP1 POP DUP2 DUP5 DIV DUP2 GT ISZERO PUSH2 0x70FD JUMPI PUSH2 0x70FC PUSH2 0x6CD6 JUMP JUMPDEST JUMPDEST DUP2 DUP2 MUL SWAP1 POP JUMPDEST SWAP4 SWAP3 POP POP POP JUMP JUMPDEST PUSH1 0x0 PUSH2 0x7115 DUP3 PUSH2 0x4D4E JUMP JUMPDEST SWAP2 POP PUSH2 0x7120 DUP4 PUSH2 0x4D4E JUMP JUMPDEST SWAP3 POP PUSH2 0x714D PUSH32 0xFFFFFFFFFFFFFFFFFFFFFFFFFFFFFFFFFFFFFFFFFFFFFFFFFFFFFFFFFFFFFFFF DUP5 DUP5 PUSH2 0x7037 JUMP JUMPDEST SWAP1 POP SWAP3 SWAP2 POP POP JUMP INVALID LOG2 PUSH5 0x6970667358 0x22 SLT KECCAK256 0xB9 SWAP4 BALANCE XOR 0xEC EXTCODECOPY SWAP6 DUP5 0x4F SELFDESTRUCT DUP11 0x26 0xEC 0xC2 SAR PUSH5 0x279305FD21 SWAP11 0xB4 SHR SWAP5 MOD 0x4E 0xD3 PUSH10 0x1717BC64736F6C634300 ADDMOD XOR STOP CALLER PUSH4 0x6F6E7374 KECCAK256 PUSH28 0x20657468657273207D203D20617761697420696D706F727428276E70 PUSH14 0x3A65746865727340362E31302E30 0x27 0x29 EXTCODESIZE PUSH4 0x6F6E7374 KECCAK256 BASEFEE PUSH2 0x7368 KECCAK256 RETURNDATASIZE KECCAK256 PUSH2 0x7761 PUSH10 0x7420696D706F72742827 PUSH15 0x706D3A697066732D6F6E6C792D6861 PUSH20 0x6840342E302E3027293B636F6E73742061706952 PUSH6 0x73706F6E7365 KECCAK256 RETURNDATASIZE KECCAK256 PUSH2 0x7761 PUSH10 0x742046756E6374696F6E PUSH20 0x2E6D616B654874747052657175657374287B2020 KECCAK256 KECCAK256 PUSH22 0x726C3A206068747470733A2F2F6170692E6272696467 PUSH6 0x646174616F75 PUSH21 0x7075742E636F6D2F6170692F76322F4F446174612F PUSH21 0x6573742F50726F70657274792827505F3564626131 PUSH7 0x62393461613430 CALLDATALOAD CALLDATALOAD PUSH3 0x396632 CODECOPY CALLDATASIZE CODECOPY CALLDATASIZE PUSH7 0x27293F61636365 PUSH20 0x735F746F6B656E3D366261636135343737343263 CALLDATASIZE PUSH7 0x39366136666637 BALANCE PUSH3 0x313338 CALLVALUE ORIGIN CALLVALUE PUSH7 0x3231602C7D293B PUSH4 0x6F6E7374 KECCAK256 PUSH19 0x65616C45737461746541646472657373203D20 PUSH2 0x7069 MSTORE PUSH6 0x73706F6E7365 0x2E PUSH5 0x6174612E55 PUSH15 0x706172736564416464726573733B63 PUSH16 0x6E737420796561724275696C74203D20 0x4E PUSH22 0x6D62657228617069526573706F6E73652E646174612E MSIZE PUSH6 0x61724275696C PUSH21 0x293B636F6E7374206C6F7453697A65537175617265 CHAINID PUSH6 0x6574203D204E PUSH22 0x6D62657228617069526573706F6E73652E646174612E 0x4C PUSH16 0x7453697A655371756172654665657429 EXTCODESIZE PUSH4 0x6F6E7374 KECCAK256 PUSH13 0x6976696E6741726561203D204E PUSH22 0x6D62657228617069526573706F6E73652E646174612E 0x4C PUSH10 0x76696E6741726561293B PUSH4 0x6F6E7374 KECCAK256 PUSH3 0x656472 PUSH16 0x6F6D73546F74616C203D204E756D6265 PUSH19 0x28617069526573706F6E73652E646174612E42 PUSH6 0x64726F6F6D73 SLOAD PUSH16 0x74616C293B636F6E7374206D65746164 PUSH2 0x7461 KECCAK256 RETURNDATASIZE KECCAK256 PUSH28 0x6E616D653A20605265616C2045737461746520546F6B656E602C6174 PUSH21 0x726962757465733A205B7B2074726169745F747970 PUSH6 0x3A2060726561 PUSH13 0x45737461746541646472657373 PUSH1 0x2C KECCAK256 PUSH23 0x616C75653A207265616C45737461746541646472657373 KECCAK256 PUSH30 0x2C7B2074726169745F747970653A2060796561724275696C74602C207661 PUSH13 0x75653A20796561724275696C74 KECCAK256 PUSH30 0x2C7B2074726169745F747970653A20606C6F7453697A6553717561726546 PUSH6 0x6574602C2076 PUSH2 0x6C75 PUSH6 0x3A206C6F7453 PUSH10 0x7A655371756172654665 PUSH6 0x74207D2C7B20 PUSH21 0x726169745F747970653A20606C6976696E67417265 PUSH2 0x602C KECCAK256 PUSH23 0x616C75653A206C6976696E6741726561207D2C7B207472 PUSH2 0x6974 PUSH0 PUSH21 0x7970653A2060626564726F6F6D73546F74616C602C KECCAK256 PUSH23 0x616C75653A20626564726F6F6D73546F74616C207D5D7D EXTCODESIZE PUSH4 0x6F6E7374 KECCAK256 PUSH14 0x65746164617461537472696E6720 RETURNDATASIZE KECCAK256 BLOBBASEFEE MSTORE8 0x4F 0x4E 0x2E PUSH20 0x7472696E67696679286D65746164617461293B63 PUSH16 0x6E73742069706673436964203D206177 PUSH2 0x6974 KECCAK256 BASEFEE PUSH2 0x7368 0x2E PUSH16 0x66286D65746164617461537472696E67 0x29 EXTCODESIZE PUSH19 0x657475726E2046756E6374696F6E732E656E63 PUSH16 0x6465537472696E672860697066733A2F 0x2F 0x24 PUSH28 0x697066734369647D60293B636F6E7374207B20657468657273207D20 RETURNDATASIZE KECCAK256 PUSH2 0x7761 PUSH10 0x7420696D706F72742827 PUSH15 0x706D3A65746865727340362E31302E ADDRESS 0x27 0x29 EXTCODESIZE PUSH4 0x6F6E7374 KECCAK256 PUSH2 0x6269 NUMBER PUSH16 0x646572203D206574686572732E416269 NUMBER PUSH16 0x6465722E64656661756C74416269436F PUSH5 0x657228293B PUSH4 0x6F6E7374 KECCAK256 PUSH21 0x6F6B656E4964203D20617267735B305D3B636F6E73 PUSH21 0x20617069526573706F6E7365203D20617761697420 CHAINID PUSH22 0x6E6374696F6E732E6D616B6548747470526571756573 PUSH21 0x287B2020202075726C3A206068747470733A2F2F61 PUSH17 0x692E627269646765646174616F75747075 PUSH21 0x2E636F6D2F6170692F76322F4F446174612F746573 PUSH21 0x2F50726F70657274792827505F3564626131666239 CALLVALUE PUSH2 0x6134 ADDRESS CALLDATALOAD CALLDATALOAD PUSH3 0x396632 CODECOPY CALLDATASIZE CODECOPY CALLDATASIZE PUSH7 0x27293F61636365 PUSH20 0x735F746F6B656E3D366261636135343737343263 CALLDATASIZE PUSH7 0x39366136666637 BALANCE PUSH3 0x313338 CALLVALUE ORIGIN CALLVALUE PUSH7 0x3231602C7D293B PUSH4 0x6F6E7374 KECCAK256 PUSH13 0x6973745072696365203D204E75 PUSH14 0x62657228617069526573706F6E73 PUSH6 0x2E646174612E 0x4C PUSH10 0x73745072696365293B63 PUSH16 0x6E7374206F726967696E616C4C697374 POP PUSH19 0x696365203D204E756D62657228617069526573 PUSH17 0x6F6E73652E646174612E4F726967696E61 PUSH13 0x4C6973745072696365293B636F PUSH15 0x737420746178417373657373656456 PUSH2 0x6C75 PUSH6 0x203D204E756D PUSH3 0x657228 PUSH2 0x7069 MSTORE PUSH6 0x73706F6E7365 0x2E PUSH5 0x6174612E54 PUSH2 0x7841 PUSH20 0x73657373656456616C7565293B636F6E73742065 PUSH15 0x636F646564203D20616269436F6465 PUSH19 0x2E656E636F6465285B6075696E74323536602C KECCAK256 PUSH1 0x75 PUSH10 0x6E74323536602C206075 PUSH10 0x6E74323536602C206075 PUSH10 0x6E74323536605D2C205B PUSH21 0x6F6B656E49642C206C69737450726963652C206F72 PUSH10 0x67696E616C4C69737450 PUSH19 0x6963652C20746178417373657373656456616C PUSH22 0x655D293B72657475726E206574686572732E67657442 PUSH26 0x74657328656E636F646564293B00000000000000000000000000 "
		},
		"gasEstimates": {
			"creation": {
				"codeDepositCost": "5813400",
				"executionCost": "infinite",
				"totalCost": "infinite"
			},
			"external": {
				"acceptOwnership()": "54586",
				"balanceOf(address,uint256)": "infinite",
				"balanceOfBatch(address[],uint256[])": "infinite",
				"burn(address,uint256,uint256)": "infinite",
				"burnBatch(address,uint256[],uint256[])": "infinite",
				"ccipReceive((bytes32,uint64,bytes,bytes,(address,uint256)[]))": "infinite",
				"crossChainTransferFrom(address,address,uint256,uint256,bytes,uint64,uint8)": "infinite",
				"disableChain(uint64)": "infinite",
				"enableChain(uint64,address,bytes)": "infinite",
				"exists(uint256)": "2947",
				"getNftMetadata()": "infinite",
				"getPriceDetails(uint256)": "infinite",
				"getPrices()": "infinite",
				"handleOracleFulfillment(bytes32,bytes,bytes)": "infinite",
				"isApprovedForAll(address,address)": "infinite",
				"mint(address,uint256,uint256,bytes,string)": "infinite",
				"mintBatch(address,uint256[],uint256[],bytes,string[])": "infinite",
				"owner()": "2612",
				"s_chains(uint64)": "infinite",
				"safeBatchTransferFrom(address,address,uint256[],uint256[],bytes)": "infinite",
				"safeTransferFrom(address,address,uint256,uint256,bytes)": "infinite",
				"setApprovalForAll(address,bool)": "infinite",
				"setAutomationForwarder(address)": "26983",
				"setIssuer(address)": "28144",
				"supportsInterface(bytes4)": "931",
				"totalSupply()": "2505",
				"totalSupply(uint256)": "infinite",
				"transferOwnership(address)": "30748",
				"updatePriceDetails(string,uint64,uint32,bytes32)": "infinite",
				"uri(uint256)": "infinite",
				"withdraw(address)": "infinite",
				"withdrawToken(address,address)": "infinite"
			}
		},
		"methodIdentifiers": {
			"acceptOwnership()": "79ba5097",
			"balanceOf(address,uint256)": "00fdd58e",
			"balanceOfBatch(address[],uint256[])": "4e1273f4",
			"burn(address,uint256,uint256)": "f5298aca",
			"burnBatch(address,uint256[],uint256[])": "6b20c454",
			"ccipReceive((bytes32,uint64,bytes,bytes,(address,uint256)[]))": "85572ffb",
			"crossChainTransferFrom(address,address,uint256,uint256,bytes,uint64,uint8)": "240b3b49",
			"disableChain(uint64)": "41eade46",
			"enableChain(uint64,address,bytes)": "0ce639c4",
			"exists(uint256)": "4f558e79",
			"getNftMetadata()": "e6b46ff5",
			"getPriceDetails(uint256)": "f0ed2e80",
			"getPrices()": "bd9a548b",
			"handleOracleFulfillment(bytes32,bytes,bytes)": "0ca76175",
			"isApprovedForAll(address,address)": "e985e9c5",
			"mint(address,uint256,uint256,bytes,string)": "c1341c4f",
			"mintBatch(address,uint256[],uint256[],bytes,string[])": "b942f8cb",
			"owner()": "8da5cb5b",
			"s_chains(uint64)": "5dc5ebdb",
			"safeBatchTransferFrom(address,address,uint256[],uint256[],bytes)": "2eb2c2d6",
			"safeTransferFrom(address,address,uint256,uint256,bytes)": "f242432a",
			"setApprovalForAll(address,bool)": "a22cb465",
			"setAutomationForwarder(address)": "d40d17bc",
			"setIssuer(address)": "55cc4e57",
			"supportsInterface(bytes4)": "01ffc9a7",
			"totalSupply()": "18160ddd",
			"totalSupply(uint256)": "bd85b039",
			"transferOwnership(address)": "f2fde38b",
			"updatePriceDetails(string,uint64,uint32,bytes32)": "a843a0ab",
			"uri(uint256)": "0e89341c",
			"withdraw(address)": "51cff8d9",
			"withdrawToken(address,address)": "3aeac4e1"
		}
	},
	"abi": [
		{
			"inputs": [
				{
					"internalType": "string",
					"name": "uri_",
					"type": "string"
				},
				{
					"internalType": "address",
					"name": "ccipRouterAddress",
					"type": "address"
				},
				{
					"internalType": "address",
					"name": "linkTokenAddress",
					"type": "address"
				},
				{
					"internalType": "uint64",
					"name": "currentChainSelector",
					"type": "uint64"
				},
				{
					"internalType": "address",
					"name": "functionsRouterAddress",
					"type": "address"
				}
			],
			"stateMutability": "nonpayable",
			"type": "constructor"
		},
		{
			"inputs": [
				{
					"internalType": "address",
					"name": "target",
					"type": "address"
				}
			],
			"name": "AddressEmptyCode",
			"type": "error"
		},
		{
			"inputs": [
				{
					"internalType": "address",
					"name": "account",
					"type": "address"
				}
			],
			"name": "AddressInsufficientBalance",
			"type": "error"
		},
		{
			"inputs": [
				{
					"internalType": "uint64",
					"name": "chainSelector",
					"type": "uint64"
				}
			],
			"name": "ChainNotEnabled",
			"type": "error"
		},
		{
			"inputs": [
				{
					"internalType": "address",
					"name": "msgSender",
					"type": "address"
				}
			],
			"name": "ERC1155Core_CallerIsNotIssuerOrItself",
			"type": "error"
		},
		{
			"inputs": [
				{
					"internalType": "address",
					"name": "sender",
					"type": "address"
				},
				{
					"internalType": "uint256",
					"name": "balance",
					"type": "uint256"
				},
				{
					"internalType": "uint256",
					"name": "needed",
					"type": "uint256"
				},
				{
					"internalType": "uint256",
					"name": "tokenId",
					"type": "uint256"
				}
			],
			"name": "ERC1155InsufficientBalance",
			"type": "error"
		},
		{
			"inputs": [
				{
					"internalType": "address",
					"name": "approver",
					"type": "address"
				}
			],
			"name": "ERC1155InvalidApprover",
			"type": "error"
		},
		{
			"inputs": [
				{
					"internalType": "uint256",
					"name": "idsLength",
					"type": "uint256"
				},
				{
					"internalType": "uint256",
					"name": "valuesLength",
					"type": "uint256"
				}
			],
			"name": "ERC1155InvalidArrayLength",
			"type": "error"
		},
		{
			"inputs": [
				{
					"internalType": "address",
					"name": "operator",
					"type": "address"
				}
			],
			"name": "ERC1155InvalidOperator",
			"type": "error"
		},
		{
			"inputs": [
				{
					"internalType": "address",
					"name": "receiver",
					"type": "address"
				}
			],
			"name": "ERC1155InvalidReceiver",
			"type": "error"
		},
		{
			"inputs": [
				{
					"internalType": "address",
					"name": "sender",
					"type": "address"
				}
			],
			"name": "ERC1155InvalidSender",
			"type": "error"
		},
		{
			"inputs": [
				{
					"internalType": "address",
					"name": "operator",
					"type": "address"
				},
				{
					"internalType": "address",
					"name": "owner",
					"type": "address"
				}
			],
			"name": "ERC1155MissingApprovalForAll",
			"type": "error"
		},
		{
			"inputs": [],
			"name": "EmptyArgs",
			"type": "error"
		},
		{
			"inputs": [],
			"name": "EmptySource",
			"type": "error"
		},
		{
			"inputs": [],
			"name": "FailedInnerCall",
			"type": "error"
		},
		{
			"inputs": [
				{
					"internalType": "address",
					"name": "owner",
					"type": "address"
				},
				{
					"internalType": "address",
					"name": "target",
					"type": "address"
				},
				{
					"internalType": "uint256",
					"name": "value",
					"type": "uint256"
				}
			],
			"name": "FailedToWithdrawEth",
			"type": "error"
		},
		{
			"inputs": [
				{
					"internalType": "address",
					"name": "router",
					"type": "address"
				}
			],
			"name": "InvalidRouter",
			"type": "error"
		},
		{
			"inputs": [],
			"name": "NoInlineSecrets",
			"type": "error"
		},
		{
			"inputs": [
				{
					"internalType": "uint256",
					"name": "currentBalance",
					"type": "uint256"
				},
				{
					"internalType": "uint256",
					"name": "calculatedFees",
					"type": "uint256"
				}
			],
			"name": "NotEnoughBalanceForFees",
			"type": "error"
		},
		{
			"inputs": [],
			"name": "NothingToWithdraw",
			"type": "error"
		},
		{
			"inputs": [],
			"name": "OnlyAutomationForwarderOrOwnerCanCall",
			"type": "error"
		},
		{
			"inputs": [],
			"name": "OnlyRouterCanFulfill",
			"type": "error"
		},
		{
			"inputs": [
				{
					"internalType": "uint64",
					"name": "chainSelector",
					"type": "uint64"
				}
			],
			"name": "OperationNotAllowedOnCurrentChain",
			"type": "error"
		},
		{
			"inputs": [],
			"name": "ReentrancyGuardReentrantCall",
			"type": "error"
		},
		{
			"inputs": [
				{
					"internalType": "address",
					"name": "token",
					"type": "address"
				}
			],
			"name": "SafeERC20FailedOperation",
			"type": "error"
		},
		{
			"inputs": [
				{
					"internalType": "address",
					"name": "sender",
					"type": "address"
				}
			],
			"name": "SenderNotEnabled",
			"type": "error"
		},
		{
			"anonymous": false,
			"inputs": [
				{
					"indexed": true,
					"internalType": "address",
					"name": "account",
					"type": "address"
				},
				{
					"indexed": true,
					"internalType": "address",
					"name": "operator",
					"type": "address"
				},
				{
					"indexed": false,
					"internalType": "bool",
					"name": "approved",
					"type": "bool"
				}
			],
			"name": "ApprovalForAll",
			"type": "event"
		},
		{
			"anonymous": false,
			"inputs": [
				{
					"indexed": false,
					"internalType": "uint64",
					"name": "chainSelector",
					"type": "uint64"
				}
			],
			"name": "ChainDisabled",
			"type": "event"
		},
		{
			"anonymous": false,
			"inputs": [
				{
					"indexed": false,
					"internalType": "uint64",
					"name": "chainSelector",
					"type": "uint64"
				},
				{
					"indexed": false,
					"internalType": "address",
					"name": "xNftAddress",
					"type": "address"
				},
				{
					"indexed": false,
					"internalType": "bytes",
					"name": "ccipExtraArgs",
					"type": "bytes"
				}
			],
			"name": "ChainEnabled",
			"type": "event"
		},
		{
			"anonymous": false,
			"inputs": [
				{
					"indexed": false,
					"internalType": "address",
					"name": "from",
					"type": "address"
				},
				{
					"indexed": false,
					"internalType": "address",
					"name": "to",
					"type": "address"
				},
				{
					"indexed": false,
					"internalType": "uint256",
					"name": "id",
					"type": "uint256"
				},
				{
					"indexed": false,
					"internalType": "uint256",
					"name": "amount",
					"type": "uint256"
				},
				{
					"indexed": false,
					"internalType": "bytes",
					"name": "data",
					"type": "bytes"
				},
				{
					"indexed": false,
					"internalType": "uint64",
					"name": "sourceChainSelector",
					"type": "uint64"
				},
				{
					"indexed": false,
					"internalType": "uint64",
					"name": "destinationChainSelector",
					"type": "uint64"
				}
			],
			"name": "CrossChainReceived",
			"type": "event"
		},
		{
			"anonymous": false,
			"inputs": [
				{
					"indexed": false,
					"internalType": "address",
					"name": "from",
					"type": "address"
				},
				{
					"indexed": false,
					"internalType": "address",
					"name": "to",
					"type": "address"
				},
				{
					"indexed": false,
					"internalType": "uint256",
					"name": "id",
					"type": "uint256"
				},
				{
					"indexed": false,
					"internalType": "uint256",
					"name": "amount",
					"type": "uint256"
				},
				{
					"indexed": false,
					"internalType": "bytes",
					"name": "data",
					"type": "bytes"
				},
				{
					"indexed": false,
					"internalType": "uint64",
					"name": "sourceChainSelector",
					"type": "uint64"
				},
				{
					"indexed": false,
					"internalType": "uint64",
					"name": "destinationChainSelector",
					"type": "uint64"
				}
			],
			"name": "CrossChainSent",
			"type": "event"
		},
		{
			"anonymous": false,
			"inputs": [
				{
					"indexed": true,
					"internalType": "address",
					"name": "from",
					"type": "address"
				},
				{
					"indexed": true,
					"internalType": "address",
					"name": "to",
					"type": "address"
				}
			],
			"name": "OwnershipTransferRequested",
			"type": "event"
		},
		{
			"anonymous": false,
			"inputs": [
				{
					"indexed": true,
					"internalType": "address",
					"name": "from",
					"type": "address"
				},
				{
					"indexed": true,
					"internalType": "address",
					"name": "to",
					"type": "address"
				}
			],
			"name": "OwnershipTransferred",
			"type": "event"
		},
		{
			"anonymous": false,
			"inputs": [
				{
					"indexed": true,
					"internalType": "bytes32",
					"name": "id",
					"type": "bytes32"
				}
			],
			"name": "RequestFulfilled",
			"type": "event"
		},
		{
			"anonymous": false,
			"inputs": [
				{
					"indexed": true,
					"internalType": "bytes32",
					"name": "id",
					"type": "bytes32"
				}
			],
			"name": "RequestSent",
			"type": "event"
		},
		{
			"anonymous": false,
			"inputs": [
				{
					"indexed": true,
					"internalType": "address",
					"name": "issuer",
					"type": "address"
				}
			],
			"name": "SetIssuer",
			"type": "event"
		},
		{
			"anonymous": false,
			"inputs": [
				{
					"indexed": true,
					"internalType": "address",
					"name": "operator",
					"type": "address"
				},
				{
					"indexed": true,
					"internalType": "address",
					"name": "from",
					"type": "address"
				},
				{
					"indexed": true,
					"internalType": "address",
					"name": "to",
					"type": "address"
				},
				{
					"indexed": false,
					"internalType": "uint256[]",
					"name": "ids",
					"type": "uint256[]"
				},
				{
					"indexed": false,
					"internalType": "uint256[]",
					"name": "values",
					"type": "uint256[]"
				}
			],
			"name": "TransferBatch",
			"type": "event"
		},
		{
			"anonymous": false,
			"inputs": [
				{
					"indexed": true,
					"internalType": "address",
					"name": "operator",
					"type": "address"
				},
				{
					"indexed": true,
					"internalType": "address",
					"name": "from",
					"type": "address"
				},
				{
					"indexed": true,
					"internalType": "address",
					"name": "to",
					"type": "address"
				},
				{
					"indexed": false,
					"internalType": "uint256",
					"name": "id",
					"type": "uint256"
				},
				{
					"indexed": false,
					"internalType": "uint256",
					"name": "value",
					"type": "uint256"
				}
			],
			"name": "TransferSingle",
			"type": "event"
		},
		{
			"anonymous": false,
			"inputs": [
				{
					"indexed": false,
					"internalType": "string",
					"name": "value",
					"type": "string"
				},
				{
					"indexed": true,
					"internalType": "uint256",
					"name": "id",
					"type": "uint256"
				}
			],
			"name": "URI",
			"type": "event"
		},
		{
			"inputs": [],
			"name": "acceptOwnership",
			"outputs": [],
			"stateMutability": "nonpayable",
			"type": "function"
		},
		{
			"inputs": [
				{
					"internalType": "address",
					"name": "account",
					"type": "address"
				},
				{
					"internalType": "uint256",
					"name": "id",
					"type": "uint256"
				}
			],
			"name": "balanceOf",
			"outputs": [
				{
					"internalType": "uint256",
					"name": "",
					"type": "uint256"
				}
			],
			"stateMutability": "view",
			"type": "function"
		},
		{
			"inputs": [
				{
					"internalType": "address[]",
					"name": "accounts",
					"type": "address[]"
				},
				{
					"internalType": "uint256[]",
					"name": "ids",
					"type": "uint256[]"
				}
			],
			"name": "balanceOfBatch",
			"outputs": [
				{
					"internalType": "uint256[]",
					"name": "",
					"type": "uint256[]"
				}
			],
			"stateMutability": "view",
			"type": "function"
		},
		{
			"inputs": [
				{
					"internalType": "address",
					"name": "account",
					"type": "address"
				},
				{
					"internalType": "uint256",
					"name": "id",
					"type": "uint256"
				},
				{
					"internalType": "uint256",
					"name": "amount",
					"type": "uint256"
				}
			],
			"name": "burn",
			"outputs": [],
			"stateMutability": "nonpayable",
			"type": "function"
		},
		{
			"inputs": [
				{
					"internalType": "address",
					"name": "account",
					"type": "address"
				},
				{
					"internalType": "uint256[]",
					"name": "ids",
					"type": "uint256[]"
				},
				{
					"internalType": "uint256[]",
					"name": "amounts",
					"type": "uint256[]"
				}
			],
			"name": "burnBatch",
			"outputs": [],
			"stateMutability": "nonpayable",
			"type": "function"
		},
		{
			"inputs": [
				{
					"components": [
						{
							"internalType": "bytes32",
							"name": "messageId",
							"type": "bytes32"
						},
						{
							"internalType": "uint64",
							"name": "sourceChainSelector",
							"type": "uint64"
						},
						{
							"internalType": "bytes",
							"name": "sender",
							"type": "bytes"
						},
						{
							"internalType": "bytes",
							"name": "data",
							"type": "bytes"
						},
						{
							"components": [
								{
									"internalType": "address",
									"name": "token",
									"type": "address"
								},
								{
									"internalType": "uint256",
									"name": "amount",
									"type": "uint256"
								}
							],
							"internalType": "struct Client.EVMTokenAmount[]",
							"name": "destTokenAmounts",
							"type": "tuple[]"
						}
					],
					"internalType": "struct Client.Any2EVMMessage",
					"name": "message",
					"type": "tuple"
				}
			],
			"name": "ccipReceive",
			"outputs": [],
			"stateMutability": "nonpayable",
			"type": "function"
		},
		{
			"inputs": [
				{
					"internalType": "address",
					"name": "from",
					"type": "address"
				},
				{
					"internalType": "address",
					"name": "to",
					"type": "address"
				},
				{
					"internalType": "uint256",
					"name": "id",
					"type": "uint256"
				},
				{
					"internalType": "uint256",
					"name": "amount",
					"type": "uint256"
				},
				{
					"internalType": "bytes",
					"name": "data",
					"type": "bytes"
				},
				{
					"internalType": "uint64",
					"name": "destinationChainSelector",
					"type": "uint64"
				},
				{
					"internalType": "enum CrossChainBurnAndMintERC1155.PayFeesIn",
					"name": "payFeesIn",
					"type": "uint8"
				}
			],
			"name": "crossChainTransferFrom",
			"outputs": [
				{
					"internalType": "bytes32",
					"name": "messageId",
					"type": "bytes32"
				}
			],
			"stateMutability": "nonpayable",
			"type": "function"
		},
		{
			"inputs": [
				{
					"internalType": "uint64",
					"name": "chainSelector",
					"type": "uint64"
				}
			],
			"name": "disableChain",
			"outputs": [],
			"stateMutability": "nonpayable",
			"type": "function"
		},
		{
			"inputs": [
				{
					"internalType": "uint64",
					"name": "chainSelector",
					"type": "uint64"
				},
				{
					"internalType": "address",
					"name": "xNftAddress",
					"type": "address"
				},
				{
					"internalType": "bytes",
					"name": "ccipExtraArgs",
					"type": "bytes"
				}
			],
			"name": "enableChain",
			"outputs": [],
			"stateMutability": "nonpayable",
			"type": "function"
		},
		{
			"inputs": [
				{
					"internalType": "uint256",
					"name": "id",
					"type": "uint256"
				}
			],
			"name": "exists",
			"outputs": [
				{
					"internalType": "bool",
					"name": "",
					"type": "bool"
				}
			],
			"stateMutability": "view",
			"type": "function"
		},
		{
			"inputs": [],
			"name": "getNftMetadata",
			"outputs": [
				{
					"internalType": "string",
					"name": "",
					"type": "string"
				}
			],
			"stateMutability": "view",
			"type": "function"
		},
		{
			"inputs": [
				{
					"internalType": "uint256",
					"name": "tokenId",
					"type": "uint256"
				}
			],
			"name": "getPriceDetails",
			"outputs": [
				{
					"components": [
						{
							"internalType": "uint80",
							"name": "listPrice",
							"type": "uint80"
						},
						{
							"internalType": "uint80",
							"name": "originalListPrice",
							"type": "uint80"
						},
						{
							"internalType": "uint80",
							"name": "taxAssessedValue",
							"type": "uint80"
						}
					],
					"internalType": "struct RealEstatePriceDetails.PriceDetails",
					"name": "",
					"type": "tuple"
				}
			],
			"stateMutability": "view",
			"type": "function"
		},
		{
			"inputs": [],
			"name": "getPrices",
			"outputs": [
				{
					"internalType": "string",
					"name": "",
					"type": "string"
				}
			],
			"stateMutability": "view",
			"type": "function"
		},
		{
			"inputs": [
				{
					"internalType": "bytes32",
					"name": "requestId",
					"type": "bytes32"
				},
				{
					"internalType": "bytes",
					"name": "response",
					"type": "bytes"
				},
				{
					"internalType": "bytes",
					"name": "err",
					"type": "bytes"
				}
			],
			"name": "handleOracleFulfillment",
			"outputs": [],
			"stateMutability": "nonpayable",
			"type": "function"
		},
		{
			"inputs": [
				{
					"internalType": "address",
					"name": "account",
					"type": "address"
				},
				{
					"internalType": "address",
					"name": "operator",
					"type": "address"
				}
			],
			"name": "isApprovedForAll",
			"outputs": [
				{
					"internalType": "bool",
					"name": "",
					"type": "bool"
				}
			],
			"stateMutability": "view",
			"type": "function"
		},
		{
			"inputs": [
				{
					"internalType": "address",
					"name": "_to",
					"type": "address"
				},
				{
					"internalType": "uint256",
					"name": "_id",
					"type": "uint256"
				},
				{
					"internalType": "uint256",
					"name": "_amount",
					"type": "uint256"
				},
				{
					"internalType": "bytes",
					"name": "_data",
					"type": "bytes"
				},
				{
					"internalType": "string",
					"name": "_tokenUri",
					"type": "string"
				}
			],
			"name": "mint",
			"outputs": [],
			"stateMutability": "nonpayable",
			"type": "function"
		},
		{
			"inputs": [
				{
					"internalType": "address",
					"name": "_to",
					"type": "address"
				},
				{
					"internalType": "uint256[]",
					"name": "_ids",
					"type": "uint256[]"
				},
				{
					"internalType": "uint256[]",
					"name": "_amounts",
					"type": "uint256[]"
				},
				{
					"internalType": "bytes",
					"name": "_data",
					"type": "bytes"
				},
				{
					"internalType": "string[]",
					"name": "_tokenUris",
					"type": "string[]"
				}
			],
			"name": "mintBatch",
			"outputs": [],
			"stateMutability": "nonpayable",
			"type": "function"
		},
		{
			"inputs": [],
			"name": "owner",
			"outputs": [
				{
					"internalType": "address",
					"name": "",
					"type": "address"
				}
			],
			"stateMutability": "view",
			"type": "function"
		},
		{
			"inputs": [
				{
					"internalType": "uint64",
					"name": "destChainSelector",
					"type": "uint64"
				}
			],
			"name": "s_chains",
			"outputs": [
				{
					"internalType": "address",
					"name": "xNftAddress",
					"type": "address"
				},
				{
					"internalType": "bytes",
					"name": "ccipExtraArgsBytes",
					"type": "bytes"
				}
			],
			"stateMutability": "view",
			"type": "function"
		},
		{
			"inputs": [
				{
					"internalType": "address",
					"name": "from",
					"type": "address"
				},
				{
					"internalType": "address",
					"name": "to",
					"type": "address"
				},
				{
					"internalType": "uint256[]",
					"name": "ids",
					"type": "uint256[]"
				},
				{
					"internalType": "uint256[]",
					"name": "values",
					"type": "uint256[]"
				},
				{
					"internalType": "bytes",
					"name": "data",
					"type": "bytes"
				}
			],
			"name": "safeBatchTransferFrom",
			"outputs": [],
			"stateMutability": "nonpayable",
			"type": "function"
		},
		{
			"inputs": [
				{
					"internalType": "address",
					"name": "from",
					"type": "address"
				},
				{
					"internalType": "address",
					"name": "to",
					"type": "address"
				},
				{
					"internalType": "uint256",
					"name": "id",
					"type": "uint256"
				},
				{
					"internalType": "uint256",
					"name": "value",
					"type": "uint256"
				},
				{
					"internalType": "bytes",
					"name": "data",
					"type": "bytes"
				}
			],
			"name": "safeTransferFrom",
			"outputs": [],
			"stateMutability": "nonpayable",
			"type": "function"
		},
		{
			"inputs": [
				{
					"internalType": "address",
					"name": "operator",
					"type": "address"
				},
				{
					"internalType": "bool",
					"name": "approved",
					"type": "bool"
				}
			],
			"name": "setApprovalForAll",
			"outputs": [],
			"stateMutability": "nonpayable",
			"type": "function"
		},
		{
			"inputs": [
				{
					"internalType": "address",
					"name": "automationForwarderAddress",
					"type": "address"
				}
			],
			"name": "setAutomationForwarder",
			"outputs": [],
			"stateMutability": "nonpayable",
			"type": "function"
		},
		{
			"inputs": [
				{
					"internalType": "address",
					"name": "_issuer",
					"type": "address"
				}
			],
			"name": "setIssuer",
			"outputs": [],
			"stateMutability": "nonpayable",
			"type": "function"
		},
		{
			"inputs": [
				{
					"internalType": "bytes4",
					"name": "interfaceId",
					"type": "bytes4"
				}
			],
			"name": "supportsInterface",
			"outputs": [
				{
					"internalType": "bool",
					"name": "",
					"type": "bool"
				}
			],
			"stateMutability": "view",
			"type": "function"
		},
		{
			"inputs": [],
			"name": "totalSupply",
			"outputs": [
				{
					"internalType": "uint256",
					"name": "",
					"type": "uint256"
				}
			],
			"stateMutability": "view",
			"type": "function"
		},
		{
			"inputs": [
				{
					"internalType": "uint256",
					"name": "id",
					"type": "uint256"
				}
			],
			"name": "totalSupply",
			"outputs": [
				{
					"internalType": "uint256",
					"name": "",
					"type": "uint256"
				}
			],
			"stateMutability": "view",
			"type": "function"
		},
		{
			"inputs": [
				{
					"internalType": "address",
					"name": "to",
					"type": "address"
				}
			],
			"name": "transferOwnership",
			"outputs": [],
			"stateMutability": "nonpayable",
			"type": "function"
		},
		{
			"inputs": [
				{
					"internalType": "string",
					"name": "tokenId",
					"type": "string"
				},
				{
					"internalType": "uint64",
					"name": "subscriptionId",
					"type": "uint64"
				},
				{
					"internalType": "uint32",
					"name": "gasLimit",
					"type": "uint32"
				},
				{
					"internalType": "bytes32",
					"name": "donID",
					"type": "bytes32"
				}
			],
			"name": "updatePriceDetails",
			"outputs": [
				{
					"internalType": "bytes32",
					"name": "requestId",
					"type": "bytes32"
				}
			],
			"stateMutability": "nonpayable",
			"type": "function"
		},
		{
			"inputs": [
				{
					"internalType": "uint256",
					"name": "tokenId",
					"type": "uint256"
				}
			],
			"name": "uri",
			"outputs": [
				{
					"internalType": "string",
					"name": "",
					"type": "string"
				}
			],
			"stateMutability": "view",
			"type": "function"
		},
		{
			"inputs": [
				{
					"internalType": "address",
					"name": "_beneficiary",
					"type": "address"
				}
			],
			"name": "withdraw",
			"outputs": [],
			"stateMutability": "nonpayable",
			"type": "function"
		},
		{
			"inputs": [
				{
					"internalType": "address",
					"name": "_beneficiary",
					"type": "address"
				},
				{
					"internalType": "address",
					"name": "_token",
					"type": "address"
				}
			],
			"name": "withdrawToken",
			"outputs": [],
			"stateMutability": "nonpayable",
			"type": "function"
		}
	]
}